:100000000C9457030C9474030C9474030C947403B1
:100010000C9474030C9474030C9474030C94740384
:100020000C9474030C9474030C9474030C94740374
:100030000C9474030C9474030C9474030C94740364
:100040000C9474030C9474030C9474030C94DE03EA
:100050000C947403000000000000003E4551453E32
:10006000003E6B6F6B3E001C3E7C3E1C00183C7ECD
:100070003C180030367F363000185C7E5C1800007B
:100080000000000000000000000000000000000070
:100090000000000000000030484A360E00062979B2
:1000A000290600000000000000607E0A353F002A9B
:1000B0001C361C2A00007F3E1C0800081C3E7F00E6
:1000C0000014367F361400005F005F000006097FD1
:1000D000017F00224D5559220060606060000014CD
:1000E000B6FFB6140004067F06040010307F3010FF
:1000F0000008083E1C0800081C3E08080078404024
:10010000404000083E083E0800303C3F3C300003C1
:100110000F3F0F030000000000000000065F060014
:1001200000070300070300247E247E2400242B6A9A
:100130001200006313086463003649562050000023
:100140000703000000003E4100000000413E0000A7
:1001500000083E1C3E080008083E08080000E06059
:100160000000000808080808000060600000002087
:1001700010080402003E5149453E0000427F400005
:100180000062514949460022494949360018141273
:100190007F10002F49494931003C4A49493000014C
:1001A0007109050300364949493600064949291EA7
:1001B00000006C6C00000000EC6C000000081422D1
:1001C00041000024242424240000412214080002B9
:1001D00001590906003E415D551E007E1111117E38
:1001E000007F49494936003E41414122007F41415B
:1001F000413E007F49494941007F09090901003E0C
:100200004149497A007F0808087F0000417F41008A
:1002100000304040403F007F08142241007F4040B2
:100220004040007F0204027F007F0204087F003EFE
:100230004141413E007F09090906003E4151215ECE
:10024000007F090919660026494949320001017FEA
:100250000101003F4040403F001F2040201F003F61
:10026000403C403F0063140814630007087008070F
:1002700000714945430000007F414100000204082D
:100280001020000041417F00000402010204808030
:1002900080808080000003070000002054545478C0
:1002A000007F4444443800384444442800384444DF
:1002B000447F00385454540800087E09090000188F
:1002C000A4A4A47C007F040478000000007D40000A
:1002D000004080847D00007F102844000000007FE3
:1002E0004000007C04180478007C04047800003886
:1002F0004444443800FC444444380038444444FCFA
:1003000000447844040800085454542000043E4437
:100310002400003C40207C00001C2040201C003CAD
:100320006030603C006C10106C00009CA0603C00D1
:10033000006454544C0000083E4141000000007726
:100340000000000041413E08000201020100003CA3
:100350002623263C001EA1E12112003D40207D0005
:1003600000385454550900205555557800205554EF
:100370005578002055555478002057555778001C63
:10038000A2E2221400385555550800385554550836
:100390000038555554080000017C41000000017DE3
:1003A00041000000017C4000007029242970007881
:1003B0002F252F78007C545455450034547C5458D4
:1003C000007E097F494900384545390000384544D9
:1003D0003900003945443800003C41217D00003D92
:1003E00041207C00009CA1603D00003D42423D0058
:1003F000003C41403D0080706858380400483E4948
:100400004962007E615D433F0022140814220040CF
:10041000887E09020020545555780000007D410077
:10042000003844453900003C40217D00007A090A2B
:100430007100007A1122790000085555555E004E72
:1004400051514E000030484D40203E415D4B553EDD
:1004500004040404041C0017084C6A5000170834F4
:100460002A780000307D30000008140008140014C1
:1004700008001408441144114411AA55AA55AA555C
:10048000BBEEBBEEBBEE000000FF0000080808FF5B
:10049000000000702825297000702925297000703F
:1004A000292528703E415D55413E0AFB00FF0000B2
:1004B00000FF00FF00000AFA02FE00000A0B080F0E
:1004C000000000182466240000292A7C2A29080834
:1004D00008F800000000000F08080808080F0808C6
:1004E000080808F80808000000FF080808080808BD
:1004F0000808080808FF08080020565556790070BB
:100500002A252A71000F080B0A0A00FE02FA0A0ABD
:100510000A0B080B0A0A0AFA02FA0A0A00FF00FB91
:100520000A0A0A0A0A0A0A0A0AFB00FB0A0A005D0A
:100530002222225D00225559300000087F49413EA9
:10054000007C55555544007C55545544007C555508
:1005500054440000000700000000447D45000000F6
:10056000457D45000000457C45000808080F000057
:10057000000000F80808FFFFFFFFFFFFF0F0F0F0B9
:10058000F0F00000007700000000457D44000F0FF0
:100590000F0F0F0F003C42433D0000FE4A4A34005B
:1005A000003C43433D00003D43423C000032494A89
:1005B0003100003A4546390000FC20201C0000FEB6
:1005C000AA28100000FFA5241800003C40413D006F
:1005D000003C41413D00003D41403C00009CA06189
:1005E0003D0000040871090400000202020000003E
:1005F000070300000000080808000000242E240063
:1006000000242424242405170A342A780006097FAC
:10061000017F00224D5559220008082A08080000D1
:100620000818180000060909060000000800080064
:1006300000000800000000020F00000000090F0584
:10064000000000090D0A0000003C3C3C3C0000009A
:10065000000000000006060800FF000054006C6166
:100660007374206F6E652020202020006D643A2076
:1006700020006D633A2020006D623A202000623233
:100680003A20200062313A2020006163363A20008F
:100690006163353A20006163343A20006163333A84
:1006A00020006163323A20006163313A2000112456
:1006B0001FBECFE5D8E0DEBFCDBF10E0A0E6B0E0C2
:1006C000E2EAFBE102C005900D92A836B107D9F726
:1006D00010E0A8E6B0E001C01D92AE38B107E1F726
:1006E0000E9476030C94CF0D0C940000DF93CF93FF
:1006F00000D0CDB7DEB778940E94320A84E596E048
:1007000060E00E9470060E94590B0E94C00A7A8322
:100710006983FBCF80E280B984E086BF089586B705
:100720008170089506B600FCFDCF809160000895A9
:10073000FC0106B600FCFDCF60936E0080818093C3
:100740006A0080FD0DC04E2FABE6B0E0CF01FC018A
:1007500002C080818D9331968E2F841B8617C8F33B
:100760001092680088EF8093600085EA86BF089544
:1007700006B600FCFDCF1092680088EF8093600001
:1007800085EA86BF0895AC0106B600FCFDCF8091D6
:10079000680080FF0FC020E030E00AC0FA01E20FDD
:1007A000F31FD901A659BF4F8C9180832F5F3F4F14
:1007B0002617A0F380916800817008951F920F9210
:1007C0000FB60F9211242F933F938F939F93EF9324
:1007D000FF9381B18832C9F0893240F4803199F0B9
:1007E000883199F0883009F04BC00DC0803451F148
:1007F000813420F4883309F043C040C08035B9F01B
:100800008835F1F52DC010926900909169008091B2
:100810006E00981760F590916900E92FF0E0E659B5
:10082000FF4F808183B99F5F9093690017C08091CB
:10083000690093B1E82FF0E0E659FF4F90838F5F96
:10084000809369002091690030E080916E0090E013
:1008500001972817390714F485EC16C085E814C0F1
:10086000E091690083B1F0E0E659FF4F8083809109
:10087000680081608093680084E906C085EA04C04E
:1008800081B18093600084E086BFFF91EF919F91DA
:100890008F913F912F910F900FBE0F901F90189541
:1008A00090916F00980F937090936F00892F089527
:1008B000AC01809170009A01280F311D80916F006A
:1008C0000CC0141615062CF48F5F8370245830402A
:1008D00004C0815083702C573F4F2438310588F76E
:1008E00080936F0020937000822F0895C498DD9A42
:1008F0008FB9779BFECFC49A81E090E00E945804A4
:100900000895C498DD988FB9779BFECFC49A089557
:100910000F931F93082F162F8F70806B0E948104F6
:10092000812F82958F7080610E948104812F8F704A
:100930000E9481041093700000936F001F910F912B
:1009400008951F9310916F00180F137010936F008C
:10095000CB010E945804682F812F0E9488041F91A8
:100960000895BF92CF92DF92EF92FF920F931F9361
:10097000CF93DF93082FE92FB62EE42EF22E24E03A
:10098000F22210E0842F90E0CC24DD24C81AD90A8A
:1009900018C0FE018491F11080950E947604219682
:1009A0009E01201B2E1520F480917000843888F35E
:1009B0001F5F1B1521F081E0B6010E94A1040C2FDE
:1009C000ED2F1B1548F480916F00843028F4802FA0
:1009D0009E2FFC01EF01E4CFDF91CF911F910F918A
:1009E000FF90EF90DF90CF90BF9008952F923F92AD
:1009F0004F925F926F927F928F929F92AF92BF922F
:100A0000CF92DF92EF92FF920F931F93DF93CF93DA
:100A1000CDB7DEB728970FB6F894DEBF0FBECDBFB7
:100A2000F82ED92E122F2E2D24702A83842F877012
:100A3000898381111F5F50916F00212F30E084E086
:100A400090E0851B91098217930714F414E0151B9D
:100A5000842F8695869586950E948804802E9924F9
:100A60008F2D9D2D5C0188279927881999091501DB
:100A7000280E391E18861F82612E772428E0422E08
:100A8000512CE9814E1A51088D839E834CC0F98107
:100A9000FF2339F08B819C818615970511F420E0A6
:100AA00007C0F7012491098001C0220F0A94EAF7D8
:100AB0008F819885892B69F09981992351F0F601EE
:100AC000849190E0042C02C0959587950A94E2F7F2
:100AD000282BFA81FF2319F0822F809501C0822FE5
:100AE0000E9476040F5F1F4F0894C11CD11C08940C
:100AF000E11CF11C0815190528F480917000843858
:100B000008F4C5CF8F819885019698878F838615C5
:100B1000970529F081E06D817E810E94A104A80CD7
:100B2000B91C280C391CEF81F885E615F70540F44F
:100B30006101750100E010E03196FC83EB83DACFB0
:100B400028960FB6F894DEBF0FBECDBFCF91DF91D0
:100B50001F910F91FF90EF90DF90CF90BF90AF90DB
:100B60009F908F907F906F905F904F903F902F90CD
:100B70000895DF92EF92FF920F931F93CF93DF932D
:100B8000382F42FD02C0DD2402C0DD24DA9424E0C7
:100B900080916F00281BE32E231708F4E22E24E82F
:100BA00080917000281B062F261708F4022FFF24BF
:100BB000802F90E0CC27DD27C81BD90B0BC08D2DD3
:100BC0000E9476041F5F1017D0F381E0BE010E94DF
:100BD000A104F394FE1410F410E0F5CF8E2D81954E
:100BE00060E070E00E94A104DF91CF911F910F910E
:100BF000FF90EF90DF900895EF92FF920F931F9375
:100C0000182FF62EE42E822F602F0E948804812F49
:100C10006F2D4E2D0E94B9051F910F91FF90EF90FF
:100C2000089587B3806A87BB8AB380638ABBBC9A06
:100C30008CE58DB981E08EB983EE8FB908950F935D
:100C40001F93D59AD49ABC9A0E941106DC9800EDA5
:100C500017E0C8010197F1F7DC9A80E40E94810453
:100C6000C8010197F1F781EA0E94810480EC0E949B
:100C70008104C8010197F1F786EA0E94810482EAA3
:100C80000E9481048FE20E94810480E00E9481041E
:100C900083E20E94810481E80E9481048FE10E9426
:100CA00081048CEA0E94810480E00E94810410E0AB
:100CB000812F60E00E94880400E080E00E947604BA
:100CC0000F5F0438D1F71F5F143091F780E060E0C8
:100CD0000E9488048FEA0E9481041F910F91089559
:100CE0009093730080937200609371000895FC01EB
:100CF000389625913491C9010895FC0136962591C5
:100D00003491C9010895FC013396E491E150E695D0
:100D1000E695E6958E2F8F5F0895FC0136968591B6
:100D2000949120E0892B09F021E0822F0895FC01A5
:100D3000359684913597861740F0349684916817DC
:100D400020F070E0681B710902C06FEF7FEFCB01EC
:100D50000895AC010696FC012591349121153105C9
:100D6000C9F04B5F5F4FFA018491455050408617A0
:100D700050F04C5F5F4FFA018491681720F070E0EB
:100D8000681B710902C06FEF7FEF260F371FF90153
:100D9000849108954E5F5F4FFA0184910895EF9218
:100DA000FF920F931F939C012B5F3F4FF90184919A
:100DB00025503040861768F02C5F3F4FF901449171
:100DC00024503040641728F0862F90E0841B91094E
:100DD00002C08FEF9FEFF90136964591549197FF2E
:100DE00003C040E050E04BC0082F41155105D9F435
:100DF000F9013896E590F4902D5F3F4FF901149179
:100E000023503040C9010E94A9061150169516952D
:100E100016951F5F189F102D1124109FA0011124FB
:100E20004E0D5F1D2CC0882319F460E070E00FC0E8
:100E300060E070E0CA01800F911D06C0FA014F5FAB
:100E40005F4FE4916E0F711D48175907B9F7F9010B
:100E50003896459154912D5F3F4FF901849181500F
:100E60008695869586958F5F90E09C01269FC001B0
:100E7000279F900D369F900D1124480F591FCA01CE
:100E80001F910F91FF90EF9008952F923F924F92F4
:100E90005F926F927F928F929F92AF92BF92CF920A
:100EA000DF92EF92FF920F931F93DF93CF93CDB713
:100EB000DEB72B970FB6F894DEBF0FBECDBF5C0137
:100EC000F42E332433943622062F10E0C801969571
:100ED0008795282F21702C8364FD02C0662402C0F0
:100EE00080E8682E02FD02C0772402C077247A943D
:100EF000C5016F2D0E94A906E82E83E090E0A80EA0
:100F0000B91EF501D4902DEF3FEFA20EB31EDA9477
:100F1000D694D694D694D394F5013696859194912F
:100F20002224892B11F022242394C5016F2D0E94C5
:100F3000CF069B838A83C22CCE0C0C8001C0CC0CC4
:100F40000A94EAF78D2C9924BD2C032C01C0BB0C0C
:100F50000A94EAF703FF13C08091700090E08C0DB3
:100F6000911D853891055CF080916F008B0D60E0DC
:100F70000E94880430E2F31611F4CC248EC08E2D2A
:100F800090E0889ED001899EB00D989EB00D1124EE
:100F9000BE83AD83B72DB625B983A62CA694AB2608
:100FA0001B861A86EB2CFF240894E108F1084C2CD0
:100FB0005524EE27FF27E419F509F987E8878A8485
:100FC0009B84032C02C0959487940A94E2F700E076
:100FD000FA85F170FF832DC02A813B81E20FF31F58
:100FE0008491AA85BB85AE15BF0511F0182F02C0EC
:100FF000182F1629332089F0BF81BB2311F01295D9
:101000001F70812F13FD02C010E001C010EC82FDA3
:10101000106381FD1C6080FD136071101095812F9D
:101020000E947604EC81EE2319F0812F0E94760451
:101030000D0D802F880DE82FFF27E7FDF0952D81FE
:101040003E81E217F30744F22220A9F08A859B85AE
:101050008E159F0511F0172D05C0332011F419814D
:1010600001C01A2D812F0E9476049C81992319F0CA
:10107000812F0E94760481E0688579850E94A10411
:10108000AA85BB851196BB87AA87AB1508F497CFB5
:101090008B2D8195B2010E94A1048C2D2B960FB649
:1010A000F894DEBF0FBECDBFCF91DF911F910F919E
:1010B000FF90EF90DF90CF90BF90AF909F908F9078
:1010C0007F906F905F904F903F902F900895482FA2
:1010D0008091720090917300609171000E944507A9
:1010E0000895DF92EF92FF920F931F937C01162FCA
:1010F000D42E822F602F0E948804C701612F4D2DAE
:101100000E9445071F910F91FF90EF90DF90089587
:101110000F93382F262F042F809172009091730027
:1011200060917100432F0E9471080F910895BF9242
:10113000CF92DF92EF92FF920F931F93CF93DF93A3
:101140007C01B62ED42EC22E242F352FC9018C013E
:10115000C0E0D0E009C0F80141918F01C7016B2DBB
:101160000E944507C80FD11D802F8D198C1598F34B
:10117000CE01DF91CF911F910F91FF90EF90DF9003
:10118000CF90BF900895DF92EF92FF920F931F933D
:10119000CF93DF937C01D62E8A01C0E0D0E006C059
:1011A000C7016D2D0E944507C80FD11DF80141915F
:1011B0008F014423A9F7CE01DF91CF911F910F91A9
:1011C000FF90EF90DF9008950F931F93DF93CF93DD
:1011D000CDB7DEB72A970FB6F894DEBF0FBECDBFEE
:1011E000992787FD90958E010F5F1F4FB8014AE048
:1011F00050E00E94540D80917200909173006091B4
:101200007100A8010E94C3082A960FB6F894DEBFA9
:101210000FBECDBFCF91DF911F910F9108950F9316
:101220001F93DF93CF93CDB7DEB72A970FB6F8940D
:10123000DEBF0FBECDBF8E010F5F1F4FB8014AE06A
:1012400050E00E94A90D809172009091730060910E
:101250007100A8010E94C3082A960FB6F894DEBF59
:101260000FBECDBFCF91DF911F910F9108950F93C6
:101270001F93DF93CF93CDB7DEB72A970FB6F894BD
:10128000DEBF0FBECDBF8E010F5F1F4FB8014AE01A
:1012900050E00E94540D8091720090917300609113
:1012A0007100A8010E94C3082A960FB6F894DEBF09
:1012B0000FBECDBFCF91DF911F910F9108950F9376
:1012C0001F93DF93CF93CDB7DEB72A970FB6F8946D
:1012D000DEBF0FBECDBF8E010F5F1F4FA8012AE0FA
:1012E00030E00E94750D80917200909173006091C2
:1012F0007100A8010E94C3082A960FB6F894DEBFB9
:101300000FBECDBFCF91DF911F910F910895AC011A
:101310008091720090917300609171000E94C308E7
:101320000895DF92EF92FF920F931F93CF93DF9375
:101330007C01D62E8A01C0E0D0E006C0C7016D2D29
:101340000E944507C80FD11DF8010F5F1F4F449140
:101350004423A1F7CE01DF91CF911F910F91FF9010
:10136000EF90DF900895AC0180917200909173002E
:10137000609171000E9491090895CF92DF92EF92DF
:10138000FF920F931F937C01162F6A01822F602F0B
:101390000E948804C701612FA6010E9491091F9134
:1013A0000F91FF90EF90DF90CF9008950F93FC0185
:1013B000262F042F8091720090917300609171002C
:1013C000AF010E94BD090F9108952EB528602EBD72
:1013D0002EB521602EBD9BBD8ABD089587B18F7348
:1013E00087B986B1866886B9369A3699FECF84B1B8
:1013F00095B10895982F8450843008F497B9369A9F
:101400003699FECF24B135B18CED95E0AC01249F27
:10141000C001259F900D349F900D112481509E4F47
:101420006FEF73E00E94030DCB010895982F845055
:10143000843008F497B9369A3699FECF24B135B185
:1014400084EF91E0AC01249FC001259F900D349F53
:10145000900D112481509E4F6FEF73E00E94030D99
:10146000CB0108950E941F06D79ADF98D09AD19A8F
:10147000089521B3206321BB2FB522602FBD2FB566
:101480002E7F2FBD2EB520612EBD2EB5277F2EBD00
:1014900021E732E037BD26BD2FB520682FBD2FB51F
:1014A0002F7B2FBD2EB523602EBD2EB52B6F2EBDED
:1014B0009BBD8ABD08959BBD8ABD08950F931F9360
:1014C000DF93CF9300D0CDB7DEB790916100990F35
:1014D00099838A838E010F5F1F4FC80162E00E94CB
:1014E00098038091610090916200880F991F81603C
:1014F0008983C80161E00E949803C80162E00E94EC
:10150000C303398120E08A81280F311DC9010F9062
:101510000F90CF91DF911F910F910895DF93CF939B
:1015200000D0CDB7DEB780916100880F898384EF4A
:101530008A838EE28B83CE01019663E00E9498033A
:1015400080E29EE40197F1F786EF0E945E0AA0E038
:10155000B0E08093880090938900A0938A00B093B4
:101560008B00209188003091890040918A00509131
:101570008B00B901CA010F900F90CF91DF910895B0
:10158000EF92FF920F931F93DF93CF93CDB7DEB708
:1015900060970FB6F894DEBF0FBECDBF0E948E0AD3
:1015A000609388007093890080938A0090938B00E9
:1015B000609188007091890080918A0090918B00E1
:1015C000E0907C00F0907D0020917E0030917F00C3
:1015D00000E010E06E197F09800B910B40E050E0B5
:1015E0000E94E40C5FE095958795779567955A95ED
:1015F000D1F769837A838B839C8360918600709195
:101600008700E980FA800B811C8120918200309153
:101610008300882777FD8095982F4BE0660F771F12
:10162000881F991F4A95D1F7442737FD4095542FBD
:101630002E0D3F1D401F511F0E94170DC901DA01D9
:101640008D839E83AF83B88729813A814B815C81EA
:101650008D819E81AF81B885820F931FA41FB51F16
:1016600089879A87AB87BC8789859A85AB85BC8536
:101670000896A11DB11D34E0B595A795979587955E
:101680003A95D1F78D879E87AF87B88B2D853E859C
:101690004F855889B901CA0160960FB6F894DEBF2C
:1016A0000FBECDBFCF91DF911F910F91FF90EF90B3
:1016B00008958AEA0E945E0A9093790080937800E8
:1016C00088EE93E028EC30E0F9013197F1F70197CB
:1016D000D9F78CEA0E945E0A909381008093800083
:1016E00088EE93E028EC30E0F9013197F1F70197AB
:1016F000D9F78EEA0E945E0A90938D0080938C0049
:1017000088EE93E028EC30E0F9013197F1F701978A
:10171000D9F780EB0E945E0A909385008093840045
:1017200088EE93E028EC30E0F9013197F1F701976A
:10173000D9F782EB0E945E0A90937F0080937E002F
:1017400088EE93E028EC30E0F9013197F1F701974A
:10175000D9F784EB0E945E0A90937D0080937C0011
:1017600088EE93E028EC30E0F9013197F1F701972A
:10177000D9F786EB0E945E0A90937B0080937A00F3
:1017800088EE93E028EC30E0F9013197F1F701970A
:10179000D9F788EB0E945E0A9093750080937400DD
:1017A00088EE93E028EC30E0F9013197F1F70197EA
:1017B000D9F78AEB0E945E0A9093770080937600B7
:1017C00088EE93E028EC30E0F9013197F1F70197CA
:1017D000D9F78CEB0E945E0A909387008093860075
:1017E00088EE93E028EC30E0F9013197F1F70197AA
:1017F000D9F78EEB0E945E0A90938300809382005B
:1018000008950E94590B0895CF93DF93C8ECD0E060
:1018100080E060E00E94880484E596E060E048EAA9
:1018200056E00E94910980917800909179000E9481
:10183000370981E060E00E94880484E596E060E07A
:1018400042EA56E00E9491098091800090918100C7
:101850000E94370982E060E00E94880484E596E0F7
:1018600060E04CE956E00E94910980918C009091D3
:101870008D000E94370983E060E00E94880484E5BF
:1018800096E060E046E956E00E949109809184006C
:10189000909185000E940F0980E69AEEFE01319733
:1018A000F1F70197D9F780E060E00E94880484E5B1
:1018B00096E060E040E956E00E94910980917E0048
:1018C00090917F000E940F0981E060E00E948804EF
:1018D00084E596E060E04AE856E00E949109809134
:1018E0007C0090917D000E940F0982E060E00E94E0
:1018F000880484E596E060E044E856E00E9491099F
:1019000080917A0090917B000E94370983E060E02B
:101910000E94880484E596E060E04EE756E00E946D
:10192000910980917400909175000E94370980E6BA
:101930009AEEFE013197F1F70197D9F780E060E068
:101940000E94880484E596E060E048E756E00E9443
:10195000910980917600909177000E94370981E08B
:1019600060E00E94880484E596E060E042E756E08B
:101970000E94910980918600909187000E9437090A
:1019800082E060E00E94880484E596E060E04CE636
:1019900056E00E94910980918200909183000E94FC
:1019A000370983E060E00E94880484E596E060E007
:1019B0004EE556E00E94910980E69AEEFE013197CD
:1019C000F1F70197D9F724CF629FD001739FF001FF
:1019D000829FE00DF11D649FE00DF11D929FF00DBF
:1019E000839FF00D749FF00D659FF00D9927729FF6
:1019F000B00DE11DF91F639FB00DE11DF91FBD0181
:101A0000CF0111240895AA1BBB1B51E107C0AA1FD7
:101A1000BB1FA617B70710F0A61BB70B881F991F8F
:101A20005A95A9F780959095BC01CD01089597FB33
:101A3000092E05260ED057FD04D014D00AD0001C64
:101A400038F450954095309521953F4F4F4F5F4F5B
:101A50000895F6F790958095709561957F4F8F4F1B
:101A60009F4F0895A1E21A2EAA1BBB1BFD010DC0BA
:101A7000AA1FBB1FEE1FFF1FA217B307E407F5073E
:101A800020F0A21BB30BE40BF50B661F771F881F1A
:101A9000991F1A9469F760957095809590959B01B0
:101AA000AC01BD01CF010895FB019F01E8944230D4
:101AB000C4F04532B4F44A3029F497FB1EF49095F3
:101AC00081959F4F642F77270E94030D805D8A3395
:101AD0000CF0895D8193CB010097A1F716F45DE2CC
:101AE00051931082C9010C94BF0DFA01CF93FF935B
:101AF000EF93223044F1253234F5C22FE894CA30F6
:101B000049F497FB3EF490958095709561957F4FD1
:101B10008F4F9F4F2C2F332744275527FF93EF9349
:101B20000E94320DEF91FF91605D6A330CF0695DA8
:101B30006193B901CA01605070408040904051F7F4
:101B400016F4CDE2C19310828F919F91CF910C94A6
:101B5000BF0DFB019F01423074F0453264F4642FE5
:101B600077270E94030D805D8A330CF0895D819395
:101B7000CB010097A1F71082C9010C94BF0DDC01C5
:101B8000FC01672F71917723E1F7329704C07C91B4
:101B90006D9370836291AE17BF07C8F30895F894F0
:021BA000FFCF75
:081BA200F877000305080E1A94
:00000001FF
