:100000000C946B000C9488000C9488000C9488006D
:100010000C9488000C9488000C9488000C94880040
:100020000C9488000C9488000C94530D0C94880058
:100030000C9488000C9488000C9488000C94880020
:100040000C9488000C9488000C9488000C94880010
:100050000C94880007634236B79BD8A71A396856B4
:1000600018AEBAAB558C1D3CB7CC5763BD6DEDFDDA
:10007000753EF6177231BF000000803F0800000097
:10008000BE922449123EABAAAA2ABECDCCCC4C3E8D
:1000900000000080BEABAAAAAA3E00000000BF007C
:1000A0000000803F0000000000084178D3BB438778
:1000B000D1133D190E3CC3BD4282AD2B3E68EC828C
:1000C00076BED98FE1A93E4C80EFFFBE01C4FF7F11
:1000D0003F000000000011241FBECFE5D8E0DEBFC6
:1000E000CDBF10E0A0E6B0E0E6ECF5E302C005907D
:1000F0000D92AA38B107D9F715E0AAE8B0E001C01F
:100100001D92AF3FB107E1F70E941E080C94E11A5F
:100110000C940000A298AA9A0895EF92FF920F9370
:100120001F93CF93DF93082FEB010E949A070E9441
:10013000BE078883882309F086C088E00E94CC0728
:100140008883882309F082C08EEE0E94B4070E9443
:10015000BE078883882309F07CC088E10E94CC0711
:100160008883882309F078C0802F0E94B4070E94FA
:10017000BE078883882309F072C088E20E94CC07FA
:100180008883882309F06EC00E949A070E94BE07E8
:100190008883882309F069C080E10E94CC078883A6
:1001A000882309F065C08FEE0E94B4070E94BE0745
:1001B0008883882309F05FC080E40E94CC0788838D
:1001C000882309F05BC00E94B8070E94BE0788839D
:1001D000882309F056C00E94CA07082F10E00E9429
:1001E000BE078883882309F04EC080E50E94CC07B3
:1001F0008883882309F047C00E94BB070E94BE077E
:100200008883882309F03FC00E94CA07E82EFF2494
:100210000E94BE078883882349F488E50E94CC07A2
:100220008883882319F40E949D078883102F002754
:10023000E00EF11E8E2D9F2DDF91CF911F910F911A
:10024000FF90EF90089500E010E01DC000E010E086
:100250001AC000E010E017C000E010E014C000E099
:1002600010E011C000E010E00EC000E010E00BC094
:1002700000E010E008C000E010E005C000E010E081
:1002800002C000E010E0EE24FF24D0CF0F931F93B4
:10029000CF93DF93EC010E949A070E94BE078883E8
:1002A000882399F588E00E94CC078883882369F524
:1002B0008EEE0E94B4070E94BE078883882329F52A
:1002C00088E10E94CC0788838823F9F484EF0E9498
:1002D000B4070E94BE0788838823B9F488E20E948D
:1002E000CC078883882389F48EE20E94B4070E9499
:1002F000BE078883882349F488E20E94CC0788835C
:10030000882319F40E949D0788839A9907C088E87A
:1003100093E100009A9902C00197D9F783EC99E024
:100320000197F1F700C000008881882341F486EF2F
:10033000BE010E948D008C0120E030E003C000E08F
:1003400010E09801602F712F822F932FDF91CF91B2
:100350001F910F9108950F931F93CF93DF93EC019B
:100360000E949A070E94BE078883882399F588E037
:100370000E94CC078883882369F58EEE0E94B4071B
:100380000E94BE078883882329F588E10E94CC0754
:1003900088838823F9F484EF0E94B4070E94BE0783
:1003A00088838823B9F488E20E94CC078883882355
:1003B00089F484E30E94B4070E94BE0788838823DF
:1003C00049F488E20E94CC078883882319F40E94AC
:1003D0009D0788839A9907C088E99AE300009A9953
:1003E00002C00197D9F78FE097E20197F1F700C0BB
:1003F00000008881882341F486EFBE010E948D00B1
:100400008C0120E030E003C000E010E09801602F94
:10041000712F822F932FDF91CF911F910F9108950C
:100420002F923F924F925F926F927F928F929F9204
:10043000AF92BF92CF92DF92EF92FF920F931F93F2
:10044000CF93DF93CDB7DEB760970FB6F894DEBFDA
:100450000FBECDBFFC016A013C872B878081918153
:100460009093DE058093DD05828193819093E6056C
:100470008093E505848195819093F2058093F10541
:10048000DB018D919C9111979093EA058093E9058A
:1004900012968D919C9113979093E4058093E305B8
:1004A00014968D919C9115979093E2058093E105A8
:1004B000868197819093E0058093DF058085918503
:1004C0009093DA058093D905828593859093DC0516
:1004D0008093DB05848595859093EC058093EB05EF
:1004E000868597859093E8058093E705F8018081DC
:1004F0008823C9F4C8010E944601DC01CB01809326
:10050000ED059093EE05A093EF05B093F005D801AB
:100510008C91882369F4C8010E94AB016D837E83AE
:100520008F83988709C01D821E821F82188604C08F
:100530001D821E821F8218864091ED055091EE05A6
:100540006091EF057091F0058091E1059091E205D1
:100550002091E3053091E405A0E0B0E07A018B0141
:10056000E81AF90A0A0B1B0BC801B70140E050E07A
:100570000E94521A4B015C01072E7FE0B594A794AC
:10058000979487947A95D1F7702D8091EB0590918F
:10059000EC052091E7053091E805AA2797FDA09585
:1005A000BA2FBC01CD01052E5BE0660F771F881FB7
:1005B000991F5A95D1F7502D442737FD4095542F58
:1005C000280D391D4A1D5B1D0E94A71A820E931E1D
:1005D000A41EB51ED501C4010896A11DB11D6894C5
:1005E00013F8B595A795979587951694D1F7F601C9
:1005F00080839183A283B3830F2EF0E6EF2EF0EF7A
:10060000FF2EFFEF0F2FFFEF1F2FF02D8E0C9F1CE3
:10061000A01EB11E2090D9053090DA05C501B401A5
:10062000A50194010E94521ADC01CB018C019D01AD
:100630000F2EFCE03595279517950795FA95D1F77C
:10064000F02D09831A832B833C83E090E505F0901D
:10065000E605FA86E9860091DD051091DE056091D8
:10066000F1057091F2056090DF057090E005409013
:10067000E9055090EA05882777FD8095982FA50118
:1006800094010E94521ADC01CB016C017D010B2EFA
:10069000BDE0F594E794D794C794BA95D1F7B02DFF
:1006A0009301442737FD4095542F69817A818B81CE
:1006B0009C810E94521ADC01CB01CD01BB2797FD22
:1006C000B095AB2F8C0D9D1DAE1DBF1D0296A11DBB
:1006D000B11DB595A79597958795B595A7959795CC
:1006E000879580509048AF4FBF4F920140E050E057
:1006F000BC01CD010E94521ADC01CB012C013D014D
:10070000032E3FE076946794579447943A95D1F737
:10071000302D6801EE24D7FCE094FE2C9701860171
:10072000000F111F221F331F000F111F221F331F25
:100730000D871E872F87388BB101882777FD80951D
:10074000982F29813A814B815C810E94521A6B015A
:100750007C010B2EBBE0F594E794D794C794BA952F
:10076000D1F7B02D09851A85B801882777FD8095C6
:10077000982FA50194010E94521ADC01CB01072E8B
:100780007BE0B595A795979587957A95D1F7702DCC
:10079000C80ED91EEA1EFB1E8D859E85AF85B889C1
:1007A0008C0D9D1DAE1DBF1D0296A11DB11D6C01BE
:1007B0007D01F594E794D794C794F594E794D79482
:1007C000C7946D817E818F8198856C197D098E0912
:1007D0009F0920E533EC40E050E00E94521A992333
:1007E0005CF0660F771F881F991FA30192010E947A
:1007F000851A69017A010AC0A30192010E94851A33
:1008000069017A01CC0CDD1CEE1CFF1C5527F7FC9E
:100810005A954F2D3E2D2D2DCA01B9010E94521A15
:100820002EED3BE040E050E00E94521A4C01BB2408
:1008300097FCB094AB2CC701B60123E433EE4FEF25
:100840005FEF0E94521ADC01CB01CD01BB2797FD5F
:10085000B095AB2F880D991DAA1DBB1D8153914FDB
:10086000AF4FBF4F689413F8B595A79597958795A7
:100870001694D1F7C80ED91EEA1EFB1EAB85BC85A7
:10088000CD92DD92ED92FC92139760960FB6F8949C
:10089000DEBF0FBECDBFDF91CF911F910F91FF90B3
:1008A000EF90DF90CF90BF90AF909F908F907F9010
:1008B0006F905F904F903F902F900895EF92FF922E
:1008C0000F931F93CF93DF938C017B01EA010E946A
:1008D0008A008881882309F06FC08AEABE010E94DD
:1008E0008D00F801918380838881882309F064C09A
:1008F0008CEABE010E948D00F80193838283888177
:10090000882309F059C08EEABE010E948D00F801CB
:10091000958384838881882309F04EC080EBBE01D3
:100920000E948D00F701918380838881882309F0DC
:1009300043C082EBBE010E948D00F7019383828346
:1009400088818823C9F584EBBE010E948D00F701E0
:10095000958384838881882379F586EBBE010E9484
:100960008D00F801978386838881882329F588EB99
:10097000BE010E948D00F8019187808788818823BD
:10098000D9F48AEBBE010E948D00F801938782871B
:100990008881882389F48CEBBE010E948D00F801C8
:1009A000958784878881882339F48EEBBE010E9465
:1009B0008D00F80197878687DF91CF911F910F9166
:1009C000FF90EF9008950F931F930E94C31720E8A4
:1009D00036EE45EC57E40E94281722E63BED42E450
:1009E0005EE30E94B218B62FA72F382F292F60E0A0
:1009F00070E080E89FE3422F0B2F1A2F232F342F14
:100A0000A90198010E94C31620E03AE24DE257E4A2
:100A10000E944F1820E030E040E251E40E944F185D
:100A20000E94FE180E9490171F910F910895CF9376
:100A3000DF93C62FD42F60E00E94DD07882371F07A
:100A40008C2F0E940308882349F08D2F0E940308F1
:100A5000882321F00E94FD0781E003C00E94FD076A
:100A600080E0DF91CF91089583E56DE248E00E9438
:100A7000170583E561E34BE00E941705089588E6BA
:100A80006EE347E80E94170588E66EE341E00E94A6
:100A9000170588E666E14BE10E94170588E66FE7D7
:100AA00047E00E94170588E664E143E50E941705C8
:100AB00088E668E142E30E94170588E66DE348E0B6
:100AC0000E9417050E94340588E66DE348E20E9403
:100AD000170508950F931F93CF93DF93182F062FB9
:100AE000EA0160E00E94DD07882391F0802F0E94D8
:100AF0000308882369F0812F61E00E94DD078823C5
:100B000039F00E94170888830E94FD0781E003C026
:100B10000E94FD0780E0DF91CF911F910F91089512
:100B20000F931F93CF93DF93C82FD62F142F60E01E
:100B30000E94DD07882361F18D2F0E94030888231E
:100B400039F1812F0E940308082F0E94FD0700231E
:100B5000C9F08C2F60E00E94DD07C82F882359F070
:100B60008D2F8F5F0E940308C82F882321F0812FCB
:100B70000E940308C82F0E94FD0781E0CC2319F4CE
:100B800080E001C080E0DF91CF911F910F91089527
:100B90000E94FD0780E0F7CFFF920F931F93CF9342
:100BA000DF93C82FD62F8A0160E00E94DD078823DB
:100BB000B9F08D2F0E940308882391F08C2F61E0FB
:100BC0000E94DD07882361F00E941708F82E0E941A
:100BD000FD078C2F60E00E94DD078823F9F004C038
:100BE0000E94FD0780E01DC08D2F8F5F0E940308CB
:100BF0008823A1F08C2F61E00E94DD07882371F02B
:100C00000E941708C82F0E94FD079F2D80E08C0FBF
:100C1000911DF8019183808381E003C00E94FD074C
:100C200080E0DF91CF911F910F91FF900895FF9287
:100C30000F931F93CF93DF93182F062FEA0160E0E5
:100C40000E94DD078823B9F0802F0E9403088823C3
:100C500091F0812F61E00E94DD07882361F00E94FE
:100C60001708F82E0E94FD07812F60E00E94DD0723
:100C70008823F1F004C00E94FD0780E01CC0802F93
:100C80008F5F0E940308882399F0812F61E00E9402
:100C9000DD07882369F00E941708182F0E94FD07BE
:100CA000912F80E08F0D911D9983888381E003C08F
:100CB0000E94FD0780E0DF91CF911F910F91FF907F
:100CC00008956F927F928F929F92AF92BF92CF9230
:100CD000DF92EF92FF920F931F93CF93DF93CDB7E5
:100CE000DEB72C970FB6F894DEBF0FBECDBF6C01F8
:100CF0005B014A01390188E66DE1AE014F5F5F4F4C
:100D00000E94CC0588E66FE1AE014D5F5F4F0E9407
:100D1000CC0588E661E2AE014B5F5F4F0E94CC05D7
:100D200088E663E2AE01495F5F4F0E94170688E6DE
:100D300065E2AE01475F5F4F0E94170688E667E2F3
:100D4000AE01455F5F4F0E94170689819A8120910D
:100D5000F5053091F605821B930BF6019183808394
:100D60008B819C812091F7053091F805821B930BB4
:100D7000F501918380838D819E812091F9053091C9
:100D8000FA05821B930BF401918380838F819885F0
:100D90002091F3053091F405821B930BF3019183AD
:100DA000808329853A858091FD059091FE05281B59
:100DB000390BF801318320838B859C852091FB05BD
:100DC0003091FC05821B930BF701918380832C9655
:100DD0000FB6F894DEBF0FBECDBFDF91CF911F914C
:100DE0000F91FF90EF90DF90CF90BF90AF909F90CA
:100DF0008F907F906F90089587B18F7387B986B178
:100E0000866886B9369A3699FECF84B195B1089531
:100E1000982F9450943008F487B9369A3699FECFBB
:100E200044B155B12CED35E0429FC001439F900D78
:100E3000529F900D112481509E4F6FEF73E00E94DE
:100E4000711A862F972F0895982F9450943008F494
:100E500087B9369A3699FECF44B155B124EF31E0C7
:100E6000429FC001439F900D529F900D11248150CD
:100E70009E4F6FEF73E00E94711A862F972F08958F
:100E8000089521B3206321BB2FB522602FBD2FB55C
:100E90002E7F2FBD2EB520612EBD2EB5277F2EBDF6
:100EA00021E732E037BD26BD2FB520682FBD2FB515
:100EB0002F7B2FBD2EB523602EBD2EB52B6F2EBDE3
:100EC0009BBD8ABD08959BBD8ABD08952EB528603F
:100ED0002EBD2EB521602EBD9BBD8ABD089511B8D3
:100EE000BC0180E090E00E94C1179B01AC0160E072
:100EF00070E08AE794E40E9428170E9495176031F9
:100F0000B8F070E060517040882777FD8095982F89
:100F10000E94C31720E030E040E05EE30E944F18DB
:100F2000462F572F682F792FCB01BA010E949517B2
:100F300060B9089584EA86BF089584E986BF06B63D
:100F400004FE0EC080E000008F5F06B604FE03C002
:100F50008A35C9F702C08A3528F0000084E6089572
:100F600080E0089580E0089583B984E886BF0895FD
:100F700084EC86BF089584E886BF089580E002C0AF
:100F800000008F5F06B607FEFBCF8A35C8F300006E
:100F900084E6089583B1089521B130E0287F307050
:100FA00090E02817390711F480E008958AE0089549
:100FB00011B888E080B981E0089594EA96BF06B63A
:100FC00007FEFDCF91B1987F983011F0903189F4F0
:100FD000880F680F63B984E886BF06B607FEFDCFA9
:100FE00091B1987F983139F081E0903429F080E018
:100FF000089580E0089581E0089584E986BF06B6EB
:1010000007FCFDCF089583B984E886BF06B607FEC6
:10101000FDCF91B1987F81E0983209F080E008958A
:1010200084EC86BF06B607FEFDCF83B1089584E841
:1010300086BF06B607FEFDCF83B10895CF93DF9339
:10104000CDB7DEB7A3970FB6F894DEBF0FBECDBF06
:1010500019821A821B821C821D821E821F821886A0
:101060001F8E18A219A21AA21BA28F9A81E090E0EB
:101070000E946F070E94D8078FEF90E7A2E081508F
:101080009040A040E1F700C00000CE010996BE01EB
:10109000675E7F4FAE01415E5F4F0E945E04CE01EE
:1010A0000996BE01675E7F4FAE014F5F5F4F9E01A5
:1010B0002B5F3F4F8E01015E1F4F0E9410026D811A
:1010C0007E818F8198850E94E304DC01CB0188A397
:1010D00099A3AAA3BBA38FEF90E7A2E08150904011
:1010E000A040E1F700C00000DACF0895AF92BF92B0
:1010F000CF92DF92EF92FF920F931F93CF93DF93E4
:101100006C01E62EF42E8AE190E00E94E90A8C013F
:10111000009709F462C080918A0090918B0000973B
:1011200039F510938B0000938A00CDE8D0E0CE0112
:101130000E942E0BCE0109960E942E0BCFE9D0E023
:10114000CE010E942E0B0F2EF8EAAF2EF0E0BF2E3C
:10115000F02DC5010E942E0B81EB90E00E942E0B1A
:10116000D093BB00C093BA00B092BD00A092BC0067
:10117000CE2DE110C1E0F801118E108EC68BF78ADA
:10118000C192D1927F01CF010E943C0BC8010C9605
:101190000E943C0BF80111870087138B028B84E0BF
:1011A00090E08C1B910995878487868990918C00AB
:1011B000981710F480938C0090E09C01220F331F4D
:1011C000220F331F220F331F820F931F83579F4F0E
:1011D000B7010E94400B81E001C08FEFDF91CF91FA
:1011E0001F910F91FF90EF90DF90CF90BF90AF9045
:1011F0000895CF92DF92EF92FF92CF93DF93DC01BD
:10120000CB01EA01C090BE00D090BF00E090C000CA
:10121000F090C100C80ED91EEA1EFB1E80918A0004
:1012200090918B0002960E94B30BE0918A00F0919E
:101230008B00D382C2828091BE009091BF00A091AA
:10124000C000B091C100C816D906EA06FB0650F4EA
:10125000BF016E5F7F4F8091BC009091BD000E94E6
:10126000690B09C0BF016E5F7F4F8091BA009091FA
:10127000BB000E94690B209749F060918A00709131
:101280008B00645F7F4FCE010E94690BDF91CF918D
:10129000FF90EF90DF90CF900895CF92DF92EF9282
:1012A000FF920F931F93CF93DF938091B100882318
:1012B000B9F10F2EF6EBEF2EF0E0FF2EF02D0F2EF2
:1012C000F1EBCF2EF0E0DF2EF02DF894D701ED9169
:1012D000FC91C681D781CE010C960E94B30B789405
:1012E0008E010E5F1F4FC8010E94B30B8E89909133
:1012F0008C00981710F480938C0090E09C01220FD2
:10130000331F220F331F220F331F820F931F835768
:101310009F4FB8010E94400BF60180818823A9F6F7
:101320000E944712A0E0B0E04091C2005091C3007B
:101330006091C4007091C500841B950BA60BB70B80
:101340008093C6009093C700A093C800B093C900D3
:1013500097C04091BE005091BF006091C000709155
:10136000C1004F5F5F4F6F4F7F4F4093BE00509360
:10137000BF006093C0007093C1000197A109B1093B
:101380008093C6009093C700A093C800B093C90093
:10139000411551056105710581F48091BA00909164
:1013A000BB002091BC003091BD003093BB00209366
:1013B000BA009093BD008093BC00E091BA00F09118
:1013C000BB008081882309F45BC00580F681E02D95
:1013D000C681D7814A815B8160E070E08091BE0068
:1013E0009091BF00A091C000B091C10084179507F3
:1013F000A607B707B8F444C00580F681E02DC68182
:10140000D7814A815B8160E070E08091BE0090915D
:10141000BF00A091C000B091C10084179507A60736
:10142000B70770F1F8948E010E5F1F4FC8010E943C
:10143000B30B8C899D89009721F0CE010C960E94F8
:10144000B30B78948E8990918C00981710F4809348
:101450008C0090E09C01220F331F220F331F220FBC
:10146000331F820F931F83579F4FB8010E94400B79
:10147000E091BA00F091BB008081882309F0BCCFD5
:101480008091C6009091C700A091C800B091C9009A
:101490000097A105B10509F05CCF8091BE00909145
:1014A000BF00A091C000B091C1008093C200909392
:1014B000C300A093C400B093C50020918C00822F7C
:1014C00090E0FC01EE0FFF1FEE0FFF1FEE0FFF1F5E
:1014D000E80FF91FE357FF4F30813323D9F422235C
:1014E00031F447C0222319F420938C0042C02150CC
:1014F000822F90E0FC01EE0FFF1FEE0FFF1FEE0F9B
:10150000FF1FE80FF91FE357FF4F3081332351F3DB
:1015100020938C00FC01EE0FFF1FEE0FFF1FEE0F5C
:10152000FF1F8E0F9F1FFC01E357FF4FA181B28168
:1015300012960D90BC91A02DB283A183CF0103968A
:10154000A817B90731F412968D919C911397928345
:1015500081830180F281E02DA681B781B0938B0059
:10156000A0938A00ED91FC911197CD0157966C9153
:101570000995DF91CF911F910F91FF90EF90DF9030
:10158000CF9008950F931F93CF93DF93DC011596AF
:10159000ED91FC91169706811781E8012C96CE01FA
:1015A0000E94B30B81EB90E0BE010E94400BE091E2
:1015B0008A00F0918B0081E0D80156962C915697C5
:1015C0009689291708F480E0DF91CF911F910F9140
:1015D0000895CF93DF93EC010E9441128091CA00DD
:1015E0009091CB00009731F48DEC90E09093CB007C
:1015F0008093CA0020917C0530917D05CE01820F39
:10160000931F44E08F3A940770F42817390770F459
:10161000C091CA00D091CB00C20FD31F90937D051B
:1016200080937C0505C0C0E0D0E002C0C0E0D0E0FF
:101630000E9428138C2F9D2FDF91CF91089508953C
:1016400010927D0510927C05089520917C053091C3
:101650007D058FEA94E0821B930B0895FC010396AD
:10166000928381832FEF3FEF348323839683858397
:101670009087878310820895FC0111861086089553
:10168000CF93DF93EC01FB0189819A81DC011296F3
:101690002D913C9113973383228329813A8135839D
:1016A000248312962D913C911397D90115967C9322
:1016B0006E931497DC0113967C936E9312977A8342
:1016C0006983D187C08788818F5F8883DF91CF91BD
:1016D0000895CF93DF939C01EB014881598160E02D
:1016E00070E04F3F8FEF580780E0680780E0780791
:1016F00031F4D9011796ED91FC9118971FC0F901AB
:101700003396D90115968D919C911697DC018D9198
:101710009C91A0E0B0E0481759076A077B0770F07A
:101720000280F381E02DA281B3818D919C91A0E094
:10173000B0E0481759076A077B0790F7A281B38189
:10174000BB83AA831596DC93CE931497FD83EC8319
:10175000D383C28339872887F90180818F5F808393
:10176000DF91CF910895FC01A281B381848195819D
:1017700015969C938E931497A481B5818281938151
:1017800013969C938E931297A085B18511968D9197
:101790009C9112978E179F0731F484819581129640
:1017A0009C938E931197118610868C9181508C9307
:1017B0008C91089521E1FC012083319732E230833E
:1017C000FC013297A3E3A083FC0133976083FC0103
:1017D00034977083FC0135971082FC01369760E8DE
:1017E0006083FC0137971082FC01389762E06083C8
:1017F000FC01399763E06083FC013A9764E0608301
:10180000FC013B9765E06083FC013C9766E06083E8
:10181000FC013D9767E06083FC013E9768E06083D0
:10182000FC013F9769E06083FC01709760E1608391
:10183000FC0171972083FC01729722E12083FC0157
:10184000739723E12083FC01749724E12083FC013A
:10185000759725E12083FC01769726E12083FC0122
:10186000779727E12083FC01789728E12083FC010A
:10187000799729E12083FC017A9720E22083FC01FB
:101880007B9721E22083FC017C973083FC017D97CC
:1018900023E22083FC017E974083FC017F975083E5
:1018A000FC01B09726E22083FC01B19727E2208358
:1018B000FC01B29728E22083FC01B39729E2208340
:1018C000FC01B49720E32083FC01B59721E320833A
:1018D000869708958DE78CBF8BE083BF89B78260C0
:1018E00089BFA0917E05B0917F05CD91CDBFDD91DF
:1018F000DEBFFF91EF91DF91CF91BF91AF919F91AB
:101900008F917F916F915F914F913F912F911F9197
:101910000F91FF90EF90DF90CF90BF90AF909F908E
:101920008F907F906F905F904F903F902F901F907F
:101930000F900FBE0F90089581E0089508950F92C3
:101940000FB6F8940F921F9211242F923F924F924C
:101950005F926F927F928F929F92AF92BF92CF923F
:10196000DF92EF92FF920F931F932F933F934F932A
:101970005F936F937F938F939F93AF93BF93CF9317
:10198000DF93EF93FF93A0917E05B0917F050DB695
:101990000D920EB60D920E946E14A0917E05B0912C
:1019A0007F05CD91CDBFDD91DEBFFF91EF91DF913E
:1019B000CF91BF91AF919F918F917F916F915F91E7
:1019C0004F913F912F911F910F91FF90EF90DF90DA
:1019D000CF90BF90AF909F908F907F906F905F90CF
:1019E0004F903F902F901F900F900FBE0F90089533
:1019F0000F920FB6F8940F921F9211242F923F92DC
:101A00004F925F926F927F928F929F92AF92BF920E
:101A1000CF92DF92EF92FF920F931F932F933F93FA
:101A20004F935F936F937F938F939F93AF93BF93E6
:101A3000CF93DF93EF93FF93A0917E05B0917F0545
:101A40000DB60D920EB60D920E9459120E946E14A0
:101A5000A0917E05B0917F05CD91CDBFDD91DEBF18
:101A6000FF91EF91DF91CF91BF91AF919F918F91B6
:101A70007F916F915F914F913F912F911F910F91A6
:101A8000FF90EF90DF90CF90BF90AF909F908F909E
:101A90007F906F905F904F903F902F901F900F908E
:101AA0000FBE0F9008950E94F80C1895CF93DF9306
:101AB000DC01CD91DC911197209721F15C964C913E
:101AC0005C9716962D913C911797240F311D179610
:101AD0003C932E9316971296ED91FC9113972E1727
:101AE0003F0720F01796DC93CE93169716963C91FD
:101AF000169717962C91862F972F632F722F50E0F1
:101B00000E94C21ADF91CF910895CF93DF93EC0129
:101B10002C8D2223A9F14423B9F48C819D81422F7D
:101B200050E00E94C21A2C8D8C819D81820F911DE4
:101B30009D838C832A813B818217930708F18881DA
:101B400099819D838C831CC08E819F81422F50E0A0
:101B50000E94C21A4C8D50E0509541955F4F8E8186
:101B60009F81840F951F9F838E83288139818217DF
:101B7000930730F48A819B81480F591F5F834E83FE
:101B80008A8D8F5F8A8FDF91CF9108950F931F9376
:101B9000CF93DF93EC010FB6F8940F928E8D181649
:101BA000C4F48989882329F414C08989882321F4FD
:101BB00010C08E010F5E1F4FC8010E94E8148823D9
:101BC00011F00E9475158E8D81508E8F8E8D181696
:101BD00064F38FEF8E8F0F900FBE0FB6F8940F92B5
:101BE0008D8D1816C4F48885882329F414C088853F
:101BF000882321F410C08E01085F1F4FC8010E9486
:101C0000E814882311F00E9475158D8D81508D8FF9
:101C10008D8D181664F38FEF8D8F0F900FBEDF91AF
:101C2000CF911F910F910895CF93DF93EC010FB6E1
:101C3000F8940F92488159812B8D30E0EC8DF0E0C3
:101C40002E9FC0012F9F900D3E9F900D1124840F59
:101C5000951F9B838A831A8E5D834C83C9010197EC
:101C6000E89F9001E99F300DF89F300D1124240F5B
:101C7000351F3F832E838FEF8D8F8E8F662361F408
:101C80008885882389F0CE0108960E94E814813067
:101C900059F40E949F0C08C0CE0108960E942E0B9A
:101CA000CE0141960E942E0B0F900FBE81E0DF9176
:101CB000CF9108950F931F93CF93DF93182F062F83
:101CC0008823F9F08FE190E00E94E90AEC01009787
:101CD000D9F0019FC001112401960E94E90A99835D
:101CE0008883009741F01B8F0C8FCE0161E00E942A
:101CF000140ECE010BC0CE010E941F0B80E090E0BD
:101D000005C080E090E002C080E090E0DF91CF91DC
:101D10001F910F9108958F929F92BF92CF92DF9261
:101D2000EF92FF920F931F93CF93DF93CDB7DEB760
:101D300029970FB6F894DEBF0FBECDBF7C014B01D3
:101D40002E833F8348875987B02E10E001E0CC24D2
:101D5000DD246894C3F8C80ED91E0FB6F8940F920C
:101D6000F701928D838D9817A8F4C701B4014B2D0C
:101D70000E94850DF7018189882341F0C7014196B2
:101D80000E94E814813011F40E949F0C0F900FBE46
:101D900081E056C08E819F81A885B9850097A105F5
:101DA000B10521F40F900FBE80E04AC0112329F441
:101DB000CE0101960E943015102F0F900FBE0E9489
:101DC00041120FB6F8940F92F701858D8F3F09F4F9
:101DD000158EF701868D8F3F09F4168E0F900FBE7A
:101DE000CE010196BE016A5F7F4F0E943F15882396
:101DF00009F50FB6F8940F92F701928D0F900FBE70
:101E0000F701838D981781F46E817F81C6010E944E
:101E1000CB14C7010E94C60D0E942813882309F025
:101E20009CCF0E949F0C99CFC7010E94C60D0E94B3
:101E3000281393CFC7010E94C60D0E94281380E08B
:101E400029960FB6F894DEBF0FBECDBFDF91CF91BC
:101E50001F910F91FF90EF90DF90CF90BF909F90D8
:101E60008F9008950F931F93CF93DF93EC018A0116
:101E70009A8D8B8D9817E0F4CE01422F0E94850D2C
:101E80008E8D8F3F81F489898823A1F0CE01419600
:101E90000E94E814882381F00115110579F081E092
:101EA000F80180830CC08E8D8F5F8E8F81E007C01C
:101EB00080E005C081E003C081E001C081E0DF91E6
:101EC000CF911F910F9108958F929F92BF92CF92C1
:101ED000DF92EF92FF920F931F93CF93DF93CDB7D3
:101EE000DEB729970FB6F894DEBF0FBECDBF7C01D9
:101EF0004B012E833F8348875987B02E10E001E0C5
:101F00000F2EF1E1CF2EDD24F02DC80ED91E0FB615
:101F1000F8940F92F701828D882351F10681178181
:101F2000C701B4010E94560DBB2081F4F701828DD8
:101F30008150828F80858823B9F0C70108960E945E
:101F4000E814813089F40E949F0C0EC0F7011783BA
:101F500006838189882341F0C70141960E94E814D5
:101F6000882311F00E949F0C0F900FBE81E054C097
:101F70008E819F81A885B9850097A105B10521F4BF
:101F80000F900FBE80E048C0112329F4CE010196C6
:101F90000E943015102F0F900FBE0E9441120FB6F5
:101FA000F8940F92F701858D8F3F09F4158EF70194
:101FB000868D8F3F09F4168E0F900FBECE010196CD
:101FC000BE016A5F7F4F0E943F158823F9F40FB668
:101FD000F8940F92F701828D0F900FBE882381F441
:101FE0006E817F81C6010E94CB14C7010E94C60D7D
:101FF0000E942813882309F08ACF0E949F0C87CF64
:10200000C7010E94C60D0E94281381CFC7010E94FC
:10201000C60D0E94281380E029960FB6F894DEBF03
:102020000FBECDBFDF91CF911F910F91FF90EF9029
:10203000DF90CF90BF909F908F9008950F931F9344
:10204000CF93DF93EC018A018A8D8823F1F0CE01D2
:102050000E94560D8A8D81508A8F8D8D8F3F81F41D
:1020600088858823A1F0CE0108960E94E814882371
:1020700081F00115110579F081E0F80180830CC031
:102080008D8D8F5F8D8F81E007C080E005C081E07E
:1020900003C081E001C081E0DF91CF911F910F91DA
:1020A00008950FB6F8940F92FC01828D0F900FBE29
:1020B0000895FC01828D0895CF93DF93EC01888110
:1020C00099810E941F0BCE010E941F0BDF91CF91BF
:1020D0000895FC01928D81E0911180E00895FC014A
:1020E000228D81E0938D291380E00895CF93DF93B3
:1020F000EC01E0917E05F0917F05938382838091CE
:10210000860590918705C817D90768F480918A05DC
:1021100090918B0560917E0570917F056E5F7F4F7A
:102120000E94690B17C080918C0590918D0560917C
:102130007E0570917F056E5F7F4F0E94690B8091D5
:10214000650090916600C817D90720F4D093660007
:10215000C0936500DF91CF9108954F925F926F9287
:102160007F928F929F92BF92CF92DF92EF92FF92D7
:102170000F931F93CF93DF932C014B01EA01390199
:10218000B02E88E290E00E94E90A8C01009709F4E1
:10219000E2C0C114D10409F0F3C0CE010E94E90AE3
:1021A0006C01F801908F878B009729F4C8010E9479
:1021B0001F0B8FEFD5C0C60165EA70E0AE010E942B
:1021C000CB1A9E0121503040F8018789908D6C0117
:1021D000C20ED31EC8014996B4014FE050E00E94E0
:1021E000D21AF80117A2CB2DF3E0FB1508F4C3E0D7
:1021F000F801C68B88249924689481F8800E911E7A
:10220000C4010E943C0BC8010C960E943C0BF801D3
:102210001187008784E090E08C1B91099587848763
:10222000138B028BC601B201A3010E94DA0BF801E5
:1022300091838083E114F10419F0F7011183008385
:102240000FB6F8940F92809188058F5F8093880570
:1022500080917E0590917F050097D9F510937F05B9
:1022600000937E0580918805813009F041C0C0E06F
:10227000D0E0CE01880F991F880F991F880F991FF2
:102280008C0F9D1F80579A4F0E942E0B2196C430B1
:10229000D10579F7C4EBD5E0CE010E942E0B0F2EAD
:1022A000FDEBEF2EF5E0FF2EF02DC7010E942E0B67
:1022B00086EC95E00E942E0B8FEC95E00E942E0B91
:1022C000D0938D05C0938C05F0928B05E0928A0522
:1022D0000FC080918405882359F4E0917E05F09128
:1022E0007F058689B81620F010937F0500937E0540
:1022F000F801868990918E05981710F480938E05C9
:1023000090918F059F5F90938F0590918505981709
:1023100010F48093850590E09C01220F331F220F5B
:10232000331F220F331F820F931F80579A4FB40120
:102330000E94400B0F900FBE80918405882369F0A6
:10234000E0917E05F0917F0586898B1540F40E940F
:102350009F0C81E005C08FEF03C081E001C081E0E8
:10236000DF91CF911F910F91FF90EF90DF90CF9071
:10237000BF909F908F907F906F905F904F90089547
:10238000FC01D08EC78A17CFEF92FF920F931F9355
:10239000CF93DF937C010FB6F8940F9280917E0566
:1023A00090917F05E816F90621F0E114F10441F45B
:1023B00002C0EE24FF24C0917E05D0917F0501C0AC
:1023C000E7018E010E5F1F4FC8010E94B30B8C897D
:1023D0009D89009721F0CE010C960E94B30B8FECE3
:1023E00095E0B8010E94400B809189058F5F809332
:1023F000890580918F058F5F80938F050F900FBEA9
:1024000080918405882329F0E114F10411F40E94DD
:102410009F0CDF91CF911F910F91FF90EF90089546
:10242000AF92BF92CF92DF92EF92FF920F9388EB21
:1024300093E160E670E045E550E020E030E000E048
:10244000EE24FF24CC24DD24AA24BB240E94AD105A
:10245000813049F4F8948093840510928705109296
:1024600086050E946A0C0F91FF90EF90DF90CF904D
:10247000BF90AF900895F894109284050E949E0C2E
:102480000895809183058F5F8093830508950FB62B
:10249000F8940F9280918605909187050F900FBE5A
:1024A000089580918605909187050895809188050B
:1024B00008950F931F93CF93DF9380918305882313
:1024C00009F0BCC080918605909187050196909394
:1024D00087058093860580918605909187052FEF6B
:1024E0008F3F920709F4000080918605909187053F
:1024F000009799F580918C0590918D0520918A0522
:1025000030918B0530938D0520938C0590938B052E
:1025100080938A05809180058F5F80938005E0918C
:102520008C05F0918D058081882339F48FEF9FEF22
:10253000909366008093650010C0E0918C05F09147
:102540008D050580F681E02D0680F781E02D8281E2
:102550009381909366008093650020918605309169
:10256000870580916500909166002817390708F467
:102570006AC0E0918C05F0918D058081882399F0E7
:10258000E0918C05F0918D050580F681E02DC681E6
:10259000D7818A819B8120918605309187052817F4
:1025A0003907F8F419C08FEF9FEF9093660080937E
:1025B000650049C0E0918C05F0918D050580F6819C
:1025C000E02DC681D7818A819B812091860530913B
:1025D00087052817390728F49093660080936500D3
:1025E00032C08E010E5F1F4FC8010E94B30B8C8951
:1025F0009D89009721F0CE010C960E94B30B8E8925
:1026000090918505981710F48093850590E09C01C2
:10261000220F331F220F331F220F331F820F931FEE
:1026200080579A4FB8010E94400BE0918C05F091C1
:102630008D058081882309F0BDCFB5CF80918205BB
:102640008F5F80938205DF91CF911F910F91089545
:10265000AF92BF92CF92DF92EF92FF920F931F93B0
:10266000CF93DF930FB6F8940F928091830581503A
:102670008093830580918305882309F069C0809148
:102680008805882381F567C0D601ED91FC91C6814C
:10269000D781CE010C960E94B30B8E010E5F1F4FA7
:1026A000C8010E94B30B8E8990918505981710F48C
:1026B0008093850590E09C01220F331F220F331F6A
:1026C000220F331F820F931F80579A4FB8010E9429
:1026D000400BE0917E05F0917F059E8986899817D1
:1026E00088F0BA2C0FC0BB240F2EF6ECEF2EF5E0CD
:1026F000FF2EF02D0F2EFBECCF2EF5E0DF2EF02D70
:10270000AA24A394F7018081882309F0BDCF80918A
:102710008205882381F080918205882399F00E94A8
:1027200059128091820581508093820580918205A3
:102730008823A9F707C0F1E0BF1621F08091810539
:10274000813041F4109281050E949F0C81E003C00A
:1027500080E001C080E00F900FBEDF91CF911F910C
:102760000F91FF90EF90DF90CF90BF90AF900895C2
:102770000FEC15E00F2EF4EDEF2EF5E0FF2EF02D0F
:102780000F2EF0E9CF2EF5E0DF2EF02D27C00E94AE
:102790004112D801CC910E942813CC23F9F00FB636
:1027A000F8940F92D701ED91FC91C681D781CE01AB
:1027B00002960E94B30B8091880581508093880512
:1027C000809189058150809389050F900FBE8F8974
:1027D000988D0E941F0BCE010E941F0B80918905CE
:1027E0008823A9F6F60180818230C0F30E949F0CF5
:1027F000F5CFCF93DF93EC010097B1F00E94411227
:102800008091860590918705C80FD91F80917E051C
:1028100090917F0502960E94B30BCE010E94761024
:102820000E942813882311F40E949F0CDF91CF91FE
:1028300008950F931F93CF93DF938C01EB01809149
:10284000860590918705F801208131812817390785
:1028500009F000000E944112F80180819181C80FA7
:10286000D91F20918605309187052817390768F40C
:10287000C817D90750F58091860590918705D183B7
:10288000C0838C179D07B0F40BC0C817D907C8F0D8
:1028900080918605909187058C179D0790F015C053
:1028A00080917E0590917F0502960E94B30BCE0128
:1028B0000E9476100E942813882359F40E949F0CCE
:1028C00008C0F801D183C083EBCFF801D183C08366
:1028D000F1CFDF91CF911F910F91089580918305E2
:1028E000882399F48091850590E0FC01EE0FFF1F8D
:1028F000EE0FFF1FEE0FFF1F8E0F9F1FFC01E05713
:10290000FA4F8081882329F01BC081E080938105E4
:102910000895809185058150809385058091850576
:1029200090E0FC01EE0FFF1FEE0FFF1FEE0FFF1FE9
:102930008E0F9F1FFC01E057FA4F8081882349F3D7
:102940008091850590E0FC01EE0FFF1FEE0FFF1F49
:10295000EE0FFF1FE80FF91FE057FA4FA181B28178
:1029600012960D90BC91A02DB283A183CF01039646
:10297000A817B90731F412968D919C911397928301
:1029800081830180F281E02D8681978190937F057C
:1029900080937E050895CF93DF93EB0160917E05D0
:1029A00070917F05645F7F4F0E94690B80917E0567
:1029B00090917F0502960E94B30B809186059091BD
:1029C00087058C0F9D1F0E947610DF91CF9108958F
:1029D0000F931F93CF93DF93DC011596ED91FC913C
:1029E000169706811781E8012C96CE010E94B30B41
:1029F000809183058823E9F4E8012296CE010E94A4
:102A0000B30BF801868990918505981710F480938F
:102A1000850590E09C01220F331F220F331F220FE8
:102A2000331F820F931F80579A4FBE010E94400BA5
:102A300005C086EC95E0BE010E94400BE0917E054A
:102A4000F0917F0581E0D80156962C915697968992
:102A5000291708F480E0DF91CF911F910F9108951D
:102A6000FC01809180058083409186055091870507
:102A700060E070E041835283638374830895FC01B6
:102A80000FB6F8940F92809180059081981749F0C5
:102A90008091860590918705218132818217930765
:102AA000F0F4809186059091870521813281DB01C8
:102AB0004D915C911197821B930B8417950788F4B5
:102AC0008091860590918705281B390B240F351FAF
:102AD0002D933C93CF010E94301580E003C081E02C
:102AE00001C081E00F900FBE089581E080938105C1
:102AF0000895CF93DF9300D000D0CDB7DEB70E940A
:102B00004712A0E0B0E089839A83AB83BC83CE01F7
:102B1000019664EF71E00E941914F9CFAF92BF9251
:102B2000CF92DF92EF92FF920F93CF93DF93082F14
:102B3000EB010E94FC0684B3806C84BB85B3806C7F
:102B400085BB82E090E00E94E90A9C01888199811E
:102B5000F9019183808389E795E167E670E045E5B7
:102B600050E0EE24FF24CC24DD24AA24BB240E94C0
:102B7000AD10DF91CF910F91FF90EF90DF90CF904C
:102B8000BF90AF90089581E00895CF93DF9300D078
:102B900000D0CDB7DEB70E944712A0E0B0E0898335
:102BA0009A83AB83BC83CE01019664E670E00E94F9
:102BB0001914F9CFAF92BF92CF92DF92EF92FF92AA
:102BC0000F93CF93DF93082FEB0187B3836087BB0D
:102BD00082E090E00E94E90A9C0188819981F901D4
:102BE0009183808385EC95E160E770E045E550E0F6
:102BF000EE24FF24CC24DD24AA24BB240E94AD10A3
:102C0000DF91CF910F91FF90EF90DF90CF90BF9029
:102C1000AF90089581E00895CF93DF9300D000D066
:102C2000CDB7DEB70E944712A0E0B0E089839A8357
:102C3000AB83BC8300E010E0FF24F3940F2EF4EF8D
:102C4000CF2EF1E0DF2EF02DAA24BB2401C0850198
:102C5000CE01019664E670E00E9419140E5C1F4FCD
:102C60000E94C315813011F0F092D8050E94C11660
:102C7000813011F0F092D8050E940A16813091053A
:102C800011F0F092D805C801B6010E94711A0097A0
:102C900019F48BB380588BBB8DEF093E1807B8F63B
:102CA000D7CFAF92BF92CF92DF92EF92FF920F9366
:102CB000CF93DF93082FEB01D79A82E090E00E9438
:102CC000E90A9C0188819981F901918380838CE0D4
:102CD00096E168E770E045E550E0EE24FF24CC245F
:102CE000DD24AA24BB240E94AD10DF91CF910F9167
:102CF000FF90EF90DF90CF90BF90AF900895CF936B
:102D0000DF9300D000D0CDB7DEB70E944712A0E01D
:102D1000B0E089839A83AB83BC83CE0101966FE0D8
:102D200070E00E941914F9CFAF92BF92CF92DF9258
:102D3000EF92FF920F93CF93DF93082FEB0182E086
:102D400090E00E94E90A9C0188819981F9019183B0
:102D500080838FE796E163E870E045E550E0EE247C
:102D6000FF24CC24DD24AA24BB240E94AD10DF91D3
:102D7000CF910F91FF90EF90DF90CF90BF90AF90E9
:102D8000089581E008955058BB27AA270ED04DC161
:102D90003ED130F043D120F031F49F3F11F41EF4C6
:102DA00033C10EF4E095E7FB29C1E92F4FD180F341
:102DB000BA17620773078407950718F071F49EF538
:102DC00067C10EF4E0950B2EBA2FA02D0B01B901AF
:102DD00090010C01CA01A0011124FF27591B99F091
:102DE000593F50F4503E68F11A16F040A22F232F9D
:102DF000342F4427585FF3CF469537952795A795ED
:102E0000F0405395C9F77EF41F16BA0B620B730B93
:102E1000840BBAF09150A1F0FF0FBB1F661F771F04
:102E2000881FC2F70EC0BA0F621F731F841F48F4B9
:102E3000879577956795B795F7959E3F08F0B3CF3F
:102E40009395880F08F09927EE0F97958795089529
:102E50000CD0EBC0E3D040F0DAD030F021F45F3F8B
:102E600019F0CCC0511115C1CFC0F0D098F39923FF
:102E7000C9F35523B1F3951B550BBB27AA2762173E
:102E80007307840738F09F5F5F4F220F331F441F83
:102E9000AA1FA9F333D00E2E3AF0E0E830D09150BB
:102EA0005040E695001CCAF729D0FE2F27D0660FA8
:102EB000771F881FBB1F261737074807AB07B0E8E7
:102EC00009F0BB0B802DBF01FF2793585F4F2AF0FD
:102ED0009E3F510568F092C0DCC05F3FECF3983E26
:102EE000DCF3869577956795B795F7959F5FC9F75A
:102EF000880F911D9695879597F90895E1E0660FE3
:102F0000771F881FBB1F621773078407BA0720F05B
:102F1000621B730B840BBA0BEE1F88F7E0950895C4
:102F200004D06894B111B5C0089598D088F09F5727
:102F300090F0B92F9927B751A0F0D1F0660F771F05
:102F4000881F991F1AF0BA95C9F712C0B13081F0E5
:102F50009FD0B1E008959CC0672F782F8827B85F75
:102F600039F0B93FCCF3869577956795B395D9F746
:102F70003EF490958095709561957F4F8F4F9F4F50
:102F80000895E89409C097FB3EF49095809570955C
:102F900061957F4F8F4F9F4F9923A9F0F92F96E9A5
:102FA000BB279395F695879577956795B795F1111A
:102FB000F8CFFAF4BB0F11F460FF1BC06F5F7F4FB7
:102FC0008F4F9F4F16C0882311F096E911C07723C9
:102FD00021F09EE8872F762F05C0662371F096E8D2
:102FE000862F70E060E02AF09A95660F771F881FA1
:102FF000DAF7880F9695879597F9089597F99F675F
:1030000080E870E060E008959FEF80EC0895002470
:103010000A941616170618060906089500240A943D
:1030200012161306140605060895092E0394000CC3
:1030300011F4882352F0BB0F40F4BF2B11F460FF52
:1030400004C06F5F7F4F8F4F9F4F089557FD90587B
:10305000440F551F59F05F3F71F04795880F97FB5C
:10306000991F61F09F3F79F0879508951216130616
:103070001406551FF2CF4695F1DF08C01616170645
:103080001806991FF1CF869571056105089408957A
:10309000E894BB2766277727CB0197F908950BD0D3
:1030A000C4CFB5DF28F0BADF18F0952309F0A6CF1A
:1030B000ABCF1124EECFCADFA0F3959FD1F3950FCC
:1030C00050E0551F629FF001729FBB27F00DB11DAC
:1030D000639FAA27F00DB11DAA1F649F6627B00D3C
:1030E000A11D661F829F2227B00DA11D621F739F25
:1030F000B00DA11D621F839FA00D611D221F749F33
:103100003327A00D611D231F849F600D211D822F79
:10311000762F6A2F11249F5750408AF0E1F08823C0
:103120004AF0EE0FFF1FBB1F661F771F881F9150CD
:103130005040A9F79E3F510570F060CFAACF5F3F86
:10314000ECF3983EDCF3869577956795B795F79500
:10315000E7959F5FC1F7FE2B880F911D9695879588
:1031600097F90895FA01EE0FFF1F309621053105FA
:1031700099F16115710561F48038BFE39B0749F14E
:1031800068949038810561F08038BFEF9B0741F06B
:10319000992342F5FF3FE1053105210511F1E8943E
:1031A0000894E795D901AA2329F4AB2FBE2FF85F25
:1031B000D0F310C0FF5F70F4A695E0F7F73950F038
:1031C00019F0FF3A38F49F779F930CD00F9007FCCB
:1031D000905808953EF018CF60E070E080E89FE3DB
:1031E00008954FE79F775F934F933F932F93E7D0D7
:1031F0002F913F914F915F9152DF25C02FDFE0F07B
:103200009E37D8F09639B8F49E3848F4672F782F57
:103210008827985FF9CF8695779567959395953927
:10322000D0F3B62FB1706B0F711D811D20F48795FF
:1032300077956795939533C04DC02BCF19F40EF059
:10324000DDCE26CFE1CE0ADFC8F39638C0F707F807
:103250000F92E8942BE33AEA48EB5FE72EDF0F92F8
:103260000F920F924DB75EB70F92E9D0E4E5F0E010
:103270003FD04F915F91EF91FF91E595EE1FFF1FBA
:1032800049F0FE57E0684427EE0F441FFA95E1F736
:103290004195550B5BD00F9007FE4FC008958823D2
:1032A00071F4772321F09850872B762F07C066237F
:1032B00011F499270DC09051862B70E060E02AF040
:1032C0009A95660F771F881FDAF7880F969587956E
:1032D00097F908959F3F31F0915020F487957795A5
:1032E0006795B795880F911D9695879597F90895DD
:1032F000DF93CF931F930F93FF92EF92DF927B01A7
:103300008C01689405C0DA2EEF01D5DEFE01E89449
:10331000A5912591359145915591AEF3EF0145DD8C
:10332000FE019701A801DA9479F7DF90EF90FF9002
:103330000F911F91CF91DF9108959B01AC0160E047
:1033400070E080E89FE384CD59CEC4CF87DEE8F3F8
:103350009923D9F3940F511DBBF39150504094F031
:1033600059F0882332F0660F771F881F9150504024
:10337000C1F79E3F510544F7880F911D969587959B
:1033800097F908955F3FACF0983E9CF0BB27869577
:1033900077956795B79508F4B1609395C1F7BB0F22
:1033A00058F711F460FFE8CF6F5F7F4F8F4F9F4F4B
:1033B000E3CF6FCE0EF08ECF27CE68941FCE4EDEB9
:1033C000C8F39923D1F3C6F3DF93CF931F930F93E1
:1033D000FF92C92FDD2788232AF02197660F771FD8
:1033E000881FDAF720E030E040E85FEB9FE38839A0
:1033F00020F0803E30F021968F77C6DCECE7F0E0DD
:1034000003C0C2DCE9EAF0E073DF8B01BE01EC012E
:10341000FB2E6F5771097595771F880B990BB3DDDC
:1034200028E132E741E35FE346DEAF2D9801AE01CC
:10343000FF900F911F91CF91DF91B7DCF6CDFA018C
:10344000DC01AA0FBB1F9B01AC01BF5728F4222748
:103450003327442750781FC0B75188F4AB2F00247E
:10346000469537952795011CA395D2F3002069F066
:10347000220F331F441FB395DAF30DD084CC613093
:103480007105A0E88A07B94630F49B01AC016627B4
:10349000772788279078309621F0208331834283E4
:1034A00053830895629FD001739FF001829FE00DC6
:1034B000F11D649FE00DF11D929FF00D839FF00DB3
:1034C000749FF00D659FF00D9927729FB00DE11D5F
:1034D000F91F639FB00DE11DF91FBD01CF0111243C
:1034E0000895AA1BBB1B51E107C0AA1FBB1FA6174B
:1034F000B70710F0A61BB70B881F991F5A95A9F79D
:1035000080959095BC01CD010895A1E21A2EAA1BC9
:10351000BB1BFD010DC0AA1FBB1FEE1FFF1FA21783
:10352000B307E407F50720F0A21BB30BE40BF50B80
:10353000661F771F881F991F1A9469F76095709509
:10354000809590959B01AC01BD01CF01089597FB3B
:10355000092E05260ED057FD04D0D7DF0AD0001C57
:1035600038F450954095309521953F4F4F4F5F4F20
:103570000895F6F790958095709561957F4F8F4FE0
:103580009F4F0895FB01DC0102C001900D92415054
:103590005040D8F70895DC0101C06D934150504070
:1035A000E0F70895FB01DC014150504048F00190E4
:1035B0000D920020C9F701C01D9241505040E0F724
:0635C0000895F894FFCF0E
:1035C60049444C4500FFFF636F6D6D5461736B009A
:1035D6004E61765461736B0053656E736F725461FE
:0A35E600736B006F705461736B008B
:00000001FF
