:100000000C945F000C947C000C947C000C947C009D
:100010000C947C000C947C000C947C000C947C0070
:100020000C947C000C9466010C947C000C947E0073
:100030000C947C000C947C000C947C000C947C0050
:100040000C947C000C947C000C947C000C948A1B17
:100050000C947C00036EDB363D9A9999993DABAACE
:10006000AA2A3E000000803F084AD73B3BCE016EE3
:1000700084BCBFFDC12F3D6C74319ABD56833DDAFF
:100080003D00C77F11BED9E4BB4C3E916BAAAABE0E
:10009000000000803F072C7AA5BA6CC590DA3B932C
:1000A00065FC8BBC53F810FD3C5692834DBD879D7B
:1000B0003AB63DCBC9BF5BBE73DA0FC93F0011240E
:1000C0001FBECFE5D8E0DEBFCDBF11E0A0E6B0E0B7
:1000D000E4ECF4E702C005900D92AA3DB107D9F710
:1000E00014E0AAEDB1E001C01D92A137B107E1F71C
:1000F0000E945B040C94603A0C9400001F920F92D3
:100100000FB60F9211242F933F934F935F936F93EA
:100110007F938F939F93AF93BF932091DE01309194
:10012000DF014091E0015091E1017091E501DA01B8
:10013000C9010296A11DB11D672F6A5F6D3730F0AE
:100140006D57DA01C9010396A11DB11D6093E50148
:100150008093DE019093DF01A093E001B093E10171
:100160008091DA019091DB01A091DC01B091DD0179
:100170000196A11DB11D8093DA019093DB01A0933C
:10018000DC01B093DD01BF91AF919F918F917F9181
:100190006F915F914F913F912F910F900FBE0F90F4
:1001A0001F901895AF92BF92CF92DF92EF92FF927D
:1001B0000F931F93A090DA01B090DB01C090DC0197
:1001C000D090DD0182B7DC2CCB2CBA2CAA24A80E4F
:1001D000B11CC11CD11C86E0AA0CBB1CCC1CDD1CB4
:1001E0008A95D1F79501A60160E070E080E090E08B
:1001F0001F910F91FF90EF90DF90CF90BF90AF9045
:1002000008958CB59DB52091E3013091E40140E063
:1002100050E0A90133272227A0E0B0E0280F391FC2
:100220004A1F5B1F76E0220F331F441F551F7A952C
:10023000D1F763E056954795379527956A95D1F79D
:10024000B901CA0108952CB53DB56091E3017091E3
:10025000E40180E090E0CB017727662740E050E0A2
:10026000620F731F841F951FF6E0660F771F881FAC
:10027000991FFA95D1F720E43FE140E050E00E9459
:10028000A738CA01B9010895AF92BF92CF92DF9209
:10029000EF92FF920F931F935B016C010E94230169
:1002A0007B018C010E9423016E197F09800B910B49
:1002B000A616B706C806D906A8F71F910F91FF909A
:1002C000EF90DF90CF90BF90AF9008951F920F9264
:1002D0000FB60F9211248F939F9387B38FEF87BB35
:1002E0008091E20188BB80958093E2018091E301D7
:1002F0009091E40101969093E4018093E3019F9132
:100300008F910F900FBE0F901F9018958EB5826041
:100310008EBD8EB581608EBD89B7846089BF08951A
:1003200078940E9486018FB582608FBD8FB5816001
:100330008FBD0895DF93CF9300D0CDB7DEB789830B
:100340006A838FE0BE016F5F7F4F42E021E00E9431
:100350000B1B90E00F900F90CF91DF910895DF93EA
:10036000CF9300D0CDB7DEB789836A8388E6BE011C
:100370006F5F7F4F42E021E00E940B1B90E00F90E7
:100380000F90CF91DF910895DF93CF9300D0CDB739
:10039000DEB795E199838A8388E6BE016F5F7F4F60
:1003A00042E021E00E940B1B90E00F900F90CF9154
:1003B000DF910895DF93CF9300D0CDB7DEB7809360
:1003C000E60192E199838A8388E6BE016F5F7F4FE1
:1003D00042E021E00E940B1B90E00F900F90CF9124
:1003E000DF910895FF920F931F93DF93CF930F92A6
:1003F000CDB7DEB789838B01F42E88E6BE016F5F2F
:100400007F4F41E021E00E940B1B882319F02FEF62
:100410003FEF07C088E6B8014F2D0E94D41A282F5D
:1004200030E0C9010F90CF91DF911F910F91FF90A4
:100430000895DF93CF9300D00F92CDB7DEB78B83B3
:1004400088E6BE016D5F7F4F41E021E00E940B1BFB
:10045000882319F02FEF3FEF0DC088E6BE016F5FD4
:100460007F4F42E00E94D41A998180E02A8130E0D7
:10047000282B392BC9010F900F900F90CF91DF914E
:1004800008950F931F938C018BE10E941902F801CC
:10049000958784878DE10E941902F80191838083FA
:1004A0008FE10E941902F8019383828381E20E9406
:1004B0001902F8019583848383E20E941902F801EE
:1004C0009387828785E20E941902F80193878287C9
:1004D00087E20E941902F8019387828780E090E00A
:1004E0001F910F9108958CE30E94190208958AE3E9
:1004F0000E9419020895DF93CF9300D0CDB7DEB7E5
:100500008A8388E6BE016E5F7F4F41E021E00E9452
:100510000B1B882311F08FEF08C088E6BE016F5FC8
:100520007F4F41E00E94D41A89810F900F90CF91A4
:10053000DF9108951F93DF93CF9300D0CDB7DEB73F
:10054000182F8DE30E947B02112319F0982F9062DF
:1005500002C0982F9F7D8DE3898398609A8388E6F7
:10056000BE016F5F7F4F42E021E00E940B1B80E0E5
:1005700090E00F900F90CF91DF911F91089581E04F
:100580000E949A02089580E00E949A0208951F93A3
:10059000DF93CF9300D0CDB7DEB7182F86E10E944E
:1005A0007B0296E19983877C110F110F110F812B2C
:1005B0008A8388E6BE016F5F7F4F42E021E00E94A0
:1005C0000B1B90E00F900F90CF91DF911F9108953A
:1005D0001F93DF93CF9300D0CDB7DEB7182F86E1FE
:1005E0000E947B0296E19983887F812B8A8388E62B
:1005F000BE016F5F7F4F42E021E00E940B1B90E045
:100600000F900F90CF91DF911F91089503C08CE35D
:100610000E947B020E94770218161906C4F380E03C
:1006200090E00895AF92BF92DF92EF92FF920F9306
:100630001F93CF93DF935C018B010E9477027C01B3
:10064000C8010296880F991FE816F9061CF40FEFEF
:100650001FEF31C0C0E0D0E010C08CE30E947B02ED
:100660001C161D062CF49CE0D91611F48A3241F0B8
:100670000894E108F1082196D82ECE15DF056CF319
:10068000C8010196880F991FE816F9061CF40EEFB1
:100690001FEF11C07801EE0CFF1CC0E0D0E008C0D5
:1006A0008CE30E947B02F501EC0FFD1F80832196F5
:1006B000CE15DF05ACF3C801DF91CF911F910F91EB
:1006C000FF90EF90DF90BF90AF9008950F931F932E
:1006D000DF93CF93CDB7DEB760970FB6F894DEBF48
:1006E0000FBECDBF8C019091E60160E004C0892F60
:1006F0008170680F96959923D1F770E06150704032
:10070000CE0101960E941203BC0197FD7AC0409170
:10071000E60147FD03C0A0E0B0E00BC0998180E096
:100720002A8130E0822B932BF80195878487A2E001
:10073000B0E046FF10C0FE01EA0FFB1F228130E04F
:10074000FE01EA0FFB1F918180E0282B392BF80175
:1007500031832083129645FF10C0FE01EA0FFB1F74
:10076000228130E0FE01EA0FFB1F918180E0282BFF
:10077000392BF80133832283129644FF10C0FE0107
:10078000EA0FFB1F228130E0FE01EA0FFB1F91817F
:1007900080E0282B392BF80135832483129643FF00
:1007A00010C0FE01EA0FFB1F328120E0FE01EA0FBC
:1007B000FB1F818190E0282B392BF801378326839A
:1007C000129642FF10C0FE01EA0FFB1F328120E0AB
:1007D000FE01EA0FFB1F818190E0282B392BF801E5
:1007E00031872087129641FF0CC0FE01EA0FFB1FE4
:1007F000328120E0818190E0282B392BF80133876A
:100800002287CB0160960FB6F894DEBF0FBECDBF36
:10081000CF91DF911F910F9108950E94C3028DE146
:100820006DEC0E949A016AE070E080E090E00E9426
:1008300044018BE162E40E949A018BE162EC0E9428
:100840009A0162E370E080E090E00E9444018EE152
:1008500064E10E949A018AE560E00E949A0181E2C7
:1008600066E00E949A0189E262E00E949A010E9479
:10087000BF0208958EE360E80E94AF0184E16FE05B
:100880000E94AF0188E166E80E94AF010E940D045A
:1008900083E00E94C70286E00E94E80283E10E9492
:1008A000C4018FEF0E94DA018DE36BE60E94AF0175
:1008B0000E94060308950F931F93DF93CF93CDB744
:1008C000DEB72E970FB6F894DEBF0FBECDBF0E94E5
:1008D00090010E94F91C8FEF87BB88BB0E943A04ED
:1008E0000E9484040E9423018E010F5F1F4F0E940B
:1008F00077020397E4F3C8010E94660318161906ED
:10090000B4F70E942301F3CF80E090E0A0E8BFE3BA
:100910008093600090936100A0936200B0936300A5
:1009200080E090E0A0E0B0E08093E7019093E801E0
:10093000A093E901B093EA018093EF019093F00155
:10094000A093F101B093F2018093EB019093EC013D
:10095000A093ED01B093EE018093F3019093F40125
:10096000A093F501B093F6018093F7019093F801FD
:10097000A093F901B093FA018093FB019093FC01DD
:10098000A093FD01B093FE0108952F923F924F92E4
:100990005F926F927F928F929F92AF92BF92CF920F
:1009A000DF92EF92FF920F931F93DF93CF9300D0CC
:1009B00000D0CDB7DEB7609060007090610080908D
:1009C0006200909063002090E7013090E801409031
:1009D000E9015090EA01E090EB01F090EC01009108
:1009E000ED011091EE018091EF019091F001A09145
:1009F000F101B091F20189839A83AB83BC83C40176
:100A0000B301A20191010E94B8375B016C01C801DA
:100A1000B70129813A814B815C810E94B8379B01E3
:100A2000AC01C601B5010E9434359B01AC010E94A6
:100A300034355B016C01C801B701A80197010E9420
:100A4000B8377B018C01C401B301A40193010E945A
:100A5000B8379B01AC01C801B7010E9434357B0156
:100A60008C01C201B101A20191010E94B8379B0122
:100A7000AC01C801B7010E9433357B018C0169814B
:100A80007A818B819C819B01AC010E94B8379B01CC
:100A9000AC01C801B7010E9433359B01AC01C6010E
:100AA000B5010E94BE350F900F900F900F90CF911F
:100AB000DF911F910F91FF90EF90DF90CF90BF904B
:100AC000AF909F908F907F906F905F904F903F90EE
:100AD0002F9008952F923F924F925F926F927F9244
:100AE0008F929F92AF92BF92CF92DF92EF92FF923E
:100AF0000F931F93DF93CF9300D000D0CDB7DEB715
:100B00002090E7013090E8014090E9015090EA011F
:100B10008091EF019091F001A091F101B091F2016B
:100B200089839A83AB83BC83E090EB01F090EC0166
:100B30000091ED011091EE016090600070906100F5
:100B40008090620090906300C201B10129813A81D6
:100B50004B815C810E94B8375B016C01C801B70111
:100B6000A40193010E94B8379B01AC01C601B501F5
:100B70000E9434359B01AC010E9434355B016C014D
:100B8000C801B701A80197010E94B8377B018C0109
:100B9000C401B301A40193010E94B8379B01AC01C9
:100BA000C801B7010E9433357B018C01C201B1013C
:100BB000A20191010E94B8379B01AC01C801B701A5
:100BC0000E9433357B018C0169817A818B819C8104
:100BD0009B01AC010E94B8379B01AC01C801B70171
:100BE0000E9434359B01AC01C601B5010E94BE359F
:100BF0000F900F900F900F90CF91DF911F910F9159
:100C0000FF90EF90DF90CF90BF90AF909F908F902C
:100C10007F906F905F904F903F902F900895EF924C
:100C2000FF920F931F93609160007091610080911B
:100C30006200909163002091EF013091F0014091AA
:100C4000F1015091F2010E94B8377B018C01609153
:100C5000EB017091EC018091ED019091EE012091FA
:100C6000E7013091E8014091E9015091EA010E94C9
:100C7000B8379B01AC01C801B7010E94333520E0B1
:100C800030E040E050EC0E94B8370E9498351F9148
:100C90000F91FF90EF9008952F923F924F925F92A5
:100CA0006F927F928F929F92AF92BF92CF92DF927C
:100CB000EF92FF920F931F93DF93CF93CDB7DEB7E1
:100CC000C454D0400FB6F894DEBF0FBECDBF698BC1
:100CD0007A8B8B8B9C8B2D8B3E8B4F8B588F6D968D
:100CE0002CAC3DAC4EAC5FAC6D97C601B501A60116
:100CF00095010E94B8373B014C01C201B101A2012C
:100D000091010E94B8379B01AC01C401B3010E945C
:100D100034353B014C01A1966CAD7DAD8EAD9FADE0
:100D2000A1979B01AC010E94B8379B01AC01C401A3
:100D3000B3010E9434350E941F383B014C01C601AB
:100D4000B501A40193010E941536698F7A8F8B8FAC
:100D50009C8FC201B101A40193010E9415366D8FD1
:100D60007E8F8F8F98A3A1966CAD7DAD8EAD9FAD1C
:100D7000A197A40193010E94153669A37AA38BA3BE
:100D80009CA38091E7019091E801A091E901B091C5
:100D9000EA018D879E87AF87B88B8091EB01909198
:100DA000EC01A091ED01B091EE0189879A87AB87A4
:100DB000BC878091600090916100A0916200B09129
:100DC00063008D839E83AF83B8878091EF019091FC
:100DD000F001A091F101B091F20189839A83AB8374
:100DE000BC836D857E858F85988929853A854B855D
:100DF0005C850E94B8375B016C016D817E818F81BB
:100E0000988529813A814B815C810E94B8379B018A
:100E1000AC01C601B5010E9433359B01AC010E94B3
:100E200034356DA37EA38FA398A76D817E818F81BA
:100E300098852D853E854F8558890E94B8375B017E
:100E40006C0169817A818B819C8129853A854B85EA
:100E50005C850E94B8379B01AC01C601B5010E94B8
:100E600034359B01AC010E94343569A77AA78BA762
:100E70009CA76D817E818F8198859B01AC010E942A
:100E8000B8375B016C016D857E858F8598899B01E4
:100E9000AC010E94B8379B01AC01C601B5010E94AC
:100EA00033355B016C0169817A818B819C819B0167
:100EB000AC010E94B8379B01AC01C601B5010E948C
:100EC00033355B016C0169857A858B859C859B0137
:100ED000AC010E94B8379B01AC01C601B5010E946C
:100EE00034353B014C016D8D7E8D8F8D98A1A40111
:100EF00093010E94B8375B016C0169A17AA18BA1B3
:100F00009CA129A53AA54BA55CA50E94B8379B01D9
:100F1000AC01C601B5010E9433351B012C0169A14A
:100F20007AA18BA19CA12DA13EA14FA158A50E9401
:100F3000B8375B016C01698D7A8D8B8D9C8DA40116
:100F400093010E94B8379B01AC01C601B5010E9414
:100F500033353B014C01698D7A8D8B8D9C8D29A594
:100F60003AA54BA55CA50E94B8375B016C016D8D5D
:100F70007E8D8F8D98A12DA13EA14FA158A50E94D5
:100F8000B8379B01AC01C601B5010E9433355B0146
:100F90006C01C201B1012AE037ED43EA5BE30E9434
:100FA000B8372091F3013091F4014091F50150914F
:100FB000F6010E9434356DA77EA78FA798AB60938A
:100FC000F3017093F4018093F5019093F601C4014D
:100FD000B3012AE037ED43EA5BE30E94B837209182
:100FE000F7013091F8014091F9015091FA010E9406
:100FF000343569AB7AAB8BAB9CAB6093F7017093E4
:10100000F8018093F9019093FA01C601B5012AE035
:1010100037ED43EA5BE30E94B8372091FB01309142
:10102000FC014091FD015091FE010E9434356DABF1
:101030007EAB8FAB98AF6093FB017093FC01809304
:10104000FD019093FE01C201B101A20191010E9434
:1010500034359B01AC0169897A898B899C890E940E
:1010600034352DA53EA54FA558A90E94343569AF4A
:101070007AAF8BAF9CAFC401B301A40193010E946E
:1010800034359B01AC016D897E898F89988D0E94D2
:10109000343529A93AA94BA95CA90E943435219677
:1010A0006CAF7DAF8EAF9FAF2197C601B501A60192
:1010B00095010E9434359B01AC01C801B7010E9423
:1010C00034352DA93EA94FA958AD0E9434355B0196
:1010D0006C016D857E858F859889905829AD3AADD4
:1010E0004BAD5CAD0E94B8377B018C0169817A8180
:1010F0008B819C8121962CAD3DAD4EAD5FAD21978E
:101100000E94B8379B01AC01C801B7010E9433357A
:101110007B018C0169857A858B859C85A60195016B
:101120000E94B8379B01AC01C801B7010E9433355A
:1011300020E030E040E05FE30E94B8379B01AC0163
:101140006D817E818F8198850E94343525966CAFA4
:101150007DAF8EAF9FAF259729AD3AAD4BAD5CAD5E
:101160000E94B8377B018C0169817A818B819C81D7
:10117000A60195010E94B8379B01AC01C801B701D7
:101180000E9434357B018C0169857A858B859C852D
:1011900021962CAD3DAD4EAD5FAD21970E94B83785
:1011A0009B01AC01C801B7010E94333520E030E05B
:1011B00040E05FE30E94B8379B01AC016D857E85FE
:1011C0008F8598890E9434351B012C0125966CADC2
:1011D0007DAD8EAD9FAD259721962CAD3DAD4EAD2D
:1011E0005FAD21970E94B8377B018C01C201B1012C
:1011F000A60195010E94B8379B01AC01C801B70157
:101200000E9433357B018C0169857A858B859C85AD
:1012100029AD3AAD4BAD5CAD0E94B8379B01AC0136
:10122000C801B7010E94343520E030E040E05FE3C0
:101230000E94B8379B01AC0169817A818B819C81C6
:101240000E9434353B014C0125966CAD7DAD8EADD1
:101250009FAD2597A60195010E94B8377B018C01AF
:10126000C201B10121962CAD3DAD4EAD5FAD2197D0
:101270000E94B8379B01AC01C801B7010E94343508
:101280007B018C01C401B30129AD3AAD4BAD5CAD1E
:101290000E94B8379B01AC01C801B7010E943335E9
:1012A00020E030E040E05FE30E94B8379B01AC01F2
:1012B00069857A858B859C850E9434355B016C013C
:1012C00025966CAD7DAD8EAD9FAD25979B01AC0194
:1012D0000E94B8377B018C01C201B101A2019101CA
:1012E0000E94B8379B01AC01C801B7010E94343598
:1012F0007B018C01C401B301A40193010E94B837A2
:101300009B01AC01C801B7010E9434357B018C01FF
:10131000C601B501A60195010E94B8379B01AC0139
:10132000C801B7010E9434350E941F387B018C012F
:1013300025966CAD7DAD8EAD9FAD2597A80197012B
:101340000E94153660936000709361008093620084
:1013500090936300C201B101A80197010E94153664
:101360006093E7017093E8018093E9019093EA01AB
:10137000C401B301A80197010E9415366093EF01E3
:101380007093F0018093F1019093F201C601B501D1
:10139000A80197010E9415366093EB017093EC0150
:1013A0008093ED019093EE01CC5BDF4F0FB6F89484
:1013B000DEBF0FBECDBFCF91DF911F910F91FF9088
:1013C000EF90DF90CF90BF90AF909F908F907F90E5
:1013D0006F905F904F903F902F90089590930002F0
:1013E0008093FF0108958091CC0208958FE080934F
:1013F000CC0288E68093CB021092CD021092CE02EE
:1014000082E08093D0021092DE021092DD021092F0
:10141000E2021092E1021092E4021092E3020895B7
:101420008091CB020895EBECF2E0E80FF11D80858E
:101430000895EBECF2E0E80FF11D10860895873077
:1014400010F081E00895E82FF0E0E553FD4F81E0D2
:10145000808780E008958091E1029091E2020895F2
:10146000A82FB0E0FD01EB51FD4F8081882319F0DA
:10147000A953BD4F8C9108950F931F93182F062FDA
:10148000282F30E06130A1F429533D4F8091CB02E9
:10149000612FA9010E948E1DE12FF0E0DF01AB5109
:1014A000BD4FAF01400F511D4B515D4F81E00EC04C
:1014B00029533D4FE0917E00F0917F008091CB0257
:1014C000612F402F50E00995E7CF8D93A417B50702
:1014D000E1F7E953FD4F80811F910F9108950F931C
:1014E0001F93082F162F8091CB02602F412F0E944F
:1014F0004E1D0D3329F411FF14C00E94B31D11C0FD
:101500000E3309F41F77E02FF0E0DF01A953BD4F40
:101510001C93EB51FD4F81E0808380E01F910F9180
:101520000895107FF0CFFF920F931F93CF93DF9317
:10153000982FF62EEA01890180911C03882311F46B
:1015400060E002C06091FE02607F9F70692B87E3BC
:101550000E946F0A88E36F2D0E946F0AE0917C0061
:10156000F0917D008091CB0269E3AE01980109956D
:10157000DF91CF911F910F91FF900895AF92BF928D
:10158000CF92DF92EF92FF920F931F93CF93DF934F
:10159000EB017A01E091FF01F0910002309759F1DF
:1015A00009952FEF8F3F920731F1B92EBC01707072
:1015B0006B01CC0EDD1E21E0C21621E0D20610F434
:1015C000AA2412C000E011E0061B170B892FA80106
:1015D00097010E94930AA82EB394E601C050D1400F
:1015E000E00EF11E60E071E08B2DAE0197010E94CC
:1015F000930A8A2901C081E0DF91CF911F910F9159
:10160000FF90EF90DF90CF90BF90AF9008958F92B2
:101610009F92AF92BF92DF92EF92FF920F931F9330
:10162000DF93CF9300D0CDB7DEB78091220388231C
:1016300011F4DD2402C0D0900403A090BF03B09049
:10164000C00380E090E00E94BA13EE248DEBF82EE8
:10165000FD2022E0F22A4E010894811C911C8DE3AA
:101660006F2D0E946F0AE0917E00F0917F008091C3
:10167000CB026AE342E050E094010995198100E051
:101680008A819801280F311D2115310521F0E3943D
:1016900036E0E31621F71092DE021092DD028DE3B0
:1016A0006D2D0E946F0AC5010E94BA1380E00F9051
:1016B0000F90CF91DF911F910F91FF90EF90DF90EE
:1016C000BF90AF909F908F9008951F939C01AB01A6
:1016D000E0917E00F0917F008091CB026CE3099550
:1016E000182F882341F00E94070B81E090E090932F
:1016F000E2028093E102812F1F910895FF920F93E0
:101700001F93DF93CF9300D0CDB7DEB78C01E0916C
:101710007E00F0917F008091CB026AE342E050E0CE
:101720009E012F5F3F4F0995F82E882361F00E949C
:10173000070B81E090E09093E2028093E102F801D0
:101740001182108208C0998180E02A81820F911D48
:10175000F801918380838F2D0F900F90CF91DF91AF
:101760001F910F91FF900895EF92FF920F931F9397
:10177000CF93DF938B017A01E091FF01F09100029A
:10178000309711F10995EC018FEFCF3FD807E1F0C9
:101790006D2F80911C03882311F08091FE02681741
:1017A00019F087E30E946F0AD07088E36C2F0E94C3
:1017B0006F0AE0917E00F0917F008091CB0269E397
:1017C000A8019701099501C081E0DF91CF911F9198
:1017D0000F91FF90EF900895282F8091CC028823DD
:1017E00011F490E004C090E0222309F491E080918C
:1017F0002203882311F460E002C06091040399235E
:1018000011F0606201C06F7D68606093DB028DE360
:101810000E946F0A80E008958F929F92AF92BF92CC
:10182000CF92DF92EF92FF920F931F93DF93CF93AC
:1018300000D000D0CDB7DEB78091CC028F3011F050
:1018400091E065C08091CB0219821A821B821C82B2
:1018500068E146E80E944E1D882E198280E48A8342
:101860001B821C8289E290E064E070E0AE014F5F71
:101870005F4F0E94BE0A982E81E00E94EC0BA82EBA
:101880008091CC026DE14DEC0E944E1DB82E8AE095
:1018900090E00E94C31D8091CC026BE142E40E9463
:1018A0004E1DC82E8091CC026BE142EC0E944E1D71
:1018B000D82E82E390E00E94C31D8091CC026EE19D
:1018C00044E10E944E1DE82E8091CC026AE540E082
:1018D0000E944E1DF82E8091CC0261E246E00E94EB
:1018E0004E1D082F8091CC0269E242E00E944E1DFD
:1018F000182F80E00E94EC0B992D980D9A0D9B0DEE
:101900009C0D9D0D9E0D9F0D900F910F980F892F8F
:101910000F900F900F900F90CF91DF911F910F912B
:10192000FF90EF90DF90CF90BF90AF909F908F90FF
:1019300008951F930E940C0C182F80912203882376
:1019400011F460E002C06091040360618DE30E94C5
:101950006F0A810F1F9108951F93182F883010F080
:1019600081E010C080912303882311F460E002C05D
:1019700060910503687F612B8EE30E946F0A1093CC
:10198000CF0280E01F910895BF92CF92DF92EF9235
:10199000FF920F931F93F82E062FE42EB22E809104
:1019A0002303882311F410E002C010910503812F56
:1019B0008877883781F4FF2071F4002361F0EE20EE
:1019C00051F0BB2041F081E060E040E020E00E9467
:1019D000C40C1064177C212F30E0207430708F2DE0
:1019E00090E0F6E0880F991FFA95E1F7281739077C
:1019F00011F460E003C080E4182761E0412F50E05B
:101A00009A0120723070802F90E0E5E0880F991FD6
:101A1000EA95E1F72817390721F001E0CC24C394B7
:101A200002C000E0CC249A01207130708E2D90E02D
:101A300074E0880F991F7A95E1F72817390711F498
:101A4000DD2403C00F5FDD24D394487050708B2DCC
:101A500090E023E0880F991F2A95E1F7481759076E
:101A600011F4EE2403C00F5FEE24E394FF2091F005
:101A7000662339F18091DB028093010281E00E94AC
:101A8000EC0B8EE3612F0E946F0A81E090E00E94D0
:101A9000C31D17C06623A9F08EE3612F0E946F0A51
:101AA00085E090E00E94C31D80910102882349F0E7
:101AB00080E00E94EC0B8DE290E00E94C31D10922A
:101AC00001020023C1F0CC2031F080E218278EE320
:101AD000612F0E946F0ADD2031F080E118278EE32C
:101AE000612F0E946F0AEE2031F088E018278EE304
:101AF000612F0E946F0A80E01F910F91FF90EF907D
:101B0000DF90CF90BF9008950F931F93082F162F4B
:101B10008830C8F46430B8F485E1642F0E946F0AFD
:101B20008091FB02882311F460E002C06091DD0225
:101B3000607E110F110F110F100F612B86E10E94B3
:101B40006F0A80E001C081E01F910F910895FF921C
:101B50000F931F93082FF62E142F8093DA0285E33C
:101B6000652F0E946F0A86E3612F0E946F0A8091A1
:101B70002203882311F080910403013011F480685E
:101B800001C08F77682F6460FF2011F0682F6464B4
:101B90008DE30E946F0A80E01F910F91FF900895DE
:101BA000BF92CF92DF92EF92FF920F931F93CF934A
:101BB000DF936C017B0180E060E00E94A70DB82EEE
:101BC0008823E1F400E010E016C0E70181E8E816A0
:101BD000F10410F0C0E8D0E0B8017070812FAE01C0
:101BE00096010E94930A882351F4CC0EDD1E0C0F3F
:101BF0001D1FEC1AFD0AE114F10439F78B2DDF915A
:101C0000CF911F910F91FF90EF90DF90CF90BF90F9
:101C100008950E94070B80911A03882311F420E095
:101C200002C02091FC0280911B03882311F440E044
:101C300002C04091FD0260E08091D002823009F440
:101C400061E050E0922F80E0482B592B81E00E9408
:101C5000A70D08951F93182F8093CC026093CB0299
:101C60004093CD0280E060E040E020E00E94C40CA0
:101C70008EE360E80E946F0A84E1612F0E946F0A80
:101C800080912203882311F460E002C06091040374
:101C900068608DE30E946F0A112361F08091220336
:101CA000882311F460E002C06091040360628DE358
:101CB0000E946F0A80E01F9108951F93182F8F30A4
:101CC00011F081E007C084E16FE00E946F0A109379
:101CD000CC0280E01F910895BF92CF92DF92EF92E5
:101CE000FF920F931F93DF93CF93CDB7DEB7CB5601
:101CF000D0400FB6F894DEBF0FBECDBFB82ED62EA3
:101D0000C72E142F81E08983453608F05EC0CE01CE
:101D100002960E947E0B882309F057C0412F50E0A5
:101D20006091DD027091DE029A01260F371F8A81D1
:101D30009B818217930708F448C08A010250104023
:101D4000A6E0EA2EF12CEC0EFD1E600F711FC701FC
:101D50000E94650B8823C9F5CE0104960E947E0B74
:101D60006091DD027091DE0240E050E0970115C005
:101D7000F901E40FF51F9081FA01EE59FF4F8081C0
:101D80004F5F5F4F981749F00E94070B81E090E08A
:101D90009093E2028093E10218C04617570744F37C
:101DA000260F371F8D2D9C2DB901A8010E94503A96
:101DB0008091DD029091DE02892B49F482E090E06F
:101DC0009093DE028093DD0202C000E010E082E02A
:101DD000B81669F088E290E061E070E0AE014F5F14
:101DE0005F4F0E94BE0A882311F001E010E0C80195
:101DF000C559DF4F0FB6F894DEBF0FBECDBFCF91F0
:101E0000DF911F910F91FF90EF90DF90CF90BF90E7
:101E1000089580E4E5EEF2E0DF011D928A95E9F78E
:101E20001092C80287E0E3EDF2E0DF011D928A958F
:101E3000E9F78FE068E640E00E942A0E87E162E061
:101E40000E946F0A08952F923F924F925F926F9275
:101E50007F928F929F92AF92BF92CF92DF92EF923A
:101E6000FF920F931F93DF93CF93CDB7DEB72D97DC
:101E70000FB6F894DEBF0FBECDBF8091E70286FF9C
:101E800067C18091C403882309F462C151EEC52E55
:101E900053E0D52E44EE642E4FEF742E6C0C7D1C57
:101EA0002DE930E03A8329831C821B8280918900CE
:101EB00090918A0080FF31C1DC01A870B070B887B2
:101EC000AF8383FF09C0F601808591852089318920
:101ED000820F931F91878087FB81F987D60118961F
:101EE0008D919C91199762E070E00E949438CB012B
:101EF000F60160879187A981BA812D903C90F1010C
:101F0000F695FE2FEE27F795E795FE83ED83BF014B
:101F10000E94943860E870E00E949438D3011996CA
:101F20007C936E931897F601808591856D817E81F3
:101F30000E9494386A877B879101442737FD40953A
:101F4000542F60E070E080E091E00E94C938790190
:101F50008A010894E11CF11C011D111D8A859B85D5
:101F60009D878C87D30150964D905C905197841932
:101F70009509F601918380834C01AA2497FCA094D3
:101F8000BA2CC801B70122E030E040E050E00E94E6
:101F9000C938281539054A055B0554F42C853D855B
:101FA0002E193F0924193509D6012D933C931DC0E4
:101FB000C801B70122E030E040E050E00E94C9389B
:101FC00050954095309521953F4F4F4F5F4F82166A
:101FD0009306A406B5064CF4EC85FD85EE0DFF1DB9
:101FE000E419F509D601ED93FC93EF81F885EF2B09
:101FF000D1F1D6018D919C9111970097A1F11816FE
:102000001906B4F450968D919C915197ED81FE8103
:102010008E0F9F1F51969C938E935097C10162E043
:1020200070E00E949438D30119967C936E931897B0
:10203000F6018081918197FF16C0C1019695982F76
:1020400088279795879520893189281B390B318BF3
:10205000208BC10162E070E00E949438D301199690
:102060007C936E931897F60120813181D3018D9175
:102070009C911197280F391F11963C932E93E9815B
:10208000FA818085918528173907A4F08D939C9358
:10209000C10162E070E00E949438D30118968D91DE
:1020A0009C91199786179707BCF019967C936E93AD
:1020B000189712C0121613067CF0F30111821082D9
:1020C000C10162E070E00E94943880859185861796
:1020D000970714F471876087EA85D3015096EC93D3
:1020E0005097FB855196FC93E091AD00F091AE00C6
:1020F0003097D9F0D6018D919C91892BB1F081E078
:1021000090E0098402C0880F991F0A94E2F765ECF9
:1021100073E041EE53E0099508C0F6018085918592
:10212000D30119969C938E931897EB81FC8131967D
:10213000FC83EB8322E030E0C20ED31E620E731EDE
:1021400089819A8102969A838983349709F0AECE69
:1021500080E02D960FB6F894DEBF0FBECDBFCF91B5
:10216000DF911F910F91FF90EF90DF90CF90BF9084
:10217000AF909F908F907F906F905F904F903F9027
:102180002F9008958F3041F410926D0310926E03DA
:1021900010926F031092700380916D0390916E0303
:1021A000A0916F03B0917003809301039093020399
:1021B000A0930303B093040380931103909312033D
:1021C000A0931303B09314038093210390932203ED
:1021D000A0932303B093240308952F923F924F922C
:1021E0005F926F927F928F929F92AF92BF92CF92A7
:1021F000DF92EF92FF920F931F93DF93CF93CDB7B0
:10220000DEB7EC970FB6F894DEBF0FBECDBF80915E
:10221000660080FD02C080E005C2CE0101969CAF41
:102220008BAF8CE0ABADBCAD1D928A95E9F783EA2C
:10223000898384E090E061E070E0AE014F5F5F4F22
:102240000E94BE0A882309F0ECC18AE290E06CE0AB
:1022500070E0AE014F5F5F4F0E94B40B882309F01E
:10226000E0C11E010894211C311CFE017996610118
:10227000BE01635F7F4FD6012C9130E040E050E01B
:10228000522F44273327222711968C9190E0A0E00B
:10229000B0E0DC0199278827280F391F4A1F5B1FF0
:1022A000D60113968C911397280F311D411D511D96
:1022B00012968C9190E0A0E0B0E0BA2FA92F982F51
:1022C0008827280F391F4A1F5B1F219331934193A1
:1022D000519384E090E0C80ED91EC616D70659F671
:1022E000698D7A8D8B8D9C8D0E94B0366FAB78AFE7
:1022F00089AF9AAF6D8D7E8D8F8D98A10E94B0367B
:102300006BAB7CAB8DAB9EAB69A17AA18BA19CA181
:102310000E94B0362B013C0149E4A42E43E0B42EC8
:102320004601DAAAC9AAD5016D917D918D919C9142
:102330000E94B0369B01AC016FA978AD89AD9AAD12
:102340000E94B83720E030E040E850E30E94B83700
:102350007B018C01F50164857585868597850E94D2
:10236000B0369B01AC016BA97CA98DA99EA90E94E6
:10237000B83720E030E040E850E30E94B8379B01D6
:10238000AC01C801B7010E9434357B018C01D50135
:1023900058966D917D918D919C915B970E94B0367E
:1023A0009B01AC01C301B2010E94B83720E030E0CC
:1023B00040E850E30E94B8379B01AC01C801B70167
:1023C0000E9434350E947D36E9A9FAA96193719380
:1023D00081939193FAABE9AB84E090E0A80EB91E2B
:1023E00095E5A91693E0B90609F09DCF8FEA898398
:1023F00084E090E061E070E05E010894A11CB11CF3
:10240000A5010E94BE0A882309F00BC18E010B5D55
:102410001F4F8CE0D8011D928A95E9F7E0907E006D
:10242000F0907F000E94100A6CE046E050E09501B9
:10243000F7010995580186016E010894C11CD11C51
:10244000750139E1632E712C6C0E7D1EF8016081DF
:1024500071818281938126E935E040E050E00E945D
:10246000C938D8012D933D934D935C931397F60192
:10247000808190E0A0E0B0E02227382F492F5A2F2A
:102480008181280F311D411D511DD7012D933D9391
:102490004D935C9313972030B0E83B07B0E04B07B7
:1024A000B0E05B074CF02050304041405040F70115
:1024B00020833183428353830C5F1F4F82E090E07F
:1024C000C80ED91EA4E0B0E0EA0EFB1E06151705E3
:1024D00009F0BCCF79EEC72E72E0D72E61E3662EED
:1024E000712C6C0E7D1EF501E080F180028113815C
:1024F000F40180819181A281B381E81AF90A0A0B63
:102500001B0BD401ED92FD920D931C931397C80100
:10251000B70120E338EF4FEF5FEF0E947538F60107
:10252000608371838283938317FF0EC080E090E005
:10253000A1E0B0E0E80EF91E0A1F1B1FD401ED92C6
:10254000FD920D931C931397F401E190F19001918A
:1025500011914F01C801B70120E031E040E050E0A7
:102560000E94C938D1012C93C801B70120E031E0A5
:1025700040E050E00E94C938F101618384E090E0BE
:10258000A80EB91EC80ED91EA2E0B0E02A0E3B1E4E
:10259000A614B70409F0A7CF1D861E861F86188AC9
:1025A000198A1A8A1B8A1C8A1D8A1E8A1F8A188EFB
:1025B0008E01035F1F4F8AE190E06CE070E0A8019C
:1025C0000E94BE0A882369F58BE190E06CE070E020
:1025D000A8010E94BE0A882321F500917C00109179
:1025E0007D000E94100A6CE046E050E07E010894F5
:1025F000E11CF11C9701F801099500917E001091F2
:102600007F000E94100A6BE142E050E09701F80160
:10261000099584E290E062E070E0A7010E94BE0AA2
:10262000811181E0EC960FB6F894DEBF0FBECDBFEE
:10263000CF91DF911F910F91FF90EF90DF90CF909E
:10264000BF90AF909F908F907F906F905F904F90D2
:102650003F902F9008950F931F93DF93CF9300D057
:102660000F92CDB7DEB78091E70282FF7AC08E016C
:102670000F5F1F4F83E0F80111928A95E9F786E218
:1026800090E062E070E0A8010E94B40B882309F09A
:1026900066C0998180E02A81820F911DF6E080302A
:1026A0009F0741F58091BD039091BE03019709F00A
:1026B00058C00E94ED1089ED89838CE08A838AEDF1
:1026C0008B8386E190E063E070E0A8010E94BE0A7F
:1026D000882309F044C0198285E08A8387E290E06C
:1026E00062E070E0A8010E94BE0A8823C1F582E082
:1026F00090E025C00597A9F58091BD039091BE0398
:10270000029779F58AED89838CE08A8389ED8B8342
:1027100086E190E063E070E0A8010E94BE0A882391
:10272000F1F486E089831A8287E290E062E070E04B
:10273000A8010E94BE0A882391F481E090E0909362
:10274000BE038093BD039093BA038093B903E091D5
:102750006E00F0916F00309721F0099502C081E082
:1027600001C080E00F900F900F90CF91DF911F91EB
:102770000F9108950F931F93DF93CF930F92CDB7CF
:10278000DEB78C0183E061E00E94FB2A882309F018
:1027900045C098012170307000FF02C001FD40C0AB
:1027A000C8018C7F892BE1F51093C0030093BF0310
:1027B000232B11F088E101C088E0898387E190E054
:1027C00061E070E08E010F5F1F4FA8010E94BE0AFA
:1027D000882321F58091BF0381FF0BC081E08983AD
:1027E00088E290E061E070E0A8010E94BE0A8823C0
:1027F000A9F48091BF0380FD02C081FF02C08DED6E
:1028000001C083EA898385E190E061E070E0AE0178
:102810004F5F5F4F0E94BE0A882319F081E001C01C
:1028200082E00F90CF91DF911F910F9108950F9348
:102830001F93DF93CF9300D0CDB7DEB7182F1A8246
:10284000198283E061E00E94FB2A8823F1F4012FC2
:1028500010E0C8018C7F892B11F082E017C001FFC6
:1028600002C08EEF01C088ED89838DE090E061E0C9
:1028700070E0AE014F5F5F4F0E94BE0A882329F4CB
:102880001093C2030093C10301C081E00F900F9029
:10289000CF91DF911F910F9108956F927F928F9248
:1028A0009F92AF92BF92CF92DF92EF92FF920F93DF
:1028B0001F93DF93CF93CDB7DEB72C970FB6F89465
:1028C000DEBF0FBECDBF7B018C01D42EC52E20E014
:1028D00030E040E058E30E94B8373B014C01FE0174
:1028E00031968CE0DF011D928A95E9F783E061E083
:1028F0000E94FB2A882309F0F2C1C801B70120E039
:1029000030E040E057E40E94B8370E947D36609383
:1029100071037093720380937303909374032D2D4E
:102920003C2DC9015C01E5E2CE2EE3E0DE2EF5018F
:10293000E190F190019111915F01C401B301A801EF
:1029400097010E94B8370E947D36D6016D937D9322
:102950008D939C931397C801B70120E030E040E8C5
:102960005EE40E94B8370E947D36F60164A375A329
:1029700086A397A384E090E0C80ED91E99E4C916F7
:1029800093E0D906A1F686E38C8386E58D8386E7FE
:102990008E835601FE013196992493947CE2672E32
:1029A00069EC762E5BEC852ED5012D913D914D91F4
:1029B0005C91DA01C9018827B7FD83959927AA2779
:1029C000BB27D5011496ED90FD900D911C911797A2
:1029D0006701F7FE04C0D094C194D108D394B90123
:1029E00037FF03C0709561957F4F6C157D0514F01E
:1029F00010E006C017FF03C011E081E001C011E044
:102A0000D50118962D913D914D915C911B97B9017F
:102A100037FF03C0709561957F4FC616D70624F423
:102A2000808257FD08C00AC0112311F4708201C0D2
:102A30006082882319F083818160838393948CE082
:102A400090E0A80EB91E319694E0991609F0ACCF2B
:102A500080E090E063E070E0AE014F5F5F4F0E9466
:102A6000BE0A882309F03BC182E090E063E070E099
:102A7000AE014C5F5F4F0E94BE0A882309F02FC150
:102A80008091710390917203A0917303B0917403CC
:102A90007C018D01110FEE08FE2C87019C01AD0118
:102AA0006E2D7E2D8E2D9E2DB3EDAB2EA4EBBA2E6A
:102AB000F0ECCF2EEDE2DE2EEE24FF2400E010E05D
:102AC0000E940C2B152F062FF72EE82ED92EA22FA1
:102AD000F32FE42F602F7F2D8E2D9D2DDD200CF008
:102AE00043C0C22ECA94F1E0C21608F0F0E0E32F12
:102AF000E150A1E0E31708F0A0E03F2F3E0FF1E026
:102B00003E1708F0F0E0AF2BE42FE150B1E0E417FE
:102B100008F0B0E04A2F4E0FF1E04E1708F0F0E059
:102B2000BF2BE12FE15CA1E0E11708F0A0E05B2FF3
:102B30005E0FF1E05E1708F0F0E06A2F6F2B600F78
:102B4000E1E0601708F0E0E07E2F7F0DE1E07F1507
:102B500008F0E0E08E2F8E0D91E08E1508F090E0E9
:102B6000AC2DF32FE42F9D0D2A2F3F2F4E2F0EE17A
:102B70000E94862C122F032FF42EE52E622F702F29
:102B80008F2D9E2D20E030E040E051E00E94C938BA
:102B90002983612F702F8F2D9E2D20E030E041E0A2
:102BA00050E00E94C938CA01B90120E031E040E09C
:102BB00050E00E94C9386A83612F702F8F2D9E2D9F
:102BC00020E031E040E050E00E94C938CA01B9017C
:102BD00020E031E040E050E00E94C9386B83612F73
:102BE000702F8F2D9E2D20E031E040E050E00E94BC
:102BF000C9386C8381E290E064E070E0AE014F5F21
:102C00005F4F0E94BE0A882309F069C0E0907103FB
:102C1000F09072030091730310917403E114F104B6
:102C20000105110521F4EE24FF2487011AC03701A4
:102C30004801990C6608762C430123E93AEC45EDEE
:102C400056EF6CEA75E180E090E057016801E62CF0
:102C5000F62C062D162D0E940B2DC901DA017C01E0
:102C60008D01C801B70120E030E040E051E00E9452
:102C7000C9382983C801B70120E030E041E050E0C5
:102C80000E94C938CA01B90120E031E040E050E0BB
:102C90000E94C9386A83C801B70120E031E040E0F2
:102CA00050E00E94C938CA01B90120E031E040E09B
:102CB00050E00E94C9386B83C801B70120E031E0C1
:102CC00040E050E00E94C9386C8389E190E064E004
:102CD00070E0AE014F5F5F4F0E94BE0A811181E03C
:102CE0002C960FB6F894DEBF0FBECDBFCF91DF910B
:102CF0001F910F91FF90EF90DF90CF90BF90AF901A
:102D00009F908F907F906F9008957F928F929F9267
:102D1000AF92BF92CF92DF92EF92FF920F931F93E9
:102D2000DF93CF93CDB7DEB72C970FB6F894DEBF05
:102D30000FBECDBF7B018C01B42EA52EFE013196B6
:102D40008CE0DF011D928A95E9F783E061E00E9443
:102D5000FB2A882309F026C1C801B70120E030E032
:102D600040E058E30E94B8376B017C0120E030E07E
:102D700040E050E00E941136882341F410926D0328
:102D800010926E0310926F03109270038B2D9A2D88
:102D90009C01590121E0822E23E0922E8401C7017B
:102DA000B601F50121913191419151915F010E944C
:102DB000B83720E030E040E85EE40E94B8370E9477
:102DC0007D36D8016D937D938D939D938D01B3E0F6
:102DD00005321B0721F786E28C8386E48D8386E625
:102DE0008E83FE013196DD24D3949DECA92E8CE4D4
:102DF000B82E0CE6C02ED4012D913D914D915C91E1
:102E0000DA01C9018827B7FD83959927AA27BB272F
:102E1000782ED4011496ED90FD900D911C9117978A
:102E2000C701F7FE03C0909581959F4FB90137FF09
:102E300003C0709561957F4F6817790714F010E013
:102E400007C017FF04C011E07724739401C011E09C
:102E5000D40118962D913D914D915C911B97B9012C
:102E600037FF03C0709561957F4F8617970724F44D
:102E7000C08257FD08C00AC0112311F4B08201C0FE
:102E8000A082772019F0838181608383D3948CE0C2
:102E900090E0880E991E319694E0D91609F0ABCFD8
:102EA00081E090E063E070E0AE014F5F5F4F0E9411
:102EB000BE0A882309F076C085E090E063E070E008
:102EC000AE014C5F5F4F0E94BE0A882309F06AC0C2
:102ED00020916D0330916E0340916F035091700308
:102EE000211531054105510521F4EE24FF24870108
:102EF0000AC060E070E080E090E40E94C938C90137
:102F0000DA017C018D01C801B70120E031E040E029
:102F100050E00E94C9382983C801B70120E031E0A0
:102F200040E050E00E94C9386A8382E290E062E0AB
:102F300070E06E010894C11CD11CA6010E94BE0A5B
:102F4000882381F560916D0370916E0380916F030A
:102F50009091700320E034E040E050E00E94C938D6
:102F6000122F032FF42EE52E622F732F842F952F0F
:102F700020E031E040E050E00E94C9382983612F11
:102F8000702F8F2D9E2D20E031E040E050E00E9418
:102F9000C9386A8380E290E062E070E0A6010E9496
:102FA000BE0A811181E02C960FB6F894DEBF0FBEE9
:102FB000CDBFCF91DF911F910F91FF90EF90DF90E8
:102FC000CF90BF90AF909F908F907F90089583E0B7
:102FD00063E00E94FB2A882311F081E0089580912C
:102FE000E7029091E8028F7B9093E8028093E702DA
:102FF00080E0089583E061E00E94FB2A882311F0BD
:1030000081E008958091E7029091E80280649093B6
:10301000E8028093E70280E00895CF93DF93EC010C
:1030200083E061E00E94FB2A882311F081E005C063
:10303000D0936F00C0936E0080E0DF91CF91089530
:103040000F931F93182F83E061E00E94FB2A8823CF
:1030500011F081E031C0812F0E945D0E082F1F30DA
:1030600041F410926D0310926E0310926F03109250
:10307000700380916D0390916E03A0916F03B091E6
:1030800070038093010390930203A0930303B09312
:1030900004038093110390931203A0931303B0933E
:1030A00014038093210390932203A0932303B093EE
:1030B00024030E940C0C800F1F910F9108958091A2
:1030C000BF039091C00380FF02C084E603C09695C1
:1030D000879581700E94A72A18161CF481E08093BE
:1030E000C4030E942B0A20E0892B09F021E0822FE3
:1030F000089580E00E94130A8823F9F080E00E947E
:10310000190A8091C10381FF12C08091BF03909181
:10311000C00380FF02C084E603C096958795817046
:103120000E94A72A18161CF481E08093C4038091A2
:10313000C10380FF02C00E942B1380E008951F93FB
:1031400083E063E00E94FB2A882311F011E040C075
:103150000E9479188091C10380FD2DC080910202E8
:1031600090910302A0910402B09105020097A1057D
:10317000B105A9F00E94C01D80E090E020910202FC
:10318000309103024091040250910502621B730BBF
:10319000840B950B695E73408040904060F00E9404
:1031A000C01D609302027093030280930402909307
:1031B00005020E942B138091C10381FF02C010E021
:1031C00003C00E945F18182F0E94230F1092C4039F
:1031D000812F1F91089581E061E00E94FB2A8823DE
:1031E00011F081E0089581E00E94EC0B0E94221D05
:1031F0000E94032B80E0089583E061E00E94FB2A97
:10320000882311F081E0089582E00E94062B0E943D
:10321000090E0895EF92FF920F931F93FC016081B6
:10322000718182819381609375037093760380939B
:1032300077039093780324813581468157812093C9
:10324000790330937A0340937B0350937C0320856A
:1032500031854285538520937D0330937E034093CF
:103260007F035093800322E03BEF4FEF5FEF0E941C
:10327000C938C901DA017C018D0180E8E816F10442
:103280000105110544F080E09FEFAFEFBFEFE80EBE
:10329000F91E0A1F1B1F0E94100A65E04E2D0E9496
:1032A0004E1D6091790370917A0380917B03909118
:1032B0007C0322E03BEF4FEF5FEF0E94C938C9016A
:1032C000DA017C018D0190E8E916F1040105110590
:1032D00044F080E09FEFAFEFBFEFE80EF91E0A1F4A
:1032E0001B1F0E94100A68E04E2D0E944E1D609127
:1032F0007D0370917E0380917F039091800322E093
:103300003BEF4FEF5FEF0E94C938C901DA017C0142
:103310008D0190E8E916F1040105110544F080E003
:103320009FEFAFEFBFEFE80EF91E0A1F1B1F0E94B1
:10333000100A6BE04E2D0E944E1D80E01F910F91F0
:10334000FF90EF9008950F931F93DF93CF93CDB726
:10335000DEB761970FB6F894DEBF0FBECDBF182F52
:10336000092FFE01319685E0DF011D928A95E9F76C
:10337000DE011696E0E7F0E08CE001900D928150BE
:10338000E1F783E061E00E94FB2A882311F081E0ED
:103390005AC0109366000093670013FF0AC082E8CA
:1033A00089838DE28A8385E58B838DE78C8382E038
:1033B0000EC087E889838DE28A8385E38B838DE362
:1033C0008C831D828091890082FF02C088E08D83FA
:1033D00083E090E064E070E0AE014F5F5F4F0E94D9
:1033E000BE0A082F83E290E061E070E0AE014B5F1F
:1033F0005F4F0E94BE0A182F8091660081FF06C0B1
:1034000085EA898387E98A838AE805C088E2898317
:103410008CE48A838CE68B8387E090E063E070E045
:10342000AE014F5F5F4F0E94BE0A100F180F8091D0
:10343000660082FF03C085E793E002C0CE010696D6
:103440000E940A19810F61960FB6F894DEBF0FBE75
:10345000CDBFCF91DF911F910F910895DF93CF934F
:10346000CDB7DEB7A4970FB6F894DEBF0FBECDBFC1
:103470008EEDE7EEF2E0DF011D928A95E9F7FE019D
:10348000319684E2DF011D928A95E9F78CE190E0A4
:103490009093E8028093E70281E090E09093BE036E
:1034A0008093BD031092C30380E090E0A0E8BFE3E7
:1034B00089839A83AB83BC83898B9A8BAB8BBC8BC0
:1034C00089A39AA3ABA3BCA360E070E08AEF94E465
:1034D000AF010E944D140E94F3098F3041F4109205
:1034E0006D0310926E0310926F031092700380911F
:1034F0006D0390916E03A0916F03B0917003809360
:10350000010390930203A0930303B09304038093F9
:10351000110390931203A0931303B09314038093A9
:10352000210390932203A0932303B0932403A49632
:103530000FB6F894DEBF0FBECDBFCF91DF910895D7
:103540001F93DF93CF930F92CDB7DEB70E94032B6B
:1035500081E00E94062B0E94F6090E94090F0E943A
:10356000E12A0E942E1A0E94FE1D0E94990C182F1B
:1035700081E090E09093C0038093BF038DED898339
:1035800085E190E061E070E0AE014F5F5F4F0E9427
:10359000BE0A811111E0812F0F90CF91DF911F9111
:1035A0000895880F82B90895982F413210F040E0B5
:1035B00030C0809106028823E1F781E08093060203
:1035C0008FEF8093170210920E02415040930F022A
:1035D0004F5F990F91609093070285EE86BF8091AF
:1035E00006028130E1F380910E02841710F44091BD
:1035F0000E02A0910C02B0910D0220E030E007C055
:10360000FB01E20FF31F8D9180832F5F3F4F241743
:10361000B8F3842F08951F93582F122F413210F0C2
:1036200081E03BC0809106028823E1F782E080932D
:1036300006028FEF8093170210920E0240930F0242
:10364000A0910C02B0910D02FB0102C081918D93FB
:103650008E2F861B8417D0F3852F90E0880F991F3B
:103660008093070285EE86BF112321F08091060228
:103670008230E1F3809117028F3F11F480E00DC09A
:1036800080911702803211F482E007C08091170206
:10369000803311F084E001C083E01F910895482F2A
:1036A000613210F081E0089580910602843011F0BB
:1036B00082E0089560931302A0911002B09111026C
:1036C000842F9C01F90102C081918D938E2F841B60
:1036D0008617D0F380E0089590930B0280930A023E
:1036E000089590930902809308020895882311F0A9
:1036F00085EC01C085E886BF089585ED86BF06B6D6
:1037000004FCFDCF10920602089585EC86BF10924E
:10371000060208951F920F920FB60F9211242F9355
:103720003F934F935F936F937F938F939F93AF9349
:10373000BF93EF93FF9381B190E0887F90708036C4
:10374000910509F4D6C081369105CCF588329105F2
:1037500009F47AC089329105B4F48031910509F4F5
:103760006FC0813191053CF4009709F428C1089796
:1037700009F02EC165C08831910509F465C08097B4
:1037800009F026C17BC08034910509F49AC08134C8
:10379000910544F48033910509F479C0C89709F084
:1037A00017C17EC08035910509F47EC0883591052A
:1037B00009F48CC08834910509F00AC194C0883995
:1037C000910509F4F6C089399105ECF48837910523
:1037D00009F48FC0893791054CF48836910509F4B6
:1037E00088C08037910509F0F3C083C088389105FF
:1037F00009F4DFC08039910509F481C08038910552
:1038000009F0E6C07CC0803B910509F4A5C0813B6E
:1038100091054CF4803A910509F484C0883A9105E9
:1038200009F0D6C099C0803C910509F4C5C0883C18
:10383000910509F4C1C0883B910509F0C9C0A4C035
:103840008091070283B9B3C090910E0280910F025C
:10385000981770F490910E02E0910C02F0910D0215
:10386000E90FF11D808183B99F5F90930E029FC085
:1038700085ED86BF06B604FCFDCFA8C080E280932C
:10388000170285ED86BF06B604FCFDCF9FC080E31E
:103890008093170285ED86BF06B604FCFDCF96C067
:1038A00088E38093170288C080910E0293B1E09163
:1038B0000C02F0910D02E80FF11D90838F5F809351
:1038C0000E0290910E0280910F026FC080910E0245
:1038D00093B1E0910C02F0910D02E80FF11D90837D
:1038E0008F5F80930E0285ED86BF06B604FCFDCF88
:1038F0006DC083E0809306021092160258C080913A
:103900001602803208F055C08091160293B1E09102
:103910001402F0911502E80FF11D90838F5F8093E0
:10392000160245C080911602803248F4809116023A
:10393000E0911402F0911502E80FF11D10826091E0
:103940001602E0910A02F0910B028091140290910C
:10395000150270E0099530C084E080930602109251
:10396000120210921302E0910802F09109020995E7
:1039700080911302882341F481E080931302E09147
:103980001002F0911102108290911202E091100247
:10399000F0911102E90FF11D808183B99F5F90932F
:1039A00012029091120280911302981710F485EC84
:1039B00001C085E886BF0CC085EC86BF07C01092A9
:1039C000170285ED86BF06B604FCFDCF10920602F5
:1039D000FF91EF91BF91AF919F918F917F916F91E7
:1039E0005F914F913F912F910F900FBE0F901F90BD
:1039F000189510920602909A919A089809988CE06E
:103A000080B985E486BF80E290E061E070E00E94CA
:103A10002F3980930C0290930D0280E290E061E0D8
:103A200070E00E942F39809310029093110280E27F
:103A300090E061E070E00E942F398093140290932F
:103A40001502089580E0089580E008950F931F9374
:103A5000DF93CF9300D00F92CDB7DEB7182F6983D5
:103A6000042F3B832A83BE016F5F7F4F41E021E03B
:103A70000E940B1B882349F4812FBE016E5F7F4F8C
:103A8000402F21E00E940B1B811181E00F900F90CD
:103A90000F90CF91DF911F910F910895DF93CF93F6
:103AA00000D0CDB7DEB769834A83BE016F5F7F4F19
:103AB00042E021E00E940B1B81E00F900F90CF911C
:103AC000DF910895DF92EF92FF920F931F93DF93A0
:103AD000CF930F92CDB7DEB7D82E69837A018901D3
:103AE000BE016F5F7F4F41E021E00E940B1B8823E6
:103AF00051F48D2DB8014E2D0E94D41A20E090E093
:103B00008E159F0509F021E0822F0F90CF91DF9154
:103B10001F910F91FF90EF90DF900895FF920F9308
:103B20001F93DF93CF930F92CDB7DEB7F82E698343
:103B30008A01BE016F5F7F4F41E021E00E940B1BB5
:103B4000882341F48F2DB80141E00E94D41A90E0FF
:103B5000813009F091E0892F0F90CF91DF911F9173
:103B60000F91FF9008950E94F91C80E008950E9433
:103B7000F91C80E0089580E090E0089580E00895C9
:103B80000E9423010895AA2797FDA095BA2FBC0192
:103B9000CD010E9444010895DC01809118029091AA
:103BA0001902892BD9F4EAE1F2E080E090E02FEFEE
:103BB0003FEF3383228391838083019634968B3247
:103BC0009105B9F78AE093E09093790280937802A7
:103BD00081E090E09093190280931802AB32B10516
:103BE00018F02FEF3FEF08C0AA0FBB1FAA0FBB1F93
:103BF000A45EBD4F2D913C91C90108958CEC9DE1CF
:103C00000E94EE0983E00E94AC0C83E063E044E094
:103C10000E94840D80E890E060E074E047E651E0A7
:103C20000E94D00D80E090E00895EF92FF920F93F4
:103C30001F93CF93DF937C018B01EA0183E063E064
:103C40000E94FB2A882311F081E025C0A5ECB3E097
:103C500020E030E0F701E20FF31F18968D919C9160
:103C6000199791838083F801E20FF31F8D919C9146
:103C7000119791838083FE01E20FF31F5C968D9173
:103C80009C915D97918380832E5F3F4F12962830E1
:103C9000310501F780E0DF91CF911F910F91FF90E7
:103CA000EF900895CF93DF93EC0183E061E00E94F1
:103CB000FB2A882311F081E005C0D0938C00C093CB
:103CC0008B0080E0DF91CF910895CF93DF93EC01DB
:103CD00081E061E00E94FB2A882311F081E005C0A9
:103CE000D093AE00C093AD0080E0DF91CF910895F6
:103CF0000F931F93CF93DF93EC018B0183E061E07F
:103D00000E94FB2A882311F081E024C0C230D10533
:103D100091F0C330D10518F4219731F407C0C430B5
:103D2000D10571F0289789F082E014C01093A600A5
:103D30000093A5000EC01093A8000093A70009C02F
:103D40001093AA000093A90004C01093AC00009344
:103D5000AB0080E0DF91CF911F910F9108950F93F9
:103D60001F93CF93DF93EC018B0183E063E00E940C
:103D7000FB2A882311F081E024C0C230D10591F0E4
:103D8000C330D10518F4219731F407C0C430D105F0
:103D900071F0289789F082E014C010939E00009380
:103DA0009D000EC01093A00000939F0009C01093C7
:103DB000A2000093A10004C01093A4000093A300EC
:103DC00080E0DF91CF911F910F910895EF92FF92C4
:103DD0000F931F93CF93DF93EC017B018A0183E064
:103DE00063E00E94FB2A882311F081E051C0C230B9
:103DF000D105F1F0C330D10520F4219709F047C077
:103E000007C0C430D10521F1289709F040C030C067
:103E10008091C5039091C603F80191838083F1E0FE
:103E2000EF16F104A1F51092C6031092C5032FC03E
:103E30008091C7039091C803F80191838083F1E0DA
:103E4000EF16F10421F51092C8031092C7031FC0AA
:103E50008091C9039091CA03F80191838083F1E0B6
:103E6000EF16F104A1F41092CA031092C9030FC017
:103E70008091CB039091CC03F80191838083F1E092
:103E8000EF16F10421F41092CC031092CB0380E0E2
:103E9000DF91CF911F910F91FF90EF900895EF92D6
:103EA000FF920F931F93CF93DF93EC017B018A0165
:103EB00083E063E00E94FB2A882311F081E051C077
:103EC000C230D105F1F0C330D10520F4219709F0BB
:103ED00047C007C0C430D10521F1289709F040C080
:103EE00030C08091CD039091CE03F80191838083FF
:103EF000F1E0EF16F104A1F51092CE031092CD037C
:103F00002FC08091CF039091D003F80191838083DB
:103F1000F1E0EF16F10421F51092D0031092CF03D7
:103F20001FC08091D1039091D203F80191838083C7
:103F3000F1E0EF16F104A1F41092D2031092D10334
:103F40000FC08091D3039091D403F80191838083B3
:103F5000F1E0EF16F10421F41092D4031092D30390
:103F600080E0DF91CF911F910F91FF90EF90089526
:103F7000CF92DF92EF92FF920F931F93DF93CF9335
:103F800000D0CDB7DEB77C016B018A018AE8898356
:103F900080E28A8383E061E00E94FB2A882309F0A3
:103FA000C5C08AE0C816D10419F485E889831A824D
:103FB00082E0E816F104E1F183E0E816F10428F468
:103FC00081E0E816F10459F40CC084E0E816F1042D
:103FD00009F457C088E0E816F10409F479C082E0DA
:103FE000A6C0D0928E00C0928D000230110571F0F3
:103FF0000430110591F001301105B9F48A818E5F0A
:104000008A8310929600109295000FC082E28A83F4
:10401000F0929600E092950008C082E48A8382E0E4
:1040200090E0909396008093950088E090E076C0B1
:10403000D0929000C0928F000230110571F00430D0
:104040001105A9F001301105C9F48A81825F8A83C4
:10405000109298001092970011C08A81825D8A8325
:1040600081E090E0909398008093970007C08A8148
:10407000825B8A83F0929800E092970089E090E05A
:104080004DC0D0929200C09291000230110571F0A3
:104090000430110589F001301105B9F48A81825F7D
:1040A0008A8310929A00109299000FC08A81825DD3
:1040B0008A8381E090E005C08A81825B8A8382E006
:1040C00090E090939A00809399008AE090E026C057
:1040D000D0929400C09293000230110571F0043028
:1040E000110589F001301105B9F48A81825F8A8354
:1040F00010929C0010929B000FC08A81825D8A837F
:1041000081E090E005C08A81825B8A8382E090E052
:1041100090939C0080939B008BE090E062E070E0C5
:10412000AE014F5F5F4F0E94BE0A811181E00F9088
:104130000F90CF91DF911F910F91FF90EF90DF9043
:10414000CF900895EF92FF920F931F93DF93CF9339
:10415000CDB7DEB728970FB6F894DEBF0FBECDBF40
:10416000F82EE92EDE011196EFEAF0E088E00190EA
:104170000D928150E1F783E061E00E94FB2A8823E1
:1041800049F5F1FC09C0FE01319623E8CE010996FC
:104190002193E817F907E1F78CE090E068E070E020
:1041A0008E010F5F1F4FA8010E94BE0A882391F461
:1041B000F0928900E0928A00F2FE03C088E08983D1
:1041C00001C0198283E290E061E070E0A8010E94E2
:1041D000BE0A811181E028960FB6F894DEBF0FBEAB
:1041E000CDBFCF91DF911F910F91FF90EF90089578
:1041F0006F927F928F929F92AF92BF92CF92DF92F7
:10420000EF92FF920F931F93DF93CF9300D0CDB720
:10421000DEB78C013B0183E061E00E94FB2A88232A
:1042200009F08CC084E690E09C01629EC001639E10
:10423000900D729E900D11244C01AA2497FCA0941D
:10424000BA2C7501640131E0831630E4930630E046
:10425000A30630E0B3062CF0C12C80E4D82EE12C6C
:10426000F12CC701B60120E031E040E050E00E94AF
:10427000C9382983C701B60120E031E040E050E0B1
:104280000E94C9386A830230110501F1033011051B
:1042900028F40130110509F048C008C004301105A8
:1042A00029F10830110509F040C030C08CE190E0E0
:1042B00062E070E0AE014F5F5F4F0E94BE0A88234C
:1042C000E9F570928200609281002FC08DE190E04C
:1042D00062E070E0AE014F5F5F4F0E94BE0A88232C
:1042E00069F570928400609283001FC08EE190E0B7
:1042F00062E070E0AE014F5F5F4F0E94BE0A88230C
:10430000E9F470928600609285000FC08FE190E022
:1043100062E070E0AE014F5F5F4F0E94BE0A8823EB
:1043200069F47092880060928700C814D904EA0486
:10433000FB0411F480E003C082E001C081E00F9033
:104340000F90CF91DF911F910F91FF90EF90DF9031
:10435000CF90BF90AF909F908F907F906F90089577
:104360002F923F924F925F926F927F928F929F9285
:10437000AF92BF92CF92DF92EF92FF920F931F9373
:10438000DF93CF9300D000D00F92CDB7DEB71C01E2
:104390008091640487FF4EC025E0E22E24E0F22ED7
:1043A000772460E070E0082F10E0C801062E02C0FC
:1043B000959587950A94E2F780FF31C0E72DFF2796
:1043C000E7FDF095E20DF31D8381208130E040E0B0
:1043D00050E0522F442733272227280F311D411D3B
:1043E000511D818190E0A0E0B0E0DC019927882791
:1043F000280F391F4A1F5B1F828190E0A0E0B0E0C8
:10440000BA2FA92F982F8827280F391F4A1F5B1F03
:10441000F7012083318342835383F4E07F0E6F5F83
:104420007F4F24E030E0E20EF31E6430710509F0A6
:10443000BCCF3FC0082F10E086FD02C0772439C0F2
:10444000B5E0EB2EB4E0FB2E772460E070E0C8010D
:10445000062E02C0959587950A94E2F780FF20C04A
:10446000E72DFF27E7FDF095E20DF31D218130E0F8
:1044700040E050E0A90133272227808190E0A0E0AE
:10448000B0E0B82FAA2799278827280F391F4A1F7D
:104490005B1FF7012083318342835383F2E07F0E59
:1044A0006F5F7F4F24E030E0E20EF31E6430710551
:1044B00071F68091620487FF6FC0EDE2F4E0FD8346
:1044C000EC8388249924482E5524C201082C02C06C
:1044D000959587950A94E2F780FF4FC0E72DFF2757
:1044E000E7FDF095E20DF31D2381808190E0A0E0CF
:1044F000B0E0B82FAA2799278827820F911DA11D08
:10450000B11D218130E040E050E0A901332722278E
:10451000820F931FA41FB51F228130E040E050E0BE
:10452000542F432F322F2227820F931FA41FB51F12
:104530007C018D01110FEE08FE2C87019C01AD015D
:104540006E2D7E2D8E2D9E2D00E10E94072CFDE00C
:10455000AF2EE7EBBE2ECC24DD24EE24FF2400E0BA
:1045600010E00E940B2DC901BA01EC81FD8120836E
:10457000918342837383F4E07F0E0894811C911C25
:104580002C813D812C5F3F4F3D832C8333E083168C
:10459000910409F09ACF5FC0482E552486FF5BC076
:1045A0008DE294E09D838C8388249924C201082C99
:1045B00002C0959587950A94E2F780FF3EC0E72DEB
:1045C000FF27E7FDF095E20DF31DE180FF2400E0F9
:1045D00010E08701FF24EE24808190E0A0E0B0E0AD
:1045E000B82FAA2799278827E80EF91E0A1F1B1F34
:1045F00057016801DD0CAA08BA2C65019701A801D2
:104600006A2D7A2D8A2D9A2D00E10E94072CFDE05B
:10461000AF2EE7EBBE2ECC24DD24EE24FF2400E0F9
:1046200010E00E940B2DC901BA01EC81FD812083AD
:10463000918342837383F2E07F0E0894811C911C66
:104640002C813D812C5F3F4F3D832C8333E08316CB
:10465000910409F0ABCF8091630487FF6FC0809015
:104660006D0390906E03A0906F03B090700349E3C8
:10467000C42E44E0D42E1D821C82482E5524C20133
:104680000C8002C0959587950A94E2F780FF47C099
:10469000E72DFF27E7FDF095E20DF31D23818081D3
:1046A00090E0A0E0B0E0182F0027FF24EE24E20EF7
:1046B000F11C011D111D818190E0A0E0B0E0DC0142
:1046C00099278827E80EF91E0A1F1B1F828190E098
:1046D000A0E0B0E0BA2FA92F982F8827E80EF91E86
:1046E0000A1F1B1FF601E082F182028313838114EB
:1046F0009104A104B10489F060E070E080E090E2F0
:10470000A50194010E94C938C801B7010E94C938A7
:10471000F6012083318342835383F4E07F0E2C81A2
:104720003D812F5F3F4F3D832C8384E090E0C80E96
:10473000D91E2330310509F0A2CF65C0482E55247B
:1047400086FF61C0A0906D03B0906E03C0906F03B0
:10475000D0907003A982BA82CB826D2CE9E38E2EB1
:10476000E4E09E2E1D821C82C2010C8002C0959541
:1047700087950A94E2F780FF38C0E72DFF27E7FD11
:10478000F095E20DF31D818190E0A0E0B0E08C0196
:10479000FF24EE24808190E0A0E0B0E0B82FAA27AB
:1047A00099278827E80EF91E0A1F1B1FF401E082D3
:1047B000F18202831383A114B104C104D10499F0DE
:1047C00060E070E080E090E229813A814B81562DD3
:1047D0000E94A738C801B7010E94A738F4012083BE
:1047E000318342835383F2E07F0E2C813D812F5F22
:1047F0003F4F3D832C8384E090E0880E991E233048
:10480000310509F0B1CF8091650487FF6FC08090BA
:104810006D0390906E03A0906F03B090700355E10C
:10482000C52E54E0D52E1D821C82482E5524C2016F
:104830000C8002C0959587950A94E2F780FF47C0E7
:10484000E72DFF27E7FDF095E20DF31D2381808121
:1048500090E0A0E0B0E0182F0027FF24EE24E20E45
:10486000F11C011D111D818190E0A0E0B0E0DC0190
:1048700099278827E80EF91E0A1F1B1F828190E0E6
:10488000A0E0B0E0BA2FA92F982F8827E80EF91ED4
:104890000A1F1B1FF601E082F18202831383811439
:1048A0009104A104B10489F060E070E080E090E23E
:1048B000A50194010E94C938C801B7010E94C938F6
:1048C000F6012083318342835383F4E07F0E2C81F1
:1048D0003D812F5F3F4F3D832C8384E090E0C80EE5
:1048E000D91E2330310509F0A2CF5FC0482E5524D0
:1048F00086FF5BC080906D0390906E03A0906F0365
:10490000B090700305E1C02E04E0D02E1D821C8201
:10491000C2010C8002C0959587950A94E2F780FF4A
:1049200036C0E72DFF27E7FDF095E20DF31D8181ED
:1049300090E0A0E0B0E08C01FF24EE24808190E0C4
:10494000A0E0B0E0B82FAA2799278827E80EF91E23
:104950000A1F1B1FF601E082F18202831383811478
:104960009104A104B10489F060E070E080E090E27D
:10497000A50194010E94C938C801B7010E94C93835
:10498000F6012083318342835383F2E07F0E2C8132
:104990003D812F5F3F4F3D832C8384E090E0C80E24
:1049A000D91E2330310509F0B3CF8091660487FF0B
:1049B00084C080906D0390906E03A0906F03B090C0
:1049C0007003E1E2CE2EE4E0DE2E1D821C82482E32
:1049D0005524C2010C8002C0959587950A94E2F790
:1049E00080FF5EC0E72DFF27E7FDF095E20DF31D88
:1049F0002381808190E0A0E0B0E0182F0027FF2401
:104A0000EE24E20EF11C011D111D818190E0A0E059
:104A1000B0E0DC0199278827E80EF91E0A1F1B1F4A
:104A2000828190E0A0E0B0E0BA2FA92F982F8827CC
:104A3000E80EF91E0A1F1B1FF601E082F1820283B5
:104A4000138381149104A104B10489F060E070E043
:104A500080E090E2A50194010E94C938C801B70125
:104A60000E94C938F6012083318342835383FC813D
:104A7000F230A1F48091290490912A04A0912B0492
:104A8000B0912C0480509040A140B0408093290404
:104A900090932A04A0932B04B0932C0424E0720E6C
:104AA0008C819D8101969D838C83E4E0F0E0CE0EA5
:104AB000DF1E039709F08DCF74C0482E552486FF62
:104AC00070C080906D0390906E03A0906F03B090C3
:104AD000700341E2C42E44E0D42E1D821C82C20128
:104AE0000C8002C0959587950A94E2F780FF4DC02F
:104AF000E72DFF27E7FDF095E20DF31D818190E0A2
:104B0000A0E0B0E08C01FF24EE24808190E0A0E0E2
:104B1000B0E0B82FAA2799278827E80EF91E0A1FA8
:104B20001B1FF601E082F18202831383811491043A
:104B3000A104B10489F060E070E080E090E2A5019A
:104B400094010E94C938C801B7010E94C938F60112
:104B50002083318342835383FC81F230A1F480911E
:104B6000290490912A04A0912B04B0912C04805028
:104B70009040A140B0408093290490932A04A093D0
:104B80002B04B0932C0422E0720E8C819D8101963F
:104B90009D838C83E4E0F0E0CE0EDF1E039709F0E6
:104BA0009ECF8091670487FF27C0A9EEB3E040E065
:104BB00050E0682F70E0CB01042E02C095958795D8
:104BC0000A94E2F780FF11C0E72DFF27E7FDF0957B
:104BD000E20DF31D328120E08381F901E80FF11D20
:104BE0001196FC93EE93F4E07F0E4F5F5F4F1296A9
:104BF0004430510501F71BC0482F50E086FF17C015
:104C0000E9EEF3E020E030E0CA01022E02C0959503
:104C100087950A94E2F780FF04C01182108282E037
:104C2000780E2F5F3F4F32962430310569F780911F
:104C30006A0480FF23C0E72DFF27E7FDF095E20D12
:104C4000F31D2181708160E0620F711D882777FD5F
:104C50008095982F2CEC30E040E050E00E947538B1
:104C600060507941874E9F4F60934504709346048E
:104C7000809347049093480492E0790E80916904F0
:104C8000682F70E009E414E040E050E0CB01042E0E
:104C900002C0959587950A94E2F780FF18C0E72D2A
:104CA000FF27E7FDF095E20DF31D318120E08081C3
:104CB000F901E80FF11DCF01AA2797FDA095BA2FA2
:104CC000F80180839183A283B383F2E07F0E4F5F6C
:104CD0005F4F0C5F1F4F46305105C1F6E0916B04EA
:104CE000F0916C04309709F0099580E00F900F90D7
:104CF0000F900F900F90CF91DF911F910F91FF9028
:104D0000EF90DF90CF90BF90AF909F908F907F906B
:104D10006F905F904F903F902F900895FC01009707
:104D200011F481E008958091450490914604A0918A
:104D30004704B091480480839183A283B38380E0C9
:104D40000895FC01009711F481E0089580914904D1
:104D500090914A04A0914B04B0914C0480839183BC
:104D6000A283B38380914D0490914E04A0914F048F
:104D7000B091500484839583A683B78380915104B6
:104D800090915204A0915304B0915404808791876C
:104D9000A287B3878091550490915604A09157043F
:104DA000B091580484879587A687B7878091590466
:104DB00090915A04A0915B04B0915C04808B918B1C
:104DC000A28BB38B80915D0490915E04A0915F04EF
:104DD000B0916004848B958BA68BB78B80E008958F
:104DE00080E00895FC01009711F481E0089580911E
:104DF000390490913A04A0913B04B0913C04808323
:104E00009183A283B38380913D0490913E04A0914D
:104E10003F04B091400484839583A683B783809137
:104E2000410490914204A0914304B09144048087CE
:104E30009187A287B38780E00895FC01009711F461
:104E400081E008958091050490910604A0910704E3
:104E5000B091080480839183A283B3838091090475
:104E600090910A04A0910B04B0910C048483958363
:104E7000A683B78380910D0490910E04A0910F0436
:104E8000B091100480879187A287B3878091110425
:104E900090911204A0911304B09114048487958713
:104EA000A687B78780E00895FC01009711F481E0A0
:104EB000089580912D0490912E04A0912F04B0911B
:104EC000300480839183A283B383809131049091D5
:104ED0003204A0913304B091340484839583A68373
:104EE000B7838091350490913604A0913704B09136
:104EF000380480879187A287B38780E00895FC01FA
:104F0000009711F481E008958091150490911604A2
:104F1000A0911704B091180480839183A283B38376
:104F20008091190490911A04A0911B04B0911C0463
:104F300084839583A683B78380911D0490911E047A
:104F4000A0911F04B091200480879187A287B38726
:104F500080E00895FC01009711F481E008958091AC
:104F6000210490912204A0912304B0912404808311
:104F70009183A283B3838091250490912604A0910C
:104F80002704B091280484839583A683B7838091F6
:104F9000290490912A04A0912B04B0912C048087BD
:104FA0009187A287B38780E00895FC01009711F4F0
:104FB00081E008958091E9039091EA03AA2797FD83
:104FC000A095BA2F80839183A283B3838091EB0352
:104FD0009091EC03AA2797FDA095BA2F848395831F
:104FE000A683B7838091ED039091EE03AA2797FDE6
:104FF000A095BA2F80879187A287B3878091EF030E
:105000009091F003AA2797FDA095BA2F84879587E2
:10501000A687B78780E008950895CF93DF93EC01CA
:1050200083E061E00E94FB2A882311F081E005C043
:10503000D0936C04C0936B0480E0DF91CF9108950E
:105040000F931F93DF93CF9300D0CDB7DEB78C01C2
:105050001A82198283E061E00E94FB2A882311F002
:1050600081E00FC0009301041093020419830A83A6
:1050700088E190E062E070E0AE014F5F5F4F0E9418
:10508000BE0A0F900F90CF91DF911F910F9108955D
:10509000DF93CF930F92CDB7DEB780E3898384E1AE
:1050A00090E061E070E0AE014F5F5F4F0E94BE0A8A
:1050B000882311F081E030C081E48093680410926D
:1050C000040410920304E1E6F4E060E070E018C02C
:1050D000CD01022E02C0959587950A94E2F780FDD6
:1050E0004E5F2F5F3F4F2630310591F7808187FD5E
:1050F000440F640F711D319684E0EB36F80739F0E8
:105100008081A82FB0E040E020E030E0E1CF709354
:1051100004046093030480E00F90CF91DF91089521
:105120000F931F93DF93CF9300D000D00F92CDB792
:10513000DEB7182F062FDE011196E7EBF0E085E0D1
:1051400001900D928150E1F783E061E00E94FB2A1B
:10515000882339F5003411F48AEF8983912F10FDEB
:1051600002C083EA8A8391FD02C083EA8B8392FDA9
:1051700002C083EA8C8393FD02C083EA8C8386E0BD
:1051800090E065E070E0AE014F5F5F4F0E94BE0AA5
:10519000882339F41F70012B009367040E9448286C
:1051A00001C081E00F900F900F900F900F90CF9162
:1051B000DF911F910F9108950F931F93DF93CF936A
:1051C00000D000D000D0CDB7DEB7182F062FDE01FB
:1051D0001196ECEBF0E086E001900D928150E1F742
:1051E00083E061E00E94FB2A882319F5003411F462
:1051F0008AEF8983912F10FD02C083EA8A8391FD93
:1052000002C083EA8C8392FD02C083EA8C8382E130
:1052100090E066E070E0AE014F5F5F4F0E94BE0A13
:10522000882339F41770012B009366040E944828E4
:1052300001C081E026960FB6F894DEBF0FBECDBF49
:10524000CF91DF911F910F9108950F931F93DF93DB
:10525000CF9300D000D0CDB7DEB7182F062F89EF3F
:10526000898388E28A8380E38B8388E38C8383E06D
:1052700061E00E94FB2A882319F5003411F48AEFBB
:105280008983912F10FD02C083EA8A8391FD02C0B9
:1052900083EA8B8392FD02C083EA8C8381E190E0F4
:1052A00064E070E0AE014F5F5F4F0E94BE0A88234A
:1052B00039F41770012B009365040E94482801C03F
:1052C00081E00F900F900F900F90CF91DF911F9181
:1052D0000F9108950F931F93DF93CF9300D000D0C9
:1052E000CDB7DEB7182F062F89EF898388E28A832E
:1052F00080E58B8388E78C8383E061E00E94FB2A52
:10530000882319F5003411F48AEF8983912F10FD59
:1053100002C083EA8A8391FD02C083EA8B8392FDF7
:1053200002C083EA8C8380E190E064E070E0AE012B
:105330004F5F5F4F0E94BE0A882339F41770012B1C
:10534000009363040E94482801C081E00F900F90F1
:105350000F900F90CF91DF911F910F9108950F93B0
:105360001F93DF93CF9300D000D0CDB7DEB7182FB7
:10537000062F89EF898380E28A8388E28B8380E32A
:105380008C8383E061E00E94FB2A882319F50034B6
:1053900011F48AEF8983912F10FD02C083EA8A837A
:1053A00091FD02C083EA8B8392FD02C083EA8C8365
:1053B0008FE090E064E070E0AE014F5F5F4F0E94CD
:1053C000BE0A882339F41770012B009362040E94EF
:1053D000482801C081E00F900F900F900F90CF915F
:1053E000DF911F910F910895CF92DF92FF920F935B
:1053F0001F93DF93CF93CDB7DEB72D970FB6F894F9
:10540000DEBF0FBECDBFF82EDE011196E2ECF0E05C
:105410008DE001900D928150E1F783E061E00E9400
:10542000FB2A882309F041C00F2D10E031E0C32E84
:10543000D12CC022D122F0FE02C080E2898301FF7C
:1054400002C080E28B8302FF02C088E28D8303FFEB
:1054500002C088E28F8304FF02C080E3898705FFD2
:1054600002C080E38B8706FF02C088E38D8783E15B
:1054700090E06DE070E0AE014F5F5F4F0E94BE0AAA
:10548000882399F40E771070012B39F0F6948FE38E
:10549000F82280E4F82AF0926904CD2819F081E41A
:1054A00080936A040E94482801C081E02D960FB6BF
:1054B000F894DEBF0FBECDBFCF91DF911F910F914A
:1054C000FF90DF90CF9008951F93DF93CF9300D08C
:1054D00000D00F92CDB7DEB7182FDE011196EFEC9A
:1054E000F0E085E001900D928150E1F783E061E00A
:1054F0000E94FB2A8823A9F4103411F48AEF8983CF
:105500008EE090E065E070E0AE014F5F5F4F0E947B
:10551000BE0A882331F41F60109364040E94482857
:1055200001C081E00F900F900F900F900F90CF91DE
:10553000DF911F9108951F93182F0E94642A8823DA
:1055400021F48FEF612F0E94AF291F910895EF92F0
:10555000FF920F931F93DF93CF93CDB7DEB7C4565F
:10556000D0400FB6F894DEBF0FBECDBF082F10E0BD
:105570007E010894E11CF11C13C082E0B701409148
:1055800003040E946C0E2091030430910404225005
:1055900030408217930731F4C7010E94B0211F5F8A
:1055A00010175CF3812FCC59DF4F0FB6F894DEBF94
:1055B0000FBECDBFCF91DF911F910F91FF90EF9064
:1055C00008958CE6E1E0F4E0DF011D928A95E9F7A9
:1055D00080E090E0A0E0B0E480930504909306049E
:1055E000A0930704B093080484E190E09093020430
:1055F00080930104089520E09091C60298239613A9
:1056000021E0822F08951092C60208959091C6025B
:10561000982B9093C6020895A0E3B0E0E2E1FBE28C
:105620000C94F838A8E04E010894811C911CF401F8
:10563000BA2F1192BA95E9F729833A834B835C8399
:105640006D837E838F839887CE010996FC0111922A
:10565000AA95E9F7A986BA86CB86DC86ED86FE8612
:105660000F87188B29813A814B815C812DA73EA73A
:105670004FA758AB79018A018FEF9FEFA0E0B0E010
:10568000E822F9220A231B231A01442455242985E0
:105690003A854B855C8529A73AA74BA75CA759019A
:1056A0006A01A822B922CA22DB223A01882499245D
:1056B000C601B501A80197010E9475386DA37EA3AC
:1056C0008FA398A7C401B3010E94753869A37AA378
:1056D0008BA39CA3C601B501A20191010E9475385C
:1056E0007B018C01C401B3010E9475385B016C0120
:1056F00089A19AA1ABA1BCA18E0D9F1DA01FB11FB6
:1057000089A39AA3ABA3BCA32DA13EA14FA158A5E9
:10571000CA01AA27BB2729A13AA14BA15CA1280F46
:10572000391F4A1F5B1F29A33AA34BA35CA32E1565
:105730003F054007510740F480E090E0A1E0B0E071
:10574000A80EB91ECA1EDB1E89A19AA1ABA1BCA1DD
:105750009D01442755272A0D3B1D4C1D5D1D2D8F96
:105760003E8F4F8F58A36C01BB24AA248DA19EA10C
:10577000AFA1B8A5A070B070A80EB91ECA1EDB1EDE
:10578000A98EBA8ECB8EDC8E9A8C8B8C7C8C9E8D67
:105790006F8D78A1FE01719688E0DF011D928A95D8
:1057A000E9F72D8B9E8B6F8B788F2D853E854F85EE
:1057B00058896DA57EA58FA598A90E9475387B0193
:1057C0008C012D813E814F81588569A57AA58BA5D5
:1057D0009CA50E947538E60EF71E081F191F6D89DB
:1057E0007E898F89988D6E0D7F1D801F911F6D8B17
:1057F0007E8B8F8B988FEE892A2D392D482D572D32
:105800007E2F8F89988DE096E2E10C941439EF9207
:10581000FF920F93DF93CF93CDB7DEB760970FB6AC
:10582000F894DEBF0FBECDBFA82F002309F461C0DE
:105830007E010894E11CF11C88E0F70111928A9521
:10584000E9F729833A834B835C836D837E83AF833F
:10585000988780E2801BE82FFF27E7FDF0954981BC
:105860005A816B817C81181684F019861A861B86F2
:105870001C86882799278E1B9F0B04C0440F551F39
:10588000661F771F8A95D2F728C0202F332727FD60
:105890003095DB01CA01022E04C0880F991FAA1F90
:1058A000BB1F0A94D2F789879A87AB87BC8704C04D
:1058B0007695679557954795EA95D2F78D819E81A4
:1058C000AF81B88504C0880F991FAA1FBB1F2A95F6
:1058D000D2F7482B592B6A2B7B2B4D875E876F871E
:1058E000788B29853A854B855C856D857E85AF856E
:1058F00098898A2F60960FB6F894DEBF0FBECDBF91
:10590000CF91DF910F91FF90EF900895EF92FF926A
:105910000F93DF93CF93CDB7DEB760970FB6F894B0
:10592000DEBF0FBECDBFA82F002309F467C07E01E4
:105930000894E11CF11C88E0F70111928A95E9F7BF
:1059400029833A834B835C836D837E83AF839887FF
:1059500080E2801B4D815E816F817885E82FFF2773
:10596000E7FDF0951816B4F0DB01CA01BB0F880BF8
:10597000982FDC018D879E87AF87B88B8827992762
:105980008E1B9F0B04C075956795579547958A9513
:10599000D2F728C0202F332727FD3095DB01CA011D
:1059A000022E04C0B595A795979587950A94D2F7CE
:1059B0008D879E87AF87B88B04C0440F551F661F25
:1059C000771FEA95D2F789819A81AB81BC8104C0A7
:1059D000B695A795979587952A95D2F7482B592B79
:1059E0006A2B7B2B49875A876B877C8729853A8569
:1059F0004B855C856D857E85AF8598898A2F6096FD
:105A00000FB6F894DEBF0FBECDBFCF91DF910F91DF
:105A1000FF90EF900895A2E7B0E0E1E1FDE20C9481
:105A2000F838982E892E712E88E0FE013196DF011C
:105A3000682E1D926A94E9F729833A834B835C832D
:105A40006D837E839F829887FE013996DF011D92C8
:105A50008A95E9F7A986BA86CB86DC86ED86FE862E
:105A60000F87188B8D819E81AF81B885B7FD07C0E8
:105A7000E1961CAE1DAE1EAE1FAEE19764C021952F
:105A800081E0121608F080E0319591E0131608F0DD
:105A900090E0B32FB81B81E03B1708F080E0982B13
:105AA000419531E0141608F030E0A42FA91B81E0E5
:105AB0004A1708F080E0382B519591E0151608F050
:105AC00090E0F52FF31B81E05F1708F080E0982B42
:105AD000619531E0161608F030E0E62FE91B81E011
