:100000000C946B000C947D000C947D000C947D008E
:100010000C947D000C947D000C947D000C947D006C
:100020000C947D000C947D000C947D000C947D005C
:100030000C947D000C947D000C947D000C947D004C
:100040000C947D000C947D000C947D000C947D003C
:100050000C947D0007634236B79BD8A71A396856BF
:1000600018AEBAAB558C1D3CB7CC5763BD6DEDFDDA
:10007000753EF6177231BF000000803F0800000097
:10008000BE922449123EABAAAA2ABECDCCCC4C3E8D
:1000900000000080BEABAAAAAA3E00000000BF007C
:1000A0000000803F0000000000084178D3BB438778
:1000B000D1133D190E3CC3BD4282AD2B3E68EC828C
:1000C00076BED98FE1A93E4C80EFFFBE01C4FF7F11
:1000D0003F000000000011241FBECFE5D8E0DEBFC6
:1000E000CDBF10E0A0E6B0E001C01D92A638B10778
:1000F000E1F70E947F000C949B0C0C9400002F925F
:100100003F924F925F926F927F928F929F92AF92A7
:10011000BF92CF92DF92EF92FF920F931F93DF93E4
:10012000CF93CDB7DEB762970FB6F894DEBF0FBEA0
:10013000CDBF1E861D86188A1F861A8A198A0E94BC
:10014000C1050E945E0680E29EE40197F1F780ED12
:1001500097E028EC30E0F9013197F1F70197D9F7F2
:1001600043E0242E312C2C0E3D1E35E0432E512C25
:100170004C0E5D1E27E0622E712C6C0E7D1E99E0E8
:10018000892E912C8C0E9D1E8BE0A82EB12CAC0ECE
:10019000BD1E6E010894C11CD11CC601B101A20193
:1001A0009301840175010E944F078F819885C29742
:1001B0002CF48F819885181619064CF08F8198853C
:1001C0008F5C9F4F34F08F81988597FF02C018860F
:1001D0001F8289859A85C2972CF489859A8518167D
:1001E00019064CF089859A858F5C9F4F34F089857C
:1001F0009A8597FF02C01A8619868B859C85C297BF
:100200002CF48B859C85181619064CF08B859C85E3
:100210008F5C9F4F34F08B859C8597FF02C01C86B6
:100220001B862D853E858F819885820F931F9E8723
:100230008D872F85388989859A85820F931F988BA2
:100240008F8729893A898B859C85820F931F9A8B8A
:10025000898BA3CFA298AA9A08950E949C0920E8AE
:1002600036EE45EC57E40E94010922E63BED42E4FC
:100270005EE30E948B0A9B01AC0160E070E080E8C5
:100280009FE30E949C0820E03AE24DE257E40E947E
:10029000280A20E030E040E251E40E94280A0E944F
:1002A000D70A0E9469099B01AC01CA010895EF9227
:1002B000FF920F931F93CF93DF93182FEB010E94B0
:1002C0001A060E943F068883882321F488E00E9452
:1002D000520688838881882331F48EEE0E94350689
:1002E0000E943F0688838881882321F488E10E9448
:1002F000520688838881882331F4812F0E94350635
:100300000E943F0688838881882321F488E20E9426
:10031000520688838881882329F40E941A060E9445
:100320003F0688838881882321F480E10E94520659
:1003300088838881882331F48FEE0E9435060E94DD
:100340003F0688838881882321F480E40E94520636
:1003500088838881882329F40E9439060E943F06F9
:1003600088838881882319F0EE24FF2407C00E9427
:100370005006E82EFF240E943F0688838881882348
:1003800021F480E50E94520688838881882329F41D
:100390000E943C060E943F0688838881882319F0CA
:1003A00000E010E007C00E945006082F10E00E94F5
:1003B0003F0688838881882321F488E50E945206BD
:1003C00088838881882319F40E941D0688833E2D26
:1003D0002227200F311FC901DF91CF911F910F916B
:1003E000FF90EF900895EF92FF920F931F93CF939A
:1003F000DF938C017B01EA01A298AA9A8881882365
:1004000039F48AEABA010E945701F8019183808386
:100410008881882339F48CEABE010E945701F801D3
:10042000938382838881882339F48EEABE010E94F7
:100430005701F801958384838881882339F480EB00
:10044000BE010E945701F701918380838881882330
:1004500039F482EBBE010E945701F7019383828336
:100460008881882339F484EBBE010E945701F7018B
:10047000958384838881882339F486EBBE010E94AA
:100480005701F801978386838881882339F488EBA4
:10049000BE010E945701F8019187808788818823D7
:1004A00039F48AEBBE010E945701F80193878287D5
:1004B0008881882339F48CEBBE010E945701F80132
:1004C000958784878881882339F48EEBBE010E944A
:1004D0005701F80197878687DF91CF911F910F9180
:1004E000FF90EF900895CF93DF93EC010E941A06DE
:1004F0000E943F068883882321F488E00E945206E8
:1005000088838881882331F48EEE0E9435060E940C
:100510003F0688838881882321F488E10E9452065F
:1005200088838881882331F484EF0E9435060E94F5
:100530003F0688838881882321F488E20E9452063E
:1005400088838881882331F484E30E9435060E94E1
:100550003F0688838881882321F488E20E9452061E
:1005600088838881882319F40E941D06888380E08F
:1005700090E032E004C0232F2A95F1F701969A9972
:1005800004C02AE388399207B1F780E991E028ECAA
:1005900030E0F9013197F1F70197D9F78881882385
:1005A00029F020E030E040E050E007C086EFBE01D7
:1005B0000E9457019C0140E050E0B901CA01DF915F
:1005C000CF910895CF93DF93EC010E941A060E9409
:1005D0003F068883882321F488E00E94520688839E
:1005E0008881882331F48EEE0E9435060E943F06F2
:1005F00088838881882321F488E10E9452068883B9
:100600008881882331F484EF0E9435060E943F06DA
:1006100088838881882321F488E20E945206888397
:100620008881882331F48EE20E9435060E943F06BD
:1006300088838881882321F488E20E945206888377
:100640008881882319F40E941D06888380E090E049
:1006500032E004C0232F2A95F1F701969A9904C03D
:1006600023E188389207B1F780E29EE40197F1F721
:100670008881882329F020E030E040E050E007C086
:1006800086EFBE010E9457019C0140E050E0B90195
:10069000CA01DF91CF9108952F923F924F925F92BE
:1006A0006F927F928F929F92AF92BF92CF92DF9282
:1006B000EF92FF920F931F93DF93CF93CDB7DEB7E7
:1006C0002E970FB6F894DEBF0FBECDBFFC016A01B6
:1006D0003E872D878081918190936500809364008F
:1006E0008281938190936D0080936C0084819581C9
:1006F0009093790080937800DB018D919C91119704
:10070000909371008093700012968D919C91139735
:1007100090936B0080936A0014968D919C9115972D
:100720009093690080936800868197819093670019
:10073000809366008085918590936100809360002E
:10074000828593859093630080936200848595856C
:1007500090937300809372008685978590936F00C5
:1007600080936E00F8018081882359F4C8010E94AB
:10077000E20260937400709375008093760090930A
:100780007700D8018C91882329F019821A821B8264
:100790001C8207C0C8010E94730269837A838B831D
:1007A0009C836091740070917500809176009091A7
:1007B0007700E0906800F090690020916A00309125
:1007C0006B0000E010E06E197F09800B910B40E098
:1007D00050E00E942B0C7B018C01FFE015950795E2
:1007E000F794E794FA95D1F76091720070917300D5
:1007F00020916E0030916F00882777FD8095982FAB
:10080000EBE0660F771F881F991FEA95D1F7442701
:1008100037FD4095542F2E0D3F1D401F511F0E9444
:10082000800C39014A016E0C7F1C801E911E88E0ED
:1008300090E0A0E0B0E0680E791E8A1E9B1ED401F5
:10084000C30164E0B595A795979587956A95D1F70B
:10085000F60180839183A283B38388E590EFAFEFA5
:10086000BFEF680E791E8A1E9B1EA0916000B0919A
:100870006100BC87AB87C401B301A40193010E944E
:100880002B0CDC01CB015CE0B595A795979587957E
:100890005A95D1F78F839887A987BA87A0916C0062
:1008A000B0916D00BE83AD83A0906400B0906500F0
:1008B0002091780030917900209066003090670098
:1008C000C0907000D0907100442737FD4095542FA0
:1008D000C401B3010E942B0C7B018C014DE01595E6
:1008E0000795F794E7944A95D1F782E090E0A0E06D
:1008F000B0E0E80EF91E0A1F1B1F442437FC409489
:10090000542C6F81788589859A85A20191010E9476
:100910002B0CBC01992777FD9095892FE60EF71EC9
:10092000081F191F22E015950795F794E7942A955B
:10093000D1F780E090E8A0E0B0E0E80EF91E0A1FD1
:100940001B1F960140E050E0C801B7010E942B0C2C
:100950007B018C019FE016950795F794E7949A9593
:10096000D1F7CC24B7FCC094DC2C82E0AA0CBB1CD1
:10097000CC1CDD1C8A95D1F782E090E0A0E0B0E0CD
:10098000A80EB91ECA1EDB1EAD81BE819D01442783
:1009900037FD4095542FC401B3010E942B0CBBE0DE
:1009A0009595879577956795BA95D1F7A60EB71E59
:1009B000C81ED91EEB85FC859F01442737FD409555
:1009C000542F6F81788589859A850E942B0CABE026
:1009D0009595879577956795AA95D1F7A60EB71E39
:1009E000C81ED91EF2E0D594C794B794A794FA957F
:1009F000D1F789819A81AB81BC818A199B09AC09A5
:100A0000BD0989839A83AB83BC83BC01CD0120E5FA
:100A100033EC40E050E00E942B0C97FD0DC0660FB8
:100A2000771F881F991FA80197010E945E0CC901BA
:100A3000DA015C016D010AC0A80197010E945E0CF9
:100A400059016A01AA0CBB1CCC1CDD1C5527D7FC24
:100A50005A954D2D3C2D2B2DCA01B9010E942B0C0E
:100A60002EED3BE040E050E00E942B0C7B018C011E
:100A7000C601B50123E433EE4FEF5FEF0E942B0C6C
:100A8000BC01992777FD9095892F6153714F8F4F46
:100A90009F4F78011127F7FC1095012F6E0D7F1DD8
:100AA000801F911F24E095958795779567952A95E6
:100AB000D1F76A0D7B1D8C1D9D1DAD85BE856D9387
:100AC0007D938D939C9313972E960FB6F894DEBF6B
:100AD0000FBECDBFCF91DF911F910F91FF90EF908F
:100AE000DF90CF90BF90AF909F908F907F906F904E
:100AF0005F904F903F902F90089587B18F7387B983
:100B000086B1866886B9369A3699FECF84B195B19A
:100B10000895982F8450843008F497B9369A3699FE
:100B2000FECF24B135B18CED95E0AC01249FC0011E
:100B3000259F900D349F900D112481509E4F6FEF93
:100B400073E00E944A0CCB010895982F84508430A2
:100B500008F497B9369A3699FECF24B135B184EFAF
:100B600091E0AC01249FC001259F900D349F900D12
:100B7000112481509E4F6FEF73E00E944A0CCB010D
:100B80000895D69ADE9AD09AD19A089521B3206317
:100B900021BB2FB522602FBD2FB52E7F2FBD2EB5C7
:100BA00020612EBD2EB5277F2EBD21E732E037BD57
:100BB00026BD2FB520682FBD2FB52F7B2FBD2EB59D
:100BC00023602EBD2EB52B6F2EBD9BBD8ABD089513
:100BD0009BBD8ABD08952EB528602EBD2EB521601F
:100BE0002EBD9BBD8ABD089511B8A0E0B0E0BC0148
:100BF000CD010E949A099B01AC0160E070E08AEF90
:100C000095E40E9401090E946E09603188F070E04D
:100C100060517040882777FD8095982F0E949C092D
:100C200020E030E040E05EE30E94280A0E946E0966
:100C300060B9089584EA86BF089584E986BF90E08C
:100C400022E004C0822F8A95F1F79F5F06B604FE6A
:100C500003C09A35B9F704C09A3510F480E00895BE
:100C600082E08A95F1F784E6089583B984E886BF27
:100C7000089584EC86BF089584E886BF089590E0C7
:100C800022E004C0822F8A95F1F79F5F06B607FE27
:100C9000F9CF9A35B8F382E08A95F1F784E60895A2
:100CA00083B1089521B130E0287F307090E028179B
:100CB000390711F08AE0089580E0089511B888E0BE
:100CC00080B981E00895982F84EA86BF06B607FEB2
:100CD000FDCF81B1887F883021F0803111F090E024
:100CE00014C0990F690F63B984E886BF06B607FE82
:100CF000FDCF81B1887F883111F491E006C090E08A
:100D0000803409F091E081E09827892F089584E9E3
:100D100086BF06B607FCFDCF089583B984E886BF79
:100D200006B607FEFDCF81B190E0887F883209F4D6
:100D300091E0892F089584EC86BF06B607FEFDCFAB
:100D400083B1089584E886BF06B607FEFDCF83B160
:100D50000895EF92FF920F931F93CF93DF93082F85
:100D6000F62EEA0160E00E946306182F882389F0BE
:100D70008F2D0E948D06182F882359F0802F61E057
:100D80000E946306182F882321F00E94A206E82EF5
:100D900001C0EE240E948706112331F1802F60E00C
:100DA0000E946306182F882391F08F2D8F5F0E9479
:100DB0008D06182F882359F0802F61E00E9463066A
:100DC000182F882321F00E94A206082F01C000E0FE
:100DD0000E948706112341F0902F80E08E0D911D17
:100DE0009983888381E001C080E0DF91CF911F91DA
:100DF0000F91FF90EF900895EF92FF920F931F9342
:100E0000CF93DF93082FE62EEA0160E00E9463068D
:100E1000182F882389F08E2D0E948D06182F882385
:100E200059F0802F61E00E946306182F882321F07B
:100E30000E94A206F82E01C0FF240E9487061123FB
:100E400031F1802F60E00E946306182F882391F013
:100E50008E2D8F5F0E948D06182F882359F0802FCA
:100E600061E00E946306182F882321F00E94A206E9
:100E7000082F01C000E00E948706112341F09F2D3A
:100E800080E0800F911D9983888381E001C080E01C
:100E9000DF91CF911F910F91FF90EF9008956F9286
:100EA0007F928F929F92AF92BF92CF92DF92EF92FA
:100EB000FF920F931F93DF93CF93CDB7DEB72C979D
:100EC0000FB6F894DEBF0FBECDBF6C015B014A01C7
:100ED000390188E66DE1AE014F5F5F4F0E94FC066D
:100EE00088E66FE1AE014D5F5F4F0E94FC0688E629
:100EF00061E2AE014B5F5F4F0E94FC0688E663E251
:100F0000AE01495F5F4F0E94A90688E665E2AE0127
:100F1000475F5F4F0E94A90688E667E2AE01455F22
:100F20005F4F0E94A90689819A8120917C003091AF
:100F30007D00821B930BF601918380838B819C81C2
:100F400020917E0030917F00821B930BF5019183ED
:100F500080838D819E812091800030918100821B51
:100F6000930BF401918380838F81988520917A007F
:100F700030917B00821B930BF301918380838985E1
:100F80009A852091840030918500821B930BF80193
:100F9000918380838B859C85209182003091830092
:100FA000821B930BF701918380832C960FB6F894E4
:100FB000DEBF0FBECDBFCF91DF911F910F91FF908C
:100FC000EF90DF90CF90BF90AF909F908F907F90E9
:100FD0006F900895EF92FF920F931F93082FF62EB4
:100FE000E42E60E00E946306182F882351F08F2DB5
:100FF0000E948D06182F882321F08E2D0E948D06C9
:10100000182F0E948706112311F480E017C0802F4B
:1010100060E00E946306182F882359F08F2D8F5FA0
:101020000E948D06182F882321F08E2D0E948D0698
:10103000182F0E948706812F111181E01F910F91B7
:10104000FF90EF9008950F931F93CF93DF93082F96
:10105000162FEA0160E00E946306882391F0812F39
:101060000E948D06882369F0802F61E00E9463064C
:10107000882339F00E94A20688830E94870681E0B7
:1010800003C00E94870680E0DF91CF911F910F91EE
:1010900008950F931F93162F042F60E00E9463069C
:1010A000882371F0812F0E948D06882349F0802FBC
:1010B0000E948D06882321F00E94870681E003C0EC
:1010C0000E94870680E01F910F91089583E56DE2ED
:1010D00048E00E94490883E561E34BE00E9449082B
:1010E000089588E66EE347E80E94490888E66EE3C3
:1010F00041E00E94490888E666E14BE10E94490808
:1011000088E66FE747E00E94490888E664E143E526
:101110000E94490888E668E142E30E94490888E69F
:101120006DE348E00E9449080E94660888E66DE386
:1011300048E20E94490808955058BB27AA270ED0BC
:101140004DC13ED130F043D120F031F49F3F11F436
:101150001EF433C10EF4E095E7FB29C1E92F4FD10E
:1011600080F3BA17620773078407950718F071F4C4
:101170009EF567C10EF4E0950B2EBA2FA02D0B0142
:10118000B90190010C01CA01A0011124FF27591BCC
:1011900099F0593F50F4503E68F11A16F040A22FD2
:1011A000232F342F4427585FF3CF46953795279543
:1011B000A795F0405395C9F77EF41F16BA0B620B42
:1011C000730B840BBAF09150A1F0FF0FBB1F661F89
:1011D000771F881FC2F70EC0BA0F621F731F841FCC
:1011E00048F4879577956795B795F7959E3F08F0F2
:1011F000B3CF9395880F08F09927EE0F97958795B1
:1012000008950CD0EBC0E3D040F0DAD030F021F4F8
:101210005F3F19F0CCC0511115C1CFC0F0D098F389
:101220009923C9F35523B1F3951B550BBB27AA2767
:1012300062177307840738F09F5F5F4F220F331FD9
:10124000441FAA1FA9F333D00E2E3AF0E0E830D0A5
:1012500091505040E695001CCAF729D0FE2F27D0A8
:10126000660F771F881FBB1F261737074807AB0776
:10127000B0E809F0BB0B802DBF01FF2793585F4FEB
:101280002AF09E3F510568F092C0DCC05F3FECF34E
:10129000983EDCF3869577956795B795F7959F5FB0
:1012A000C9F7880F911D9695879597F90895E1E004
:1012B000660F771F881FBB1F621773078407BA0763
:1012C00020F0621B730B840BBA0BEE1F88F7E095BE
:1012D000089504D06894B111B5C0089598D088F0ED
:1012E0009F5790F0B92F9927B751A0F0D1F0660F12
:1012F000771F881F991F1AF0BA95C9F712C0B1302D
:1013000081F09FD0B1E008959CC0672F782F882787
:10131000B85F39F0B93FCCF3869577956795B3956B
:10132000D9F73EF490958095709561957F4F8F4FDA
:101330009F4F0895E89409C097FB3EF490958095DF
:10134000709561957F4F8F4F9F4F9923A9F0F92F8B
:1013500096E9BB279395F695879577956795B79509
:10136000F111F8CFFAF4BB0F11F460FF1BC06F5FEF
:101370007F4F8F4F9F4F16C0882311F096E911C001
:10138000772321F09EE8872F762F05C0662371F022
:1013900096E8862F70E060E02AF09A95660F771F36
:1013A000881FDAF7880F9695879597F9089597F92A
:1013B0009F6780E870E060E008959FEF80EC0895FB
:1013C00000240A9416161706180609060895002424
:1013D0000A9412161306140605060895092E03949E
:1013E000000C11F4882352F0BB0F40F4BF2B11F412
:1013F00060FF04C06F5F7F4F8F4F9F4F089557FD71
:101400009058440F551F59F05F3F71F04795880F72
:1014100097FB991F61F09F3F79F087950895121609
:1014200013061406551FF2CF4695F1DF08C01616B5
:1014300017061806991FF1CF869571056105089466
:101440000895E894BB2766277727CB0197F908957D
:101450000BD0C4CFB5DF28F0BADF18F0952309F020
:10146000A6CFABCF1124EECFCADFA0F3959FD1F367
:10147000950F50E0551F629FF001729FBB27F00D42
:10148000B11D639FAA27F00DB11DAA1F649F662797
:10149000B00DA11D661F829F2227B00DA11D621FE6
:1014A000739FB00DA11D621F839FA00D611D221FA0
:1014B000749F3327A00D611D231F849F600D211D84
:1014C000822F762F6A2F11249F5750408AF0E1F027
:1014D00088234AF0EE0FFF1FBB1F661F771F881F70
:1014E00091505040A9F79E3F510570F060CFAACFB0
:1014F0005F3FECF3983EDCF3869577956795B7955B
:10150000F795E7959F5FC1F7FE2B880F911D969584
:10151000879597F90895FA01EE0FFF1F3096210580
:10152000310599F16115710561F48038BFE39B07BE
:1015300049F168949038810561F08038BFEF9B07CE
:1015400041F0992342F5FF3FE1053105210511F1F5
:10155000E8940894E795D901AA2329F4AB2FBE2F6C
:10156000F85FD0F310C0FF5F70F4A695E0F7F7398D
:1015700050F019F0FF3A38F49F779F930CD00F90FA
:1015800007FC905808953EF018CF60E070E080E8C6
:101590009FE308954FE79F775F934F933F932F9378
:1015A000E7D02F913F914F915F9152DF25C02FDF00
:1015B000E0F09E37D8F09639B8F49E3848F4672F9B
:1015C000782F8827985FF9CF8695779567959395BB
:1015D0009539D0F3B62FB1706B0F711D811D20F4BA
:1015E000879577956795939533C04DC02BCF19F4A8
:1015F0000EF0DDCE26CFE1CE0ADFC8F39638C0F775
:1016000007F80F92E8942BE33AEA48EB5FE72EDF06
:101610000F920F920F924DB75EB70F92E9D0E4E5AB
:10162000F0E03FD04F915F91EF91FF91E595EE1F74
:10163000FF1F49F0FE57E0684427EE0F441FFA955C
:10164000E1F74195550B5BD00F9007FE4FC0089511
:10165000882371F4772321F09850872B762F07C0C9
:10166000662311F499270DC09051862B70E060E03D
:101670002AF09A95660F771F881FDAF7880F9695DC
:10168000879597F908959F3F31F0915020F4879501
:1016900077956795B795880F911D9695879597F9DA
:1016A0000895DF93CF931F930F93FF92EF92DF92F2
:1016B0007B018C01689405C0DA2EEF01D5DEFE01B6
:1016C000E894A5912591359145915591AEF3EF019F
:1016D00045DDFE019701A801DA9479F7DF90EF90DC
:1016E000FF900F911F91CF91DF9108959B01AC0165
:1016F00060E070E080E89FE384CD59CEC4CF87DE00
:10170000E8F39923D9F3940F511DBBF39150504046
:1017100094F059F0882332F0660F771F881F91509C
:101720005040C1F79E3F510544F7880F911D969593
:10173000879597F908955F3FACF0983E9CF0BB27E2
:10174000869577956795B79508F4B1609395C1F73D
:10175000BB0F58F711F460FFE8CF6F5F7F4F8F4FDB
:101760009F4FE3CF6FCE0EF08ECF27CE68941FCE63
:101770004EDEC8F39923D1F3C6F3DF93CF931F93C3
:101780000F93FF92C92FDD2788232AF02197660F38
:10179000771F881FDAF720E030E040E85FEB9FE337
:1017A000883920F0803E30F021968F77C6DCECE758
:1017B000F0E003C0C2DCE9EAF0E073DF8B01BE01B8
:1017C000EC01FB2E6F5771097595771F880B990BEC
:1017D000B3DD28E132E741E35FE346DEAF2D980158
:1017E000AE01FF900F911F91CF91DF91B7DCF6CD45
:1017F000FA01DC01AA0FBB1F9B01AC01BF5728F403
:1018000022273327442750781FC0B75188F4AB2FC5
:101810000024469537952795011CA395D2F3002007
:1018200069F0220F331F441FB395DAF30DD084CC37
:1018300061307105A0E88A07B94630F49B01AC011C
:101840006627772788279078309621F02083318388
:10185000428353830895629FD001739FF001829F5A
:10186000E00DF11D649FE00DF11D929FF00D839F2F
:10187000F00D749FF00D659FF00D9927729FB00DCC
:10188000E11DF91F639FB00DE11DF91FBD01CF01DF
:1018900011240895AA1BBB1B51E107C0AA1FBB1F3F
:1018A000A617B70710F0A61BB70B881F991F5A95EC
:1018B000A9F780959095BC01CD010895A1E21A2E5B
:1018C000AA1BBB1BFD010DC0AA1FBB1FEE1FFF1FE4
:1018D000A217B307E407F50720F0A21BB30BE40B34
:1018E000F50B661F771F881F991F1A9469F760957B
:1018F0007095809590959B01AC01BD01CF01089535
:1019000097FB092E05260ED057FD04D0D7DF0AD04D
:10191000001C38F450954095309521953F4F4F4F1E
:101920005F4F0895F6F790958095709561957F4F7C
:0A1930008F4F9F4F0895F894FFCFEA
:00000001FF
