:100000000EC028C027C026C025C0AEC023C022C055
:1000100021C020C01FC01EC01DC01CC01BC0112499
:100020001FBECFE5D1E0DEBFCDBF10E0A0E6B0E05F
:10003000E4E2F8E002C005900D92A036B107D9F7CE
:1000400010E0A0E6B0E001C01D92A536B107E1F7CF
:1000500079D1E6C3D5CFCF93DF9300D0CDB7DEB74C
:1000600086E290E026E230E0F90120812068FC0180
:10007000208387E290E027E230E0F90120812068C8
:10008000FC01208386E290E026E230E0F901208145
:100090002664FC012083000086E290E0FC01808160
:1000A000882F90E0807490700097B1F784E290E020
:1000B000FC01808191819A8389830F900F90DF9159
:1000C000CF910895CF93DF9300D000D00F92CDB79A
:1000D000DEB78D8387E290E02D812058FC012083DC
:1000E00086E290E026E230E0F90120812064FC0104
:1000F0002083000086E290E0FC018081882F90E060
:10010000807490700097B1F784E290E0FC018081E8
:100110009181CC01A0E0B0E089839A83AB83BC835A
:1001200069817A818B819C812CEA31ED49E050E034
:100130003CD3DC01CB0182539843AF4FBF4F2CE936
:100140003FE841E050E0BC01CD0148D329833A8328
:100150004B835C8389819A810F900F900F900F9051
:100160000F90DF91CF9108951F920F920FB60F92CB
:1001700011248F939F93AF93BF93CF93DF93CDB70A
:10018000DEB780916000813001F58091610090912F
:100190006200A0916300B091640082329105A105D4
:1001A000B10598F08091610090916200A091630088
:1001B000B09164008197A109B10980936100909387
:1001C0006200A0936300B0936400DF91CF91BF9170
:1001D000AF919F918F910F900FBE0F901F90189528
:1001E000CF93DF93CDB7DEB710926100109262001B
:1001F00010926300109264001092600087E390E018
:1002000027E330E0F90120812560FC012083DF91A4
:10021000CF910895CF93DF93CDB7DEB787E390E01A
:1002200027E330E0F90120812260FC01208388E48B
:1002300090E026E1FC01208383E590E023E530E0B7
:10024000F90120812560FC0120838AE490E02AE402
:1002500030E0F90120812360FC01208389E590E0F2
:1002600029E530E0F90120812260FC012083DF9143
:10027000CF910895CF93DF930F92CDB7DEB78983E7
:1002800088E490E02981FC0120830F90DF91CF91D9
:100290000895CF93DF93CDB7DEB78AE490E02AE4E8
:1002A00030E0F90120812F7DFC012083DF91CF9187
:1002B0000895CF93DF93CDB7DEB78AE490E02AE4C8
:1002C00030E0F90120812062FC012083DF91CF9191
:1002D0000895CF93DF93CDB7DEB785E590E025E5B0
:1002E00030E0F9012081277EFC012083F89481E031
:1002F0008093600014C085E590E025E530E0F901C9
:1003000020812062FC0120837894889585E590E027
:1003100025E530E0F90120812F7DFC0120838091CB
:10032000610090916200A0916300B09164008232FC
:100330009105A105B105F8F6109260007894DF915F
:10034000CF910895CF93DF93CDB7DEB760970FB607
:10035000F894DEBF0FBECDBF19821D861E861F8694
:10036000188A3EDF78DE56DF789401C00000B1DFE6
:100370008981882309F588E390E028E330E0F901DA
:1003800020812A7FFC0120831B821A828FEF9FEF3E
:100390009B878A871C8682E08E839E8186E1692FF7
:1003A00000D11092610010926200109263001092CE
:1003B000640081E08983DACF8981813009F048C007
:1003C00082E080DE99878887288539858A859B85A4
:1003D0002817390730F4888599859B878A878E810D
:1003E0008C878E818F838E818F5F8E838F819E819C
:1003F000692FD7D084EF91E0A0E0B0E08093610056
:1004000090936200A0936300B09364008E81873163
:1004100008F4ACCF8F819C85692FC3D08C858E83E7
:1004200083E050DE9B838A838A819B81F9E0843C50
:100430009F0718F484E0898399CF1092610010928D
:100440006200109263001092640082E089838ECF74
:1004500089818230E9F483E035DE9B838A8380E002
:1004600031DE9D838C8310926100109262001092A5
:100470006300109264002A813B818C819D818217E8
:10048000930718F483E0898371CF84E089836ECF6A
:1004900089818330A1F51D861E861F86188A83E018
:1004A00011DE9B838A8380E00DDE9D838C8388E34D
:1004B00090E028E330E0F90120812460FC012083F2
:1004C000109261001092620010926300109264001A
:1004D0002A813B818C819D812817390718F484E09B
:1004E000898344CF88EE93E0A0E0B0E08093610080
:1004F00090936200A0936300B093640037CF89812A
:10050000843009F033CF88E390E028E330E0F9014C
:1005100020812B7FFC01208383E0D4DD9B838A83B1
:1005200080E0D0DD9D838C83109261001092620088
:1005300010926300109264002A813B818C819D811E
:100540008217930718F483E0898310CF8D859E85E9
:10055000AF85B889813EF3E99F07F4E0AF07F0E08B
:10056000BF0730F01D861E861F86188A1982FECEB0
:1005700080E197E2A0E0B0E0809361009093620098
:10058000A0936300B09364008D859E85AF85B88984
:10059000805F984DAF4FBF4F8D879E87AF87B88BD9
:1005A000E5CECF93DF93CDB7DEB72A970FB6F89499
:1005B000DEBF0FBECDBF89876A87198281E08E8337
:1005C0008985888788859A85981710F01F8202C0D0
:1005D00081E08F836EDEDBC07CDE88E390E028E381
:1005E00030E0F90120812E7FFC012083898188235E
:1005F000B9F588E390E028E330E0F90120812E7F0F
:10060000FC01208383E05EDD9B838A838A819B815A
:100610009D838C831092610010926200109263009F
:100620001092640098858A85981711F41E82AFC0D5
:100630008A819B81F3E189389F0718F082E08983E2
:10064000A6C084E690E0A0E0B0E0809361009093C3
:100650006200A0936300B093640081E0898397C037
:100660008981813049F583E02DDD9B838A83109257
:1006700061001092620010926300109264002A815F
:100680003B818C819D818217930798F488EC90E0E0
:10069000A0E0B0E08093610090936200A0936300BB
:1006A000B09364008A819B819D838C8381E08983E0
:1006B0006EC082E089836BC089818230E1F4109240
:1006C00061001092620010926300109264008F81AA
:1006D000882321F498858A85981738F48F81813092
:1006E00039F498858A85891718F084E089834FC08A
:1006F00083E089834CC089818330A1F588EC90E048
:10070000A0E0B0E08093610090936200A09363004A
:10071000B09364008F81882321F488858F5F888758
:1007200003C08885815088878885A4DD88E390E0B0
:1007300028E330E0F90120812160FC0120838F81D2
:10074000882321F498858A85981738F48F81813021
:1007500039F498858A85891718F084E0898317C051
:10076000198215C08981843091F410926100109231
:10077000620010926300109264001E8288E390E091
:1007800028E330E0F90120812E7FFC0120838E8157
:10079000813009F421CF7DDD2A960FB6F894DEBFB3
:1007A0000FBECDBFDF91CF910895FF27EE27BB2766
:1007B000AA2760FF04C0A20FB31FE41FF51F220F7A
:1007C000331F441F551F969587957795679589F731
:1007D0000097760771F7CF01BD010895A1E21A2EA7
:1007E000AA1BBB1BFD010DC0AA1FBB1FEE1FFF1FD5
:1007F000A217B307E407F50720F0A21BB30BE40B25
:10080000F50B661F771F881F991F1A9469F760956B
:100810007095809590959B01AC01BD01CF01089525
:04082000F894FFCF7A
:00000001FF
