:100000000C9435030C9447030C9447030C9447035A
:100010000C9447030C9447030C9447030C94470338
:100020000C9447030C9447030C9447030C94470328
:100030000C9447030C9447030C9447030C94470318
:100040000C9447030C9447030C9447030C94470308
:100050000C944703416C7469747564653A20000020
:100060000000000000003E4551453E003E6B6F6BB6
:100070003E001C3E7C3E1C00183C7E3C1800303686
:100080007F363000185C7E5C180000000000000025
:100090000000000000000000000000000000000060
:1000A000000030484A360E00062979290600000073
:1000B00000000000607E0A353F002A1C361C2A0022
:1000C000007F3E1C0800081C3E7F000014367F366F
:1000D0001400005F005F000006097F017F00224DD1
:1000E0005559220060606060000014B6FFB614002D
:1000F00004067F06040010307F30100008083E1C04
:100100000800081C3E080800784040404000083EB7
:10011000083E0800303C3F3C3000030F3F0F030017
:1001200000000000000000065F0600000703000753
:100130000300247E247E2400242B6A120000631313
:100140000864630036495620500000070300000091
:10015000003E4100000000413E000000083E1C3E01
:10016000080008083E08080000E0600000000808D9
:100170000808080000606000000020100804020069
:100180003E5149453E0000427F40000062514949CE
:1001900046002249494936001814127F10002F49A1
:1001A000494931003C4A49493000017109050300C1
:1001B000364949493600064949291E00006C6C0041
:1001C000000000EC6C000000081422410000242410
:1001D00024242400004122140800020159090600C9
:1001E0003E415D551E007E1111117E007F49494937
:1001F00036003E41414122007F4141413E007F495E
:10020000494941007F09090901003E4149497A00F5
:100210007F0808087F0000417F41000030404040D7
:100220003F007F08142241007F40404040007F0291
:1002300004027F007F0204087F003E4141413E00EE
:100240007F09090906003E4151215E007F09091915
:10025000660026494949320001017F0101003F4003
:1002600040403F001F2040201F003F403C403F00D7
:1002700063140814630007087008070071494543B8
:100280000000007F414100000204081020000041EE
:10029000417F000004020102048080808080800091
:1002A0000003070000002054545478007F44444465
:1002B0003800384444442800384444447F003854CB
:1002C00054540800087E0909000018A4A4A47C0066
:1002D0007F040478000000007D4000004080847DA1
:1002E00000007F102844000000007F4000007C04D4
:1002F000180478007C040478000038444444380032
:10030000FC444444380038444444FC0044784404E9
:100310000800085454542000043E442400003C408B
:10032000207C00001C2040201C003C6030603C0011
:100330006C10106C00009CA0603C00006454544C95
:100340000000083E4141000000007700000000412D
:10035000413E08000201020100003C2623263C0029
:100360001EA1E12112003D40207D0000385454556B
:1003700009002055555578002055545578002055D2
:10038000555478002057555778001CA2E2221400DB
:1003900038555555080038555455080038555554AA
:1003A000080000017C41000000017D4100000001C7
:1003B0007C400000702924297000782F252F7800B8
:1003C0007C545455450034547C5458007E097F4970
:1003D0004900384545390000384544390000394561
:1003E000443800003C41217D00003D41207C00005C
:1003F0009CA1603D00003D42423D00003C41403D2B
:100400000080706858380400483E494962007E61A7
:100410005D433F0022140814220040887E09020038
:1004200020545555780000007D410000384445397E
:1004300000003C40217D00007A090A7100007A1119
:1004400022790000085555555E004E51514E00006E
:1004500030484D40203E415D4B553E0404040404A9
:100460001C0017084C6A50001708342A7800003026
:100470007D3000000814000814001408001408441B
:100480001144114411AA55AA55AA55BBEEBBEEBBA7
:10049000EE000000FF0000080808FF0000007028C0
:1004A0002529700070292529700070292528703EA3
:1004B000415D55413E0AFB00FF000000FF00FF00C8
:1004C000000AFA02FE00000A0B080F0000001824C0
:1004D00066240000292A7C2A29080808F800000060
:1004E00000000F08080808080F0808080808F8089E
:1004F00008000000FF08080808080808080808089D
:10050000FF080800205655567900702A252A7100E8
:100510000F080B0A0A00FE02FA0A0A0A0B080B0A65
:100520000A0AFA02FA0A0A00FF00FB0A0A0A0A0A81
:100530000A0A0A0AFB00FB0A0A005D2222225D0069
:10054000225559300000087F49413E007C555555E1
:1005500044007C55545544007C55555444000000DB
:100560000700000000447D45000000457D45000077
:1005700000457C45000808080F0000000000F8084E
:1005800008FFFFFFFFFFFFF0F0F0F0F0F0000000C9
:100590007700000000457D44000F0F0F0F0F0F0084
:1005A0003C42433D0000FE4A4A3400003C43433D88
:1005B00000003D43423C000032494A3100003A45C8
:1005C00046390000FC20201C0000FEAA2810000074
:1005D000FFA5241800003C40413D00003C41413D46
:1005E00000003D41403C00009CA0613D000004082B
:1005F000710904000002020200000007030000006D
:1006000000080808000000242E24000024242424CC
:100610002405170A342A780006097F017F00224D3D
:100620005559220008082A08080000081818000078
:100630000609090600000008000800000008000084
:100640000000020F00000000090F05000000090D66
:100650000A0000003C3C3C3C0000000000000000A0
:1006600006060800FF00005F000011241FBECFE552
:10067000D8E0DEBFCDBF10E0A0E6B0E001C01D9223
:10068000A536B107E1F70E9449030C94280A0C949F
:100690000000CF93DF930E94B1058FE596E060E004
:1006A0000E940206C8ECD0E083E060E00E941A04D9
:1006B0008FE596E060E044E550E00E94230980E089
:1006C00090E00E94C90880ED97E0FE013197F1F7B4
:1006D0000197D9F7E9CF87B18F7387B986B186685B
:1006E00086B9369A3699FECF84B195B10895982F80
:1006F0008450843008F497B9369A3699FECF24B1E5
:1007000035B18CED95E0AC01249FC001259F900D83
:10071000349F900D112481509E4F6FEF73E00E9423
:100720007709CB010895982F8450843008F497B945
:10073000369A3699FECF24B135B184EF91E0AC0101
:10074000249FC001259F900D349F900D112481504E
:100750009E4F6FEF73E00E947709CB010895D79AFF
:10076000DF98D09AD19A089521B3206321BB2FB589
:1007700022602FBD2FB52E7F2FBD2EB520612EBD3F
:100780002EB5277F2EBD21E732E037BD26BD2FB520
:1007900020682FBD2FB52F7B2FBD2EB523602EBD1A
:1007A0002EB52B6F2EBD9BBD8ABD08959BBD8ABD06
:1007B00008952EB528602EBD2EB521602EBD9BBD9F
:1007C0008ABD089590916000980F93709093600097
:1007D000892F0895AC01809161009A01280F311D85
:1007E000809160000CC0141615062CF48F5F837086
:1007F0002458304004C0815083702C573F4F243818
:10080000310588F78093600020936100822F08955E
:10081000C498DD9A8FB9779BFECFC49A81E090E0AF
:100820000E94EA030895C498DD988FB9779BFECFA4
:10083000C49A08950F931F93082F162F8F70806B03
:100840000E941304812F82958F7080610E9413048F
:10085000812F8F700E941304109361000093600039
:100860001F910F9108951F9310916000180F13703E
:1008700010936000CB010E94EA03682F812F0E9431
:100880001A041F910895BF92CF92DF92EF92FF92C8
:100890000F931F93CF93DF93082FE92FB62EE42EEB
:1008A000F22E24E0F22210E0842F90E0CC24DD240C
:1008B000C81AD90A18C0FE018491F11080950E94CF
:1008C000080421969E01201B2E1520F480916100C2
:1008D000843888F31F5F1B1521F081E0B6010E9468
:1008E00033040C2FED2F1B1548F4809160008430E9
:1008F00028F4802F9E2FFC01EF01E4CFDF91CF91F0
:100900001F910F91FF90EF90DF90CF90BF900895CF
:100910002F923F924F925F926F927F928F929F920F
:10092000AF92BF92CF92DF92EF92FF920F931F93FD
:10093000DF93CF93CDB7DEB728970FB6F894DEBF1D
:100940000FBECDBFF82ED92E122F2E2D24702A8344
:10095000842F8770898381111F5F50916000212F40
:1009600030E084E090E0851B91098217930714F42E
:1009700014E0151B842F8695869586950E941A048F
:10098000802E99248F2D9D2D5C0188279927881909
:1009900099091501280E391E18861F82612E7724A9
:1009A00028E0422E512CE9814E1A51088D839E83F6
:1009B0004CC0F981FF2339F08B819C818615970506
:1009C00011F420E007C0F7012491098001C0220F33
:1009D0000A94EAF78F819885892B69F09981992388
:1009E00051F0F601849190E0042C02C09595879512
:1009F0000A94E2F7282BFA81FF2319F0822F8095C1
:100A000001C0822F0E9408040F5F1F4F0894C11C71
:100A1000D11C0894E11CF11C0815190528F48091DB
:100A20006100843808F4C5CF8F8198850196988736
:100A30008F838615970529F081E06D817E810E9464
:100A40003304A80CB91C280C391CEF81F885E61575
:100A5000F70540F46101750100E010E03196FC8378
:100A6000EB83DACF28960FB6F894DEBF0FBECDBF6A
:100A7000CF91DF911F910F91FF90EF90DF90CF907A
:100A8000BF90AF909F908F907F906F905F904F90AE
:100A90003F902F900895DF92EF92FF920F931F9354
:100AA000CF93DF93382F42FD02C0DD2402C0DD2446
:100AB000DA9424E080916000281BE32E231708F4C9
:100AC000E22E24E880916100281B062F261708F4E7
:100AD000022FFF24802F90E0CC27DD27C81BD90BE5
:100AE0000BC08D2D0E9408041F5F1017D0F381E00A
:100AF000BE010E943304F394FE1410F410E0F5CF0D
:100B00008E2D819560E070E00E943304DF91CF91DB
:100B10001F910F91FF90EF90DF900895EF92FF9259
:100B20000F931F93182FF62EE42E822F602F0E9412
:100B30001A04812F6F2D4E2D0E944B051F910F918E
:100B4000FF90EF90089587B3806A87BB8AB3806374
:100B50008ABBBC9A8CE58DB981E08EB983EE8FB9E2
:100B600008950F931F93D59AD49ABC9A0E94A30517
:100B7000DC9800ED17E0C8010197F1F7DC9A80E4FA
:100B80000E941304C8010197F1F781EA0E9413043F
:100B900080EC0E941304C8010197F1F786EA0E94D5
:100BA000130482EA0E9413048FE20E94130480E07F
:100BB0000E94130483E20E94130481E80E9413043C
:100BC0008FE10E9413048CEA0E94130480E00E94CB
:100BD000130410E0812F60E00E941A0400E080E01E
:100BE0000E9408040F5F0438D1F71F5F143091F79B
:100BF00080E060E00E941A048FEA0E9413041F91B3
:100C00000F91089590936400809363006093620055
:100C10000895FC01389625913491C9010895FC018D
:100C2000369625913491C9010895FC013396E491DB
:100C3000E150E695E695E6958E2F8F5F0895FC01CD
:100C400036968591949120E0892B09F021E0822F3E
:100C50000895FC01359684913597861740F03496B7
:100C60008491681720F070E0681B710902C06FEF73
:100C70007FEFCB010895AC010696FC0125913491DC
:100C800021153105C9F04B5F5F4FFA018491455042
:100C90005040861750F04C5F5F4FFA0184916817FF
:100CA00020F070E0681B710902C06FEF7FEF260F24
:100CB000371FF901849108954E5F5F4FFA018491C7
:100CC0000895EF92FF920F931F939C012B5F3F4F6C
:100CD000F901849125503040861768F02C5F3F4F12
:100CE000F901449124503040641728F0862F90E099
:100CF000841B910902C08FEF9FEFF9013696459151
:100D0000549197FF03C040E050E04BC0082F4115BD
:100D10005105D9F4F9013896E590F4902D5F3F4FD5
:100D2000F901149123503040C9010E943B06115033
:100D30001695169516951F5F189F102D1124109F5C
:100D4000A00111244E0D5F1D2CC0882319F460E012
:100D500070E00FC060E070E0CA01800F911D06C016
:100D6000FA014F5F5F4FE4916E0F711D48175907ED
:100D7000B9F7F9013896459154912D5F3F4FF9012C
:100D8000849181508695869586958F5F90E09C0131
:100D9000269FC001279F900D369F900D1124480F6C
:100DA000591FCA011F910F91FF90EF9008952F9244
:100DB0003F924F925F926F927F928F929F92AF92EB
:100DC000BF92CF92DF92EF92FF920F931F93DF9328
:100DD000CF93CDB7DEB72B970FB6F894DEBF0FBE1B
:100DE000CDBF5C01F42E332433943622062F10E05D
:100DF000C80196958795282F21702C8364FD02C029
:100E0000662402C080E8682E02FD02C0772402C07A
:100E100077247A94C5016F2D0E943B06E82E83E06B
:100E200090E0A80EB91EF501D4902DEF3FEFA20E71
:100E3000B31EDA94D694D694D694D394F50136960C
:100E4000859194912224892B11F022242394C501A9
:100E50006F2D0E9461069B838A83C22CCE0C0C806E
:100E600001C0CC0C0A94EAF78D2C9924BD2C032CDC
:100E700001C0BB0C0A94EAF703FF13C08091610024
:100E800090E08C0D911D853891055CF0809160009B
:100E90008B0D60E00E941A0430E2F31611F4CC24AA
:100EA0008EC08E2D90E0889ED001899EB00D989EB8
:100EB000B00D1124BE83AD83B72DB625B983A62C02
:100EC000A694AB261B861A86EB2CFF240894E10817
:100ED000F1084C2C5524EE27FF27E419F509F98772
:100EE000E8878A849B84032C02C0959487940A9493
:100EF000E2F700E0FA85F170FF832DC02A813B8183
:100F0000E20FF31F8491AA85BB85AE15BF0511F0D2
:100F1000182F02C0182F1629332089F0BF81BB2358
:100F200011F012951F70812F13FD02C010E001C057
:100F300010EC82FD106381FD1C6080FD1360711058
:100F40001095812F0E940804EC81EE2319F0812F67
:100F50000E9408040D0D802F880DE82FFF27E7FD64
:100F6000F0952D813E81E217F30744F22220A9F08B
:100F70008A859B858E159F0511F0172D05C033209E
:100F800011F4198101C01A2D812F0E9408049C813F
:100F9000992319F0812F0E94080481E068857985E2
:100FA0000E943304AA85BB851196BB87AA87AB151F
:100FB00008F497CF8B2D8195B2010E9433048C2DBC
:100FC0002B960FB6F894DEBF0FBECDBFCF91DF9149
:100FD0001F910F91FF90EF90DF90CF90BF90AF9057
:100FE0009F908F907F906F905F904F903F902F9049
:100FF0000895482F80916300909164006091620091
:101000000E94D7060895DF92EF92FF920F931F93ED
:101010007C01162FD42E822F602F0E941A04C70144
:10102000612F4D2D0E94D7061F910F91FF90EF90D9
:10103000DF9008950F93382F262F042F809163009F
:101040009091640060916200432F0E9403080F9109
:101050000895BF92CF92DF92EF92FF920F931F936A
:10106000CF93DF937C01B62ED42EC22E242F352FA2
:10107000C9018C01C0E0D0E009C0F80141918F01A5
:10108000C7016B2D0E94D706C80FD11D802F8D1967
:101090008C1598F3CE01DF91CF911F910F91FF90A6
:1010A000EF90DF90CF90BF900895DF92EF92FF9284
:1010B0000F931F93CF93DF937C01D62E8A01C0E05C
:1010C000D0E006C0C7016D2D0E94D706C80FD11D04
:1010D000F80141918F014423A9F7CE01DF91CF910F
:1010E0001F910F91FF90EF90DF9008950F931F9342
:1010F000DF93CF93CDB7DEB72A970FB6F894DEBF54
:101100000FBECDBF992787FD90958E010F5F1F4FB2
:10111000B8014AE050E00E948B09809163009091F1
:10112000640060916200A8010E9455082A960FB6DB
:10113000F894DEBF0FBECDBFCF91DF911F910F910D
:1011400008950F931F93DF93CF93CDB7DEB72A9700
:101150000FB6F894DEBF0FBECDBF8E010F5F1F4FDD
:10116000B8014AE050E00E94E0098091630090914C
:10117000640060916200A8010E9455082A960FB68B
:10118000F894DEBF0FBECDBFCF91DF911F910F91BD
:1011900008950F931F93DF93CF93CDB7DEB72A97B0
:1011A0000FB6F894DEBF0FBECDBF8E010F5F1F4F8D
:1011B000B8014AE050E00E948B0980916300909151
:1011C000640060916200A8010E9455082A960FB63B
:1011D000F894DEBF0FBECDBFCF91DF911F910F916D
:1011E00008950F931F93DF93CF93CDB7DEB72A9760
:1011F0000FB6F894DEBF0FBECDBF8E010F5F1F4F3D
:10120000A8012AE030E00E94AC098091630090912F
:10121000640060916200A8010E9455082A960FB6EA
:10122000F894DEBF0FBECDBFCF91DF911F910F911C
:101230000895AC0180916300909164006091620018
:101240000E9455080895DF92EF92FF920F931F932B
:10125000CF93DF937C01D62E8A01C0E0D0E006C098
:10126000C7016D2D0E94D706C80FD11DF8010F5F71
:101270001F4F44914423A1F7CE01DF91CF911F91DD
:101280000F91FF90EF90DF900895AC018091630083
:1012900090916400609162000E9423090895CF92AA
:1012A000DF92EF92FF920F931F937C01162F6A013A
:1012B000822F602F0E941A04C701612FA6010E948D
:1012C00023091F910F91FF90EF90DF90CF90089529
:1012D0000F93FC01262F042F8091630090916400EE
:1012E00060916200AF010E944F090F910895AA1BFF
:1012F000BB1B51E107C0AA1FBB1FA617B70710F001
:10130000A61BB70B881F991F5A95A9F78095909532
:10131000BC01CD010895FB019F01E8944230C4F067
:101320004532B4F44A3029F497FB1EF49095819528
:101330009F4F642F77270E947709805D8A330CF0D6
:10134000895D8193CB010097A1F716F45DE251937B
:101350001082C9010C94F609FA01CF93FF93EF9321
:10136000223044F1253234F5C22FE894CA3049F4D2
:1013700097FB3EF490958095709561957F4F8F4FC8
:101380009F4F2C2F332744275527FF93EF930E941D
:10139000060AEF91FF91605D6A330CF0695D61931D
:1013A000B901CA01605070408040904051F716F476
:1013B000CDE2C19310828F919F91CF910C94F60949
:1013C000FB019F01423074F0453264F4642F7727AB
:1013D0000E947709805D8A330CF0895D8193CB018F
:1013E0000097A1F71082C9010C94F609DC01FC01F9
:1013F000672F71917723E1F7329704C07C916D9349
:1014000070836291AE17BF07C8F30895A1E21A2E48
:10141000AA1BBB1BFD010DC0AA1FBB1FEE1FFF1F98
:10142000A217B307E407F50720F0A21BB30BE40BE8
:10143000F50B661F771F881F991F1A9469F760952F
:101440007095809590959B01AC01BD01CF010895E9
:04145000F894FFCF3E
:00000001FF
