:100000000C9446000C9465000C9465000C946500FB
:100010000C9465000C9465000C9465000C946500CC
:100020000C9465000C9465000C9465000C946500BC
:100030000C9465000C9465000C9465000C946500AC
:100040000C9465000C9465000C9465000C9465009C
:100050000C9465000C9465000C9465000C9465008C
:100060000C9465000C9465000C9465000C9465007C
:100070000C9465000C9465000C9465000C9465006C
:100080000C9465000C9465000C94650011241FBE4F
:10009000CFEFD0E4DEBFCDBF11E0A0E0B1E0E2E9F8
:1000A000F2E000E00BBF02C007900D92A030B10754
:1000B000D9F711E0A0E0B1E001C01D92A030B10776
:1000C000E1F70E94F7000C9447010C940000CF93D5
:1000D000DF9300D0CDB7DEB78AE790E02AE730E0C3
:1000E000F90120812068FC0120838CE790E02CE757
:1000F00030E0F90120812061FC0120838AE790E053
:100100002AE730E0F90120812664FC012083000009
:100110008AE790E0FC018081882F90E080749070E5
:100120000097B1F788E790E0FC01808191819A8384
:1001300089830F900F90DF91CF910895CF93DF9334
:1001400000D000D00F92CDB7DEB78D838CE790E062
:100150002CE730E0F90120812061FC0120838AE74F
:1001600090E02AE730E0F90120812064FC0120833F
:1001700000008AE790E0FC018081882F90E0807485
:1001800090700097B1F788E790E0FC018081918141
:10019000CC01A0E0B0E089839A83AB83BC838981E2
:1001A0009A81AB81BC812CEC32E440E050E0BC0190
:1001B000CD010E940601DC01CB0180509E4FAF4F64
:1001C000BF4F2FEF33E040E050E0BC01CD010E9473
:1001D000250129833A834B835C8389819A810F901F
:1001E0000F900F900F900F90DF91CF910895CF93C4
:1001F000DF9300D0CDB7DEB71A8219820E94670064
:1002000081E00E949E009A838983FACF629FD00189
:10021000739FF001829FE00DF11D649FE00DF11DC1
:10022000929FF00D839FF00D749FF00D659FF00D70
:100230009927729FB00DE11DF91F639FB00DE11D5D
:10024000F91FBD01CF0111240895A1E21A2EAA1BA6
:10025000BB1BFD010DC0AA1FBB1FEE1FFF1FA21776
:10026000B307E407F50720F0A21BB30BE40BF50B73
:10027000661F771F881F991F1A9469F760957095FC
:10028000809590959B01AC01BD01CF010895F89434
:02029000FFCF9E
:00000001FF
