:100000000C942A000C94A1030C94AB030C94B5033C
:100010000C9447000C9447000C9447000C94470044
:100020000C9447000C9447000C9447000C94470034
:100030000C9447000C9447000C9447000C94470024
:100040000C9447000C9447000C9447000C94470014
:100050000C94470011241FBECFE5D8E0DEBFCDBF12
:1000600011E0A0E6B0E0E6EAFCE002C005900D92E7
:10007000A435B107D9F711E0A4E5B1E001C01D92A4
:10008000AC35B107E1F70E942B010C9451060C949A
:1000900000001F93182F86E00E946B0321E930E0D7
:1000A000AC01429FC001439F900D529F900D1124BF
:1000B000875F974364E670E00E941706412F50E087
:1000C000CA0101978617970718F48DE590E007C0DD
:1000D0004F5F5F4F6417750720F48DE390E00E9437
:1000E00015031F910895AA9A95B39F7095BB25B3E8
:1000F000982F907F922B95BBAB9A21E0922F9A95E7
:10010000F1F7AB9895B39F7095BB95B38295807FBF
:10011000982B95BBAB9A2A95F1F7AB9888E38A9513
:10012000F1F70895AA9895B39F7095BB25B3982FC2
:10013000907F922B95BBAB9A21E0922F9A95F1F785
:10014000AB9895B39F7095BB95B38295807F982BA4
:1001500095BBAB9A2A95F1F7AB9888E38A95F1F7AE
:100160000895AB9A81E08A95F1F7AB98089581E004
:100170000E94920088E893E10197F1F7089584B313
:100180008C6F84BB80E395E70197F1F785B38F709F
:1001900085BB85B3806385BBAA98AB9A91E0892F14
:1001A0008A95F1F7AB98E8E8F3E13197F1F7AB9A6C
:1001B000892F8A95F1F7AB9828EE33E0F901319752
:1001C000F1F7AB9A892F8A95F1F7AB98F90131973E
:1001D000F1F785B38F7085BBAD9AAB9A9A95F1F71D
:1001E000AB98C9010197F1F788E20E9492008CE078
:1001F0000E94920086E00E9492000E94B70008953B
:1002000082E00E94920088E893E10197F1F7089557
:10021000623061F0633018F4613079F405C0633006
:1002200039F0643051F406C0805805C0805403C0D2
:10023000805701C080530E9492000895CF93DF93AE
:10024000EC0103C00E947300219688818823D1F7B6
:10025000DF91CF9108952F923F924F925F926F92CC
:100260007F928F929F92AF92BF92CF92DF92EF9246
:10027000FF921F93DF93CF93CDB7DEB762970FB690
:10028000F894DEBF0FBECDBF8FE190E098878F83DB
:100290001A8281E08B838C838D8384E190E09A873E
:1002A00089871C861B861E861D86188A1F861A8AC9
:1002B000198A1E8288E590E098878F830E948703C1
:1002C0000E9443038F8198850E9415030E94BF00FE
:1002D0000E94F305979A1982789428EE33E0E3E6BA
:1002E0004E2E512C76E0E72EF12CEC0EFD1E68E729
:1002F000262E312C5EE3A52EB12C12E844E6C42E46
:10030000D12C9AE1892E912C80E1682E712C05C0A8
:10031000C6010197F1F72150304021153105C1F791
:1003200058864F8280915A01882359F080E0809B43
:1003300015C0912F9A95F1F78150C9F710925A0183
:100340000DC080E080990AC0912F9A95F1F78150F5
:10035000C9F781E080935A011B8202C081E08B8340
:1003600080915901882359F080E0839B15C0912F1B
:100370009A95F1F78150C9F7109259010DC080E0AC
:1003800083990AC0912F9A95F1F78150C9F781E0BE
:10039000809359011C8202C081E08C8380915801B6
:1003A000882359F080E0829B15C0912F9A95F1F730
:1003B0008150C9F7109258010DC080E082990AC09F
:1003C000912F9A95F1F78150C9F781E080935801F8
:1003D0001D8202C081E08D838B81882369F489812D
:1003E000843039F48A81823011F481E004C01982AA
:1003F00003C089818F5F89838981823009F4E6C0D7
:10040000833030F4882359F0813009F003C177C07C
:10041000833009F4ECC0843009F0FCC0F9C080914D
:100420005701882359F080E0809B36C0912F9A9520
:10043000F1F78150C9F7109257012EC080E08099E2
:100440002BC0912F9A95F1F78150C9F781E08093E5
:10045000570180ED97E0F6013197F1F70197D9F751
:1004600080915601882359F080E0809B15C0912F20
:100470009A95F1F78150C9F7109256010DC080E0AE
:1004800080990AC0912F9A95F1F78150C9F781E0C0
:100490008093560182E08B838B81823019F481E056
:1004A00089838FC08C81882379F4B7010E94A405C9
:1004B0008F8198858134910520F08F8198850297EE
:1004C00012C0B886AF8214C08D818823B1F481E058
:1004D000B7010E94A4058F8198858637910530F475
:1004E0008F819885029698878F8302C038862F82E5
:1004F0008F8198850E9415038DC082E041C0809154
:100500005501882359F080E0809B36C0912F9A9541
:10051000F1F78150C9F7109255012EC080E0809903
:100520002BC0912F9A95F1F78150C9F781E0809304
:10053000550188EE93E0F6013197F1F70197D9F76D
:1005400080915401882359F080E0809B15C0912F41
:100550009A95F1F78150C9F7109254010DC080E0CF
:1005600080990AC0912F9A95F1F78150C9F781E0DF
:100570008093540182E08B838B81823029F419822D
:10058000B7010E94A40546C08C81882359F489854F
:100590009A85429720F089859A8501970DC07A86C1
:1005A00069860FC08D818823A9F589859A85499729
:1005B00030F489859A8501969A87898702C09A8640
:1005C000898689859A850E946D0524C084E00E94F1
:1005D0004F039C878B8785E00E944F039E878D8702
:1005E0008B859C856D857E850E94F10413C086E015
:1005F0000E946B03988B8F8787E00E946B039A8B16
:10060000898B8F85988969897A890E94C90302C07C
:100610000E944A0480915B01813021F40E94F3051D
:1006200010925B0128EE33E073CE21B3206321BB2F
:100630002FB522602FBD2FB52E7F2FBD2EB5206187
:100640002EBD2EB5277F2EBD21E732E037BD26BD5A
:100650002FB520682FBD2FB52F7B2FBD2EB5236062
:100660002EBD2EB52B6F2EBD9BBD8ABD08959BBDA3
:100670008ABD08952EB528602EBD2EB521602EBDF1
:100680009BBD8ABD089587B18F7387B986B186688F
:1006900086B9369A3699FECF84B195B10895982FD0
:1006A0008450843008F497B9369A3699FECF24B135
:1006B00035B18CED95E0AC01249FC001259F900DD4
:1006C000349F900D112481509E4F6FEF73E00E9474
:1006D0001706CB010895982F8450843008F497B9F9
:1006E000369A3699FECF24B135B184EF91E0AC0152
:1006F000249FC001259F900D349F900D112481509F
:100700009E4F6FEF73E00E941706CB01089585B7E7
:100710008F78806285BFA09AA89AA19A8AB38F60C9
:100720008ABBBA98C29A8898909A8E98969A8F9A0D
:1007300097988BB780628BBF8B98939A8A98929A7E
:1007400008951F920F920FB60F9211240F900FBEB3
:100750000F901F9018951F920F920FB60F921124B1
:100760000F900FBE0F901F9018951F920F920FB60B
:100770000F9211248F93A89AA99885B78F7785BF78
:1007800081E080935B018F910F900FBE0F901F90BF
:100790001895EF92FF920F931F93DF93CF9300D0A2
:1007A00000D0CDB7DEB721E930E0829F8001839F82
:1007B000100D929F100D1124095218430E94B7008A
:1007C00080E690E00E941E01C801C29664E670E0D7
:1007D0000E941706CB017E010894E11CF11CB701B1
:1007E0004AE050E00E942B06C7010E941E018BE6E2
:1007F00090E00E941E01C80164E670E00E941706A6
:10080000C2966AE070E00E941706CB01B7014AE089
:1008100050E00E942B06C7010E941E018DE690E069
:100820000E941E010F900F900F900F90CF91DF91BB
:100830001F910F91FF90EF9008950E94B70080E7FD
:1008400090E00E941E0180E062E00E9408018AE7B9
:1008500090E00E941E0108950E94B7008BE890E08E
:100860000E941E0180E062E00E9408018AE790E099
:100870000E941E0108950E94B70085E990E00E9441
:100880001E0180E062E00E9408018EE990E00E9473
:100890001E0108950E94B7008EEA90E00E941E019A
:1008A00080E062E00E9408018DEB90E00E941E0152
:1008B00008950E94B7008CEC90E00E941E0180E039
:1008C00062E00E94080189ED90E00E941E010895F7
:1008D0000E94B70086EE90E00E941E0180E062E078
:1008E0000E94080189ED90E00E941E010895AF92D8
:1008F000BF92CF92DF92EF92FF920F931F93DF93FD
:10090000CF9300D000D0CDB7DEB77C015B010E9451
:10091000B7008FEE90E00E941E01C7016AE070E010
:100920000E941706CB018E010F5F1F4FB8014AE0EE
:1009300050E00E942B06C8010E941E019BE6C92EB2
:1009400090E0D92EC6010E941E01C7016AE070E046
:100950000E941706B8014AE050E00E942B06C80129
:100960000E941E018CEFE82E80E0F82EC7010E9445
:100970001E0180E062E00E9408018FEF90E00E947B
:100980001E01C5016AE070E00E941706CB01B801A4
:100990004AE050E00E942B06C8010E941E01C601D9
:1009A0000E941E01C5016AE070E00E941706B801AE
:1009B0004AE050E00E942B06C8010E941E01C701B8
:1009C0000E941E010F900F900F900F90CF91DF911A
:1009D0001F910F91FF90EF90DF90CF90BF90AF905D
:1009E0000895AF92BF92CF92DF92EF92FF920F9352
:1009F0001F93DF93CF9300D000D0CDB7DEB77C013B
:100A00005B010E94B7008CE091E00E941E01C701CB
:100A1000C29664E670E00E941706CB018E010F5F5C
:100A20001F4FB8014AE050E00E942B06C8010E9407
:100A30001E013BE6C32E30E0D32EC6010E941E01EC
:100A4000C70164E670E00E941706B8014AE050E072
:100A50000E942B06C8010E941E012CEFE22E20E00E
:100A6000F22EC7010E941E0180E062E00E94080190
:100A700084E191E00E941E01C501C29664E670E027
:100A80000E941706CB01B8014AE050E00E942B06F5
:100A9000C8010E941E01C6010E941E01C50164E634
:100AA00070E00E941706B8014AE050E00E942B0651
:100AB000C8010E941E01C7010E941E010F900F90E5
:100AC0000F900F90CF91DF911F910F91FF90EF90BA
:100AD000DF90CF90BF90AF9008950F931F93DF9357
:100AE000CF9300D000D0CDB7DEB78C010E94B70005
:100AF0008CE191E00E941E0180E062E00E9408010A
:100B0000C8018E010F5F1F4FB8014AE050E00E94FC
:100B10002B06C8010E941E010F900F900F900F909E
:100B2000CF91DF911F910F9108950E94B70089E244
:100B300091E00E941E0180E062E00E94080182E3D1
:100B400091E00E941E0108951F93CF93DF93182F09
:100B5000EB010E94B7000E94000183E491E00E9433
:100B60001E01113031F488818F30C9F18F5F888385
:100B70001FC01123D1F48881882389F162E00E948B
:100B80000801AA9A85B38F7085BBAF9A0E94B10005
:100B900085B38F7085BBAF9A0E94B10088E38A95B8
:100BA000F1F78881815088831AC01230C1F488819E
:100BB00062E00E940801AA9A85B38F7085BB85B355
:100BC000806F85BB0E94B10085B38F7085BB85B3F4
:100BD000806F85BB0E94B10088E38A95F1F7DF91B1
:100BE000CF911F9108950F931F930E94950580E266
:100BF0009EE424E630E0F9013197F1F70197D9F747
:100C000084E00E944F038C0185E00E944F03BC01E9
:100C1000C8010E94F10480E395E724E630E0F90181
:100C20003197F1F70197D9F71F910F910895AA1BFA
:100C3000BB1B51E107C0AA1FBB1FA617B70710F0C7
:100C4000A61BB70B881F991F5A95A9F780959095F9
:100C5000BC01CD010895FB019F01423074F0453283
:100C600064F4642F77270E941706805D8A330CF0A6
:100C7000895D8193CB010097A1F71082C9010C9483
:100C80004106DC01FC01672F71917723E1F7329770
:100C900004C07C916D9370836291AE17BF07C8F357
:060CA0000895F894FFCF57
:100CA6005420696E736964653A20002C0020430065
:100CB6004261747465727920320062656C6F7720C8
:100CC6007468726573686F6C642100426174746540
:100CD60072792031005761726E696E6721004C6926
:100CE600676874207374696C6C206F6E21004669A6
:100CF600726D776172653A2056302E330044617406
:100D0600653A2031302E30352E31310057616B6512
:100D16002075702066726F6D00536C6565706D6F1F
:100D260064652E2E2E00456E746572696E670054DA
:100D360068726573686F6C64313A200020560054FF
:100D460068726573686F6C64323A2000426174742D
:100D5600313A200042617474323A200054656D7055
:100D6600657261747572653A0057656C636F6D657F
:100D760021005374617274696E67207379737465A8
:100D86006D2E00636F6C64202020202020202077A9
:040D960061726D0019
:00000001FF
