:100000000C9445030C946A040C9474040C947E04C0
:100010000C9462030C9462030C9462030C946203CC
:100020000C9462030C9462030C94550D0C946203BF
:100030000C9462030C9462030C9462030C946203AC
:100040000C9462030C9462030C9462030C94D00E23
:100050000C94620348656C6C6F20576F726C642E51
:1000600000496E6974202E2E2E20646F6E6521006B
:10007000000000000000003E4551453E003E6B6F11
:100080006B3E001C3E7C3E1C00183C7E3C18003041
:10009000367F363000185C7E5C18000000000000DF
:1000A0000000000000000000000000000000000050
:1000B00000000030484A360E000629792906000063
:1000C0000000000000607E0A353F002A1C361C2A12
:1000D00000007F3E1C0800081C3E7F000014367F95
:1000E000361400005F005F000006097F017F0022D8
:1000F0004D5559220060606060000014B6FFB614D0
:100100000004067F06040010307F30100008083E0F
:100110001C0800081C3E08080078404040400008C9
:100120003E083E0800303C3F3C3000030F3F0F03C9
:100130000000000000000000065F0600000703004A
:10014000070300247E247E2400242B6A120000630F
:10015000130864630036495620500000070300006E
:1001600000003E4100000000413E000000083E1C2F
:100170003E080008083E08080000E0600000000893
:100180000808080800006060000000201008040251
:10019000003E5149453E0000427F40000062514907
:1001A0004946002249494936001814127F10002F91
:1001B00049494931003C4A49493000017109050368
:1001C00000364949493600064949291E00006C6C31
:1001D00000000000EC6C0000000814224100002424
:1001E0002424242400004122140800020159090695
:1001F000003E415D551E007E1111117E007F494970
:100200004936003E41414122007F4141413E007F4D
:1002100049494941007F09090901003E4149497A9C
:10022000007F0808087F0000417F41000030404007
:10023000403F007F08142241007F40404040007F43
:100240000204027F007F0204087F003E4141413EDC
:10025000007F09090906003E4151215E007F09091E
:1002600019660026494949320001017F0101003F1A
:100270004040403F001F2040201F003F403C403F87
:1002800000631408146300070870080700714945EB
:10029000430000007F4141000002040810200000DC
:1002A00041417F0000040201020480808080808040
:1002B000000003070000002054545478007F444499
:1002C000443800384444442800384444447F0038CB
:1002D0005454540800087E0909000018A4A4A47C02
:1002E000007F040478000000007D4000004080840E
:1002F0007D00007F102844000000007F4000007C4B
:1003000004180478007C040478000038444444381D
:1003100000FC444444380038444444FC00447844DD
:10032000040800085454542000043E442400003CB7
:1003300040207C00001C2040201C003C6030603CC1
:10034000006C10106C00009CA0603C0000645454D1
:100350004C0000083E414100000000770000000012
:1003600041413E08000201020100003C2623263CD8
:10037000001EA1E12112003D40207D0000385454B0
:1003800055090020555555780020555455780020C2
:1003900055555478002057555778001CA2E2221476
:1003A00000385555550800385554550800385555EE
:1003B00054080000017C41000000017D4100000064
:1003C000017C400000702924297000782F252F78A7
:1003D000007C545455450034547C5458007E097FA9
:1003E000494900384545390000384544390000394D
:1003F00045443800003C41217D00003D41207C0007
:10040000009CA1603D00003D42423D00003C414057
:100410003D0080706858380400483E494962007EBB
:10042000615D433F0022140814220040887E0902C7
:100430000020545555780000007D410000384445A7
:100440003900003C40217D00007A090A7100007AE1
:100450001122790000085555555E004E51514E004D
:100460000030484D40203E415D4B553E040404049D
:10047000041C0017084C6A50001708342A78000042
:10048000307D30000008140008140014080014081F
:10049000441144114411AA55AA55AA55BBEEBBEE0E
:1004A000BBEE000000FF0000080808FF000000701D
:1004B00028252970007029252970007029252870A9
:1004C0003E415D55413E0AFB00FF000000FF00FF7A
:1004D00000000AFA02FE00000A0B080F00000018D4
:1004E0002466240000292A7C2A29080808F800002C
:1004F0000000000F08080808080F0808080808F896
:100500000808000000FF080808080808080808088C
:1005100008FF080800205655567900702A252A71D0
:10052000000F080B0A0A00FE02FA0A0A0A0B080B5F
:100530000A0A0AFA02FA0A0A00FF00FB0A0A0A0A71
:100540000A0A0A0A0AFB00FB0A0A005D2222225D4F
:1005500000225559300000087F49413E007C555526
:100560005544007C55545544007C55555444000076
:10057000000700000000447D45000000457D450067
:100580000000457C45000808080F0000000000F846
:100590000808FFFFFFFFFFFFF0F0F0F0F0F00000B1
:1005A000007700000000457D44000F0F0F0F0F0F74
:1005B000003C42433D0000FE4A4A3400003C4343B5
:1005C0003D00003D43423C000032494A3100003AC0
:1005D0004546390000FC20201C0000FEAA2810001F
:1005E00000FFA5241800003C40413D00003C414173
:1005F0003D00003D41403C00009CA0613D000004E6
:100600000871090400000202020000000703000054
:100610000000080808000000242E240000242424E0
:10062000242405170A342A780006097F017F002256
:100630004D5559220008082A08080000081818001B
:100640000006090906000000080008000000080074
:10065000000000020F00000000090F050000000963
:100660000D0A0000003C3C3C3C0000000000000083
:100670000006060800FF00007000B600E400050157
:100680000C017A067C06FC03140411241FBECFE57E
:10069000D8E0DEBFCDBF10E0A0E6B0E0E4E0F0E2DD
:1006A00002C005900D92A836B107D9F711E0A8E66F
:1006B000B0E001C01D92A031B107E1F70E948B0CA0
:1006C0000C9400100C9400000F931F93DF93CF93B2
:1006D00000D0CDB7DEB790916000990F99838A83DF
:1006E0008E010F5F1F4FC80162E00E94750E80915E
:1006F000600090916100880F991F81608983C80113
:1007000061E00E94750EC80162E00E94AB0E998103
:1007100080E02A8130E0282B392B822F932F0F90F5
:100720000F90CF91DF911F910F9108958AEA0E9457
:1007300064039093F1008093F0008CEA0E946403BC
:100740009093F9008093F8008EEA0E9464039093DE
:1007500001018093000180EB0E9464039093FD00EF
:100760008093FC0082EB0E9464039093F7008093D7
:10077000F60084EB0E9464039093F5008093F400EC
:1007800086EB0E9464039093F3008093F20088EB61
:100790000E9464039093ED008093EC008AEB0E942A
:1007A00064039093EF008093EE008CEB0E9464034F
:1007B0009093FF008093FE008EEB0E946403909361
:1007C000FB008093FA0008950E9496030895CF934A
:1007D000DF930E9488040E94640EC0E7D6E0CE0139
:1007E00060E00E941F07CE0160E041E650E00E94F9
:1007F0006A09DF91CF91089580E480936E0011E043
:100800008AEA90E00E94640382E060E00E94FC04B7
:1008100087EE93E00E94AE0A8BB381278BBB81E009
:1008200090E00E94C30CECCF12E08FEF94E3ACE0B9
:1008300081509040A040E1F700C000008BB38127B9
:100840008BBB81E090E00E94C30CEFCF87B18F7328
:1008500087B986B1866886B9369A3699FECF84B153
:1008600095B10895982F9450943008F487B9369A2A
:100870003699FECF44B155B12CED35E0429FC00111
:10088000439F900D529F900D112481509E4F6FEF0A
:1008900073E00E944F0F862F972F0895982F945042
:1008A000943008F487B9369A3699FECF44B155B1E1
:1008B00024EF31E0429FC001439F900D529F900D65
:1008C000112481509E4F6FEF73E00E944F0F862FCF
:1008D000972F08951F920F920FB60F9211240F9029
:1008E0000FBE0F901F9018951F920F920FB60F9288
:1008F00011240F900FBE0F901F9018951F920F920A
:100900000FB60F9211240F900FBE0F901F901895E5
:100910000E94C206D79ADF9AD09AD19A089521B33D
:10092000206321BB2FB522602FBD2FB52E7F2FBD99
:100930002EB520612EBD2EB5277F2EBD21E732E0DA
:1009400037BD26BD2FB520682FBD2FB52F7B2FBDFE
:100950002EB523602EBD2EB52B6F2EBD9BBD8ABD3F
:1009600008959BBD8ABD08952EB528602EBD2EB575
:1009700021602EBD9BBD8ABD089590916F00890FA7
:10098000837080936F0008950F931F93CF93DF932D
:100990008C0180917000E801C80FD11DC438D105C9
:1009A00088F01016110634F481E00E94BD04C4588A
:1009B000D04005C08FEF0E94BD04CC57DF4FC43834
:1009C000D10578F7C09370008C2FDF91CF911F91E4
:1009D0000F910895C498DD9A8FB9779BFECFC49A82
:1009E00081E090E00E94C4040895C498DD988FB916
:1009F000779BFECFC49A08950F931F93082F162F4D
:100A00008F70806B0E94F504812F82958F708061BA
:100A10000E94F504812F8F700E94F50410937000DE
:100A200000936F001F910F9108951F93CF93DF9351
:100A3000EB010E94BD04182FCE010E94C404682F50
:100A4000812F0E94FC04DF91CF911F9108958F9216
:100A50009F92AF92BF92CF92DF92EF92FF920F934D
:100A60001F93CF93DF93182FD92EC62E042FFF2468
:100A70006894F2F8F222662309F440C080916F0076
:100A8000843070F13BC0812EE4014E019D2CE401C5
:100A9000FE0121968491FF2019F40E94EA0403C00C
:100AA00080950E94EA044E01811A801640F48091DC
:100AB0007000843868F39E011C2FD32E03C09E0162
:100AC0001C2FD32EE394EC14C9F081E0B5010E94F1
:100AD0001505EC1498F480916F00843040F00EC03E
:100AE000EE24A42EBB24B094A194B108B3940023A7
:100AF00049F380917000843830F2E4CFDF91CF91D8
:100B00001F910F91FF90EF90DF90CF90BF90AF902B
:100B10009F908F9008952F923F924F925F926F9285
:100B20007F928F929F92AF92BF92CF92DF92EF927D
:100B3000FF920F931F93DF93CF93CDB7DEB7289724
:100B40000FB6F894DEBF0FBECDBF6C01622E24E05D
:100B5000E2220F2EF7E0FF2EF02DF42209F063942D
:100B600080916F00E62DF0E024E030E0281B310991
:100B70002E173F0724F46624689462F8681A842FBD
:100B80008695869586950E94FC04802E99241601F0
:100B900028183908DA82C982AA24BB24772488E07D
:100BA00090E0FC01EF19F109FC83EB83C4012227DB
:100BB0003327281B390B3E832D8353C009811A81AB
:100BC000610118861F8225010894411C511CFF20D9
:100BD00019F06414750441F0F80184910F2C01C0E0
:100BE000880F0A94EAF701C080E0A114B10461F013
:100BF000FF2051F0F601249130E00B8002C03595C2
:100C000027950A94E2F7822BEE2021F080950E942E
:100C1000EA0402C00E94EA042F8138852F5F3F4F0B
:100C200038872F832815390548F40894C11CD11C36
:100C30000F5F1F4F80917000843848F20894A11C08
:100C4000B11C6A147B0429F081E06D817E810E94D1
:100C50001505280C391C89819A81880D991D9A8364
:100C60008983A614B70448F48114910439F3809160
:100C70007000843808F4A2CFE1CF28960FB6F8941C
:100C8000DEBF0FBECDBFCF91DF911F910F91FF90BF
:100C9000EF90DF90CF90BF90AF909F908F907F901C
:100CA0006F905F904F903F902F900895CF92DF927A
:100CB000EF92FF920F931F93CF93DF9342FF03C0F6
:100CC000FF24FA9401C0FF2420916F0094E0921B4E
:100CD000D82E981708F4D92E9091700084E8891BBB
:100CE000062F861708F4082FDD2081F419C01C2D6B
:100CF0008F2D0E94EA041F5F1017D0F381E0BE0120
:100D00000E941505E394ED1440F00AC0EE24CC24B3
:100D1000C02FD0E0D095C195DF4F002341F7EECF33
:100D20008D2D819560E070E00E941505DF91CF91D7
:100D30001F910F91FF90EF90DF90CF900895EF9269
:100D4000FF920F931F93F82E162FE42E822F602F01
:100D50000E94FC048F2D612F4E2D0E9456061F917C
:100D60000F91FF90EF90089587B3806A87BB8AB395
:100D700080638ABBBC9A8CE58DB981E08EB983EE25
:100D80008FB90895FF920F931F93D59AD49ABC9A66
:100D90000E94B406DC988FEC97E00197F1F700C051
:100DA0000000DC9A80E40E94F5048FEC97E0019744
:100DB000F1F700C0000081EA0E94F50480EC0E9477
:100DC000F5048FEC97E00197F1F700C0000086EA88
:100DD0000E94F50482EA0E94F5048FE20E94F50465
:100DE00080E00E94F50483E20E94F50481E80E94FD
:100DF000F5048FE10E94F5048CEA0E94F50480E07E
:100E00000E94F50400E00F2EF4E8FF2EF02D802F55
:100E100060E00E94FC041F2D80E00E94EA04115053
:100E2000D9F70F5F043099F780E060E00E94FC047E
:100E30008FEA0E94F5041F910F91FF9008959093FF
:100E4000040180930301609302010895FC01389628
:100E500025913491822F932F0895FC013696259188
:100E60003491822F932F0895FC0133968491815001
:100E70008695869586958F5F0895FC013696259117
:100E8000349181E02115310509F480E00895FC01D9
:100E90003596E491E61750F00496FC0184916817AA
:100EA00040F0262F30E0281B310905C02FEF3FEF1F
:100EB00002C02FEF3FEF822F932F0895FC0136964B
:100EC0002591349121153105C9F0FC013596E49145
:100ED000E61750F0FC013496E4916E1740F0862F2F
:100EE00090E08E1B910905C08FEF9FEF02C08FEF3E
:100EF0009FEF280F391FF901849108950296FC0194
:100F000084910895CF92DF92EF92FF920F931F93F7
:100F1000CF93DF93AC014B5F5F4FFA01249126170B
:100F200008F494C0EC012496FE012491621708F4A1
:100F30008DC0E62EFF24F701E21BF1099F018C0111
:100F40000A5F1F4FF801A591B49133230CF471C0CF
:100F5000722F9D01109709F03EC0FC013896A591B3
:100F6000B491CA2EDB2EA72FB0E0FC01339674910A
:100F700071507695769576957F5FF801259134913D
:100F800021153105B9F0FA014491461748F0FE01E8
:100F90008491681740F0A701481B5109CA0105C098
:100FA0008FEF9FEF02C08FEF9FEF280F391FF901DE
:100FB000849103C00296FC018491879F802D1124A7
:100FC00090E08A9F90018B9F300D9A9F300D1124E5
:100FD0002C0D3D1D30C0772399F07150472F50E004
:100FE0004F5F5F4FA40FB51F40E050E0F9012F5F46
:100FF0003F4FE4914E0F511D2A173B07B9F702C02E
:1010000040E050E0FC013896259134910396FC01B4
:10101000849181508695869586958F5F90E0849F18
:101020006001859FD00C949FD00C11242C0D3D1D88
:1010300002C020E030E0822F932FDF91CF911F91EB
:101040000F91FF90EF90DF90CF90089520E030E077
:10105000F2CF2F923F924F925F926F927F928F9238
:101060009F92AF92BF92CF92DF92EF92FF920F9337
:101070001F93DF93CF93CDB7DEB72D970FB6F894BC
:10108000DEBF0FBECDBF042F882483948622162F87
:101090009924939461FF992414FF05C00F2EF0E862
:1010A0004F2EF02D01C0442412FF03C077247A9400
:1010B00001C077249C012A5F3F4FF901459154916B
:1010C00041155105C9F0FC013596E491E01750F047
:1010D000FC013496E4910E1740F0602F70E06E1B17
:1010E000710905C06FEF7FEF02C06FEF7FEF460F12
:1010F000571FFA01E49003C0FC013296E490FC0112
:10110000339664906A946694669466946394F90145
:1011100025913491F1E0FA832115310509F41A8201
:10112000602F0E9482075C018A818E0D092C01C00C
:10113000880F0A94EAF78887C62CDD248D82262D35
:10114000082C01C0220F0A94EAF7298313FF12C06A
:101150008091700090E04885840F911D853891053D
:101160004CF080916F00820F60E00E94FC0400321E
:1011700009F495C08E2D90E0C89E7001C99EF00CB8
:10118000D89EF00C1124872D8425942D9695222429
:101190003324E981CE2EDD240894C108D108798654
:1011A0008A8789278B879885892F90E09C838B83FA
:1011B000909581959F4F9F838E833D862C868101DC
:1011C0000D8002C0159507950A94E2F7802F9927A4
:1011D00087FD90958E159F05A4F5552453945220B4
:1011E000E02FFF27E7FDF095EA0DFB1D14918C859C
:1011F0009D85C816D90609F41429882081F0552048
:1012000011F012951F70812F13FD02C010E001C074
:1012100010EC82FD106381FD1C6080FD1360711075
:101220001095812F0E94EA04992019F0812F0E94C5
:10123000EA04060D802F992787FD90958E159F054E
:101240007CF2FA81FF23A1F08C859D85C816D90612
:1012500021F4882021F01B8503C0198501C01A855F
:10126000812F0E94EA04992019F0812F0E94EA043C
:101270008B819C81082F192F81E06E817F810E94D4
:1012800015050894211C311C9981291608F495CF65
:10129000892F8195602F712F0E94150501C0188636
:1012A00088852D960FB6F894DEBF0FBECDBFCF91C7
:1012B000DF911F910F91FF90EF90DF90CF90BF9043
:1012C000AF909F908F907F906F905F904F903F90E6
:1012D0002F900895DF92EF92FF920F931F93CF9379
:1012E000DF937C01D62EEA01FA014491442379F080
:1012F000219600E010E0C7016D2D0E942908080F1B
:10130000111DFE01219644914423A9F702C000E07B
:1013100010E0802F912FDF91CF911F910F91FF90BF
:10132000EF90DF900895DF92EF92FF920F931F935B
:10133000CF93DF937C01D62EFA014081442389F0BC
:101340008F010F5F1F4FC0E0D0E0C7016D2D0E94DD
:101350002908C80FD11DF80141918F014423A9F735
:1013600002C0C0E0D0E07E018C2F9F2DDF91CF9195
:101370001F910F91FF90EF90DF9008958F929F92B1
:10138000BF92CF92DF92EF92FF920F931F93CF9372
:10139000DF936C01B62EF42EE22E222399F0842ED8
:1013A000E4014E01952EE40100E010E04991C601F0
:1013B0006B2D0E942908080F111D4E018F188E14E5
:1013C000A8F302C000E010E0802F912FDF91CF91B1
:1013D0001F910F91FF90EF90DF90CF90BF909F9063
:1013E0008F900895EF92FF920F931F93CF93DF9307
:1013F000EC01162F7A01822F602F0E94FC04CE018F
:10140000612FA7010E946A09DF91CF911F910F916F
:10141000FF90EF900895FF920F931F93CF93DF9368
:10142000EC01F62E142F822F602F0E94FC04CE01B7
:101430006F2D412F0E942908DF91CF911F910F91AD
:10144000FF900895482F80910301909104016091CD
:1014500002010E94290808950F93382F262F042F88
:10146000809103019091040160910201432F0E9439
:101470000B0A0F910895AC01809103019091040132
:10148000609102010E9493090895AC0180910301CB
:1014900090910401609102010E946A0908950F93DE
:1014A000FC01262F042F809103019091040160918B
:1014B0000201AF010E94F2090F9108950F931F934B
:1014C000DF93CF93CDB7DEB72A970FB6F894DEBF80
:1014D0000FBECDBF8E010F5F1F4FA8012AE030E085
:1014E0000E94840F80910301909104016091020198
:1014F000A8010E9493092A960FB6F894DEBF0FBE8A
:10150000CDBFCF91DF911F910F9108950F931F933E
:10151000DF93CF93CDB7DEB72A970FB6F894DEBF2F
:101520000FBECDBF8E010F5F1F4FB8014AE050E0E4
:101530000E94630F80910301909104016091020168
:10154000A8010E9493092A960FB6F894DEBF0FBE39
:10155000CDBFCF91DF911F910F9108950F931F93EE
:10156000DF93CF93CDB7DEB72A970FB6F894DEBFDF
:101570000FBECDBF8E010F5F1F4FB8014AE050E094
:101580000E94B80F809103019091040160910201C3
:10159000A8010E9493092A960FB6F894DEBF0FBEE9
:1015A000CDBFCF91DF911F910F9108950F931F939E
:1015B000DF93CF93CDB7DEB72A970FB6F894DEBF8F
:1015C0000FBECDBF992787FD90958E010F5F1F4FEE
:1015D000B8014AE050E00E94630F809103019091AE
:1015E000040160910201A8010E9493092A960FB696
:1015F000F894DEBF0FBECDBFCF91DF911F910F9149
:101600000895E82FF0E0EE0FFF1FE258F94F259103
:101610003491822F932F089588231CF480910B011D
:101620008F70089520910B012F7320930B0180FF81
:1016300076C081FF35C0809109018F5F80930901D9
:10164000882341F480910A018F5F80930A01206210
:1016500020930B0180910B0185FF22C0E0900901CE
:1016600000E010E0CAE0D1E0812F0E94010BFC01F4
:10167000818184FD0BC023819881291739F49281DF
:10168000E91618F08061818301C00F5F1F5F12307F
:1016900059F7002329F480910B018F7D80930B0172
:1016A00080E00E94010B7C01DC0111960C911197E6
:1016B0001FEE101708F4102F81E00E94010BEC01BF
:1016C0008981181718F0812F10E001C011E08F3EBA
:1016D000C9F0812F0E94010BFC01818180FD08C0AF
:1016E0000160D70111960C931197898181608983DC
:1016F00081818E7F818380910B01807F182B1093D5
:101700000B010DC080910B018F73806880930B01DA
:1017100088E890E08DBF9EBF78940C94470D10919F
:101720000B011F73106410930B011F70812F0E9417
:10173000010BDC018FEF8093750080937600E12F21
:10174000F0E0EE0FFF1FEE57F94F85919491E82FCF
:10175000F92F259134913093790020937800C901B5
:10176000099790937D0080937C00B0937B00A093B9
:101770007A008C91281B31092DBF3EBF0C94150EA9
:101780000895CF92DF92EF92FF920F931F93E82E6E
:10179000142FF894082F0F7386FD04C080910B015D
:1017A000807C01C080E00032C0F5DD24D394803C11
:1017B00009F0DD24DD2099F5882389F50F2EFFE35C
:1017C000FF2EF02DF622CC24C3940E94570DEE205C
:1017D00054F480910B010F2EFFE0EF2EF02DE82244
:1017E000107F1E2905C00F2EFFE0EF2EF02DE12205
:1017F000802F6F2D412F0E94080DDD20D9F40E940B
:10180000500D8E2D0E94010B20E1FC012183CC2084
:10181000B9F481E00E94120B13C0DD24D3940F2E83
:10182000FFE3FF2EF02DF62288E890E08DBF9EBFEB
:10183000CC24CBCF802F6F2D412F0E94080DFACFE3
:101840001F910F91FF90EF90DF90CF9008950F932D
:101850001F93CF93DF9380E80E940C0B082F0E9408
:10186000010BDC018C918F3228F084EA60E040E0CB
:101870000E94C10BE02FF0E0EE0FFF1FEE57F94F73
:1018800085919491E82FF92F05911491E801A9977A
:101890000D5210408A91882329F084EA60E040E0EC
:1018A0000E94C10BC017D107A9F7DF91CF911F91FB
:1018B0000F91089590910B01907C903409F59091CF
:1018C0007700992334F4836860E040E00E94C10B04
:1018D00015C090917500909520917600922371F03B
:1018E00099232CF047E04150990FEAF701C047E0F7
:1018F0004295407F846860E00E94C10B0E94270CE3
:1019000008954F9A0E945E0D80E40E945A0C83E075
:101910000E94120B08950E94070D0E94E703C0E089
:10192000D0E000EF11E88C2F0E94010BDC01119632
:101930000C939E01220F331FF901EE57F94F459189
:101940005491E42FF52F45915491642F752F2A5708
:10195000394FF90125913491FB01208332939F0186
:1019600021523040D9011C93B297A42FAE1BFC0129
:10197000A0832196C230D105B1F60E94500D81E0BE
:101980000E94120B089517F4F8944F9A0E945E0D6E
:101990000C94CA0CEC0180E00E945A0C8FEFC0300E
:1019A000D80728F08FE863E040E00E94C10B209741
:1019B000D9F080E80E940C0B0E94010BFC01809181
:1019C000090190910A01C80FD91FD383C283938163
:1019D00080910A01981729F480910B01806280930D
:1019E0000B0181818F7E818381E00E94120B08951B
:1019F00019BE95E093BF12BE91E098BF882331F0E5
:101A000008B600FEFDCF98BF8150D1F70895089524
:101A1000AF92BF92CF92DF92EF92FF920F931F93FC
:101A2000CF93DF939FEF97BB00E1EE24FF246894F0
:101A3000E3F80F2EF0E8DF2EF02DC82EC094B62E5E
:101A4000B094A42EA094E7011D2D812F809588BB12
:101A500082E00E94F80C16952197B9F7C8BA80E287
:101A60000E94F80CB8BA80E20E94F80CA8BA80E292
:101A70000E94F80C015039F7DF91CF911F910F911F
:101A8000FF90EF90DF90CF90BF90AF90089589B70F
:101A9000826089BF85B78F70806885BF8895FFCFCA
:101AA0008CE083BF80E28CBF08950C94810C9FB7BB
:101AB000F89489B78D7F89BF9FBF0895F093710017
:101AC000E0937200D0937300C0937400FF91F09381
:101AD0008700FF91F0938800F0910B01F7FD97C00C
:101AE000CFB7EDB7D0917C00ED1BE0E0FEB7D09111
:101AF0007D00FD0B08F4E068E0937700F0E0EF1361
:101B00007DC0F0917500D5EA1E12E1600D12E16012
:101B10002D12E1603D12E1600F921F922F923F92D1
:101B20001C2E4D12E2605D12E2606D12E2607D12C9
:101B3000E2604F925F926F927F928D12E4609D12ED
:101B4000E460AD12E460BD12E4608F929F92AF92A8
:101B5000BF92CD12E860DD12E860ED12E860FD1280
:101B6000E860CF92DF92EF92FF920D13E0611D13B8
:101B7000E0612D13E0613D13E0610F931F932F93FC
:101B80003F934D13E0625D13E0626D13E0627D13DD
:101B9000E0624F935F936F937F938D13E0649D1387
:101BA000E064AD13E064BD13E0648F939F93AF9343
:101BB000BF93C0917400CD13E068C0917300CD1342
:101BC000E068C0917200CD13E068C0917100CD1340
:101BD000E068C0917400CF93C0917300CF93C0911F
:101BE0007200CF93C0917100CF93F12D4F99F0689F
:101BF000FF93C0917600EC23E0937600109078007C
:101C0000FDB71F1AE0917A00F0917B001082E9B7CE
:101C1000ED7FE9BFF6E8FDBFF0E0FEBFE0917200A6
:101C2000F09171004F98112408951124E9B7FF91A4
:101C30004F98F7FD4F9AFF77E260FFBFE9BF009032
:101C40007500F5EA2F2EE22DD22DC22DFF91EF91D6
:101C5000DF91CF91B22DA22D922D822DBF91AF9108
:101C60009F918F91722D622D522D422D7F916F91F8
:101C70005F914F91322D222D122D022D3F912F91E8
:101C80001F910F91F22CE22CD22CC22CFF90EF90DE
:101C9000DF90CF90B22CA22C922C822CBF90AF90D0
:101CA0009F908F90722C622C522C422C7F906F90C0
:101CB0005F904F90322C022C3F902F901F900F90EE
:101CC0004F9B08954F9818958CE080B98FEF83B99A
:101CD00084E086BF089586B7817008950E946B0ED8
:101CE0008823E1F78091670008951F93CF93DF93D6
:101CF000EC01162F0E946B0E8823E1F71093E6008B
:101D000088818093E70080FD0FC0123068F0219633
:101D1000E8EEF0E0CF0101961250810F911D29915C
:101D20002193E817F907D9F71092E50088EF80931F
:101D3000670085EA86BFDF91CF911F9108950E94C9
:101D40006B0E8823E1F71092E50088EF809367001F
:101D500085EA86BF0895FF920F931F93F82E092FEF
:101D6000162F0E946B0E8823E1F78091E50080FF1B
:101D700010C0112371F0E7EEF0E0AF2DB02FCF01CE
:101D800001961150810F911D21912D93E817F907AC
:101D9000D9F78091E50081701F910F91FF90089510
:101DA0001F920F920FB60F9211242F933F938F9390
:101DB0009F93EF93FF9381B18832D1F0893240F441
:101DC0008031A1F08831A1F0883009F058C00EC0F0
:101DD000803499F1813420F4883309F050C04CC02C
:101DE000803501F1883509F04AC037C01092EB0008
:101DF0008091EB009091E600891760F4E82FF0E005
:101E0000E951FF4F908193B98F5F8093EB0085E894
:101E100086BF3AC08091E50081608093E50084E947
:101E200086BF32C08091EB0093B1E82FF0E0E9511A
:101E3000FF4F90838F5F8093EB002091EB0030E0A9
:101E40008091E60090E00197281739071CF485EC93
:101E500086BF1AC085E886BF17C083B1E091EB004A
:101E6000F0E0E951FF4F80838091E500816080932D
:101E7000E50084E986BF08C085EA86BF05C081B158
:101E80008093670084E086BFFF91EF919F918F91CF
:101E90003F912F910F900FBE0F901F901895AA1B86
:101EA000BB1B51E107C0AA1FBB1FA617B70710F045
:101EB000A61BB70B881F991F5A95A9F78095909577
:101EC000BC01CD010895FB019F01E8944230C4F0AC
:101ED0004532B4F44A3029F497FB1EF4909581956D
:101EE0009F4F642F77270E944F0F805D8A330CF03D
:101EF000895D8193CB010097A1F716F45DE25193C0
:101F00001082C9010C94CE0FFA01CF93FF93EF9387
:101F1000223044F1253234F5C22FE894CA3049F416
:101F200097FB3EF490958095709561957F4F8F4F0C
:101F30009F4F2C2F332744275527FF93EF930E9461
:101F4000DE0FEF91FF91605D6A330CF0695D619384
:101F5000B901CA01605070408040904051F716F4BA
:101F6000CDE2C19310828F919F91CF910C94CE0FAF
:101F7000FB019F01423074F0453264F4642F7727EF
:101F80000E944F0F805D8A330CF0895D8193CB01F5
:101F90000097A1F71082C9010C94CE0FDC01FC015F
:101FA000672F71917723E1F7329704C07C916D938D
:101FB00070836291AE17BF07C8F30895A1E21A2E8D
:101FC000AA1BBB1BFD010DC0AA1FBB1FEE1FFF1FDD
:101FD000A217B307E407F50720F0A21BB30BE40B2D
:101FE000F50B661F771F881F991F1A9469F7609574
:101FF0007095809590959B01AC01BD01CF0108952E
:04200000F894FFCF82
:0820040077000305080E1AF82D
:00000001FF
