:100000000C943A030C947F040C9489040C9493048C
:100010000C9457030C9457030C9457030C945703F8
:100020000C9457030C9457030C9457030C945703E8
:100030000C9457030C9457030C9457030C945703D8
:100040000C9457030C9457030C9457030C943004EE
:100050000C94570368656C6C6F00496E6974202EB0
:100060002E2E20646F6E652100000000000000004D
:100070003E4551453E003E6B6F6B3E001C3E7C3E54
:100080001C00183C7E3C180030367F363000185C6F
:100090007E5C18000000000000000000000000006E
:1000A00000000000000000000000000030484A3658
:1000B0000E00062979290600000000000000607E7D
:1000C0000A353F002A1C361C2A00007F3E1C08000F
:1000D000081C3E7F000014367F361400005F005F6E
:1000E000000006097F017F00224D55592200606003
:1000F0006060000014B6FFB6140004067F0604001A
:1001000010307F30100008083E1C0800081C3E0814
:100110000800784040404000083E083E0800303C5F
:100120003F3C3000030F3F0F0300000000000000C1
:1001300000065F060000070300070300247E247EFC
:100140002400242B6A1200006313086463003649FC
:1001500056205000000703000000003E4100000050
:1001600000413E000000083E1C3E080008083E0812
:10017000080000E0600000000808080808000060AF
:10018000600000002010080402003E5149453E0076
:1001900000427F40000062514949460022494949D6
:1001A00036001814127F10002F49494931003C4A8B
:1001B00049493000017109050300364949493600B3
:1001C000064949291E00006C6C00000000EC6C0020
:1001D00000000814224100002424242424000041AB
:1001E000221408000201590906003E415D551E0017
:1001F0007E1111117E007F49494936003E4141413F
:1002000022007F4141413E007F49494941007F0929
:10021000090901003E4149497A007F0808087F002A
:1002200000417F410000304040403F007F081422E1
:1002300041007F40404040007F0204027F007F0277
:1002400004087F003E4141413E007F090909060044
:100250003E4151215E007F0909196600264949493E
:10026000320001017F0101003F4040403F001F205C
:1002700040201F003F403C403F00631408146300CF
:10028000070870080700714945430000007F41419D
:1002900000000204081020000041417F0000040219
:1002A000010204808080808080000003070000003D
:1002B0002054545478007F44444438003844444423
:1002C0002800384444447F00385454540800087EC1
:1002D0000909000018A4A4A47C007F04047800008D
:1002E00000007D4000004080847D00007F10284495
:1002F000000000007F4000007C04180478007C04AB
:1003000004780000384444443800FC444444380035
:1003100038444444FC0044784404080008545454CD
:100320002000043E442400003C40207C00001C20AF
:1003300040201C003C6030603C006C10106C0000E1
:100340009CA0603C00006454544C0000083E4141B5
:1003500000000000770000000041413E080002015B
:10036000020100003C2623263C001EA1E1211200D0
:100370003D40207D00003854545509002055555506
:100380007800205554557800205555547800205752
:10039000555778001CA2E222140038555555080024
:1003A00038555455080038555554080000017C4113
:1003B000000000017D41000000017C400000702928
:1003C00024297000782F252F78007C54545545003F
:1003D00034547C5458007E097F49490038454539DA
:1003E00000003845443900003945443800003C419C
:1003F000217D00003D41207C00009CA1603D00006B
:100400003D42423D00003C41403D0080706858380C
:100410000400483E494962007E615D433F0022146A
:100420000814220040887E090200205455557800A7
:1004300000007D4100003844453900003C40217DEA
:1004400000007A090A7100007A112279000008552B
:1004500055555E004E51514E000030484D40203EF3
:10046000415D4B553E04040404041C0017084C6A0B
:1004700050001708342A780000307D30000008143E
:10048000000814001408001408441144114411AA6F
:1004900055AA55AA55BBEEBBEEBBEE000000FF000F
:1004A00000080808FF000000702825297000702946
:1004B0002529700070292528703E415D55413E0A6E
:1004C000FB00FF000000FF00FF00000AFA02FE0030
:1004D000000A0B080F000000182466240000292AD7
:1004E0007C2A29080808F800000000000F08080806
:1004F00008080F0808080808F80808000000FF08A6
:1005000008080808080808080808FF080800205616
:1005100055567900702A252A71000F080B0A0A0027
:10052000FE02FA0A0A0A0B080B0A0A0AFA02FA0A77
:100530000A00FF00FB0A0A0A0A0A0A0A0A0AFB0062
:10054000FB0A0A005D2222225D002255593000007C
:10055000087F49413E007C55555544007C55545513
:1005600044007C555554440000000700000000443E
:100570007D45000000457D45000000457C450008A4
:1005800008080F0000000000F80808FFFFFFFFFF49
:10059000FFF0F0F0F0F0F000000077000000004500
:1005A0007D44000F0F0F0F0F0F003C42433D000032
:1005B000FE4A4A3400003C43433D00003D43423C78
:1005C000000032494A3100003A4546390000FC201B
:1005D000201C0000FEAA28100000FFA5241800001F
:1005E0003C40413D00003C41413D00003D41403C1C
:1005F00000009CA0613D0000040871090400000295
:1006000002020000000703000000000808080000C4
:1006100000242E240000242424242405170A342A2C
:10062000780006097F017F00224D555922000808F5
:100630002A0808000008181800000609090600002A
:10064000000800080000000800000000020F000081
:100650000000090F05000000090D0A0000003C3CE5
:100660003C3C000000000000000006060800FF00FF
:100670000069000011241FBECFE5D8E0DEBFCDBF6A
:1006800010E0A0E6B0E0E2E6F8E102C005900D92CD
:10069000A836B107D9F710E0A8E6B0E001C01D9276
:1006A000AF38B107E1F70E94E7030C942F0C0C94CC
:1006B00000000F931F93DF93CF9300D0CDB7DEB729
:1006C00090916000990F99838A838E010F5F1F4F6D
:1006D000C80162E00E94230B80916000909161004C
:1006E000880F991F81608983C80161E00E94230BF4
:1006F00082E060E00E94110589E696E060E044E552
:1007000050E00E947F09C80162E00E94590B998164
:1007100080E02A8130E0282B392B822F932F0F90F5
:100720000F90CF91DF911F910F9108958AEA0E9457
:10073000590390937B0080937A008CEA0E945903BE
:1007400090938300809382008EEA0E9459039093D5
:100750008B0080938A0080EB0E945903909387005E
:100760008093860082EB0E945903909381008093CE
:10077000800084EB0E94590390937F0080937E0059
:1007800086EB0E94590390937D0080937C0088EB58
:100790000E94590390937700809376008AEB0E9421
:1007A000590390937900809378008CEB0E94590351
:1007B00090938900809388008EEB0E945903909358
:1007C00085008093840008950E9496030895CF9237
:1007D000DF92EF92FF920F931F9378940E949D04F3
:1007E0000E94160B09E616E0C80160E00E9434077B
:1007F000C80160E04AE550E00E947F090F2EF4EA4C
:10080000EF2EF02D0F2EFEEEDF2EF02D14E804EF6C
:100810000F2EF4E9CF2EF02DE6BEF1B081E060E0BE
:100820000E9411058F2D90E00E94C30AD3B816BF15
:1008300003B916BF03B916BFC6BEF1B082E060E0CF
:100840000E9411058F2D90E00E94C30A8FEF90E760
:10085000A2E081509040A040E1F700C00000DCCF52
:100860001F920F920FB60F921124DF9A0F900FBEB6
:100870000F901F90189587B18F7387B986B18668DE
:1008800086B9369A3699FECF84B195B10895982FDE
:100890009450943008F487B9369A3699FECF44B113
:1008A00055B12CED35E0429FC001439F900D529F02
:1008B000900D112481509E4F6FEF73E00E947E0BCC
:1008C000862F972F0895982F9450943008F487B965
:1008D000369A3699FECF44B155B124EF31E0429FAC
:1008E000C001439F900D529F900D112481509E4F47
:1008F0006FEF73E00E947E0B862F972F08951F9253
:100900000F920FB60F9211240F900FBE0F901F90F1
:1009100018951F920F920FB60F9211240F900FBED1
:100920000F901F9018951F920F920FB60F921124DF
:100930000F900FBE0F901F9018950E94D706D79A60
:10094000DF98D09AD19A089521B3206321BB2FB5A7
:1009500022602FBD2FB52E7F2FBD2EB520612EBD5D
:100960002EB5277F2EBD21E732E037BD26BD2FB53E
:1009700020682FBD2FB52F7B2FBD2EB523602EBD38
:100980002EB52B6F2EBD9BBD8ABD08959BBD8ABD24
:1009900008952EB528602EBD2EB521602EBD9BBDBD
:1009A0008ABD089590916E00890F837080936E00C8
:1009B00008950F931F93CF93DF938C0180916F0065
:1009C000E801C80FD11DC438D10588F010161106F2
:1009D00034F481E00E94D204C458D04005C08FEFA7
:1009E0000E94D204CC57DF4FC438D10578F7C093AA
:1009F0006F008C2FDF91CF911F910F910895C498B4
:100A0000DD9A8FB9779BFECFC49A81E090E00E9477
:100A1000D9040895C498DD988FB9779BFECFC49A06
:100A200008950F931F93082F162F8F70806B0E94CD
:100A30000A05812F82958F7080610E940A05812F9F
:100A40008F700E940A0510936F0000936E001F9133
:100A50000F9108951F93CF93DF93EB010E94D2046F
:100A6000182FCE010E94D904682F812F0E941105F2
:100A7000DF91CF911F9108958F929F92AF92BF9275
:100A8000CF92DF92EF92FF920F931F93CF93DF935A
:100A9000182FD92EC62E042FFF246894F2F8F222C4
:100AA000662309F440C080916E00843070F13BC031
:100AB000812EE4014E019D2CE401FE0121968491DA
:100AC000FF2019F40E94FF0403C080950E94FF04D8
:100AD0004E01811A801640F480916F00843868F3CB
:100AE0009E011C2FD32E03C09E011C2FD32EE394F6
:100AF000EC14C9F081E0B5010E942A05EC1498F4C9
:100B000080916E00843040F00EC0EE24A42EBB24F1
:100B1000B094A194B108B394002349F380916F007D
:100B2000843830F2E4CFDF91CF911F910F91FF9085
:100B3000EF90DF90CF90BF90AF909F908F900895EF
:100B40002F923F924F925F926F927F928F929F92DD
:100B5000AF92BF92CF92DF92EF92FF920F931F93CB
:100B6000DF93CF93CDB7DEB728970FB6F894DEBFEB
:100B70000FBECDBF6C01622E24E0E2220F2EF7E003
:100B8000FF2EF02DF42209F0639480916E00E62D83
:100B9000F0E024E030E0281B31092E173F0724F451
:100BA0006624689462F8681A842F869586958695DF
:100BB0000E941105802E9924160128183908DA821E
:100BC000C982AA24BB24772488E090E0FC01EF19B5
:100BD000F109FC83EB83C40122273327281B390B3F
:100BE0003E832D8353C009811A81610118861F82BB
:100BF00025010894411C511CFF2019F06414750450
:100C000041F0F80184910F2C01C0880F0A94EAF793
:100C100001C080E0A114B10461F0FF2051F0F601A1
:100C2000249130E00B8002C0359527950A94E2F7B5
:100C3000822BEE2021F080950E94FF0402C00E94CA
:100C4000FF042F8138852F5F3F4F38872F8328156A
:100C5000390548F40894C11CD11C0F5F1F4F8091C7
:100C60006F00843848F20894A11CB11C6A147B04FC
:100C700029F081E06D817E810E942A05280C391CB3
:100C800089819A81880D991D9A838983A614B70456
:100C900048F48114910439F380916F00843808F48A
:100CA000A2CFE1CF28960FB6F894DEBF0FBECDBF1E
:100CB000CF91DF911F910F91FF90EF90DF90CF9038
:100CC000BF90AF909F908F907F906F905F904F906C
:100CD0003F902F900895CF92DF92EF92FF920F9363
:100CE0001F93CF93DF9342FF03C0FF24FA9401C008
:100CF000FF2420916E0094E0921BD82E981708F4E0
:100D0000D92E90916F0084E8891B062F861708F46E
:100D1000082FDD2081F419C01C2D8F2D0E94FF04A7
:100D20001F5F1017D0F381E0BE010E942A05E394F3
:100D3000ED1440F00AC0EE24CC24C02FD0E0D095B2
:100D4000C195DF4F002341F7EECF8D2D819560E0F7
:100D500070E00E942A05DF91CF911F910F91FF90C3
:100D6000EF90DF90CF900895EF92FF920F931F9333
:100D7000F82E162FE42E822F602F0E9411058F2D42
:100D8000612F4E2D0E946B061F910F91FF90EF90E7
:100D9000089587B3806A87BB8AB380638ABBBC9A95
:100DA0008CE58DB981E08EB983EE8FB90895FF92FD
:100DB0000F931F93D59AD49ABC9A0E94C906DC98C7
:100DC0008FEC97E00197F1F700C00000DC9A80E417
:100DD0000E940A058FEC97E00197F1F700C0000030
:100DE00081EA0E940A0580EC0E940A058FEC97E0D8
:100DF0000197F1F700C0000086EA0E940A0582EA26
:100E00000E940A058FE20E940A0580E00E940A05FE
:100E100083E20E940A0581E80E940A058FE10E9490
:100E20000A058CEA0E940A0580E00E940A0500E09B
:100E30000F2EF4E8FF2EF02D802F60E00E941105A8
:100E40001F2D80E00E94FF041150D9F70F5F04307E
:100E500099F780E060E00E9411058FEA0E940A0580
:100E60001F910F91FF90089590938E0080938D00B5
:100E700060938C000895FC01389625913491822F5F
:100E8000932F0895FC01369625913491822F932F4C
:100E90000895FC01339684918150869586958695B8
:100EA0008F5F0895FC0136962591349181E02115DC
:100EB000310509F480E00895FC013596E491E617C8
:100EC00050F00496FC018491681740F0262F30E022
:100ED000281B310905C02FEF3FEF02C02FEF3FEF76
:100EE000822F932F0895FC01369625913491211578
:100EF0003105C9F0FC013596E491E61750F0FC018C
:100F00003496E4916E1740F0862F90E08E1B910985
:100F100005C08FEF9FEF02C08FEF9FEF280F391FA3
:100F2000F901849108950296FC0184910895CF926D
:100F3000DF92EF92FF920F931F93CF93DF93AC0159
:100F40004B5F5F4FFA012491261708F494C0EC011F
:100F50002496FE012491621708F48DC0E62EFF242A
:100F6000F701E21BF1099F018C010A5F1F4FF80195
:100F7000A591B49133230CF471C0722F9D01109789
:100F800009F03EC0FC013896A591B491CA2EDB2E23
:100F9000A72FB0E0FC013396749171507695769549
:100FA00076957F5FF8012591349121153105B9F0CF
:100FB000FA014491461748F0FE018491681740F009
:100FC000A701481B5109CA0105C08FEF9FEF02C05E
:100FD0008FEF9FEF280F391FF901849103C002960C
:100FE000FC018491879F802D112490E08A9F9001BD
:100FF0008B9F300D9A9F300D11242C0D3D1D30C05C
:10100000772399F07150472F50E04F5F5F4FA40F47
:10101000B51F40E050E0F9012F5F3F4FE4914E0FC4
:10102000511D2A173B07B9F702C040E050E0FC0110
:101030003896259134910396FC01849181508695D0
:10104000869586958F5F90E0849F6001859FD00C88
:10105000949FD00C11242C0D3D1D02C020E030E0E7
:10106000822F932FDF91CF911F910F91FF90EF90DF
:10107000DF90CF90089520E030E0F2CF2F923F92A2
:101080004F925F926F927F928F929F92AF92BF9298
:10109000CF92DF92EF92FF920F931F93DF93CF9344
:1010A000CDB7DEB72D970FB6F894DEBF0FBECDBF1C
:1010B000042F882483948622162F9924939461FF09
:1010C000992414FF05C00F2EF0E84F2EF02D01C01B
:1010D000442412FF03C077247A9401C077249C0132
:1010E0002A5F3F4FF9014591549141155105C9F0CF
:1010F000FC013596E491E01750F0FC013496E49140
:101100000E1740F0602F70E06E1B710905C06FEF85
:101110007FEF02C06FEF7FEF460F571FFA01E49099
:1011200003C0FC013296E490FC01339664906A940B
:101130006694669466946394F90125913491F1E084
:10114000FA832115310509F41A82602F0E9497074E
:101150005C018A818E0D092C01C0880F0A94EAF780
:101160008887C62CDD248D82262D082C01C0220FF5
:101170000A94EAF7298313FF12C080916F0090E070
:101180004885840F911D853891054CF080916E0043
:10119000820F60E00E941105003209F495C08E2D87
:1011A00090E0C89E7001C99EF00CD89EF00C1124EE
:1011B000872D8425942D969522243324E981CE2EE3
:1011C000DD240894C108D10879868A8789278B870E
:1011D0009885892F90E09C838B83909581959F4F74
:1011E0009F838E833D862C8681010D8002C01595DC
:1011F00007950A94E2F7802F992787FD90958E1521
:101200009F05A4F5552453945220E02FFF27E7FDB6
:10121000F095EA0DFB1D14918C859D85C816D906A5
:1012200009F41429882081F0552011F012951F70BF
:10123000812F13FD02C010E001C010EC82FD10638D
:1012400081FD1C6080FD136071101095812F0E943C
:10125000FF04992019F0812F0E94FF04060D802FB2
:10126000992787FD90958E159F057CF2FA81FF23C3
:10127000A1F08C859D85C816D90621F4882021F01F
:101280001B8503C0198501C01A85812F0E94FF04A8
:10129000992019F0812F0E94FF048B819C81082FD7
:1012A000192F81E06E817F810E942A050894211CFC
:1012B000311C9981291608F495CF892F8195602FCB
:1012C000712F0E942A0501C0188688852D960FB6B9
:1012D000F894DEBF0FBECDBFCF91DF911F910F916C
:1012E000FF90EF90DF90CF90BF90AF909F908F9046
:1012F0007F906F905F904F903F902F900895DF9276
:10130000EF92FF920F931F93CF93DF937C01D62E22
:10131000EA01FA014491442379F0219600E010E0BB
:10132000C7016D2D0E943E08080F111DFE01219678
:1013300044914423A9F702C000E010E0802F912FD0
:10134000DF91CF911F910F91FF90EF90DF90089563
:10135000DF92EF92FF920F931F93CF93DF937C0165
:10136000D62EFA014081442389F08F010F5F1F4F71
:10137000C0E0D0E0C7016D2D0E943E08C80FD11D0E
:10138000F80141918F014423A9F702C0C0E0D0E0E9
:101390007E018C2F9F2DDF91CF911F910F91FF9098
:1013A000EF90DF9008958F929F92BF92CF92DF923D
:1013B000EF92FF920F931F93CF93DF936C01B62EA2
:1013C000F42EE22E222399F0842EE4014E01952E74
:1013D000E40100E010E04991C6016B2D0E943E0837
:1013E000080F111D4E018F188E14A8F302C000E0E3
:1013F00010E0802F912FDF91CF911F910F91FF90DF
:10140000EF90DF90CF90BF909F908F900895EF92D4
:10141000FF920F931F93CF93DF93EC01162F7A0166
:10142000822F602F0E941105CE01612FA7010E941B
:101430007F09DF91CF911F910F91FF90EF90089559
:10144000FF920F931F93CF93DF93EC01F62E142F8F
:10145000822F602F0E941105CE016F2D412F0E9417
:101460003E08DF91CF911F910F91FF900895482F73
:1014700080918D0090918E0060918C000E943E08BA
:1014800008950F93382F262F042F80918D0090916F
:101490008E0060918C00432F0E94200A0F910895C6
:1014A000AC0180918D0090918E0060918C000E9423
:1014B000A8090895AC0180918D0090918E006091F3
:1014C0008C000E947F0908950F93FC01262F042FA2
:1014D00080918D0090918E0060918C00AF010E94F0
:1014E000070A0F9108950F931F93DF93CF93CDB702
:1014F000DEB72A970FB6F894DEBF0FBECDBF8E01C0
:101500000F5F1F4FA8012AE030E00E94B30B8091CB
:101510008D0090918E0060918C00A8010E94A80916
:101520002A960FB6F894DEBF0FBECDBFCF91DF91E4
:101530001F910F9108950F931F93DF93CF93CDB712
:10154000DEB72A970FB6F894DEBF0FBECDBF8E016F
:101550000F5F1F4FB8014AE050E00E94920B80914C
:101560008D0090918E0060918C00A8010E94A809C6
:101570002A960FB6F894DEBF0FBECDBFCF91DF9194
:101580001F910F9108950F931F93DF93CF93CDB7C2
:10159000DEB72A970FB6F894DEBF0FBECDBF8E011F
:1015A0000F5F1F4FB8014AE050E00E94E70B8091A7
:1015B0008D0090918E0060918C00A8010E94A80976
:1015C0002A960FB6F894DEBF0FBECDBFCF91DF9144
:1015D0001F910F9108950F931F93DF93CF93CDB772
:1015E000DEB72A970FB6F894DEBF0FBECDBF99279E
:1015F00087FD90958E010F5F1F4FB8014AE050E0C4
:101600000E94920B80918D0090918E0060918C00D1
:10161000A8010E94A8092A960FB6F894DEBF0FBE53
:10162000CDBFCF91DF911F910F91089580E280B9D6
:10163000089586B7817008950E94190B8823E1F7F9
:101640008091670008951F93CF93DF93EC01162FCD
:101650000E94190B8823E1F710937500888180930D
:10166000710080FD0FC0123068F02196E2E7F0E0D3
:10167000CF0101961250810F911D29912193E817F6
:10168000F907D9F71092700088EF8093670085EA18
:1016900086BFDF91CF911F9108950E94190B882377
:1016A000E1F71092700088EF8093670085EA86BFAB
:1016B0000895FF920F931F93F82E092F162F0E9463
:1016C000190B8823E1F78091700080FF10C011236F
:1016D00071F0E1E7F0E0AF2DB02FCF01019611508E
:1016E000810F911D21912D93E817F907D9F780916A
:1016F000700081701F910F91FF900895AA1BBB1B72
:1017000051E107C0AA1FBB1FA617B70710F0A61B01
:10171000B70B881F991F5A95A9F780959095BC0122
:10172000CD010895FB019F01E8944230C4F0453299
:10173000B4F44A3029F497FB1EF4909581959F4F9D
:10174000642F77270E947E0B805D8A330CF0895DC1
:101750008193CB010097A1F716F45DE251931082BB
:10176000C9010C94FD0BFA01CF93FF93EF93223044
:1017700044F1253234F5C22FE894CA3049F497FB7E
:101780003EF490958095709561957F4F8F4F9F4F58
:101790002C2F332744275527FF93EF930E940D0CDE
:1017A000EF91FF91605D6A330CF0695D6193B9015F
:1017B000CA01605070408040904051F716F4CDE26D
:1017C000C19310828F919F91CF910C94FD0BFB01DF
:1017D0009F01423074F0453264F4642F77270E94F1
:1017E0007E0B805D8A330CF0895D8193CB0100977D
:1017F000A1F71082C9010C94FD0BDC01FC01672FDD
:1018000071917723E1F7329704C07C916D937083D7
:101810006291AE17BF07C8F30895A1E21A2EAA1B62
:10182000BB1BFD010DC0AA1FBB1FEE1FFF1FA21790
:10183000B307E407F50720F0A21BB30BE40BF50B8D
:10184000661F771F881F991F1A9469F76095709516
:10185000809590959B01AC01BD01CF010895F8944E
:02186000FFCFB8
:0818620077000305080E1AF8D7
:00000001FF
