:100000000C942A000C943F000C943F000C943F0089
:100010000C943F000C943F000C943F000C943F0064
:100020000C943F000C943F000C943F000C943F0054
:100030000C943F000C943F000C943F000C943F0044
:100040000C943F000C943F000C943F000C943F0034
:100050000C943F0011241FBECFE5D8E0DEBFCDBF1A
:1000600010E0A0E6B0E0ECE1F2E002C005900D92F5
:10007000AA37B107D9F70E9441000C940C010C94E7
:100080000000D09A0E94A000D89A0E94E10080E669
:1000900090E00E94FF0080E062E00E94E90088E6B4
:1000A00090E00E94FF00F0CFAA9A95B39F7095BB95
:1000B00025B3982F907F922B95BBAB9A21E0922F7E
:1000C0009A95F1F7AB9895B39F7095BB95B38295D0
:1000D000807F982B95BBAB9A2A95F1F7AB9888E374
:1000E0008A95F1F70895AA9895B39F7095BB25B3AB
:1000F000982F907F922B95BBAB9A21E0922F9A95E7
:10010000F1F7AB9895B39F7095BB95B38295807FBF
:10011000982B95BBAB9A2A95F1F7AB9888E38A9513
:10012000F1F70895AB9A81E08A95F1F7AB980895BD
:1001300081E00E94730088E893E10197F1F7089548
:1001400084B38C6F84BB80E395E70197F1F785B3A7
:100150008F7085BB85B3806385BBAA98AB9A91E00D
:10016000892F8A95F1F7AB98E8E8F3E13197F1F739
:10017000AB9A892F8A95F1F7AB9828EE33E0F90115
:100180003197F1F7AB9A892F8A95F1F7AB98F9017E
:100190003197F1F785B38F7085BBAD9AAB9A9A957D
:1001A000F1F7AB98C9010197F1F788E20E9473005B
:1001B0008CE00E94730086E00E9473000E94980009
:1001C000089582E00E94730088E893E10197F1F7B7
:1001D0000895623061F0633018F4613079F405C03D
:1001E000633039F0643051F406C0805805C0805443
:1001F00003C0805701C080530E9473000895CF93BD
:10020000DF93EC0103C00E9454002196888188236B
:0C021000D1F7DF91CF910895F894FFCF53
:10021C005376656E6A613A006C6965626573536307
:0A022C00686C616674696572000079
:00000001FF
