S0110000506F77657243656C6C2E7372656386
S11300000C9446000C9466000C9466000C946600F4
S11300100C9466000C9466000C9466000C946600C4
S11300200C9466000C9466000C9466000C946600B4
S11300300C9466000C94C8080C9466000C9466003A
S11300400C9466000C9466000C9466000C94660094
S11300500C9466000C9466000C9466000C94660084
S11300600C9466000C9466000C9466000C94660074
S11300700C9466000C9466000C9466000C94660064
S11300800C9466000C9466000C94660011241FBE48
S1130090CFEFD0E4DEBFCDBF11E0A0E0B1E0E8E8EF
S11300A0FEE300E00BBF02C007900D92AA35B10732
S11300B0D9F71BBE17E0AAE5B1E001C01D92A73E27
S11300C0B107E1F70E9468000C94421F0C940000F1
S11300D0CF93DF93CDB7DEB784E290E024E230E043
S11300E0F90120812160FC0120830E94870082E0C5
S11300F00E94721E81E00E94021E83E00E94AC1DD9
S11301000E94B21080E090E0DF91CF910895CF93E8
S1130110DF930F92CDB7DEB7CE01019660E570E0B4
S113012041E050E00E94241F89818F5F89832981E7
S113013080E590E0622F0E94341F0F90DF91CF91F1
S11301400895CF93DF93CDB7DEB7DF91CF910895B4
S1130150CF93DF93CDB7DEB727970FB6F894DEBF02
S11301600FBECDBF9D838C836E834F838AE190E065
S11301700E94FF039B838A838A819B81009709F4F1
S113018076C080915A0190915B01009741F48A8175
S11301909B8190935B0180935A010E948B038E8113
S11301A0823010F081E08E838A819B81FC01118E64
S11301B0108E8A819B812E81FC01268B8A819B81F2
S11301C02F81FC01278B8A819B812C813D81FC013D
S11301D0318320838A819B8102960E94B2048A81A2
S11301E09B810C960E94B2048A819B812A813B8167
S11301F0FC01318720878A819B812A813B81FC0114
S1130200338B228B8E81882F90E024E030E0281BF2
S1130210390B8A819B81FC01358724878A819B81E4
S1130220FC01968980918D01891730F48A819B8124
S1130230FC01868980938D018A819B81FC018689DA
S1130240282F30E0C901880F991F880F991F880F44
S1130250991F820F931F845A9E4F2A813B812E5FE0
S11302603F4FB9010E94C30481E0898302C08FEF2C
S11302708983898127960FB6F894DEBF0FBECDBF60
S1130280DF91CF910895CF93DF93CDB7DEB72A974F
S11302900FB6F894DEBF0FBECDBF6D837E838F8310
S11302A098875A87498720918E0130918F01409118
S11302B09001509191018D819E81AF81B885820F0B
S11302C0931FA41FB51F89839A83AB83BC8380913A
S11302D05A0190915B0102960E94A60580915A01F1
S11302E090915B0129813A81FC01338322838091BF
S11302F08E0190918F01A0919001B091910129817B
S11303003A814B815C81281739074A075B0770F4EF
S1130310809182019091830120915A0130915B0177
S11303202E5F3F4FB9010E941B050DC080918001D3
S11303309091810120915A0130915B012E5F3F4FD2
S1130340B9010E941B0589859A85009761F0809107
S11303505A0190915B019C01245F3F4F89859A85E6
S1130360B9010E941B052A960FB6F894DEBF0FBE92
S1130370CDBFDF91CF910895CF93DF9300D0CDB758
S1130380DEB73BC0F8948091890190918A01FC0109
S1130390868197819A83898389819A810C960E94A8
S11303A0A605789489819A8102960E94A60589817E
S11303B09A81FC01968980918D01891730F4898195
S11303C09A81FC01868980938D0189819A81FC013F
S11303D08689282F30E0C901880F991F880F991F3B
S11303E0880F991F820F931F845A9E4F29813A8147
S11303F02E5F3F4FB9010E94C3048091840188237A
S113040009F0C0CF0F900F90DF91CF910895EF9234
S1130410FF920F931F93CF93DF9300D000D0CDB7FB
S1130420DEB70E9488119B01AC01809192019091EA
S11304309301A0919401B091950179018A01E81A80
S1130440F90A0A0B1B0BD801C701809396019093FC
S11304509701A0939801B0939901B0C080918E0147
S113046090918F01A0919001B09191010196A11DED
S1130470B11D80938E0190938F01A0939001B0934E
S113048091018091960190919701A0919801B0916A
S113049099010197A109B10980939601909397015D
S11304A0A0939801B093990180918E0190918F014E
S11304B0A0919001B09191010097A105B10509F0B7
S11304C071C080918001909181019A838983809188
S11304D082019091830190938101809380018981AD
S11304E09A8190938301809382015CC08091800102
S11304F090918101FC0185819681FC01868197811F
S11305009C838B838B819C81FC01828193819C01E0
S113051040E050E080918E0190918F01A091900174
S1130520B091910182179307A407B50708F445C059
S1130530F8948B819C8102960E94A6058B819C81F4
S1130540FC0184899589009729F08B819C810C9604
S11305500E94A60578948B819C81FC0196898091E8
S11305608D01891730F48B819C81FC0186898093ED
S11305708D018B819C81FC018689282F30E0C90183
S1130580880F991F880F991F880F991F820F931F37
S1130590845A9E4F2B813C812E5F3F4FB9010E94AC
S11305A0C30401C000008091800190918101FC018D
S11305B08081882309F09ACF01C0000080919601C0
S11305C090919701A0919801B09199010097A1058C
S11305D0B10509F043CF80918E0190918F01A091D4
S11305E09001B09191018093920190939301A09313
S11305F09401B09395010F900F900F900F90DF919D
S1130600CF911F910F91FF90EF900895CF93DF93B7
S113061000D0CDB7DEB70E94BC010E9407020AC019
S113062080918D01882309F470C080918D018150DF
S113063080938D0180918D01282F30E0C901880FAE
S1130640991F880F991F880F991F820F931F845A2F
S11306509E4FFC018081882319F380918D01282FFE
S113066030E0C901880F991F880F991F880F991FBF
S1130670820F931F845A9E4F9A83898389819A811A
S1130680FC0181819281FC012281338189819A81DB
S1130690FC013283218389819A81FC012181328189
S11306A089819A8103962817390769F489819A8187
S11306B0FC0181819281FC012281338189819A81AB
S11306C0FC013283218389819A81FC018181928199
S11306D0FC018681978190935B0180935A018091FC
S11306E05A0190915B01FC012081318180915A0172
S11306F090915B0140915A0150915B01FA01478945
S1130700642FF9010995000001C000000F900F90BB
S1130710DF91CF910895CF93DF930F92CDB7DEB7DA
S1130720198213C08981282F30E0C901880F991FCD
S1130730880F991F880F991F820F931F845A9E4F09
S11307400E947D0489818F5F89838981823050F37F
S11307508EE691E00E947D0487E791E00E947D048B
S113076084E891E00E947D048EE691E090938101FB
S11307708093800187E791E09093830180938201C5
S11307800F90DF91CF910895CF93DF9300D000D0E5
S11307900F92CDB7DEB79D838C838C819D81FC0144
S11307A085819681FC01868197819B838A838A81D6
S11307B09B810C960E94A6058A819B819C01245FE3
S11307C03F4F84E891E0B9010E94C3048A819B8170
S11307D0FC01268980915A0190915B01FC01868974
S11307E0281718F081E0898301C0198289810F904C
S11307F00F900F900F900F90DF91CF910895CF93AA
S1130800DF9300D000D0CDB7DEB79C838B831A82F0
S113081019820E94F91080917807909179070097C6
S113082031F48BE991E090937907809378072091D4
S11308307607309177078B819C81820F931F25E087
S11308408B3D920738F520917607309177078B819D
S11308509C81280F391F8091760790917707821722
S11308609307C0F420917807309179078091760737
S113087090917707820F931F9A838983209176073B
S1130880309177078B819C81820F931F9093770718
S1130890809376070E94051189819A810F900F90A9
S11308A00F900F90DF91CF910895CF93DF9300D0F5
S11308B0CDB7DEB79A8389830F900F90DF91CF91E4
S11308C00895CF93DF93CDB7DEB7109277071092D8
S11308D07607DF91CF910895CF93DF93CDB7DEB73D
S11308E080917607909177072BED35E0A901481B9D
S11308F0590BCA01DF91CF910895CF93DF9300D0B4
S1130900CDB7DEB79A83898389819A819C012D5F53
S11309103F4F89819A81FC013283218389819A81A5
S11309202FEF3FEFFC013483238389819A819C015B
S11309302D5F3F4F89819A81FC013683258389810C
S11309409A819C012D5F3F4F89819A81FC013087F8
S1130950278389819A81FC0110820F900F90DF9187
S1130960CF910895CF93DF9300D0CDB7DEB79A83AC
S1130970898389819A81FC01118610860F900F90DA
S1130980DF91CF910895CF93DF9300D000D000D0B2
S1130990CDB7DEB79C838B837E836D838B819C81F3
S11309A0FC01818192819A83898389819A81FC01E6
S11309B0228133818D819E81FC01338322838B814B
S11309C09C81FC01218132818D819E81FC013583D2
S11309D0248389819A81FC01828193812D813E81C6
S11309E0FC013583248389819A812D813E81FC0118
S11309F0338322838B819C812D813E81FC01328350
S1130A0021838D819E812B813C81FC01318720874C
S1130A108B819C81FC018081282F2F5F8B819C819D
S1130A20FC01208326960FB6F894DEBF0FBECDBF1F
S1130A30DF91CF910895CF93DF93CDB7DEB72A9797
S1130A400FB6F894DEBF0FBECDBF98878F837A8729
S1130A50698789859A85FC0180819181CC01A0E018
S1130A60B0E08B839C83AD83BE838B819C81AD81FD
S1130A70BE818F3FFFEF9F07F0E0AF07F0E0BF07B5
S1130A8041F48F819885FC01878190859A838983BD
S1130A9021C08F81988503969A83898307C08981B1
S1130AA09A81FC01828193819A83898389819A81C5
S1130AB0FC0182819381FC01808191819C0140E051
S1130AC050E08B819C81AD81BE8182179307A4077E
S1130AD0B50728F789819A81FC01228133818985B0
S1130AE09A85FC013383228389859A85FC0182815E
S1130AF0938129853A85FC013583248389859A85E8
S1130B0029813A81FC013583248389819A8129854D
S1130B103A85FC013383228389859A852F81388520
S1130B20FC01318720878F819885FC018081282FE3
S1130B302F5F8F819885FC0120832A960FB6F89445
S1130B40DEBF0FBECDBFDF91CF910895CF93DF936A
S1130B5000D000D0CDB7DEB79C838B838B819C8182
S1130B60FC01828193812B813C81F90124813581AF
S1130B70FC01358324838B819C81FC0184819581D4
S1130B802B813C81F90122813381FC01338322834F
S1130B908B819C81FC01808591859A8389838981DD
S1130BA09A81FC01218132818B819C81281739072C
S1130BB051F48B819C81FC012481358189819A8146
S1130BC0FC01328321838B819C81FC011186108678
S1130BD089819A81FC018081282F215089819A8101
S1130BE0FC01208389819A81FC0180810F900F9000
S1130BF00F900F90DF91CF910895CF93DF93CDB7EE
S1130C00DEB728970FB6F894DEBF0FBECDBF9C8326
S1130C108B837E836D8358874F838B819C8121E1F5
S1130C20FC0120838B819C8101979C838B838B8126
S1130C309C8122E2FC0120838B819C8101979C830F
S1130C408B838B819C8123E3FC0120838B819C819A
S1130C5001979C838B838D819E819A8389832981CB
S1130C608B819C81FC0120838B819C8101979C83D7
S1130C708B8389819A81892F99279A8389832981F2
S1130C808B819C81FC0120838B819C8101979C83B7
S1130C908B838B819C81FC0110828B819C810197C9
S1130CA09C838B838B819C8120E8FC0120838B8136
S1130CB09C8101979C838B838B819C81FC01108296
S1130CC08B819C8101979C838B838B819C8122E007
S1130CD0FC0120838B819C8101979C838B838B8176
S1130CE09C8123E0FC0120838B819C8101979C8360
S1130CF08B838B819C8124E0FC0120838B819C81EC
S1130D0001979C838B838B819C8125E0FC0120834C
S1130D108B819C8101979C838B838B819C8126E0B2
S1130D20FC0120838B819C8101979C838B838B8125
S1130D309C8127E0FC0120838B819C8101979C830B
S1130D408B838B819C8128E0FC0120838B819C8197
S1130D5001979C838B838B819C8129E0FC012083F8
S1130D608B819C8101979C838B838B819C8120E167
S1130D70FC0120838B819C8101979C838B838B81D5
S1130D809C8121E1FC0120838B819C8101979C83C0
S1130D908B838B819C8122E1FC0120838B819C814C
S1130DA001979C838B838B819C8123E1FC012083AD
S1130DB08B819C8101979C838B838B819C8124E113
S1130DC0FC0120838B819C8101979C838B838B8185
S1130DD09C8125E1FC0120838B819C8101979C836C
S1130DE08B838B819C8126E1FC0120838B819C81F8
S1130DF001979C838B838B819C8127E1FC01208359
S1130E008B819C8101979C838B838B819C8128E1BE
S1130E10FC0120838B819C8101979C838B838B8134
S1130E209C8129E1FC0120838B819C8101979C8317
S1130E308B838B819C8120E2FC0120838B819C81AC
S1130E4001979C838B838B819C8121E2FC0120830D
S1130E508B819C8101979C838B838B819C8122E273
S1130E60FC0120838B819C8101979C838B838B81E4
S1130E709C8123E2FC0120838B819C8101979C83CC
S1130E808B838F8198859A83898329818B819C8127
S1130E90FC0120838B819C8101979C838B838981B6
S1130EA09A81892F99279A83898329818B819C81AF
S1130EB0FC0120838B819C8101979C838B838B8194
S1130EC09C8126E2FC0120838B819C8101979C8379
S1130ED08B838B819C8127E2FC0120838B819C8105
S1130EE001979C838B838B819C8128E2FC01208366
S1130EF08B819C8101979C838B838B819C8129E2CC
S1130F00FC0120838B819C8101979C838B838B8143
S1130F109C8120E3FC0120838B819C8101979C832D
S1130F208B838B819C8121E3FC0120838B819C81B9
S1130F3001979C838B838B819C8128960FB6F894B0
S1130F40DEBF0FBECDBFDF91CF910895CF93DF9366
S1130F50CDB7DEB70E949608A0917A07B0917B07BF
S1130F60CD91CDBFDD91DEBFFF91EF91DF91CF91A8
S1130F70BF91AF919F918F917F916F915F914F91AD
S1130F803F912F911F910F91FF90EF90DF90CF90A1
S1130F90BF90AF909F908F907F906F905F904F9095
S1130FA03F902F901F900F900FBE0F90089581E0F7
S1130FB0DF91CF910895CF93DF93CDB7DEB7DF9163
S1130FC0CF9108950F920FB6F8940F921F921124A7
S1130FD02F923F924F925F926F927F928F929F9245
S1130FE0AF92BF92CF92DF92EF92FF920F931F9333
S1130FF02F933F934F935F936F937F938F939F931D
S1131000AF93BF93CF93DF93EF93FF93A0917A07AE
S1131010B0917B070DB60D920EB60D920E94F71299
S1131020A0917A07B0917B07CD91CDBFDD91DEBF52
S1131030FF91EF91DF91CF91BF91AF919F918F91EC
S11310407F916F915F914F913F912F911F910F91DC
S1131050FF90EF90DF90CF90BF90AF909F908F90D4
S11310607F906F905F904F903F902F901F900F90C4
S11310700FBE0F9008950F920FB6F8940F921F921F
S113108011242F923F924F925F926F927F928F9290
S11310909F92AF92BF92CF92DF92EF92FF920F9303
S11310A01F932F933F934F935F936F937F938F93EC
S11310B09F93AF93BF93CF93DF93EF93FF93A0914D
S11310C07A07B0917B070DB60D920EB60D920E9471
S11310D0D7110E94F712A0917A07B0917B07CD91A6
S11310E0CDBFDD91DEBFFF91EF91DF91CF91BF9135
S11310F0AF919F918F917F916F915F914F913F91AC
S11311002F911F910F91FF90EF90DF90CF90BF90A0
S1131110AF909F908F907F906F905F904F903F9093
S11311202F901F900F900FBE0F900895CF93DF93D1
S113113000D000D00F92CDB7DEB780E49FE1A0E0ED
S1131140B0E089839A83AB83BC8388E890E02981EB
S11311503A81FC013183208389E08D8381E890E02A
S11311602D81FC0120838FE690E0FC0180818D833A
S11311708D8182608D838FE690E02D81FC01208338
S11311800F900F900F900F900F90DF91CF910895D3
S11311901F920F920FB60F9200905B000F921124D2
S11311A02F933F934F935F936F937F938F939F936B
S11311B0AF93BF93EF93FF93CF93DF93CDB7DEB796
S11311C085E290E025E230E0F901308121E0232737
S11311D0FC0120830E943B081895DF91CF91FF9179
S11311E0EF91BF91AF919F918F917F916F915F919B
S11311F04F913F912F910F9000925B000F900FBE83
S11312000F901F901895CF93DF9300D000D00F92CA
S1131210CDB7DEB79C838B836D838B819C819A834E
S113122089830FB6F8940F9289819A81FC012081F9
S1131230318189819A81FC01838D682F70E08981D5
S11312409A81FC01848D482F50E0649FC001659F02
S1131250900D749F900D1124280F391F89819A8154
S1131260FC013383228389819A81FC01128E898156
S11312709A81FC012081318189819A81FC01358325
S1131280248389819A81FC012081318189819A8119
S1131290FC01838D882F90E0BC01615070408981EE
S11312A09A81FC01848D482F50E0649FC001659FA2
S11312B0900D749F900D1124280F391F89819A81F4
S11312C0FC013783268389819A812FEFFC01258FC6
S11312D089819A812FEFFC01268F8D81882381F4E7
S11312E089819A81FC0180858823A1F089819A8172
S11312F008960E94AB13813069F40E94E2070AC089
S113130089819A8108960E947D0489819A814196F7
S11313100E947D040F900FBE81E00F900F900F90FC
S11313200F900F90DF91CF910895CF93DF93CDB7B6
S1131330DEB729970FB6F894DEBF0FBECDBF8F83FB
S1131340688749871A8219828F81882309F443C0E8
S11313508FE190E00E94FF039C838B838B819C81AF
S11313600097C9F18F81482F50E08885282F30E0FD
S1131370429FC001439F900D529F900D11240196EE
S11313809E838D838D819E810E94FF039C018B81AE
S11313909C81FC01318320838B819C81FC018081B1
S11313A091810097A1F08B819C812F81FC01238F77
S11313B08B819C812885FC01248F8B819C8161E039
S11313C00E9403098B819C819A83898304C08B8149
S11313D09C810E94550489819A8129960FB6F894BC
S11313E0DEBF0FBECDBFDF91CF9108950F93CF9392
S11313F0DF93CDB7DEB761970FB6F894DEBF0FBEAB
S1131400CDBF9A8789877C876B872D873E874F87D7
S1131410588B098B198289859A859B838A8301C09D
S113142000000FB6F8940F928A819B81FC01228DF3
S11314308A819B81FC01838D2817D8F48A819B8142
S11314402B853C85B90149890E948E0C8A819B8138
S1131450FC018189882349F08A819B8141960E94FD
S1131460AB13813011F40E94E2070F900FBE81E0AC
S113147067C08D859E85AF85B8890097A105B105A4
S113148021F40F900FBE80E05BC08981882331F482
S1131490CE0104960E94161481E089830F900FBE3A
S11314A00E94F9100FB6F8940F928A819B81FC0177
S11314B0858D8F3F21F48A819B81FC01158E8A8161
S11314C09B81FC01868D8F3F21F48A819B81FC01E5
S11314D0168E0F900FBECE0104969E01235F3F4FE0
S11314E0B9010E943714882321F58A819B810E94C7
S11314F0270E8823B9F08A819B8108962D853E8525
S11315004F855889BA01A9010E9463138A819B817E
S11315100E948C0D0E940511882309F081CF0E943E
S1131520E2077ECF8A819B810E948C0D0E94051167
S113153077CF8A819B810E948C0D0E94051180E0E7
S113154061960FB6F894DEBF0FBECDBFDF91CF9189
S11315500F910895CF93DF93CDB7DEB72B970FB6D6
S1131560F894DEBF0FBECDBF9E838D8378876F83D3
S11315705A8749872B878D819E819B838A831C820E
S11315808A819B81FC01228D8A819B81FC01838D50
S1131590281790F58A819B812F813885B9014B8565
S11315A00E948E0C8A819B81FC01868D8F3FB9F449
S11315B08A819B81FC0181898823D9F08A819B815E
S11315C041960E94AB138823A1F089859A850097E0
S11315D081F089859A8521E0FC0120830AC08A81F3
S11315E09B81FC01868D282F2F5F8A819B81FC01C2
S11315F0268F81E0898301C0198289812B960FB6D9
S1131600F894DEBF0FBECDBFDF91CF9108950F9345
S1131610CF93DF93CDB7DEB763970FB6F894DEBFF1
S11316200FBECDBF9C878B877E876D872F87388BB6
S1131630498B5A8B0B8B19828B859C859B838A8360
S113164001C000000FB6F8940F928A819B81FC01BF
S1131650828D882309F445C08A819B81FC0186819F
S113166097819D838C838A819B812D853E85B901D9
S11316700E943A0D8B898823D1F48A819B81FC01D5
S1131680828D282F21508A819B81FC01228F8A819F
S11316909B81FC018085882301F18A819B810896C6
S11316A00E94AB138130C9F40E94E20716C08A81FC
S11316B09B812C813D81FC01378326838A819B8118
S11316C0FC018189882349F08A819B8141960E948B
S11316D0AB13882311F00E94E2070F900FBE81E044
S11316E067C08F859889A989BA890097A105B10532
S11316F021F40F900FBE80E05BC08981882331F410
S1131700CE0106960E94161481E089830F900FBEC5
S11317100E94F9100FB6F8940F928A819B81FC0104
S1131720858D8F3F21F48A819B81FC01158E8A81EE
S11317309B81FC01868D8F3F21F48A819B81FC0172
S1131740168E0F900FBECE0106969E01215F3F4F6D
S1131750B9010E943714882321F58A819B810E9454
S1131760F00D8823B9F08A819B8141962F853889B1
S113177049895A89BA01A9010E9463138A819B810C
S11317800E948C0D0E940511882309F05ACF0E94F3
S1131790E20757CF8A819B810E948C0D0E9405111C
S11317A050CF8A819B810E948C0D0E94051180E09C
S11317B063960FB6F894DEBF0FBECDBFDF91CF9115
S11317C00F910895CF93DF93CDB7DEB72A970FB665
S11317D0F894DEBF0FBECDBF9E838D8378876F8361
S11317E05A8749878D819E819B838A831C828A8143
S11317F09B81FC01828D8823D9F18A819B812F8171
S11318003885B9010E943A0D8A819B81FC01828D41
S1131810282F21508A819B81FC01228F8A819B8100
S1131820FC01858D8F3FB9F48A819B81FC01808501
S11318308823D9F08A819B8108960E94AB13882360
S1131840A1F089859A85009781F089859A8521E0A0
S1131850FC0120830AC08A819B81FC01858D282F8D
S11318602F5F8A819B81FC01258F81E0898301C0E0
S1131870198289812A960FB6F894DEBF0FBECDBFB8
S1131880DF91CF910895CF93DF9300D00F92CDB71E
S1131890DEB79B838A830FB6F8940F928A819B816B
S11318A0FC01828D89830F900FBE89810F900F9068
S11318B00F90DF91CF910895CF93DF9300D00F92D3
S11318C0CDB7DEB79B838A838A819B81FC01828D9D
S11318D0898389810F900F900F90DF91CF910895A4
S11318E0CF93DF9300D000D0CDB7DEB79C838B833A
S11318F08B819C819A83898389819A81FC0180816F
S113190091810E94550489819A810E9455040F9007
S11319100F900F900F90DF91CF910895CF93DF93A5
S113192000D000D00F92CDB7DEB79A8389837C8331
S11319306B834D8389819A81FC01848D882309F40A
S113194087C08D818823E1F589819A81FC01848196
S1131950958129813A81F901248D222F30E04B8130
S11319605C81BA01A9010E94051F89819A81FC0149
S11319702481358189819A81FC01848D882F90E0AE
S1131980280F391F89819A81FC0135832483898139
S11319909A81FC012481358189819A81FC018281AB
S11319A093812817390708F453C089819A81FC016F
S11319B02081318189819A81FC013583248348C047
S11319C089819A81FC018681978129813A81F90173
S11319D0248D222F30E04B815C81BA01A9010E9441
S11319E0051F89819A81FC012681378189819A8129
S11319F0FC01848D882F90E0909581959F4F280F4E
S1131A00391F89819A81FC013783268389819A81D0
S1131A10FC012681378189819A81FC018081918131
S1131A2028173907A8F489819A81FC01228133811E
S1131A3089819A81FC01848D882F90E0909581950D
S1131A409F4F280F391F89819A81FC013783268390
S1131A5089819A81FC01828D282F2F5F89819A8147
S1131A60FC01228F0F900F900F900F900F90DF9139
S1131A70CF910895CF93DF9300D000D0CDB7DEB7D8
S1131A809A8389837C836B8389819A81FC01808119
S1131A9091810097D1F189819A81FC012681378156
S1131AA089819A81FC01848D882F90E0280F391F49
S1131AB089819A81FC013783268389819A81FC017B
S1131AC02681378189819A81FC018281938128173B
S1131AD0390750F089819A81FC0120813181898103
S1131AE09A81FC013783268389819A81FC0146818E
S1131AF0578189819A81FC01848D282F30E08B8164
S1131B009C81BA01A9010E94051F0F900F900F90AC
S1131B100F90DF91CF910895CF93DF9300D0CDB78D
S1131B20DEB79A8389830FB6F8940F9219C089811E
S1131B309A81FC0181898823D1F089819A81419617
S1131B400E94AB13882311F00E94CF1489819A81DB
S1131B50FC01868D282F215089819A81FC01268FD2
S1131B6089819A81FC01868D18160CF301C000004E
S1131B7089819A812FEFFC01268F0F900FBE0FB63B
S1131B80F8940F9219C089819A81FC018085882379
S1131B90D1F089819A8108960E94AB13882311F0B1
S1131BA00E94CF1489819A81FC01858D282F2150B0
S1131BB089819A81FC01258F89819A81FC01858D17
S1131BC018160CF301C0000089819A812FEFFC01E3
S1131BD0258F0F900FBE0F900F90DF91CF91089536
S1131BE0CF93DF9300D00F92CDB7DEB79B838A8368
S1131BF00FB6F8940F928A819B81FC01828D882311
S1131C0019F481E0898301C019820F900FBE898184
S1131C100F900F900F90DF91CF910895CF93DF93A2
S1131C2000D00F92CDB7DEB79B838A838A819B81D4
S1131C30FC01828D882319F481E0898301C0198213
S1131C4089810F900F900F90DF91CF910895CF93DA
S1131C50DF9300D00F92CDB7DEB79B838A830FB694
S1131C60F8940F928A819B81FC01228D8A819B8149
S1131C70FC01838D281719F481E0898301C019823E
S1131C800F900FBE89810F900F900F90DF91CF912D
S1131C900895CF93DF9300D00F92CDB7DEB79B8327
S1131CA08A838A819B81FC01228D8A819B81FC012C
S1131CB0838D281719F481E0898301C019828981F1
S1131CC00F900F900F90DF91CF910895AF92BF9234
S1131CD0CF92DF92EF92FF920F931F93CF93DF93F4
S1131CE0CDB7DEB764970FB6F894DEBF0FBECDBF95
S1131CF09F838E83798768875B874A873D872C8794
S1131D000E87F88AEF86DA8AC98ABC8AAB8A8A8502
S1131D109B8529893A89B9010E9427169B838A8366
S1131D208A819B81009709F4A0C08A819B81FC0170
S1131D302789308D8A859B850197820F931F9D8308
S1131D408C838A819B81488559852B893C89EA85C6
S1131D50FB85BA014E858F010E94EB148C819D8115
S1131D604E815F812C853D85BA01A9010E94FD0544
S1131D709C018A819B81FC01318320838F85988912
S1131D80009739F08F8598892A813B81FC01318342
S1131D9020830FB6F8940F928091C9078F5F8093C8
S1131DA0C90780917A0790917B07009769F48A812B
S1131DB09B8190937B0780937A078091C907813038
S1131DC0B1F40E94471513C08091D007882379F499
S1131DD080917A0790917B07FC0196898E858917FB
S1131DE030F08A819B8190937B0780937A078A8164
S1131DF09B81FC0196898091CE07891730F48A81F2
S1131E009B81FC0186898093CE078091D5078F5FE3
S1131E108093D5078A819B81FC0196898091CF07A5
S1131E20891730F48A819B81FC0186898093CF07CE
S1131E308A819B81FC018689282F30E0C901880FA3
S1131E40991F880F991F880F991F820F931F845819
S1131E50984F2A813B812E5F3F4FB9010E94C304F2
S1131E6081E089830F900FBE02C08FEF898389813F
S1131E70813079F48091D007882359F080917A07D2
S1131E8090917B07FC0196898E85981710F40E9427
S1131E90E207898164960FB6F894DEBF0FBECDBF0A
S1131EA0DF91CF911F910F91FF90EF90DF90CF9032
S1131EB0BF90AF900895CF93DF9300D000D0CDB7FB
S1131EC0DEB79C838B830FB6F8940F9280917A07C8
S1131ED090917B072B813C812817390711F41C82D0
S1131EE01B828B819C81009729F480917A079091C1
S1131EF07B0702C08B819C819A83898389819A8123
S1131F0002960E94A60589819A81FC01848995899B
S1131F10009729F089819A810C960E94A6058981EF
S1131F209A819C012E5F3F4F8FEB97E0B9010E948D
S1131F30C3048091C8078F5F8093C8078091D50739
S1131F408F5F8093D5070F900FBE8091D0078823B1
S1131F5031F08B819C81009711F40E94E2070F906D
S1131F600F900F900F90DF91CF910895CF93DF934F
S1131F70CDB7DEB72C970FB6F894DEBF0FBECDBF3A
S1131F8098878F8349875A876B877C8719820E9439
S1131F90F9108F819885FC01208131814281538120
S1131FA089859A85AB85BC85820F931FA41FB51FB5
S1131FB08A839B83AC83BD838F819885FC012081B8
S1131FC03181428153818091CA079091CB07A091BE
S1131FD0CC07B091CD0782179307A407B50720F566
S1131FE08F819885FC0120813181428153818A81CE
S1131FF09B81AC81BD8182179307A407B507B8F50F
S11320008091CA079091CB07A091CC07B091CD07DE
S11320102A813B814C815D8182179307A407B50710
S113202030F581E0898323C08F819885FC0120816C
S11320303181428153818A819B81AC81BD81821728
S11320409307A407B50788F08091CA079091CB073E
S1132050A091CC07B091CD072A813B814C815D8151
S113206082179307A407B50710F481E089832F81B1
S113207038858A819B81AC81BD81F90180839183FC
S1132080A283B3838981882379F080917A07909120
S11320907B0702960E94A6058A819B81AC81BD8143
S11320A0BC01CD010E94C4150E9405118E838E814E
S11320B0882311F40E94E2072C960FB6F894DEBF31
S11320C00FBECDBFDF91CF910895CF93DF93CDB7EE
S11320D0DEB729970FB6F894DEBF0FBECDBF6E836F
S11320E07F838887998719828E819F81A885B98586
S11320F00097A105B10541F10E94F9102091CA078A
S11321003091CB074091CC075091CD078E819F81B0
S1132110A885B985820F931FA41FB51F8A839B834B
S1132120AC83BD8380917A0790917B0702960E94CD
S1132130A6058A819B81AC81BD81BC01CD010E9431
S1132140C4150E94051189838981882311F40E9492
S1132150E20729960FB6F894DEBF0FBECDBFDF911C
S1132160CF910895AF92BF92CF92DF92EF92FF92F8
S11321700F93CF93DF930F92CDB7DEB789ED94E140
S113218024E031E0B90145E550E020E030E000E032
S1132190EE24FF24CC24DD24AA24BB240E94660E52
S11321A089838981813071F4F89481E08093D00728
S11321B01092CA071092CB071092CC071092CD0749
S11321C00E94A6070F90DF91CF910F91FF90EF909F
S11321D0DF90CF90BF90AF900895CF93DF93CDB7AA
S11321E0DEB7F8941092D0070E94DB07DF91CF91FD
S11321F00895CF93DF93CDB7DEB78091D1078F5F7A
S11322008093D107DF91CF9108950F931F93CF93BC
S1132210DF9300D0CDB7DEB719820FB6F8940F92D2
S11322208091D10781508093D1078091D107882371
S113223009F064C08091C907882309F45FC01A8239
S11322403AC08091BB079091BC07FC0106811781BD
S1132250C8010C960E94A605C80102960E94A60514
S1132260F80196898091CF07891720F4F8018689AF
S11322708093CF07F8018689282F30E0C901880FA1
S1132280991F880F991F880F991F820F931F8458D5
S1132290984F98012E5F3F4FB9010E94C304F80183
S11322A0268980917A0790917B07FC0186892817FB
S11322B010F081E08A838091B607882311F680911B
S11322C0D207882371F007C00E94D7118091D207EA
S11322D081508093D2078091D2078823A9F781E0A7
S11322E08A838A81813021F08091D307813031F44F
S11322F081E089831092D3070E94E2070F900FBEFA
S113230089810F900F90DF91CF911F910F910895C4
S1132310CF93DF9300D000D0CDB7DEB70FB6F894DB
S11323200F928091CA079091CB07A091CC07B091EE
S1132330CD0789839A83AB83BC830F900FBE8981B9
S11323409A81AB81BC81BC01CD010F900F900F909D
S11323500F90DF91CF910895CF93DF9300D000D0F9
S11323600F92CDB7DEB719828091CA079091CB073F
S1132370A091CC07B091CD078A839B83AC83BD83A6
S11323808A819B81AC81BD81BC01CD010F900F90EE
S11323900F900F900F90DF91CF910895CF93DF931B
S11323A0CDB7DEB78091C907DF91CF910895CF9360
S11323B0DF93CDB7DEB728970FB6F894DEBF0FBE14
S11323C0CDBF8091D107882309F003C18091CA074A
S11323D09091CB07A091CC07B091CD070196A11D98
S11323E0B11D8093CA079093CB07A093CC07B093F9
S11323F0CD078091CA079091CB07A091CC07B091EB
S1132400CD070097A105B10509F04AC08091B20734
S11324109091B3079A8389838091B4079091B5070B
S11324209093B3078093B20789819A819093B507FB
S11324308093B4078091D4078F5F8093D4078091F1
S1132440B2079091B307FC018081882369F48FEF70
S11324509FEFA0E0B0E08093000190930101A0936E
S11324600201B09303011CC08091B2079091B3079D
S1132470FC0185819681FC01868197819C838B83F5
S11324808B819C81FC0182819381CC01A0E0B0E02E
S11324908093000190930101A0930201B093030182
S11324A02091CA073091CB074091CC075091CD07BA
S11324B08091000190910101A0910201B09103016A
S11324C0281739074A075B0708F488C08091B207C8
S11324D09091B307FC018081882369F48FEF9FEF0B
S11324E0A0E0B0E08093000190930101A093020169
S11324F0B093030173C08091B2079091B307FC01BC
S113250085819681FC01868197819C838B838B8155
S11325109C81FC0182819381CC01A0E0B0E08D8399
S11325209E83AF83B8872091CA073091CB0740912F
S1132530CC075091CD078D819E81AF81B885281736
S113254039074A075B0768F48D819E81AF81B8859E
S11325508093000190930101A0930201B0930301C1
S11325603DC08B819C8102960E94A6058B819C8133
S1132570FC0184899589009729F08B819C810C96B4
S11325800E94A6058B819C81FC0196898091CF07CE
S1132590891730F48B819C81FC0186898093CF0755
S11325A08B819C81FC018689282F30E0C901880F2A
S11325B0991F880F991F880F991F820F931F8458A2
S11325C0984F2B813C812E5F3F4FB9010E94C30479
S11325D07DCF8091D2078F5F8093D20728960FB664
S11325E0F894DEBF0FBECDBFDF91CF910895CF9396
S11325F0DF9300D0CDB7DEB78091D107882349F0AF
S113260081E08093D3075AC08091CF078150809393
S1132610CF078091CF07282F30E0C901880F991F79
S1132620880F991F880F991F820F931F8458984F02
S1132630FC018081882341F38091CF07282F30E06B
S1132640C901880F991F880F991F880F991F820F3E
S1132650931F8458984F9A83898389819A81FC01B6
S113266081819281FC012281338189819A81FC01DB
S11326703283218389819A81FC012181328189817C
S11326809A8103962817390769F489819A81FC0194
S113269081819281FC012281338189819A81FC01AB
S11326A03283218389819A81FC0181819281FC0199
S11326B08681978190937B0780937A070F900F9080
S11326C0DF91CF910895CF93DF93CDB7DEB72A97EB
S11326D00FB6F894DEBF0FBECDBF9E838D834F83AC
S11326E0588769877A8780917A0790917B079C0144
S11326F0245F3F4F8D819E81B9010E941B0580910B
S11327007A0790917B0702960E94A6052091CA073A
S11327103091CB074091CC075091CD078F8198859C
S1132720A985BA85820F931FA41FB51F89839A8335
S1132730AB83BC8389819A81AB81BC81BC01CD010F
S11327400E94C4152A960FB6F894DEBF0FBECDBF03
S1132750DF91CF910895CF93DF9300D000D00F92F3
S1132760CDB7DEB79D838C838C819D81FC018581EF
S11327709681FC01868197819B838A838A819B81D0
S11327800C960E94A6058091D107882361F58A8161
S11327909B8102960E94A6058A819B81FC019689F1
S11327A08091CF07891730F48A819B81FC01868947
S11327B08093CF078A819B81FC018689282F30E092
S11327C0C901880F991F880F991F880F991F820FBD
S11327D0931F8458984F2A813B812E5F3F4FB90144
S11327E00E94C3040AC08A819B819C01245F3F4FDD
S11327F086EB97E0B9010E94C3048A819B81FC01A6
S1132800268980917A0790917B07FC018689281795
S113281018F081E0898301C0198289810F900F909B
S11328200F900F900F90DF91CF910895CF93DF9386
S113283000D0CDB7DEB79A8389832091D4078981EC
S11328409A81FC0120838091CA079091CB07A091C3
S1132850CC07B091CD0729813A81F9018183928314
S1132860A383B4830F900F90DF91CF910895AF921B
S1132870BF92CF92DF92EF92FF920F931F93CF9369
S1132880DF9300D000D00F92CDB7DEB79B838A834D
S11328907D836C830FB6F8940F928A819B81FC012F
S11328A090818091D4079817B9F08A819B81FC01AB
S11328B021813281438154818091CA079091CB0751
S11328C0A091CC07B091CD0782179307A407B50751
S11328D018F081E0898350C02091CA073091CB075A
S11328E04091CC075091CD078A819B81FC01818165
S11328F09281A381B481281B390B4A0B5B0B8C8119
S11329009D81FC0180819181A281B38128173907BF
S11329104A075B0778F58C819D81FC012081318118
S1132920428153818A819B81FC01E180F280038191
S113293014818091CA079091CB07A091CC07B091E4
S1132940CD0757016801A81AB90ACA0ADB0AD601D9
S1132950C501820F931FA41FB51F2C813D81F9016E
S113296080839183A283B3838A819B810E941614FE
S1132970198202C081E089830F900FBE89810F9074
S11329800F900F900F900F90DF91CF911F910F91A7
S1132990FF90EF90DF90CF90BF90AF900895CF93CA
S11329A0DF93CDB7DEB781E08093D307DF91CF917A
S11329B00895CF93DF9300D0CDB7DEB79A83898390
S11329C001C000000E94841580917C078230C8F306
S11329D00E94E207F6CF0F931F93CF93DF93CDB7F7
S11329E0DEB729970FB6F894DEBF0FBECDBF9A832A
S11329F089837C836B834D833F832E831987088768
S1132A0089819A8149962B813C81B9014CE050E03F
S1132A100E94151F89819A81FC0114A28D81843042
S1132A2010F083E08D8389819A812D81FC01268BAE
S1132A3089819A8102960E94B20489819A810C96B6
S1132A400E94B20489819A8129813A81FC013187EB
S1132A5020878D81882F90E024E030E0281B390BFB
S1132A6089819A81FC013587248789819A8129810A
S1132A703A81FC01338B228B29960FB6F894DEBF82
S1132A800FBECDBFDF91CF911F910F910895CF93CA
S1132A90DF930F92CDB7DEB7198213C08981282F37
S1132AA030E0C901880F991F880F991F880F991F5B
S1132AB0820F931F8458984F0E947D0489818F5FF1
S1132AC089838981843050F380EA97E00E947D04F1
S1132AD089EA97E00E947D0486EB97E00E947D04DA
S1132AE08FEB97E00E947D0480EA97E09093B30710
S1132AF08093B20789EA97E09093B5078093B4076F
S1132B000F90DF91CF910895CF93DF9300D00F9270
S1132B10CDB7DEB72FC00E94F9109091BF0781E0B6
S1132B20992309F080E089830E9405118981882313
S1132B3009F50FB6F8940F928091C4079091C507D8
S1132B40FC01868197819B838A838A819B8102967B
S1132B500E94A6058091C90781508093C90780917E
S1132B60C80781508093C8070F900FBE8A819B814C
S1132B700E9471168091C807882369F60F900F9000
S1132B800F90DF91CF910895CF93DF9300D000D0C1
S1132B90CDB7DEB769837A838B839C8380917A0770
S1132BA090917B0729813A81FC01338322838091B0
S1132BB0CA079091CB07A091CC07B091CD0729818A
S1132BC03A814B815C81281739074A075B0770F407
S1132BD08091B4079091B50720917A0730917B07D3
S1132BE02E5F3F4FB9010E941B052AC08091B20796
S1132BF09091B30720917A0730917B072E5F3F4F66
S1132C00B9010E941B058091000190910101A091DE
S1132C100201B091030129813A814B815C8128171B
S1132C2039074A075B0760F489819A81AB81BC81CB
S1132C308093000190930101A0930201B0930301DA
S1132C400F900F900F900F90DF91CF910895CF9335
S1132C50DF9300D000D000D0CDB7DEB79C838B8348
S1132C607E836D8385E290E00E94FF039A838983CB
S1132C7089819A81009751F18D819E81009729F471
S1132C808B819C810E94FF0302C08D819E812981DA
S1132C903A81F901908F878B89819A81FC01878918
S1132CA0908D009739F489819A810E9455041A8283
S1132CB019820CC089819A81FC018789908D2B81AE
S1132CC03C8165EA70E0A9010E940E1F89819A8106
S1132CD026960FB6F894DEBF0FBECDBFDF91CF911D
S1132CE00895CF93DF9300D0CDB7DEB79A8389835D
S1132CF089819A81FC018789908D0E94550489817C
S1132D009A810E9455040F900F90DF91CF910895FE
S1132D10AF92BF92CF92DF92EF92FF920F93CF9335
S1132D20DF9300D000D000D0CDB7DEB789834A83CB
S1132D305B836C837D832E838E818093D8078A8105
S1132D409B81AC81BD81BC01CD0148E10E94F61B91
S1132D508981E82FE1508FED96E129E031E0B90156
S1132D6045E550E020E030E00E2FEE24FF24CC2493
S1132D70DD24AA24BB240E94660E80E497E12FE0A0
S1132D8031E0B90145E550E020E030E00981EE246E
S1132D90FF24CC24DD24AA24BB240E94660E26969C
S1132DA00FB6F894DEBF0FBECDBFDF91CF910F9168
S1132DB0FF90EF90DF90CF90BF90AF900895CF93A6
S1132DC0DF93CDB7DEB727970FB6F894DEBF0FBEFB
S1132DD0CDBF9F838E8381E4898313C08091D607FE
S1132DE09091D707698120E030E0A9010E94A11CDD
S1132DF0813021F48091D8070E94E21889818F5F85
S1132E0089838981893554F38091D80760E00E94D1
S1132E10A6180E948811DC01CB010396A11DB11DE7
S1132E208A839B83AC83BD838A819B81AC81BD8172
S1132E3026E930E040E050E0BC01CD010E94C81E0C
S1132E40DC01CB018A839B83AC83BD838A819B8114
S1132E50AC81BD8182339105A105B10540F482E3C3
S1132E6090E0A0E0B0E08A839B83AC83BD838A8139
S1132E709B81AC81BD81BC01CD010E946510ABCFAB
S1132E80CF93DF9300D000D000D0CDB7DEB79E83C0
S1132E908D831A821B8201C0000081E4898320C0D3
S1132EA08091D6079091D7079E012C5F3F4FB901BF
S1132EB02FEF3FEF40E050E00E94721C882369F03E
S1132EC09C818981981731F48091D8078F5F0E9483
S1132ED0E21803C081E08A8306C089818F5F8983F9
S1132EE089818935ECF28091D8078F5F60E00E9478
S1132EF0A6188A818130B9F40EC08091D6079091CA
S1132F00D7079E012C5F3F4FB9012FEF3FEF40E001
S1132F1050E00E94721C8C81883579F78B818F5F19
S1132F208B831A82B9CF8B81823008F0B5CF809120
S1132F30D9078F5F8093D907AFCFCF93DF930F92D9
S1132F40CDB7DEB78091D907882311F4198202C066
S1132F5081E089831092D90789810F90DF91CF9105
S1132F600895AF92BF92CF92DF92EF92FF920F93A8
S1132F70CF93DF9300D00F92CDB7DEB78B831A8245
S1132F8019821AC089819A819C012652384F8EEE8B
S1132F9097E145E151E0BA0145E550E00B81EE24AB
S1132FA0FF24CC24DD24AA24BB240E94660E89813C
S1132FB09A8101969A83898389819A8118161906C0
S1132FC00CF70F900F900F90DF91CF910F91FF901E
S1132FD0EF90DF90CF90BF90AF900895EF92FF9263
S1132FE00F931F93CF93DF93CDB7DEB72A970FB616
S1132FF0F894DEBF0FBECDBF9A8789871A821982E3
S113300089859A859C838B8301C000008BE790E0BF
S1133010A0E0B0E08D839E83AF83B8878D819E81CD
S1133020AF81B885895B9B46AC4FBF4F8D839E8330
S1133030AF83B8878D819E81AF81B8859C01AD0136
S1133040880F991FAA1FBB1F880F991FAA1FBB1F98
S113305079018A01E81AF90A0A0B1B0BD801C70186
S11330608D839E83AF83B8878D819E81AF81B88520
S113307027E030E040E050E0BC01CD010E94EA1EB0
S1133080DA01C9018D839E83AF83B8878D819E81C8
S1133090AF81B8858B3107E790070EEFA0070FEFDC
S11330A0B00721F081E090E09A83898389819A8135
S11330B0009709F0AACF0FB6F8940F928B819C81E8
S11330C021E0FC0120830F900FBE9FCFCF93DF93AD
S11330D000D00F92CDB7DEB781E089831B821A82BC
S11330E014C08A819B818652984FFC018081882379
S11330F009F419828A819B818652984FFC011082BF
S11331008A819B8101969B838A838A819B8118167D
S113311019063CF789810F900F900F90DF91CF91A2
S11331200895CF93DF93CDB7DEB78FEF80931D0162
S113313084E290E02FEFFC01208385E290E020916F
S11331401D01FC012083DF91CF910895CF93DF937C
S113315000D00F92CDB7DEB78A836B8381E0898379
S11331608A81883048F58981882F90E02A81222F2E
S113317030E002C0880F991F2A95E2F789830E94E4
S1133180F9108B81813051F48981809589839091E4
S11331901D018981892380931D0106C090911D0121
S11331A08981892B80931D0185E290E020911D0186
S11331B0FC0120830E9405110F900F900F90DF9166
S11331C0CF910895CF93DF9300D0CDB7DEB78A8334
S11331D08A81883050F58A81282F30E081E090E0A0
S11331E002C0880F991F2A95E2F789830E94F9107B
S11331F090911D0189818923882349F089818095D3
S1133200982F80911D01892380931D0106C0909100
S11332101D018981892B80931D0185E290E0209115
S11332201D01FC0120830E9405110F900F90DF9176
S1133230CF910895AF92BF92CF92DF92EF92FF9217
S11332400F93CF93DF930F92CDB7DEB789838AE0D4
S113325062E040E00E9495099093DE078093DD07C9
S113326081EA99E14EE151E02DED37E0BA0145E5FF
S113327050E00981EE24FF24CC24DD24AA24BB24BD
S11332800E94660E8FE599E146E251E02DED37E0AC
S1133290BA0145E550E00981EE24FF24CC24DD2465
S11332A0AA24BB240E94660E0F90DF91CF910F9148
S11332B0FF90EF90DF90CF90BF90AF9008950F9361
S11332C0CF93DF9300D000D000D0CDB7DEB79E837C
S11332D08D831C821B8219821A8229C08D819E8152
S11332E0FC01808191819E012D5F3F4FB90120E057
S11332F030E0A90100E00E94F609813019F081E074
S1133300898312C08981882351F40FB6F8940F92EF
S11333108091DC078F5F8093DC070F900FBE8B8159
S11333209C8101969C838B838A818F5F8A838A81A7
S11333308330A4F268EC70E080E090E00E946510B5
S1133340CBCF0F93CF93DF93CDB7DEB727970FB6CD
S1133350F894DEBF0FBECDBF9F838E831A8219827D
S11333601B8231C08E819F81FC01808191819E01ED
S11333702C5F3F4FB90120E030E0A90100E00E943A
S1133380070B813001F52C813D8189819A812817B1
S1133390390739F081E08B838C819D819A838983FD
S11333A00DC08B81882351F40FB6F8940F9280914D
S11333B0DB078F5F8093DB070F900FBE89819A81B3
S11333C001969A8389838E819F81FC0180819181FA
S11333D00E94430C882331F664EB70E080E090E0B7
S11333E00E9465100000EFCFCF93DF930F92CDB70B
S11333F0DEB78091DB07882321F08091DC078823E6
S113340011F4198202C081E089831092DB071092C3
S1133410DC0789810F90DF91CF910895CF93DF93DB
S11334200F92CDB7DEB784E18983898162E040E001
S11334300E9495099093E0078093DF070F90DF9136
S1133440CF910895CF93DF9300D0CDB7DEB79A83A1
S113345089830F900F90DF91CF9108950F93CF93AD
S1133460DF9300D000D000D0CDB7DEB76B837C8370
S11334708D839E838091DF079091E0072B813C81AF
S11334804D815E81BE016F5F7F4F00E00E94070B9C
S1133490813019F489819A8102C080E090E02696F7
S11334A00FB6F894DEBF0FBECDBFDF91CF910F9161
S11334B00895AF92BF92CF92DF92EF92FF920F9353
S11334C0CF93DF93CDB7DEB784EA9AE12EE231E001
S11334D0B90145E550E020E030E000E0EE24FF24AF
S11334E0CC24DD24AA24BB240E94660E8DE49BE137
S11334F023E331E0B90145E550E020E030E000E0AD
S1133500EE24FF24CC24DD24AA24BB240E94660ECE
S1133510DF91CF910F91FF90EF90DF90CF90BF900C
S1133520AF900895CF93DF930F92CDB7DEB780911C
S1133530E107882319F481E0898301C01982898114
S11335400F90DF91CF910895CF93DF9300D0CDB743
S1133550DEB79A838983F5E00F2EF6E01F2EF7E09D
S11335602F2EF8E03F2EF9E04F2EFAE05F2EFBE01D
S11335706F2EFCE07F2EFDE08F2EFEE09F2EFFE0FD
S1133580AF2EF0E1BF2EF1E1CF2EF2E1DF2EF3E119
S1133590EF2EF4E1FF2E05E116E127E138E149E1E0
S11335A05AE16BE17CE18DE19EE1AFE1B0E2E1E261
S11335B0F5E0F0110092E107F6E0F1110092E10765
S11335C0F7E0F2110092E107F8E0F3110092E1074D
S11335D0F9E0F4110092E107FAE0F5110092E10735
S11335E0FBE0F6110092E107FCE0F7110092E1071D
S11335F0FDE0F8110092E107FEE0F9110092E10705
S1133600FFE0FA110092E107F0E1FB110092E107FB
S1133610F1E1FC110092E107F2E1FD110092E107F2
S1133620F3E1FE110092E107F4E1FF110092E107DA
S1133630F5E1F0130092E107F6E1F1130092E107DE
S1133640F7E1F2130092E107F8E1F3130092E107C6
S1133650F9E1F4130092E107FAE1F5130092E107AE
S1133660FBE1F6130092E107FCE1F7130092E10796
S1133670FDE1F8130092E107FEE1F9130092E1077E
S1133680FFE1FA130092E107F0E2FB130092E10775
S1133690F1E2FE130092E1075ECFCF93DF9300D0F7
S11336A0CDB7DEB79A838983F1E00F2EF2E01F2EA7
S11336B0F3E02F2EF4E03F2EF5E04F2EF6E05F2EE0
S11336C0F7E06F2EF8E07F2EF9E08F2EFAE09F2EC0
S11336D0FBE0AF2EFCE0BF2EFDE0CF2EFEE0DF2EA0
S11336E0FFE0EF2EF0E1FF2E01E112E123E134E1EE
S11336F045E156E167E178E189E19AE1ABE1BCE1BA
S1133700EDE1F1E0F0110092E107F2E0F111009235
S1133710E107F3E0F2110092E107F4E0F311009203
S1133720E107F5E0F4110092E107F6E0F5110092EB
S1133730E107F7E0F6110092E107F8E0F7110092D3
S1133740E107F9E0F8110092E107FAE0F9110092BB
S1133750E107FBE0FA110092E107FCE0FB110092A3
S1133760E107FDE0FC110092E107FEE0FD1100928B
S1133770E107FFE0FE110092E107F0E1FF11009282
S1133780E107F1E1F0130092E107F2E1F113009295
S1133790E107F3E1F2130092E107F4E1F31300927D
S11337A0E107F5E1F4130092E107F6E1F513009265
S11337B0E107F7E1F6130092E107F8E1F71300924D
S11337C0E107F9E1F8130092E107FAE1F913009235
S11337D0E107FBE1FA130092E107FCE1FB1300921D
S11337E0E107FDE1FE130092E1075ECFCF93DF9383
S11337F0CDB7DEB72A970FB6F894DEBF0FBECDBFA4
S11338006E837F83888799874A870FB6F8940F92CF
S11338108A8561E040E00E9495099093E3078093D4
S1133820E2078A8561E040E00E9495099093E507EC
S11338308093E4078E819F81A885B985880F991F9D
S1133840AA1FBB1F880F991FAA1FBB1F880F991F90
S1133850AA1FBB1F880F991FAA1FBB1F9C01AD0184
S113386080E092E1AAE7B0E0BC01CD010E94C81E4D
S1133870DA01C9010197A109B10989839A83AB834C
S1133880BC8389818D8384EC90E02D81FC012083AD
S113389089819A81AB81BC81892F9A2FAB2FBB2759
S11338A089839A83AB83BC8389818D8385EC90E083
S11338B02D81FC01208381EC90E028E9FC01208328
S11338C082EC90E023E0FC0120830F900FBE80E0A7
S11338D090E02A960FB6F894DEBF0FBECDBFDF91FD
S11338E0CF9108950F93CF93DF93CDB7DEB7289789
S11338F00FB6F894DEBF0FBECDBF9A8389837C8355
S11339006B832D833E834F8358878091E207909188
S1133910E3076B817C812D813E814F81588500E0D6
S11339200E94070B882311F081E001C080E02896F3
S11339300FB6F894DEBF0FBECDBFDF91CF910F91CC
S113394008950F93CF93DF93CDB7DEB728970FB6C3
S1133950F894DEBF0FBECDBF9B838A836C832D8317
S11339603E834F8358878091E4079091E507BE0119
S11339706C5F7F4F2D813E814F81588500E00E940E
S1133980F609813011F080E00EC081EC90E0FC017A
S11339908081898389818064898381EC90E0298195
S11339A0FC01208381E028960FB6F894DEBF0FBE99
S11339B0CDBFDF91CF910F910895CF93DF9300D0C6
S11339C000D0CDB7DEB79C838B830FB6F8940F92EB
S11339D081EC90E0FC018081898389818F7B8983DC
S11339E081EC90E02981FC01208381EC90E0FC01D2
S11339F080818A838A818F778A8381EC90E02A810F
S1133A00FC0120830F900FBE0F900F900F900F902A
S1133A10DF91CF9108951F920F920FB60F920090ED
S1133A205B000F9211242F933F934F935F936F93F7
S1133A307F938F939F93AF93BF93EF93FF93CF9312
S1133A40DF9300D0CDB7DEB71A8286EC90E0FC019C
S1133A50808189838091E2079091E3079E012E5F24
S1133A603F4FAE014F5F5F4FBA01A90120E00E94B2
S1133A70AA0A8A81882311F00E94E2070F900F900E
S1133A80DF91CF91FF91EF91BF91AF919F918F9172
S1133A907F916F915F914F913F912F910F90009281
S1133AA05B000F900FBE0F901F9018951F920F92FE
S1133AB00FB60F9200905B000F9211242F933F9347
S1133AC04F935F936F937F938F939F93AF93BF9322
S1133AD0EF93FF93CF93DF9300D00F92CDB7DEB770
S1133AE08091E4079091E507AE014E5F5F4F9E0120
S1133AF02D5F3F4FBA01A9010E94E20B813031F4DE
S1133B0086EC90E02A81FC0120830DC081EC90E0DA
S1133B10FC018081898389818F7B898381EC90E09A
S1133B202981FC0120832396DEBFCDBFDF91CF9195
S1133B30FF91EF91BF91AF919F918F917F916F9181
S1133B405F914F913F912F910F9000925B000F90E6
S1133B500FBE0F901F901895AF92BF92CF92DF9235
S1133B60EF92FF920F93CF93DF930F92CDB7DEB70F
S1133B70898386ED9DE129E331E0B90145E550E013
S1133B8020E030E00981EE24FF24CC24DD24AA24A3
S1133B90BB240E94660E0F90DF91CF910F91FF908E
S1133BA0EF90DF90CF90BF90AF900895CF93DF93C5
S1133BB000D000D000D0CDB7DEB79E838D830E94A5
S1133BC08811DC01CB0189839A83AB83BC83CE014A
S1133BD0019642E350E060E070E00E94B60FF7CF38
S1133BE0CF93DF930F92CDB7DEB78091380188234E
S1133BF011F4198202C081E0898389810F90DF91D9
S1133C00CF910895AF92BF92CF92DF92EF92FF923D
S1133C100F93CF93DF930F92CDB7DEB7898384E2FE
S1133C2090E024E230E0F90120812160FC0120834E
S1133C3085E39EE126E431E0B90145E550E020E06A
S1133C4030E00981EE24FF24CC24DD24AA24BB2403
S1133C500E94660E0F90DF91CF910F91FF90EF902D
S1133C60DF90CF90BF90AF900895CF93DF93CDB7FF
S1133C70DEB728970FB6F894DEBF0FBECDBF988786
S1133C808F831A8219820E948811DC01CB018B83F5
S1133C909C83AD83BE83CE01039642E350E060E093
S1133CA070E00E94B60F89819A81C2969A838983B3
S1133CB00E945B1EF0CFCF93DF93CDB7DEB70E9497
S1133CC0F01D813019F081E08093E6070E94B61E52
S1133CD0813019F081E08093E6078091E607DF9157
S1133CE0CF910895AF92BF92CF92DF92EF92FF925D
S1133CF00F93CF93DF930F92CDB7DEB789838CE90F
S1133D009EE123E531E0B90145E550E020E030E0F3
S1133D100981EE24FF24CC24DD24AA24BB240E94A0
S1133D20660E0F90DF91CF910F91FF90EF90DF908F
S1133D30CF90BF90AF900895CF93DF9300D000D081
S1133D4000D0CDB7DEB79E838D830E948811DC013D
S1133D50CB0189839A83AB83BC83CE0101964FE068
S1133D6050E060E070E00E94B60FF7CFCF93DF938E
S1133D700F92CDB7DEB780915201882311F41982D6
S1133D8002C081E0898389810F90DF91CF910895EA
S1133D90A1E21A2EAA1BBB1BFD010DC0AA1FBB1F4B
S1133DA0EE1FFF1FA217B307E407F50720F0A21BBD
S1133DB0B30BE40BF50B661F771F881F991F1A942A
S1133DC069F760957095809590959B01AC01BD0154
S1133DD0CF01089597FB092E05260ED057FD04D078
S1133DE0D7DF0AD0001C38F45095409530952195C2
S1133DF03F4F4F4F5F4F0895F6F79095809570951C
S1133E0061957F4F8F4F9F4F0895FB01DC0102C0E6
S1133E1001900D9241505040D8F70895DC0101C043
S1133E206D9341505040E0F70895FB01DC0141508F
S1133E30504048F001900D920020C9F701C01D9236
S1133E4041505040E0F70895DC01CB01FC01F999A1
S1133E50FECF06C0F2BDE1BDF89A319600B40D92D2
S1133E6041505040B8F70895262FF999FECF1FBA54
S1133E7092BD81BD20BD0FB6F894FA9AF99A0FBE8F
S10B3E8001960895F894FFCFA8
S1133E88FFFF000049444C4500434F4D547800431C
S1133E984F4D527800496E744D61746800FF514368
S1133EA86F6E734E42005150726F644E42005265F9
S1133EB8673100526567320001737973436F6E741A
S1133EC8725461736B0053797353746174546173DE
S10D3ED86B000155695461736B001F
S9030000FC
