:100000000C9449070C9468070C9468070C946807D3
:100010000C9468070C9468070C9468070C946807A4
:100020000C9468070C9468070C9468070C94680794
:100030000C9468070C942D1C0C9468070C946807AA
:100040000C9468070C9468070C9468070C94680774
:100050000C9468070C9468070C9468070C94680764
:100060000C9468070C9468070C9468070C94680754
:100070000C9468070C9468070C9468070C94680744
:100080000C9468070C9468070C9468070000000043
:100090000000003E4551453E003E6B6F6B3E001C2C
:1000A0003E7C3E1C00183C7E3C180030367F3630CB
:1000B00000185C7E5C1800000000000000000000DA
:1000C0000000000000000000000000000000003000
:1000D000484A360E00062979290600000000000073
:1000E00000607E0A353F002A1C361C2A00007F3E35
:1000F0001C0800081C3E7F000014367F36140000E8
:100100005F005F000006097F017F00224D555922E4
:100110000060606060000014B6FFB6140004067F43
:1001200006040010307F30100008083E1C0800084C
:100130001C3E080800784040404000083E083E0849
:1001400000303C3F3C3000030F3F0F030000000035
:1001500000000000065F06000007030007030024FC
:100160007E247E2400242B6A12000063130864633B
:1001700000364956205000000703000000003E41B1
:1001800000000000413E000000083E1C3E08000840
:10019000083E08080000E0600000000808080808A1
:1001A000000060600000002010080402003E514979
:1001B000453E0000427F400000625149494600220E
:1001C00049494936001814127F10002F4949493116
:1001D000003C4A494930000171090503003649498C
:1001E000493600064949291E00006C6C00000000D9
:1001F000EC6C000000081422410000242424242474
:10020000000041221408000201590906003E415D28
:10021000551E007E1111117E007F49494936003E6E
:1002200041414122007F4141413E007F49494941CE
:10023000007F09090901003E4149497A007F080809
:10024000087F0000417F410000304040403F007F78
:1002500008142241007F40404040007F0204027F9A
:10026000007F0204087F003E4141413E007F0909B2
:100270000906003E4151215E007F090919660026EA
:10028000494949320001017F0101003F4040403FA0
:10029000001F2040201F003F403C403F00631408E7
:1002A0001463000708700807007149454300000007
:1002B0007F414100000204081020000041417F00FE
:1002C0000004020102048080808080800000030717
:1002D0000000002054545478007F444444380038CF
:1002E0004444442800384444447F0038545454085B
:1002F00000087E0909000018A4A4A47C007F04045F
:1003000078000000007D4000004080847D00007F78
:10031000102844000000007F4000007C041804788E
:10032000007C0404780000384444443800FC444411
:1003300044380038444444FC00447844040800082D
:100340005454542000043E442400003C40207C00CF
:10035000001C2040201C003C6030603C006C1010F1
:100360006C00009CA0603C00006454544C000008E9
:100370003E414100000000770000000041413E087E
:10038000000201020100003C2623263C001EA1E1E0
:100390002112003D40207D000038545455090020B2
:1003A00055555578002055545578002055555478AA
:1003B000002057555778001CA2E2221400385555EA
:1003C0005508003855545508003855555408000054
:1003D000017C41000000017D41000000017C4000E3
:1003E00000702924297000782F252F78007C545420
:1003F00055450034547C5458007E097F49490038E3
:100400004545390000384544390000394544380035
:10041000003C41217D00003D41207C00009CA1600A
:100420003D00003D42423D00003C41403D008070A7
:100430006858380400483E494962007E615D433F88
:100440000022140814220040887E0902002054551E
:1004500055780000007D4100003844453900003CDB
:1004600040217D00007A090A7100007A112279008A
:1004700000085555555E004E51514E000030484D14
:1004800040203E415D4B553E04040404041C00170B
:10049000084C6A50001708342A780000307D30007C
:1004A0000008140008140014080014084411441132
:1004B0004411AA55AA55AA55BBEEBBEEBBEE0000EF
:1004C00000FF0000080808FF0000007028252970C0
:1004D0000070292529700070292528703E415D553E
:1004E000413E0AFB00FF000000FF00FF00000AFA87
:1004F00002FE00000A0B080F00000018246624000A
:1005000000292A7C2A29080808F800000000000FAA
:1005100008080808080F0808080808F80808000074
:1005200000FF0808080808080808080808FF080865
:1005300000205655567900702A252A71000F080BA5
:100540000A0A00FE02FA0A0A0A0B080B0A0A0AFA49
:1005500002FA0A0A00FF00FB0A0A0A0A0A0A0A0A41
:100560000AFB00FB0A0A005D2222225D0022555987
:10057000300000087F49413E007C55555544007CC1
:1005800055545544007C5555544400000007000064
:100590000000447D45000000457D45000000457C8D
:1005A00045000808080F0000000000F80808FFFFD9
:1005B000FFFFFFFFF0F0F0F0F0F000000077000028
:1005C0000000457D44000F0F0F0F0F0F003C42430A
:1005D0003D0000FE4A4A3400003C43433D00003DDC
:1005E00043423C000032494A3100003A4546390056
:1005F00000FC20201C0000FEAA28100000FFA524FB
:100600001800003C40413D00003C41413D00003DA0
:1006100041403C00009CA0613D00000408710904B9
:1006200000000202020000000703000000000808AA
:1006300008000000242E240000242424242405176C
:100640000A342A780006097F017F00224D5559227D
:100650000008082A08080000081818000006090900
:10066000060000000800080000000800000000026A
:100670000F00000000090F05000000090D0A00002E
:10068000003C3C3C3C000000000000000006060866
:1006900000FF00008C00040205080709070204049B
:1006A00006070305020706060606060606060606F0
:1006B00002030508050609080707070606070704D9
:1006C000050706080707070707070607080A0808B7
:1006D00006040504080803060605060605060602C4
:1006E00003060208060606060506050607080607AD
:1006F00006060206070007000300060807070600B3
:1007000000000000000000030306060708000000C8
:1007100000000000000000000000000000000000D9
:1007200000080000000006090606000000000000A6
:1007300006080A0A0A000000000008000000000085
:100740000000000000000000000000000808000099
:100750000000070000070000000007000000000084
:10076000000000000000000000000000070007007B
:100770000000070000000000000000F80DF80D3C2C
:10078000003C0000003C003C000003600FE00378E8
:1007900003600FE003780360007004F8088808FC29
:1007A0001F8808880F1007F8008800F80C000380E5
:1007B000006000980F8008800F7007F80F8808F815
:1007C000097007000E000B3C003C00E00FF83F1CD6
:1007D00070044004401C70F83FE00F280010007CBB
:1007E000007C0010002800800080008000F007805E
:1007F00000800080000018001E000680008000803D
:100800000080008000000C000C0000000C0003C001
:100810000030000C000000F007F80F08080808F886
:100820000FF00710081008F80FF80F000800083044
:100830000C080E080B8809F80870081004080888CE
:10084000088808F80F7007800160011001F80FF8A0
:100850000F00010004780878084808C80F8807E0EE
:1008600007F00F58084808C80F80070800080E88CE
:100870000FE801780018007007F80F88088808F85A
:100880000F7007F000F8090809080DF807F0036079
:100890000C600C0018301E30068001C0036006306A
:1008A0000C181830033003300330033003300330AA
:1008B0000330031818300C6006C0038001100008D4
:1008C00000880DC80D78003000E0071008C813E854
:1008D000172814E813E8171014E003000C800FE049
:1008E0000338013801E003800F000CF80FF80F887F
:1008F0000888088808F80F7007F007F80F0808083C
:1009000008080808083006F80FF80F080808081843
:100910000CF007E003F80FF80F880888088808082B
:1009200008F80FF80F8800880088000800F007F822
:100930000F080808088808880FB00FF80FF80F8014
:100940000080008000F80FF80F0808F80FF80F0873
:1009500008000808080808F80FF807F80FF80FC093
:100960000160033006180C0808F80FF80F000800A3
:100970000800080008F80F7800E001800780016097
:1009800000F80FF80FF80F18007800E0018007005A
:100990000EF80FF007F80F080808080808F80FF01D
:1009A00007F80FF80F080108010801F801F000F03E
:1009B00007F80F080808080818F81FF017F80FF8CC
:1009C0000F880088018803F806700C7006F8088804
:1009D0000888088808880F300708000800F80FF812
:1009E0000F08000800F807F80F000800080008F8D2
:1009F0000FF8073800F800C003000F000FC003F81D
:100A0000003800F803F80F000FC003F000F000C03A
:100A100003000FF80FF803180C380E6003C001C074
:100A2000016003380E180C18007800E000800F8079
:100A30000FE00078001800080E080F8809C8087831
:100A4000083808FC1FFC1F041004100C003000C004
:100A5000000003000C04100410FC1FFC1F400020C9
:100A600000100008000800100020004000001000E6
:100A70001000100010001000100010001004000CF6
:100A80000008000006400F20092009E00FC00FFCFD
:100A90000FFC0F40082008E00FC007C007E00F2040
:100AA0000820084004C007E00F20082004FC0FFCC9
:100AB0000FC007E00F20092009E009C0052000F859
:100AC0000FFC0F24000400C027E04F20482044E022
:100AD0007FE03FFC0FFC0F40002000E00FC00FEC58
:100AE0000FEC0F2040EC7FEC3FFC0FFC0F8003C0AD
:100AF00006600C2008FC0FFC0FE00FE00F2000E068
:100B00000FC00F2000E00FC00FE00FE00F400020EB
:100B100000E00FC00FC007E00F20082008E00FC062
:100B200007E07FE07F40082008E00FC007C007E033
:100B30000F20082004E07FE07FE00FE00F4000601E
:100B4000006000C004E009A009200B200F4006202F
:100B500000F807F80F20082008E007E00F00080061
:100B600004E00FE00FE000E003000F000C000FE0D6
:100B700003E000E000E007000EC003C003000EE049
:100B800007E000600CE00E80038003E00E600CE0E4
:100B900000E003006F007C001FE003E000200C2059
:100BA0000E200BA009E008600880008000F81F7C80
:100BB0003F04200420FC3FFC3F042004207C3FF83D
:100BC0001F800080008003C000C00080010003007F
:100BD00003C001E003F007580D480948094809100F
:100BE000040020003C001C0020003C001C002000F1
:100BF0003C001C000C000C0000000C000C0000006D
:100C00000C000C000010001000FC07FC0710001086
:100C100000000010011001FC07FC0710011001008A
:100C20000008000C0004000C0008001C003C002020
:100C30000020003C001C001C003C0020001C003C6C
:100C400000200020003C001C0020003C001C000094
:100C500000C003E007E007E007E007C00380008072
:100C60000080008000800080008000800000008004
:100C700001C003600600008001C003600600007030
:100C80000088008800880070000000000080088054
:100C9000088008F00F800880088008000010018894
:100CA00001C801780130010000900008012801F816
:100CB00001D000F000F80108010801F801F000007F
:100CC000006006C003800100006006C003800110C0
:100CD00000F809000400038000600610058804C0C5
:100CE0000F00041000F80900040003800060009069
:100CF00008480C400A80098800A808D8040002802F
:100D000001600610058804C00F0004000C860FE681
:100D10000338013801E603860F000CE007F60F16D2
:100D200008100810081608F60FE007000000000081
:100D30000020024001800040012002F007F60F066B
:100D40000800080608F60FF007F80FFC0F0400442F
:100D5000087C08F80F800700064C0F2C0920092C8E
:100D600009EC0FC00FC007EC0F2C0820082C08EC72
:100D70000FC007C017E00F200E2009E008E00FD0D9
:100D800007E007EC0F0C0800080C04EC0FE00F0064
:100D9000070B1020FC960673072A206E6578742DC9
:100DA0003E20002A2020202020202020002A202051
:100DB000202020202020002A2064657461696C2096
:100DC0000043757272656E744D6F6E00437572727A
:100DD000656E74204D6F6E69746F723A00536F6C5C
:100DE00061723A2000206D4100436F6E73756D652E
:100DF000723A2000206D4100566F6C746167654D3A
:100E00006F6E00566F6C74616765204D6F6E69740C
:100E10006F723A00426174746572793A2000206DF5
:100E20005600536F6C61723A2000206D5600546575
:100E30006D704D6F6E2020200054656D706572617D
:100E400074757265204D6F6E69746F723A005379D4
:100E500073537461747573200053797374656D20D6
:100E60005374617475733A004C6F6767696E6720DD
:100E7000202020004C6F6767696E673A00537769DE
:100E80007463684F666620002A20646F20697420AE
:100E9000000011241FBECFEFD0E4DEBFCDBF11E0B4
:100EA000A0E0B1E0EEEBFEE600E00BBF02C0079071
:100EB0000D92A835B107D9F71DE0A8E5B1E001C052
:100EC0001D92A43CB107E1F70E94A6130C945D3774
:100ED0000C940000CF93DF9300D0CDB7DEB78AE744
:100EE00090E02AE730E0F90120812068FC012083AE
:100EF0008CE790E02CE730E0F90120812061FC01D3
:100F000020838AE790E02AE730E0F9012081266417
:100F1000FC01208300008AE790E0FC018081882F9B
:100F200090E0807490700097B1F788E790E0FC0142
:100F3000808191819A8389830F900F90DF91CF9167
:100F40000895CF93DF9300D000D00F92CDB7DEB7D6
:100F50008D838D81882331F48CE790E025E0FC01BE
:100F6000208323C08D81813031F48CE790E026E02E
:100F7000FC0120831AC08D81823031F48CE790E02F
:100F800020E1FC01208311C08D81833031F48CE796
:100F900090E023E1FC01208308C08D81843029F496
:100FA0008CE790E02CE1FC0120838D81853008F0F6
:100FB0003FC08AE790E02AE730E0F9012081206411
:100FC000FC01208300008AE790E0FC018081882FEB
:100FD00090E0807490700097B1F788E790E0FC0192
:100FE00080819181CC01A0E0B0E089839A83AB83BA
:100FF000BC8389819A81AB81BC8128E039E440E0DF
:1010000050E0BC01CD010E942936DC01CB018050AB
:101010009E4FAF4FBF4F2FEF33E040E050E0BC0199
:10102000CD010E94683629833A834B835C8308C0D4
:101030008FEF9FEFA0E0B0E089839A83AB83BC83FE
:1010400089819A810F900F900F900F900F90DF91F0
:10105000CF910895CF93DF93CDB7DEB780E00E94A4
:10106000A107DF91CF910895CF93DF93CDB7DEB77E
:1010700028970FB6F894DEBF0FBECDBF82E00E9466
:10108000A107CC01A0E0B0E089839A83AB83BC8345
:1010900089819A81AB81BC8128EE33E040E050E049
:1010A000BC01CD010E942936DC01CB018D839E83DA
:1010B000AF83B8878D819E81AF81B88585549F4F5E
:1010C000AF4FBF4F2EEE32E040E050E0BC01CD010B
:1010D0000E9468362D833E834F8358878D819E8181
:1010E00028960FB6F894DEBF0FBECDBFDF91CF912B
:1010F0000895CF93DF9300D000D000D0CDB7DEB7F6
:1011000084E00E94A1079A83898349815A8128EE4D
:1011100033E0429FC001439F900D529F900D1124D8
:1011200085549F4F2EEE32E0B9010E9454369B0148
:10113000C901CC01A0E0B0E08B839C83AD83BE836A
:101140008B819C8126960FB6F894DEBF0FBECDBF73
:10115000DF91CF910895CF93DF93CDB7DEB7809124
:101160005801DF91CF910895CF93DF93CDB7DEB7CC
:1011700080915901DF91CF910895CF93DF9300D0F3
:10118000CDB7DEB78A838091580189838A8199819E
:10119000890F89838981837089838981809358012C
:1011A00089810F900F90DF91CF910895CF93DF93B6
:1011B00000D000D0CDB7DEB79C838B8380915901DE
:1011C000882F90E09A8389838B819C8129813A8141
:1011D000820F931F9A8389831EC08B819C8118166E
:1011E000190624F481E00E94BD0803C08FEF0E941D
:1011F000BD088B819C81181619063CF489819A815F
:10120000845890409A83898306C089819A818C573B
:101210009F4F9A83898389819A8184389105E8F662
:1012200089818093590189810F900F900F900F90C1
:10123000DF91CF910895CF93DF9300D0CDB7DEB784
:1012400089836A8389818F70806B0E948E098A816D
:1012500082958F7080610E948E098A818F700E94B2
:101260008E098A81809359018981809358010F905A
:101270000F90DF91CF9108951F93CF93DF9300D00C
:101280000F92CDB7DEB789837B836A8389810E9401
:10129000BD08182F8A819B810E94D608982F812F24
:1012A000692F0E941B090F900F900F90DF91CF9133
:1012B0001F910895CF93DF930F92CDB7DEB7898347
:1012C00085E290E025E230E0F90120812F7EFC01EB
:1012D000208385E290E025E230E0F901208124605E
:1012E000FC0120838EE490E02981FC0120838DE4C1
:1012F00090E0FC0180818823D4F785E290E025E22C
:1013000030E0F90120812061FC01208381E090E040
:101310000E94D6080F90DF91CF910895CF93DF936D
:101320000F92CDB7DEB7898385E290E025E230E009
:10133000F90120812F7EFC01208385E290E025E2E7
:1013400030E0F90120812B7FFC0120838EE490E0C6
:101350002981FC01208300008DE490E0FC01808164
:101360008823D4F785E290E025E230E0F90120817E
:101370002061FC0120830F90DF91CF9108951F938E
:10138000CF93DF93CDB7DEB72C970FB6F894DEBFBF
:101390000FBECDBF998788876A874B872C871A82B3
:1013A0008C8584708B833AC019821EC0888599858C
:1013B0009D838C83888599850196998788878C8100
:1013C0009D81FC0114911E838E818F838B818823E4
:1013D00021F48F810E945A0904C08F8180950E9458
:1013E0005A0989818F5F898399818B85981720F4A9
:1013F0000E94B4088438D0F28A818F5F8A839A81F0
:101400008A85981759F08B85882F90E022273327FB
:10141000281B390B81E0B9010E943C099A818A8519
:10142000981728F40E94AB08843008F4BDCF2C969E
:101430000FB6F894DEBF0FBECDBFDF91CF911F91E5
:101440000895EF920F931F93CF93DF93CDB7DEB73D
:1014500064970FB6F894DEBF0FBECDBF9F878E870F
:10146000688B498B2A8B0B8BEC8A1D828C8984704C
:101470008E83898987708F838F81882319F08A8969
:101480008F5F8A8B8A89082F10E00E94AB08882F13
:1014900090E024E030E0A901481B590BCA018017F5
:1014A00091073CF40E94AB0894E0592F581B852FFC
:1014B0008A8B898986958695869568890E941B09FD
:1014C0001C821B82ADC01A82198282C01D828F814C
:1014D000882359F08B819C819C012F5F3F4F8A8923
:1014E000882F90E02817390741F18B89482F50E069
:1014F0008B819C81489F9001499F300D589F300DF2
:10150000112489819A81820F931F2E853F85820F36
:10151000931F9987888788859985FC0114911A877C
:101520008A85882F90E02F81222F30E0022E02C082
:10153000880F991F0A94E2F78D838B819C81009715
:10154000B9F18F818823A1F18B819C81AC0141503D
:1015500050408B89882F90E0489F9001499F300D23
:10156000589F300D112489819A81820F931F2E85F7
:101570003F85820F931F9C878B878B859C85FC0101
:1015800014911D878D85882F90E02F81222F30E0C8
:1015900048E050E0BA01621B730B9B01022E02C0AF
:1015A000959587950A94E2F7982F8D81892B8D83E5
:1015B0008E81882329F08D8180950E945A0903C06D
:1015C0008D810E945A0989819A8101969A83898323
:1015D0008B89282F30E089819A818217930728F41C
:1015E0000E94B408843808F471CF8B819C819C01DF
:1015F0002F5F3F4F8A89882F90E02817390759F0CD
:101600008B89882F90E022273327281B390B81E014
:10161000B9010E943C098B819C8101969C838B833C
:101620008A89282F30E08B819C818217930708F4E8
:101630004ACF64960FB6F894DEBF0FBECDBFDF91E0
:10164000CF911F910F91EF900895CF93DF93CDB776
:10165000DEB727970FB6F894DEBF0FBECDBF8D83E0
:101660006E834F838F81882F90E0847090700097F5
:1016700011F08FEF01C080E08B830E94AB0894E0F3
:10168000292F281B822F8C839C818D81981710F421
:101690008C818D830E94B40894E8292F281B822F07
:1016A0008C839C818E81981710F48C818E831A8292
:1016B0001AC0198206C08B810E945A0989818F5FE6
:1016C000898399818E819817B0F38E81882F90E05D
:1016D00022273327281B390B81E0B9010E943C09DE
:1016E0008A818F5F8A839A818D81981710F38D810B
:1016F000819560E070E00E943C0927960FB6F8944F
:10170000DEBF0FBECDBFDF91CF910895CF93DF93A2
:10171000CDB7DEB780E060E00E941B0981E064E89D
:1017200040E00E94250B81E060E00E941B0981E0FF
:1017300064E840E00E94250B82E060E00E941B0903
:1017400081E064E840E00E94250B83E060E00E94B5
:101750001B0981E064E840E00E94250BDF91CF91F6
:1017600008950F93CF93DF9300D000D00F92CDB7A1
:10177000DEB789836A834B832C830D838C816D81D3
:101780000E941B0989816A814B810E94250B0F9061
:101790000F900F900F900F90DF91CF910F910895C0
:1017A0000F931F93CF93DF93CDB7DEB7AC970FB6F0
:1017B000F894DEBF0FBECDBF84E290E024E230E0BB
:1017C000F90120812460FC01208387E290E027E278
:1017D00030E0F90120812160FC01208384E290E067
:1017E00024E230E0F90120812061FC0120830E9485
:1017F000D80D88E290E028E230E0F90120812E7FC8
:10180000FC01208380E090E0A0E8BFE38B839C8311
:10181000AD83BE836B817C818D819E8120E030E031
:101820004AE753E40E949E35DC01CB018F83988701
:10183000A987BA8711E06F81788589859A8520E02C
:1018400030E040E85FE30E941D3588230CF010E093
:10185000112329F081E090E09C878B8746C011E03E
:101860006F81788589859A8520E03FEF4FE757E4BF
:101870000E949A3518160CF010E0112361F16B816B
:101880007C818D819E8120E030E040E251E40E9425
:101890009E35DC01CB01BC01CD010E942135DC016C
:1018A000CB019C878B8712C089E190E09E878D8752
:1018B0008D859E858C01C8010197F1F78C011E87EB
:1018C0000D878B859C8501979C878B878B859C8555
:1018D000009751F717C06F81788589859A850E9496
:1018E0002135DC01CB019C878B878B859C85988B70
:1018F0008F878F8598898C01F8013197F1F78F01D7
:10190000188B0F8788E290E028E230E0F90120810F
:101910002160FC01208380E40E948E0980E090E039
:10192000A0E8BFE3898B9A8BAB8BBC8B69897A89E2
:101930008B899C8920E030E04AE753E40E949E3581
:10194000DC01CB018D8B9E8BAF8BB88F11E06D8945
:101950007E898F89988D20E030E040E85FE30E9427
:101960001D3588230CF010E0112329F081E090E070
:101970009A8F898F46C011E06D897E898F89988DF5
:1019800020E03FEF4FE757E40E949A3518160CF01D
:1019900010E0112361F169897A898B899C8920E0A3
:1019A00030E040E251E40E949E35DC01CB01BC01F5
:1019B000CD010E942135DC01CB019A8F898F12C0A5
:1019C00089E190E09C8F8B8F8B8D9C8D8C01C80161
:1019D0000197F1F78C011C8F0B8F898D9A8D0197E0
:1019E0009A8F898F898D9A8D009751F717C06D89CD
:1019F0007E898F89988D0E942135DC01CB019A8FD9
:101A0000898F898D9A8D9E8F8D8F8D8D9E8D8C0166
:101A1000F8013197F1F78F011E8F0D8F81EA0E9437
:101A20008E0980EC0E948E0980E090E0A0E8BFE380
:101A30008F8F98A3A9A3BAA36F8D78A189A19AA12A
:101A400020E030E04AE753E40E949E35DC01CB0100
:101A50008BA39CA3ADA3BEA311E06BA17CA18DA120
:101A60009EA120E030E040E85FE30E941D3588231E
:101A70000CF010E0112329F081E090E098A78FA3EB
:101A800046C011E06BA17CA18DA19EA120E03FEF9B
:101A90004FE757E40E949A3518160CF010E0112316
:101AA00061F16F8D78A189A19AA120E030E040E238
:101AB00051E40E949E35DC01CB01BC01CD010E94A6
:101AC0002135DC01CB0198A78FA312C089E190E0FA
:101AD0009AA789A789A59AA58C01C8010197F1F752
:101AE0008C011AA709A78FA198A5019798A78FA382
:101AF0008FA198A5009751F717C06BA17CA18DA16C
:101B00009EA10E942135DC01CB0198A78FA38FA154
:101B100098A59CA78BA78BA59CA58C01F801319754
:101B2000F1F78F011CA70BA786EA0E948E0982EAB3
:101B30000E948E098FE20E948E0980E00E948E0929
:101B400083E20E948E0981E80E948E098FE10E9443
:101B50008E098CEA0E948E0980E00E948E091A820A
:101B600012C08A8160E00E941B09198206C080E0D1
:101B70000E945A0989818F5F898389818438B8F3EB
:101B80008A818F5F8A838A81843058F380E060E0A5
:101B90000E941B098FEA0E948E09AC960FB6F8943A
:101BA000DEBF0FBECDBFDF91CF911F910F91089582
:101BB000CF93DF93CDB7DEB784E290E024E230E04C
:101BC000F9012081206AFC01208384E290E024E274
:101BD00030E0F90120812061FC0120838CE490E059
:101BE0002CE5FC0120838DE490E021E0FC012083C2
:101BF0008EE490E023EEFC012083DF91CF910895E5
:101C0000CF93DF93CDB7DEB780915801DF91CF91AD
:101C10000895CF93DF93CDB7DEB780915901DF915F
:101C2000CF910895CF93DF9300D00F92CDB7DEB759
:101C30009A8389836B8389819A819093C30D809362
:101C4000C20D8B818093C10D0F900F900F90DF918B
:101C5000CF910895EF92FF920F931F93CF93DF934D
:101C6000CDB7DEB728970FB6F894DEBF0FBECDBF55
:101C700098878F838F81988508969A838983898135
:101C80009A818C01F801E590F4908F01FC82EB823F
:101C90001A8309838B819C819E838D838D819E8194
:101CA00028960FB6F894DEBF0FBECDBFDF91CF915F
:101CB0001F910F91FF90EF900895EF92FF920F9375
:101CC0001F93CF93DF93CDB7DEB728970FB6F89465
:101CD000DEBF0FBECDBF98878F838F819885069614
:101CE0009A83898389819A818C01F801E590F49027
:101CF0008F01FC82EB821A8309838B819C819E83F6
:101D00008D838D819E8128960FB6F894DEBF0FBE1D
:101D1000CDBFDF91CF911F910F91FF90EF9008956C
:101D20001F93CF93DF93CDB7DEB728970FB6F89404
:101D3000DEBF0FBECDBF98878F838F8198859A8332
:101D4000898389819A8103969C838B838B819C8173
:101D5000FC0114911D838D818E838E818150869527
:101D6000869586958F5F28960FB6F894DEBF0FBED6
:101D7000CDBFDF91CF911F910895CF93DF9300D016
:101D800000D00F92CDB7DEB79C838B836D838B81A0
:101D90009C810E945D0E9A83898389819A81009734
:101DA00011F081E001C080E00F900F900F900F9034
:101DB0000F90DF91CF9108951F93CF93DF93CDB70D
:101DC000DEB72C970FB6F894DEBF0FBECDBF9B8752
:101DD0008A876C878A859B859A83898389819A8182
:101DE00005969C838B838B819C81FC0114911D83C0
:101DF0009D818C85981718F48FEF9FEF1DC0898106
:101E00009A8104969F838E838E819F81FC01149119
:101E10001887888589879C858985981718F48FEF9E
:101E20009FEF0AC08C85282F30E08985882F90E0AD
:101E3000A901481B590BCA012C960FB6F894DEBFB6
:101E40000FBECDBFDF91CF911F9108951F93CF9308
:101E5000DF93CDB7DEB72B970FB6F894DEBF0FBE7A
:101E6000CDBF9A8789876B8789859A850E945D0E89
:101E70009A83898389819A81009791F089859A85CF
:101E80006B850E94DC0E29813A81820F931F9C830F
:101E90008B838B819C81FC0114911D838D810BC0F0
:101EA00089859A8502969F838E838E819F81FC010E
:101EB0001491188788852B960FB6F894DEBF0FBE55
:101EC000CDBFDF91CF911F910895DF92EF92FF92E6
:101ED0000F931F93CF93DF93CDB7DEB72D970FB638
:101EE000F894DEBF0FBECDBF9C878B876D871A82AB
:101EF00019828B859C856D850E94DC0E9F838E8365
:101F00008E818B838B859C850E945D0E9D838C8347
:101F10008E819F8199231CF480E090E060C08C81C9
:101F20009D81009709F58B859C850E942A0E8C0166
:101F30008B81E82EFF248B859C850E94900ED82EE5
:101F40008B859C856D850E94260FD89E802D11243F
:101F5000282F30E0E29EC001E39E900DF29E900D8E
:101F60001124800F911F3BC08B81882311F117C072
:101F70008C819D81998788878C819D8101969D8325
:101F80008C8388859985FC0114911A878A85882F0E
:101F900090E029813A81820F931F9A83898381E09F
:101FA0009B81992309F480E09B8191509B83882336
:101FB000F9F68B859C850E942A0E8C018B859C8569
:101FC0000E94900E482F50E029813A81429FC00123
:101FD000439F900D529F900D1124800F911F2D96BD
:101FE0000FB6F894DEBF0FBECDBFDF91CF911F912A
:101FF0000F91FF90EF90DF900895CF93DF9300D083
:102000000F92CDB7DEB78A836B8319828A818823CA
:1020100021F08B8182958F708B838B81882F90E04C
:1020200088709070009711F080EC89838B81882FE5
:1020300090E084709070009719F0898180638983A3
:102040008B81882F90E082709070009719F08981C1
:102050008C6089838B81882F90E0817090708823B9
:1020600019F089818360898389810F900F900F9087
:10207000DF91CF9108951F93CF93DF93CDB7DEB754
:1020800066970FB6F894DEBF0FBECDBF9C8B8B8BCF
:102090006D8B4E8B1A828D8981708D838D89882FEF
:1020A00090E08270907021E0009709F420E02E8388
:1020B0008D89882F90E080719070009711F080E8F2
:1020C00001C080E08F838D89882F90E084709070AC
:1020D000009711F08FEF01C080E088878B899C8981
:1020E0006E890E94260F89878B899C890E94900E99
:1020F0008A878B899C896E890E94BD0E8B878B890C
:102100009C896E890E94650F9D878C8799858B8538
:10211000890F882F90E02E81222F30E002C0880F97
:10212000991F2A95E2F78E878A85882F90E02D8166
:10213000222F30E0022E02C0880F991F0A94E2F786
:102140008F878D89882F90E0887090700097C9F0F4
:102150000E94090E282F30E08E85882F90E0820F94
:10216000931F853891056CF00E94000E982F8F8583
:10217000890F60E00E941B098E89803211F480E093
:102180009FC08A81882F90E02D81222F30E0022E7F
:1021900002C0959587950A94E2F789833BC08981AF
:1021A000992787FD90952C853D85820F931F998BEC
:1021B000888B88899989FC0114911A8B8A898B8371
:1021C0008A81282F30E08F85882F90E0019728178B
:1021D000390721F49B818F81892B8B838D81882303
:1021E00031F08A8181706B810E94FD0F8B8388851D
:1021F000882319F08B8180958B838B810E945A09EB
:102200008E81882319F08B810E945A0999818A85D1
:10221000890F89838981282F332727FD3095898568
:10222000682F70E08A85482F50E0649FC001659F49
:10223000900D749F900D1124281739070CF4AFCF1F
:102240008B85882309F188858C838A81282F30E04B
:102250008F85882F90E001972817390761F49C81BA
:102260008F8189278C838D81882329F08F818695A2
:102270009C8189278C838C810E945A098E818823B6
:1022800019F08C810E945A098E85882F90E02227B0
:102290003327281B390B81E0B9010E943C098A8150
:1022A0008F5F8A839A818F85981708F46ACF8F850C
:1022B00081959E85292F30E0B9010E943C098E85C9
:1022C00066960FB6F894DEBF0FBECDBFDF91CF91FB
:1022D0001F9108951F93CF93DF93CDB7DEB72B9750
:1022E0000FB6F894DEBF0FBECDBF98878F83698786
:1022F0005B874A871A8219820EC08F81988569850B
:102300004E810E943B10882F90E029813A81820FF4
:10231000931F9A8389838A859B859C838B838A8577
:102320009B8501969B878A878B819C81FC011491F8
:102330001D838D818E838E818823F9F689819A8110
:102340002B960FB6F894DEBF0FBECDBFDF91CF91B5
:102350001F910895CF93DF93CDB7DEB728970FB6BF
:10236000F894DEBF0FBECDBF9D838C836E835887EC
:102370004F831A8219820EC08C819D816E814B81A0
:102380000E943B10882F90E029813A81820F931F91
:102390009A8389838F819885FC0180818B8321E0DA
:1023A0008B81882309F420E08F8198850196988796
:1023B0008F83222309F789819A8128960FB6F89492
:1023C000DEBF0FBECDBFDF91CF910895CF93DF93D6
:1023D000CDB7DEB729970FB6F894DEBF0FBECDBFDD
:1023E0009D838C836E8358874F8329871B821A8233
:1023F00019821AC08F819885FC0120818F81988570
:10240000019698878F838C819D816E81422F0E94D7
:102410003B10882F90E02A813B81820F931F9B8382
:102420008A8389818F5F898399818985981710F3C1
:102430008A819B8129960FB6F894DEBF0FBECDBF6F
:10244000DF91CF9108950F93CF93DF93CDB7DEB790
:1024500027970FB6F894DEBF0FBECDBF9A8389834E
:102460006B835D834C832E830F838E816F810E94EB
:102470001B0989819A812C813D816B81A9010E9470
:102480006A1127960FB6F894DEBF0FBECDBFDF915D
:10249000CF910F9108950F93CF93DF9300D000D089
:1024A00000D0CDB7DEB79A8389836B834C832D83AD
:1024B0000E838D816E810E941B0989819A816B81B7
:1024C0004C810E943B1026960FB6F894DEBF0FBEDB
:1024D000CDBFDF91CF910F910895CF93DF930F92EE
:1024E000CDB7DEB789838091C20D9091C30D209145
:1024F000C10D622F49810E943B100F90DF91CF9157
:1025000008950F93CF93DF9300D00F92CDB7DEB72E
:1025100089836A834B838091C20D9091C30D209172
:10252000C10D622F49812A810B810E944B120F90AD
:102530000F900F90DF91CF910F910895CF93DF937C
:1025400000D0CDB7DEB79A8389838091C20D909178
:10255000C30D4091C10D29813A81642FA9010E94C8
:10256000AA110F900F90DF91CF910895CF93DF9331
:1025700000D0CDB7DEB79A8389838091C20D909148
:10258000C30D4091C10D29813A81642FA9010E9498
:102590006A110F900F90DF91CF9108950F93CF9311
:1025A000DF9300D000D0CDB7DEB79A8389836B83E9
:1025B0004C838091C20D9091C30D4091C10D298132
:1025C0003A81642FA9012B810C810E9423120F9064
:1025D0000F900F900F90DF91CF910F910895CF93AF
:1025E000DF93CDB7DEB72E970FB6F894DEBF0FBEE0
:1025F000CDBF6B877C878D879E878B859C85AD85BE
:10260000BE85BC01CD019E012F5F3F4FA9012AE08D
:1026100030E00E94E5368091C20D9091C30D20916B
:10262000C10D622F9E012F5F3F4FA9010E94AA1189
:102630002E960FB6F894DEBF0FBECDBFDF91CF91BF
:102640000895CF93DF93CDB7DEB72C970FB6F894EC
:10265000DEBF0FBECDBF9C878B878B859C859E017F
:102660002F5F3F4FB9014AE050E00E94C43680918D
:10267000C20D9091C30D2091C10D622F9E012F5F5D
:102680003F4FA9010E94AA112C960FB6F894DEBF05
:102690000FBECDBFDF91CF910895CF93DF93CDB71C
:1026A000DEB72C970FB6F894DEBF0FBECDBF9C8768
:1026B0008B878B859C859E012F5F3F4FB9014AE038
:1026C00050E00E9419378091C20D9091C30D209166
:1026D000C10D622F9E012F5F3F4FA9010E94AA11D9
:1026E0002C960FB6F894DEBF0FBECDBFDF91CF9111
:1026F0000895CF93DF93CDB7DEB72B970FB6F8943D
:10270000DEBF0FBECDBF8B878B85992787FD909548
:102710009E012F5F3F4FB9014AE050E00E94C4364E
:102720008091C20D9091C30D2091C10D622F9E0129
:102730002F5F3F4FA9010E94AA112B960FB6F89464
:10274000DEBF0FBECDBFDF91CF910895CF93DF9352
:1027500000D000D000D0CDB7DEB785E0898385E01A
:102760008A838AE290E02AE230E0F9012081206841
:10277000FC0120830E94D00B898162E040E00E942E
:10278000C21C9C838B831E821D829E012D5F3F4F46
:1027900082E0B9010E9456319E012B5F3F4F81E0DC
:1027A000B9010E949E30AE014D5F5F4F9E012B5FCD
:1027B0003F4F83E0BA01A9010E94E32F0E94A423A6
:1027C00080E090E026960FB6F894DEBF0FBECDBF36
:1027D000DF91CF910895CF93DF930F92CDB7DEB7FE
:1027E000CE01019660E570E041E050E00E942F3795
:1027F00089818F5F8983298180E590E0622F0E9423
:102800003F370F90DF91CF910895CF93DF93CDB7EE
:10281000DEB7DF91CF910895CF93DF93CDB7DEB7C9
:1028200027970FB6F894DEBF0FBECDBF9D838C8374
:102830006E834F838AE190E00E9464179B838A83B2
:102840008A819B81009709F476C080915A0190910A
:102850005B01009741F48A819B8190935B01809397
:102860005A010E94F0168E81823010F081E08E8332
:102870008A819B81FC01118E108E8A819B812E8121
:10288000FC01268B8A819B812F81FC01278B8A8109
:102890009B812C813D81FC01318320838A819B8136
:1028A00002960E9417188A819B810C960E94171825
:1028B0008A819B812A813B81FC01318720878A8123
:1028C0009B812A813B81FC01338B228B8E81882F57
:1028D00090E024E030E0281B390B8A819B81FC01C9
:1028E000358724878A819B81FC01968980918D019F
:1028F000891730F48A819B81FC01868980938D0140
:102900008A819B81FC018689282F30E0C901880FCC
:10291000991F880F991F880F991F820F931F845A40
:102920009E4F2A813B812E5F3F4FB9010E9428189C
:1029300081E0898302C08FEF8983898127960FB652
:10294000F894DEBF0FBECDBFDF91CF910895CF9336
:10295000DF93CDB7DEB72A970FB6F894DEBF0FBE70
:10296000CDBF6D837E838F8398875A874987209157
:102970008E0130918F0140919001509191018D8194
:102980009E81AF81B885820F931FA41FB51F8983D5
:102990009A83AB83BC8380915A0190915B0102962C
:1029A0000E940B1980915A0190915B0129813A8113
:1029B000FC013383228380918E0190918F01A0913D
:1029C0009001B091910129813A814B815C81281756
:1029D00039074A075B0770F4809182019091830167
:1029E00020915A0130915B012E5F3F4FB9010E9447
:1029F00080180DC0809180019091810120915A0131
:102A000030915B012E5F3F4FB9010E94801889858C
:102A10009A85009761F080915A0190915B019C0129
:102A2000245F3F4F89859A85B9010E9480182A96B4
:102A30000FB6F894DEBF0FBECDBFDF91CF910895E2
:102A4000CF93DF9300D0CDB7DEB73BC0F894809131
:102A5000890190918A01FC01868197819A838983FB
:102A600089819A810C960E940B19789489819A81A8
:102A700002960E940B1989819A81FC0196898091A6
:102A80008D01891730F489819A81FC0186898093B0
:102A90008D0189819A81FC018689282F30E0C90146
:102AA000880F991F880F991F880F991F820F931FF6
:102AB000845A9E4F29813A812E5F3F4FB9010E946F
:102AC000281880918401882309F0C0CF0F900F90BF
:102AD000DF91CF910895EF92FF920F931F93CF93C1
:102AE000DF9300D000D0CDB7DEB70E9476249C01E2
:102AF00040E050E08091920190919301A091940167
:102B0000B091950179018A01E81AF90A0A0B1B0BA9
:102B1000D801C7018093960190939701A0939801E3
:102B2000B0939901B0C080918E0190918F01A091D6
:102B30009001B09191010196A11DB11D80938E016C
:102B400090938F01A0939001B09391018091960191
:102B500090919701A0919801B09199010197A109D5
:102B6000B1098093960190939701A0939801B09337
:102B7000990180918E0190918F01A0919001B09167
:102B800091010097A105B10509F071C08091800104
:102B9000909181019A838983809182019091830130
:102BA000909381018093800189819A819093830120
:102BB000809382015CC08091800190918101FC0131
:102BC00085819681FC01868197819C838B838B8193
:102BD0009C81FC01828193819C0140E050E08091C6
:102BE0008E0190918F01A0919001B0919101821777
:102BF0009307A407B50708F445C0F8948B819C811E
:102C000002960E940B198B819C81FC018489958915
:102C1000009729F08B819C810C960E940B19789467
:102C20008B819C81FC01968980918D01891730F4FC
:102C30008B819C81FC01868980938D018B819C8195
:102C4000FC018689282F30E0C901880F991F880F61
:102C5000991F880F991F820F931F845A9E4F2B81B3
:102C60003C812E5F3F4FB9010E94281801C000002F
:102C70008091800190918101FC018081882309F07D
:102C80009ACF01C000008091960190919701A09188
:102C90009801B09199010097A105B10509F043CFC2
:102CA00080918E0190918F01A0919001B09191013E
:102CB0008093920190939301A0939401B093950116
:102CC0000F900F900F900F90DF91CF911F910F9168
:102CD000FF90EF900895CF93DF9300D0CDB7DEB78C
:102CE0000E9420150E946B150AC080918D018823D7
:102CF00009F470C080918D01815080938D01809185
:102D00008D01282F30E0C901880F991F880F991F66
:102D1000880F991F820F931F845A9E4FFC01808158
:102D2000882319F380918D01282F30E0C901880F85
:102D3000991F880F991F880F991F820F931F845A1C
:102D40009E4F9A83898389819A81FC018181928136
:102D5000FC012281338189819A81FC0132832183A4
:102D600089819A81FC012181328189819A8103962E
:102D70002817390769F489819A81FC018181928140
:102D8000FC012281338189819A81FC013283218374
:102D900089819A81FC0181819281FC0186819781E0
:102DA00090935B0180935A0180915A0190915B014D
:102DB000FC012081318180915A0190915B01409109
:102DC0005A0150915B01FA014789642FF901099575
:102DD000000001C000000F900F90DF91CF91089587
:102DE000CF93DF930F92CDB7DEB7198213C08981DD
:102DF000282F30E0C901880F991F880F991F880F6D
:102E0000991F820F931F845A9E4F0E94E217898157
:102E10008F5F89838981823050F38EE691E00E9432
:102E2000E21787E791E00E94E21784E891E00E94B0
:102E3000E2178EE691E0909381018093800187E70D
:102E400091E090938301809382010F90DF91CF9165
:102E50000895CF93DF9300D000D00F92CDB7DEB7A7
:102E60009D838C838C819D81FC0185819681FC01F1
:102E7000868197819B838A838A819B810C960E949D
:102E80000B198A819B819C01245F3F4F84E891E06C
:102E9000B9010E9428188A819B81FC0126898091B2
:102EA0005A0190915B01FC018689281718F081E096
:102EB000898301C0198289810F900F900F900F9024
:102EC0000F90DF91CF910895CF93DF9300D000D082
:102ED000CDB7DEB79C838B831A8219820E94E723C9
:102EE0008091540D9091550D009731F48BE991E04C
:102EF0009093550D8093540D2091520D3091530DA8
:102F00008B819C81820F931F2BE0873B920738F5C2
:102F10002091520D3091530D8B819C81280F391FC8
:102F20008091520D9091530D82179307C0F4209118
:102F3000540D3091550D8091520D9091530D820F8B
:102F4000931F9A8389832091520D3091530D8B8169
:102F50009C81820F931F9093530D8093520D0E947A
:102F6000F32389819A810F900F900F900F90DF913A
:102F7000CF910895CF93DF9300D0CDB7DEB79A837A
:102F800089830F900F90DF91CF910895CF93DF93B6
:102F9000CDB7DEB71092530D1092520DDF91CF9145
:102FA0000895CF93DF93CDB7DEB78091520D909106
:102FB000530D27EB3BE0A901481B590BCA01DF91D8
:102FC000CF910895CF93DF9300D0CDB7DEB79A832A
:102FD000898389819A819C012D5F3F4F89819A81E4
:102FE000FC013283218389819A812FEF3FEFFC011D
:102FF0003483238389819A819C012D5F3F4F89818E
:103000009A81FC013683258389819A819C012D5FF9
:103010003F4F89819A81FC013087278389819A817A
:10302000FC0110820F900F90DF91CF910895CF9304
:10303000DF9300D0CDB7DEB79A83898389819A81E7
:10304000FC01118610860F900F90DF91CF910895AB
:10305000CF93DF9300D000D000D0CDB7DEB79C83F4
:103060008B837E836D838B819C81FC018181928126
:103070009A83898389819A81FC01228133818D81A0
:103080009E81FC01338322838B819C81FC01218101
:1030900032818D819E81FC013583248389819A81CF
:1030A000FC01828193812D813E81FC013583248343
:1030B00089819A812D813E81FC01338322838B811A
:1030C0009C812D813E81FC01328321838D819E81F3
:1030D0002B813C81FC01318720878B819C81FC0105
:1030E0008081282F2F5F8B819C81FC012083269675
:1030F0000FB6F894DEBF0FBECDBFDF91CF9108951C
:10310000CF93DF93CDB7DEB72A970FB6F894DEBF23
:103110000FBECDBF98878F837A87698789859A8507
:10312000FC0180819181CC01A0E0B0E08B839C8385
:10313000AD83BE838B819C81AD81BE818F3FFFEFCC
:103140009F07F0E0AF07F0E0BF0741F48F8198855B
:10315000FC01878190859A83898321C08F8198851E
:1031600003969A83898307C089819A81FC018281B1
:1031700093819A83898389819A81FC0182819381D9
:10318000FC01808191819C0140E050E08B819C8119
:10319000AD81BE8182179307A407B50728F78981FF
:1031A0009A81FC012281338189859A85FC013383D0
:1031B000228389859A85FC018281938129853A85BC
:1031C000FC013583248389859A8529813A81FC0114
:1031D0003583248389819A8129853A85FC0133834B
:1031E000228389859A852F813885FC013187208744
:1031F0008F819885FC018081282F2F5F8F81988592
:10320000FC0120832A960FB6F894DEBF0FBECDBF17
:10321000DF91CF910895CF93DF9300D000D0CDB749
:10322000DEB79C838B838B819C81FC01828193819F
:103230002B813C81F90124813581FC013583248374
:103240008B819C81FC01848195812B813C81F901DA
:1032500022813381FC01338322838B819C81FC0199
:10326000808591859A83898389819A81FC01218156
:1032700032818B819C812817390751F48B819C8185
:10328000FC012481358189819A81FC01328321836B
:103290008B819C81FC011186108689819A81FC01B9
:1032A0008081282F215089819A81FC012083898186
:1032B0009A81FC0180810F900F900F900F90DF9109
:1032C000CF910895CF93DF93CDB7DEB728970FB690
:1032D000F894DEBF0FBECDBF9C838B837E836D834E
:1032E00058874F838B819C8121E1FC0120838B8156
:1032F0009C8101979C838B838B819C8122E2FC01C2
:1033000020838B819C8101979C838B838B819C8103
:1033100023E3FC0120838B819C8101979C838B8319
:103320008D819E819A83898329818B819C81FC0177
:1033300020838B819C8101979C838B8389819A81D7
:10334000892F99279A83898329818B819C81FC010C
:1033500020838B819C8101979C838B838B819C81B3
:10336000FC0110828B819C8101979C838B838B81D4
:103370009C8120E8FC0120838B819C8101979C83A8
:103380008B838B819C81FC0110828B819C810197B6
:103390009C838B838B819C8122E0FC0120838B8129
:1033A0009C8101979C838B838B819C8123E0FC0112
:1033B00020838B819C8101979C838B838B819C8153
:1033C00024E0FC0120838B819C8101979C838B836B
:1033D0008B819C8125E0FC0120838B819C8101975E
:1033E0009C838B838B819C8126E0FC0120838B81D5
:1033F0009C8101979C838B838B819C8127E0FC01BE
:1034000020838B819C8101979C838B838B819C8102
:1034100028E0FC0120838B819C8101979C838B8316
:103420008B819C8129E0FC0120838B819C81019709
:103430009C838B838B819C8120E1FC0120838B8189
:103440009C8101979C838B838B819C8121E1FC0172
:1034500020838B819C8101979C838B838B819C81B2
:1034600022E1FC0120838B819C8101979C838B83CB
:103470008B819C8123E1FC0120838B819C810197BE
:103480009C838B838B819C8124E1FC0120838B8135
:103490009C8101979C838B838B819C8125E1FC011E
:1034A00020838B819C8101979C838B838B819C8162
:1034B00026E1FC0120838B819C8101979C838B8377
:1034C0008B819C8127E1FC0120838B819C8101976A
:1034D0009C838B838B819C8128E1FC0120838B81E1
:1034E0009C8101979C838B838B819C8129E1FC01CA
:1034F00020838B819C8101979C838B838B819C8112
:1035000020E2FC0120838B819C8101979C838B832B
:103510008B819C8121E2FC0120838B819C8101971E
:103520009C838B838B819C8122E2FC0120838B8195
:103530009C8101979C838B838B819C8123E2FC017E
:1035400020838B819C8101979C838B838F819885BD
:103550009A83898329818B819C81FC0120838B81C3
:103560009C8101979C838B8389819A81892F9927DC
:103570009A83898329818B819C81FC0120838B81A3
:103580009C8101979C838B838B819C8126E2FC012B
:1035900020838B819C8101979C838B838B819C8171
:1035A00027E2FC0120838B819C8101979C838B8384
:1035B0008B819C8128E2FC0120838B819C81019777
:1035C0009C838B838B819C8129E2FC0120838B81EE
:1035D0009C8101979C838B838B819C8120E3FC01E0
:1035E00020838B819C8101979C838B838B819C8121
:1035F00021E3FC0120838B819C8101979C838B8339
:103600008B819C8128960FB6F894DEBF0FBECDBF8C
:10361000DF91CF910895CF93DF93CDB7DEB70E94AE
:10362000FB1BA091560DB091570DCD91CDBFDD91F3
:10363000DEBFFF91EF91DF91CF91BF91AF919F914D
:103640008F917F916F915F914F913F912F911F913A
:103650000F91FF90EF90DF90CF90BF90AF909F9031
:103660008F907F906F905F904F903F902F901F9022
:103670000F900FBE0F90089581E0DF91CF910895D4
:10368000CF93DF93CDB7DEB7DF91CF9108950F923F
:103690000FB6F8940F921F9211242F923F924F92DF
:1036A0005F926F927F928F929F92AF92BF92CF92D2
:1036B000DF92EF92FF920F931F932F933F934F93BD
:1036C0005F936F937F938F939F93AF93BF93CF93AA
:1036D000DF93EF93FF93A091560DB091570D0DB668
:1036E0000D920EB60D920E949025A091560DB091AC
:1036F000570DCD91CDBFDD91DEBFFF91EF91DF91F1
:10370000CF91BF91AF919F918F917F916F915F9179
:103710004F913F912F911F910F91FF90EF90DF906C
:10372000CF90BF90AF909F908F907F906F905F9061
:103730004F903F902F901F900F900FBE0F900895C5
:103740000F920FB6F8940F921F9211242F923F926E
:103750004F925F926F927F928F929F92AF92BF92A1
:10376000CF92DF92EF92FF920F931F932F933F938D
:103770004F935F936F937F938F939F93AF93BF9379
:10378000CF93DF93EF93FF93A091560DB091570D18
:103790000DB60D920EB60D920E94AB240E9490259C
:1037A000A091560DB091570DCD91CDBFDD91DEBFEB
:1037B000FF91EF91DF91CF91BF91AF919F918F9149
:1037C0007F916F915F914F913F912F911F910F9139
:1037D000FF90EF90DF90CF90BF90AF909F908F9031
:1037E0007F906F905F904F903F902F901F900F9021
:1037F0000FBE0F900895CF93DF9300D000D00F92AB
:10380000CDB7DEB780E49FE1A0E0B0E089839A8382
:10381000AB83BC8388E890E029813A81FC01318345
:10382000208389E08D8381E890E02D81FC01208355
:103830008FE690E0FC0180818D838D8182608D8395
:103840008FE690E02D81FC0120830F900F900F9068
:103850000F900F90DF91CF9108950E94A01B1895B3
:10386000CF93DF9300D000D00F92CDB7DEB79C830B
:103870008B836D838B819C819A8389830FB6F894A7
:103880000F9289819A81FC012081318189819A81FD
:10389000FC01838D682F70E089819A81FC01848D01
:1038A000482F50E0649FC001659F900D749F900D5C
:1038B0001124280F391F89819A81FC0133832283C7
:1038C00089819A81FC01128E89819A81FC01208173
:1038D000318189819A81FC013583248389819A8190
:1038E000FC012081318189819A81FC01838D882F9F
:1038F00090E0BC016150704089819A81FC01848D07
:10390000482F50E0649FC001659F900D749F900DFB
:103910001124280F391F89819A81FC01378326835E
:1039200089819A812FEFFC01258F89819A812FEF60
:10393000FC01268F8D81882381F489819A81FC0185
:1039400080858823A1F089819A8108960E9431267A
:10395000813069F40E94471B0AC089819A810896C8
:103960000E94E21789819A8141960E94E2170F9086
:103970000FBE81E00F900F900F900F900F90DF918E
:10398000CF910895CF93DF93CDB7DEB729970FB6C8
:10399000F894DEBF0FBECDBF8F83688749871A8238
:1039A00019828F81882309F443C08FE190E00E943F
:1039B00064179C838B838B819C810097C9F18F81D5
:1039C000482F50E08885282F30E0429FC001439F58
:1039D000900D529F900D112401969E838D838D81B1
:1039E0009E810E9464179C018B819C81FC01318324
:1039F00020838B819C81FC01808191810097A1F0C3
:103A00008B819C812F81FC01238F8B819C81288558
:103A1000FC01248F8B819C8161E00E94301C8B8192
:103A20009C819A83898304C08B819C810E94BA17F0
:103A300089819A8129960FB6F894DEBF0FBECDBF5B
:103A4000DF91CF9108950F93CF93DF93CDB7DEB77A
:103A500061970FB6F894DEBF0FBECDBF9A878987F6
:103A60007C876B872D873E874F87588B098B198200
:103A700089859A859B838A8301C000000FB6F894DC
:103A80000F928A819B81FC01228D8A819B81FC019E
:103A9000838D2817D8F48A819B812B853C85B901B9
:103AA00049890E94C11F8A819B81FC0181898823E9
:103AB00049F08A819B8141960E943126813011F420
:103AC0000E94471B0F900FBE81E06AC08D859E85C6
:103AD000AF85B8890097A105B10521F40F900FBEFD
:103AE00080E05EC08981882331F4CE0104960E9473
:103AF0009C2681E089830F900FBE0E94E7230FB6BA
:103B0000F8940F928A819B81FC01858D8F3F21F46F
:103B10008A819B81FC01158E8A819B81FC01868DA7
:103B20008F3F21F48A819B81FC01168E0F900FBE7E
:103B3000CE0104969E01235F3F4FB9010E94BC262F
:103B4000882339F58A819B810E945A218823D1F0EC
:103B50008A819B81AC01485F5F4F8D859E85AF85D3
:103B6000B8899C01CA01B9010E94FC258A819B8108
:103B70000E94BF200E94F323882309F07ECF0E9479
:103B8000471B7BCF8A819B810E94BF200E94F32329
:103B900074CF8A819B810E94BF200E94F32380E022
:103BA00061960FB6F894DEBF0FBECDBFDF91CF9107
:103BB0000F910895CF93DF93CDB7DEB72B970FB654
:103BC000F894DEBF0FBECDBF9E838D8378876F8351
:103BD0005A8749872B878D819E819B838A831C828C
:103BE0008A819B81FC01228D8A819B81FC01838DCE
:103BF000281790F58A819B812F813885B9014B85E3
:103C00000E94C11F8A819B81FC01868D8F3FB9F480
:103C10008A819B81FC0181898823D9F08A819B81DB
:103C200041960E9431268823A1F089859A850097C4
:103C300081F089859A8521E0FC0120830AC08A8170
:103C40009B81FC01868D282F2F5F8A819B81FC013F
:103C5000268F81E0898301C0198289812B960FB656
:103C6000F894DEBF0FBECDBFDF91CF9108950F93C3
:103C7000CF93DF93CDB7DEB763970FB6F894DEBF6F
:103C80000FBECDBF9C878B877E876D872F87388B34
:103C9000498B5A8B0B8B19828B859C859B838A83DE
:103CA00001C000000FB6F8940F928A819B81FC013D
:103CB000828D882309F445C08A819B81FC0186811D
:103CC00097819D838C838A819B812D853E85B90157
:103CD0000E946D208B898823D1F48A819B81FC010D
:103CE000828D282F21508A819B81FC01228F8A811D
:103CF0009B81FC018085882301F18A819B81089644
:103D00000E9431268130C9F40E94471B16C08A8167
:103D10009B812C813D81FC01378326838A819B8195
:103D2000FC018189882349F08A819B8141960E9408
:103D30003126882311F00E94471B0F900FBE81E0AF
:103D40006AC08F859889A989BA890097A105B105AC
:103D500021F40F900FBE80E05EC08981882331F48A
:103D6000CE0106960E949C2681E089830F900FBEAB
:103D70000E94E7230FB6F8940F928A819B81FC0181
:103D8000858D8F3F21F48A819B81FC01158E8A816C
:103D90009B81FC01868D8F3F21F48A819B81FC01F0
:103DA000168E0F900FBECE0106969E01215F3F4FEB
:103DB000B9010E94BC26882339F58A819B810E9423
:103DC00023218823D1F08A819B81AC014F5E5F4F14
:103DD0008F859889A989BA899C01CA01B9010E9475
:103DE000FC258A819B810E94BF200E94F3238823A7
:103DF00009F057CF0E94471B54CF8A819B810E94B4
:103E0000BF200E94F3234DCF8A819B810E94BF2057
:103E10000E94F32380E063960FB6F894DEBF0FBED6
:103E2000CDBFDF91CF910F910895CF93DF93CDB7A1
:103E3000DEB72A970FB6F894DEBF0FBECDBF9E83C4
:103E40008D8378876F835A8749878D819E819B8375
:103E50008A831C828A819B81FC01828D8823D9F10F
:103E60008A819B812F813885B9010E946D208A81CA
:103E70009B81FC01828D282F21508A819B81FC012E
:103E8000228F8A819B81FC01858D8F3FB9F48A81C5
:103E90009B81FC0180858823D9F08A819B810896CB
:103EA0000E9431268823A1F089859A85009781F0A8
:103EB00089859A8521E0FC0120830AC08A819B8143
:103EC000FC01858D282F2F5F8A819B81FC01258F26
:103ED00081E0898301C0198289812A960FB6F894FE
:103EE000DEBF0FBECDBFDF91CF910895CF93DF939B
:103EF00000D00F92CDB7DEB79B838A830FB6F894BC
:103F00000F928A819B81FC01828D89830F900FBE65
:103F100089810F900F900F90DF91CF910895CF93EB
:103F2000DF9300D00F92CDB7DEB79B838A838A815F
:103F30009B81FC01828D898389810F900F900F9066
:103F4000DF91CF910895CF93DF9300D000D0CDB70C
:103F5000DEB79C838B838B819C819A838983898143
:103F60009A81FC01808191810E94BA1789819A818E
:103F70000E94BA170F900F900F900F90DF91CF9182
:103F80000895CF93DF9300D000D00F92CDB7DEB766
:103F90009A8389837C836B834D8389819A81FC0119
:103FA000848D882309F487C08D818823E1F5898178
:103FB0009A81FC018481958129813A81F901248DBE
:103FC000222F30E04B815C81BA01A9010E94A53605
:103FD00089819A81FC012481358189819A81FC0142
:103FE000848D882F90E0280F391F89819A81FC01E8
:103FF0003583248389819A81FC01248135818981DB
:104000009A81FC01828193812817390708F453C0F3
:1040100089819A81FC012081318189819A81FC0109
:104020003583248348C089819A81FC0186819781E8
:1040300029813A81F901248D222F30E04B815C8166
:10404000BA01A9010E94A53689819A81FC012681C5
:10405000378189819A81FC01848D882F90E0909529
:1040600081959F4F280F391F89819A81FC013783E1
:10407000268389819A81FC012681378189819A81F1
:10408000FC018081918128173907A8F489819A81E0
:10409000FC012281338189819A81FC01848D882FE2
:1040A00090E0909581959F4F280F391F89819A81C3
:1040B000FC013783268389819A81FC01828D282F18
:1040C0002F5F89819A81FC01228F0F900F900F90B2
:1040D0000F900F90DF91CF910895CF93DF9300D091
:1040E00000D0CDB7DEB79A8389837C836B838981C7
:1040F0009A81FC01808191810097D1F189819A8117
:10410000FC012681378189819A81FC01848D882F69
:1041100090E0280F391F89819A81FC01378326831B
:1041200089819A81FC012681378189819A81FC01EC
:10413000828193812817390750F089819A81FC0187
:104140002081318189819A81FC013783268389818D
:104150009A81FC014681578189819A81FC01848D75
:10416000282F30E08B819C81BA01A9010E94A536DD
:104170000F900F900F900F90DF91CF910895CF93F4
:10418000DF9300D0CDB7DEB79A8389830FB6F8945A
:104190000F9219C089819A81FC0181898823D1F00D
:1041A00089819A8141960E943126882311F00E94CC
:1041B000282789819A81FC01868D282F21508981A9
:1041C0009A81FC01268F89819A81FC01868D1816BF
:1041D0000CF301C0000089819A812FEFFC01268F2A
:1041E0000F900FBE0FB6F8940F9219C089819A8173
:1041F000FC0180858823D1F089819A8108960E94EC
:104200003126882311F00E94282789819A81FC0198
:10421000858D282F215089819A81FC01258F8981E4
:104220009A81FC01858D18160CF301C0000089816C
:104230009A812FEFFC01258F0F900FBE0F900F90EA
:10424000DF91CF910895CF93DF9300D00F92CDB738
:10425000DEB79B838A830FB6F8940F928A819B8185
:10426000FC01828D882319F481E0898301C01982C1
:104270000F900FBE89810F900F900F90DF91CF911B
:104280000895CF93DF9300D00F92CDB7DEB79B8315
:104290008A838A819B81FC01828D882319F481E0C5
:1042A000898301C0198289810F900F900F90DF914F
:1042B000CF910895CF93DF9300D00F92CDB7DEB7A3
:1042C0009B838A830FB6F8940F928A819B81FC01AD
:1042D000228D8A819B81FC01838D281719F481E04E
:1042E000898301C019820F900FBE89810F900F90B2
:1042F0000F90DF91CF910895CF93DF9300D00F926D
:10430000CDB7DEB79B838A838A819B81FC01228D96
:104310008A819B81FC01838D281719F481E08983B0
:1043200001C0198289810F900F900F90DF91CF917A
:104330000895AF92BF92CF92DF92EF92FF920F93C8
:104340001F93CF93DF93CDB7DEB764970FB6F89482
:10435000DEBF0FBECDBF9F838E83798768875B8763
:104360004A873D872C870E87F88AEF86DA8AC98AC2
:10437000BC8AAB8A8A859B8529893A89B9010E94C2
:1043800065289B838A838A819B81009709F4A0C05A
:104390008A819B81FC012789308D8A859B850197C5
:1043A000820F931F9D838C838A819B8148855985C9
:1043B0002B893C89EA85FB85BA014E858F010E94D5
:1043C00044278C819D814E815F812C853D85BA017A
:1043D000A9010E9462199C018A819B81FC013183A1
:1043E00020838F859889009739F08F8598892A8155
:1043F0003B81FC01318320830FB6F8940F928091AA
:10440000A50D8F5F8093A50D8091560D9091570D4E
:10441000009769F48A819B819093570D8093560D84
:104420008091A50D8130B1F40E94A02713C0809126
:10443000AA0D882379F48091560D9091570DFC01B7
:1044400096898E85891730F08A819B819093570DCC
:104450008093560D8A819B81FC0196898091A80DDD
:10446000891730F48A819B81FC0186898093A80D8D
:104470008091AF0D8F5F8093AF0D8A819B81FC018E
:1044800096898091A90D891730F48A819B81FC015E
:1044900086898093A90D8A819B81FC018689282FBA
:1044A00030E0C901880F991F880F991F880F991F45
:1044B000820F931F885A924F2A813B812E5F3F4F74
:1044C000B9010E94281881E089830F900FBE02C0B5
:1044D0008FEF89838981813079F48091AA0D8823B7
:1044E00059F08091560D9091570DFC0196898E855B
:1044F000981710F40E94471B898164960FB6F894B0
:10450000DEBF0FBECDBFDF91CF911F910F91FF9006
:10451000EF90DF90CF90BF90AF900895CF93DF934F
:1045200000D000D0CDB7DEB79C838B830FB6F89454
:104530000F928091560D9091570D2B813C81281739
:10454000390711F41C821B828B819C81009729F40E
:104550008091560D9091570D02C08B819C819A835A
:10456000898389819A8102960E940B1989819A8197
:10457000FC0184899589009729F089819A810C969C
:104580000E940B1989819A819C012E5F3F4F8BE914
:104590009DE0B9010E9428188091A40D8F5F80933F
:1045A000A40D8091AF0D8F5F8093AF0D0F900FBE64
:1045B0008091AA0D882331F08B819C81009711F4A2
:1045C0000E94471B0F900F900F900F90DF91CF919B
:1045D0000895CF93DF93CDB7DEB728970FB6F89441
:1045E000DEBF0FBECDBF9E838D8378876F83198218
:1045F0008D819E81FC01208131818091A60D909159
:10460000A70D2817390709F000000E94E7238D81C4
:104610009E81FC01208131818F819885820F931FBB
:104620009B838A838D819E81FC01208131818091D1
:10463000A60D9091A70D82179307B0F48D819E81EE
:10464000FC01208131818A819B818217930708F5C3
:104650008091A60D9091A70D2A813B818217930727
:10466000C0F481E0898315C08D819E81FC01208189
:1046700031818A819B818217930748F08091A60D32
:104680009091A70D2A813B818217930710F481E056
:1046900089838D819E812A813B81FC013183208326
:1046A0008981882359F08091560D9091570D02967B
:1046B0000E940B198A819B810E941D280E94F3236E
:1046C0008C838C81882311F40E94471B28960FB697
:1046D000F894DEBF0FBECDBFDF91CF910895CF9389
:1046E000DF9300D000D00F92CDB7DEB79D838C83CF
:1046F00019828C819D810097D1F00E94E72320913F
:10470000A60D3091A70D8C819D81820F931F9B83F5
:104710008A838091560D9091570D02960E940B1935
:104720008A819B810E941D280E94F32389838981AD
:10473000882311F40E94471B0F900F900F900F9049
:104740000F90DF91CF910895AF92BF92CF92DF92F9
:10475000EF92FF920F93CF93DF930F92CDB7DEB717
:1047600082E397E222E031E0B90148EC50E020E03A
:1047700030E000E0EE24FF24CC24DD24AA24BB2476
:104780000E94992189838981813051F4F89481E0D4
:104790008093AA0D1092A70D1092A60D0E940B1BDC
:1047A0000F90DF91CF910F91FF90EF90DF90CF901E
:1047B000BF90AF900895CF93DF93CDB7DEB7F89455
:1047C0001092AA0D0E94401BDF91CF910895CF93C4
:1047D000DF93CDB7DEB78091AB0D8F5F8093AB0DCC
:1047E000DF91CF9108950F931F93CF93DF9300D064
:1047F000CDB7DEB719820FB6F8940F928091AB0D4A
:1048000081508093AB0D8091AB0D882309F064C07B
:104810008091A50D882309F45FC01A823AC0809167
:10482000970D9091980DFC0106811781C8010C9697
:104830000E940B19C80102960E940B19F801968973
:104840008091A90D891720F4F80186898093A90D1C
:10485000F8018689282F30E0C901880F991F880F39
:10486000991F880F991F820F931F885A924F9801A2
:104870002E5F3F4FB9010E942818F80126898091C8
:10488000560D9091570DFC018689281710F081E094
:104890008A838091920D882311F68091AC0D882334
:1048A00071F007C00E94AB248091AC0D81508093C1
:1048B000AC0D8091AC0D8823A9F781E08A838A81B1
:1048C000813021F08091AD0D813031F481E0898318
:1048D0001092AD0D0E94471B0F900FBE89810F9063
:1048E0000F90DF91CF911F910F910895CF93DF9398
:1048F00000D0CDB7DEB70FB6F8940F928091A60D19
:104900009091A70D9A8389830F900FBE89819A8118
:104910000F900F90DF91CF910895CF93DF9300D048
:104920000F92CDB7DEB719828091A60D9091A70D99
:104930009B838A838A819B810F900F900F90DF91D8
:10494000CF910895CF93DF93CDB7DEB78091A50DBA
:10495000DF91CF910895CF93DF9300D000D000D0A6
:10496000CDB7DEB78091AB0D882309F0CBC0809125
:10497000A60D9091A70D01969093A70D8093A60D7B
:104980008091A60D9091A70D2FEF8F3F920709F40C
:1049900000008091A60D9091A70D0097E9F58091F8
:1049A0008E0D90918F0D9A8389838091900D9091B7
:1049B000910D90938F0D80938E0D89819A819093A4
:1049C000910D8093900D8091AE0D8F5F8093AE0D11
:1049D00080918E0D90918F0DFC018081882339F498
:1049E0008FEF9FEF909301018093000115C080919C
:1049F0008E0D90918F0DFC0185819681FC01868141
:104A000097819C838B838B819C81FC018281938124
:104A100090930101809300012091A60D3091A70D84
:104A200080910001909101012817390708F46FC0A7
:104A300080918E0D90918F0DFC018081882339F437
:104A40008FEF9FEF909301018093000160C08091F0
:104A50008E0D90918F0DFC0185819681FC018681E0
:104A600097819C838B838B819C81FC0182819381C4
:104A70009E838D832091A60D3091A70D8D819E81FF
:104A80002817390738F48D819E8190930101809316
:104A900000013DC08B819C8102960E940B198B8185
:104AA0009C81FC0184899589009729F08B819C81E8
:104AB0000C960E940B198B819C81FC019689809138
:104AC000A90D891730F48B819C81FC018689809324
:104AD000A90D8B819C81FC018689282F30E0C901BA
:104AE000880F991F880F991F880F991F820F931F96
:104AF000885A924F2B813C812E5F3F4FB9010E9413
:104B0000281896CF8091AC0D8F5F8093AC0D2696C0
:104B10000FB6F894DEBF0FBECDBFDF91CF910895E1
:104B2000CF93DF9300D0CDB7DEB78091AB0D882354
:104B300049F081E08093AD0D5AC08091A90D81505C
:104B40008093A90D8091A90D282F30E0C901880F0D
:104B5000991F880F991F880F991F820F931F885ADA
:104B6000924FFC018081882341F38091A90D282F69
:104B700030E0C901880F991F880F991F880F991F6E
:104B8000820F931F885A924F9A83898389819A81D1
:104B9000FC0181819281FC012281338189819A818A
:104BA000FC013283218389819A81FC012181328138
:104BB00089819A8103962817390769F489819A8136
:104BC000FC0181819281FC012281338189819A815A
:104BD000FC013283218389819A81FC018181928148
:104BE000FC01868197819093570D8093560D0F900D
:104BF0000F90DF91CF910895CF93DF9300D000D035
:104C000000D0CDB7DEB79C838B837E836D8380918C
:104C1000560D9091570D9C01245F3F4F8B819C81D5
:104C2000B9010E9480188091560D9091570D0296FF
:104C30000E940B192091A60D3091A70D8D819E81A8
:104C4000820F931F9A83898389819A810E941D28EC
:104C500026960FB6F894DEBF0FBECDBFDF91CF9181
:104C60000895CF93DF9300D000D00F92CDB7DEB779
:104C70009D838C838C819D81FC0185819681FC01C3
:104C8000868197819B838A838A819B810C960E946F
:104C90000B198091AB0D882361F58A819B81029667
:104CA0000E940B198A819B81FC0196898091A90D34
:104CB000891730F48A819B81FC0186898093A90D34
:104CC0008A819B81FC018689282F30E0C901880FE9
:104CD000991F880F991F880F991F820F931F885A59
:104CE000924F2A813B812E5F3F4FB9010E942818C5
:104CF0000AC08A819B819C01245F3F4F82E99DE02D
:104D0000B9010E9428188A819B81FC012689809123
:104D1000560D9091570DFC018689281718F081E0F7
:104D2000898301C0198289810F900F900F900F9095
:104D30000F90DF91CF910895CF93DF9300D0CDB73F
:104D4000DEB79A8389832091AE0D89819A81FC0117
:104D500020838091A60D9091A70DCC01A0E0B0E03A
:104D600029813A81F90181839283A383B4830F90CF
:104D70000F90DF91CF910895CF93DF9300D000D0B3
:104D80000F92CDB7DEB79B838A837D836C830FB68A
:104D9000F8940F928A819B81FC0190818091AE0DE5
:104DA000981791F08A819B81FC0181819281A38176
:104DB000B4819C018091A60D9091A70D8217930755
:104DC00018F081E0898339C02091A60D3091A70D9C
:104DD0008A819B81FC0181819281A381B481281BFE
:104DE000390B8C819D81FC018081918128173907C5
:104DF00010F58C819D81FC01208131818A819B810C
:104E0000FC0181819281A381B481AC018091A60DC6
:104E10009091A70DBA01681B790BCB01280F391FA0
:104E20008C819D81FC01318320838A819B810E943A
:104E30009C26198202C081E089830F900FBE898170
:104E40000F900F900F900F900F90DF91CF910895DA
:104E5000CF93DF93CDB7DEB781E08093AD0DDF91C7
:104E6000CF910895CF93DF9300D0CDB7DEB79A836B
:104E7000898301C000000E94DD278091580D823097
:104E8000C8F30E94471BF6CF0F931F93CF93DF9376
:104E9000CDB7DEB729970FB6F894DEBF0FBECDBFF2
:104EA0009A8389837C836B834D833F832E83198709
:104EB000088789819A8149962B813C81B9014FE00D
:104EC00050E00E94B53689819A81FC0117A28D813C
:104ED000843010F083E08D8389819A812D81FC01DB
:104EE000268B89819A8102960E94171889819A815E
:104EF0000C960E94171889819A8129813A81FC01B8
:104F0000318720878D81882F90E024E030E0281BB6
:104F1000390B89819A81FC013587248789819A819F
:104F200029813A81FC01338B228B29960FB6F894A4
:104F3000DEBF0FBECDBFDF91CF911F910F910895BE
:104F4000CF93DF930F92CDB7DEB7198213C089815B
:104F5000282F30E0C901880F991F880F991F880FEB
:104F6000991F820F931F885A924F0E94E2178981DE
:104F70008F5F89838981843050F38CE79DE00E94A4
:104F8000E21785E89DE00E94E21782E99DE00E9419
:104F9000E2178BE99DE00E94E2178CE79DE0909379
:104FA0008F0D80938E0D85E89DE09093910D8093F9
:104FB000900D0F90DF91CF910895CF93DF9300D0A4
:104FC0000F92CDB7DEB72FC00E94E72390919B0DC3
:104FD00081E0992309F080E089830E94F32389818D
:104FE000882309F50FB6F8940F928091A00D909147
:104FF000A10DFC01868197819B838A838A819B8195
:1050000002960E940B198091A50D81508093A50DE9
:105010008091A40D81508093A40D0F900FBE8A81C2
:105020009B810E94AF288091A40D882369F60F9080
:105030000F900F90DF91CF910895CF93DF9300D021
:10504000CDB7DEB79A8389838091560D9091570D25
:1050500029813A81FC01338322838091A60D9091AE
:10506000A70D29813A812817390770F48091900D96
:105070009091910D2091560D3091570D2E5F3F4F1D
:10508000B9010E9480181CC080918E0D90918F0DE7
:105090002091560D3091570D2E5F3F4FB9010E9460
:1050A0008018809100019091010129813A8128178F
:1050B000390730F489819A8190930101809300012E
:1050C0000F900F90DF91CF910895CF93DF9300D091
:1050D00000D000D0CDB7DEB79C838B837E836D83F9
:1050E00088E290E00E9464179A83898389819A817B
:1050F000009751F18D819E81009729F48B819C81CD
:105100000E94641702C08D819E8129813A81F90134
:10511000908F878B89819A81FC018789908D009778
:1051200039F489819A810E94BA171A8219820CC0B7
:1051300089819A81FC018789908D2B813C8165EA68
:1051400070E0A9010E94AE3689819A8126960FB639
:10515000F894DEBF0FBECDBFDF91CF910895CF93FE
:10516000DF9300D0CDB7DEB79A83898389819A8196
:10517000FC018789908D0E94BA1789819A810E94CB
:10518000BA170F900F90DF91CF910895AF92BF9211
:10519000CF92DF92EF92FF920F93CF93DF9300D0E5
:1051A00000D000D0CDB7DEB789834A835B836C83A0
:1051B0007D832E838E818093B20D8A819B81AC8109
:1051C000BD81BC01CD0148E10E942D2E8981E82FCF
:1051D000E1508DE199E227E031E0B90148EC50E07F
:1051E00020E030E00E2FEE24FF24CC24DD24AA247E
:1051F000BB240E9499218BE799E22DE031E0B901AF
:1052000048EC50E020E030E00981EE24FF24CC247B
:10521000DD24AA24BB240E94992126960FB6F89477
:10522000DEBF0FBECDBFDF91CF910F91FF90EF900A
:10523000DF90CF90BF90AF900895CF93DF93CDB71D
:10524000DEB727970FB6F894DEBF0FBECDBF9F83A2
:105250008E8381E4898313C08091B00D9091B10D4C
:10526000698120E030E0A9010E94D82E813021F42C
:105270008091B20D0E941D2B89818F5F8983898166
:10528000893554F38091B20D60E00E94E12A0E94BA
:105290007624CC01A0E0B0E00396A11DB11D8A8365
:1052A0009B83AC83BD838A819B81AC81BD8126E9D0
:1052B00030E040E050E0BC01CD010E946836DC01E6
:1052C000CB018A839B83AC83BD838A819B81AC8124
:1052D000BD8182339105A105B10540F482E390E0E0
:1052E000A0E0B0E08A839B83AC83BD838A819B81ED
:1052F0000E946F23AECFCF93DF9300D000D000D0B9
:10530000CDB7DEB79E838D831A821B8201C0000059
:1053100081E4898320C08091B00D9091B10D9E01F0
:105320002C5F3F4FB9012FEF3FEF40E050E00E946C
:10533000A92E882369F09C818981981731F4809186
:10534000B20D8F5F0E941D2B03C081E08A8306C0CF
:1053500089818F5F898389818935ECF28091B20DD3
:105360008F5F60E00E94E12A8A818130B9F40EC02B
:105370008091B00D9091B10D9E012C5F3F4FB9010E
:105380002FEF3FEF40E050E00E94A92E8C8188353E
:1053900079F78B818F5F8B831A82B9CF8B818230B3
:1053A00008F0B5CF8091B30D8F5F8093B30DAFCF71
:1053B000CF93DF930F92CDB7DEB78091B30D8823E3
:1053C00011F4198202C081E089831092B30D8981A2
:1053D0000F90DF91CF910895AF92BF92CF92DF925D
:1053E000EF92FF920F93CF93DF9300D00F92CDB740
:1053F000DEB78B831A8219821AC089819A819C0137
:105400002C54324F89E29AE243E151E0BA0148EC70
:1054100050E00B81EE24FF24CC24DD24AA24BB24FD
:105420000E94992189819A8101969A838983898131
:105430009A81181619060CF70F900F900F90DF91B4
:10544000CF910F91FF90EF90DF90CF90BF90AF90F2
:105450000895EF92FF920F931F93CF93DF93CDB7F1
:10546000DEB72A970FB6F894DEBF0FBECDBF9A877E
:1054700089871A82198289859A859C838B8301C0CA
:1054800000008BE790E0A0E0B0E08D839E83AF83C7
:10549000B8878D819E81AF81B885895B9B46AC4F73
:1054A000BF4F8D839E83AF83B8878D819E81AF81EF
:1054B000B8859C01AD01880F991FAA1FBB1F880FDB
:1054C000991FAA1FBB1F79018A01E81AF90A0A0B62
:1054D0001B0BD801C7018D839E83AF83B8878D8155
:1054E0009E81AF81B88527E030E040E050E0BC010C
:1054F000CD010E948A36DA01C9018D839E83AF8374
:10550000B8878D819E81AF81B8858B3107E7900781
:105510000EEFA0070FEFB00721F081E090E09A8333
:10552000898389819A81009709F0AACF0FB6F894F0
:105530000F928B819C8121E0FC0120830F900FBE94
:105540009FCFCF93DF9300D00F92CDB7DEB781E02E
:1055500089831B821A8214C08A819B818C54924F4A
:10556000FC018081882309F419828A819B818C54F3
:10557000924FFC0110828A819B8101969B838A83D2
:105580008A819B81181619063CF789810F900F902C
:105590000F90DF91CF910895CF93DF93CDB7DEB712
:1055A0008FEF80931B0184E290E02FEFFC012083BA
:1055B00085E290E020911B01FC012083DF91CF91D7
:1055C0000895CF93DF9300D00F92CDB7DEB78A83D3
:1055D0006B8381E089838A81883048F58981882FAF
:1055E00090E02A81222F30E002C0880F991F2A956F
:1055F000E2F789830E94E7238B81813051F489810E
:105600008095898390911B018981892380931B0157
:1056100006C090911B018981892B80931B0185E233
:1056200090E020911B01FC0120830E94F3230F9046
:105630000F900F90DF91CF910895CF93DF9300D01B
:10564000CDB7DEB78A838A81883050F58A81282FCA
:1056500030E081E090E002C0880F991F2A95E2F7C0
:1056600089830E94E72390911B01898189238823E4
:1056700049F089818095982F80911B01892380931F
:105680001B0106C090911B018981892B80931B010E
:1056900085E290E020911B01FC0120830E94F3230E
:1056A0000F900F90DF91CF910895AF92BF92CF925C
:1056B000DF92EF92FF920F93CF93DF930F92CDB7CC
:1056C000DEB789838AE062E040E00E94C21C9093CA
:1056D000B80D8093B70D8AED9BE24CE151E027EBCA
:1056E0003DE0BA0148EC50E00981EE24FF24CC24CF
:1056F000DD24AA24BB240E9499218AE99BE244E28A
:1057000051E027EB3DE0BA0148EC50E00981EE247E
:10571000FF24CC24DD24AA24BB240E9499210F90CD
:10572000DF91CF910F91FF90EF90DF90CF90BF90DE
:10573000AF9008950F93CF93DF9300D000D000D0A7
:10574000CDB7DEB79E838D831C821B8219821A829D
:1057500029C08D819E81FC01808191819E012D5FF8
:105760003F4FB90120E030E0A90100E00E94231D75
:10577000813019F081E0898312C08981882351F436
:105780000FB6F8940F928091B60D8F5F8093B60D8F
:105790000F900FBE8B819C8101969C838B838A81A5
:1057A0008F5F8A838A818330A4F288EC90E00E9424
:1057B0006F23CDCF0F93CF93DF93CDB7DEB727976E
:1057C0000FB6F894DEBF0FBECDBF9F838E831A82C3
:1057D00019821B8231C08E819F81FC018081918161
:1057E0009E012C5F3F4FB90120E030E0A90100E0AD
:1057F0000E94371E813001F52C813D8189819A817B
:105800002817390739F081E08B838C819D819A8339
:1058100089830DC08B81882351F40FB6F8940F92C1
:105820008091B50D8F5F8093B50D0F900FBE89816C
:105830009A8101969A8389838E819F81FC01808160
:1058400091810E94761F882331F684EB90E00E94BC
:105850006F230000F1CFCF93DF930F92CDB7DEB768
:105860008091B50D882321F08091B60D882311F425
:10587000198202C081E089831092B50D1092B60D95
:1058800089810F90DF91CF910895CF93DF930F928D
:10589000CDB7DEB784E18983898162E040E00E9470
:1058A000C21C9093BA0D8093B90D0F90DF91CF91E8
:1058B0000895CF93DF9300D0CDB7DEB79A83898365
:1058C0000F900F90DF91CF9108950F93CF93DF93B7
:1058D00000D000D000D0CDB7DEB76B837C838D8342
:1058E0009E838091B90D9091BA0D2B813C814D81A1
:1058F0005E81BE016F5F7F4F00E00E94371E8130E6
:1059000019F489819A8102C080E090E026960FB652
:10591000F894DEBF0FBECDBFDF91CF910F910895F8
:10592000AF92BF92CF92DF92EF92FF920F93CF93FD
:10593000DF93CDB7DEB78BED9CE22CE231E0B9010D
:1059400048EC50E020E030E000E0EE24FF24CC24DE
:10595000DD24AA24BB240E94992184E89DE221E34E
:1059600031E0B90148EC50E020E030E000E0EE2406
:10597000FF24CC24DD24AA24BB240E949921DF919A
:10598000CF910F91FF90EF90DF90CF90BF90AF90AD
:105990000895CF93DF930F92CDB7DEB78091BB0D03
:1059A000882319F481E0898301C0198289810F90CD
:1059B000DF91CF910895CF93DF9300D0CDB7DEB7BD
:1059C0009A838983F5E00F2EF6E01F2EF7E02F2E45
:1059D000F8E03F2EF9E04F2EFAE05F2EFBE06F2E4D
:1059E000FCE07F2EFDE08F2EFEE09F2EFFE0AF2E2D
:1059F000F0E1BF2EF1E1CF2EF2E1DF2EF3E1EF2E49
:105A0000F4E1FF2E05E116E127E138E149E15AE131
:105A10006BE17CE18DE19EE1AFE1B0E2E1E2F5E036
:105A2000F0110092BB0DF6E0F1110092BB0DF7E012
:105A3000F2110092BB0DF8E0F3110092BB0DF9E0FA
:105A4000F4110092BB0DFAE0F5110092BB0DFBE0E2
:105A5000F6110092BB0DFCE0F7110092BB0DFDE0CA
:105A6000F8110092BB0DFEE0F9110092BB0DFFE0B2
:105A7000FA110092BB0DF0E1FB110092BB0DF1E1B8
:105A8000FC110092BB0DF2E1FD110092BB0DF3E1A0
:105A9000FE110092BB0DF4E1FF110092BB0DF5E188
:105AA000F0130092BB0DF6E1F1130092BB0DF7E18C
:105AB000F2130092BB0DF8E1F3130092BB0DF9E174
:105AC000F4130092BB0DFAE1F5130092BB0DFBE15C
:105AD000F6130092BB0DFCE1F7130092BB0DFDE144
