:100000000C947B030C948D030C948D030C948D0342
:100010000C948D030C948D030C948D030C948D0320
:100020000C948D030C948D030C948D030C948D0310
:100030000C948D030C948D030C948D030C948D0300
:100040000C948D030C948D030C948D030C948D03F0
:100050000C948D0307634236B79BD8A71A396856AC
:1000600018AEBAAB558C1D3CB7CC5763BD6DEDFDDA
:10007000753EF6177231BF000000803F0800000097
:10008000BE922449123EABAAAA2ABECDCCCC4C3E8D
:1000900000000080BEABAAAAAA3E00000000BF007C
:1000A0000000803F0000000000084178D3BB438778
:1000B000D1133D190E3CC3BD4282AD2B3E68EC828C
:1000C00076BED98FE1A93E4C80EFFFBE01C4FF7F11
:1000D0003F00000000007A506F733A200079506FA3
:1000E000733A200078506F733A200000000000003F
:1000F00000003E4551453E003E6B6F6B3E001C3E8E
:100100007C3E1C00183C7E3C180030367F363000A8
:10011000185C7E5C18000000000000000000000079
:100120000000000000000000000000000000304857
:100130004A360E000629792906000000000000005A
:10014000607E0A353F002A1C361C2A00007F3E1CB8
:100150000800081C3E7F000014367F361400005F44
:10016000005F000006097F017F00224D55592200E3
:1001700060606060000014B6FFB6140004067F06DD
:10018000040010307F30100008083E1C0800081CD6
:100190003E080800784040404000083E083E080005
:1001A000303C3F3C3000030F3F0F030000000000D5
:1001B000000000065F060000070300070300247E1E
:1001C000247E2400242B6A12000063130864630059
:1001D000364956205000000703000000003E410051
:1001E000000000413E000000083E1C3E08000808D8
:1001F0003E08080000E06000000008080808080049
:100200000060600000002010080402003E514945D3
:100210003E0000427F4000006251494946002249A9
:10022000494936001814127F10002F4949493100FE
:100230003C4A4949300001710905030036494949E2
:100240003600064949291E00006C6C00000000ECD5
:100250006C000000081422410000242424242400FF
:100260000041221408000201590906003E415D5573
:100270001E007E1111117E007F49494936003E4122
:10028000414122007F4141413E007F4949494100AF
:100290007F09090901003E4149497A007F080808A1
:1002A0007F0000417F410000304040403F007F0818
:1002B000142241007F40404040007F0204027F0042
:1002C0007F0204087F003E4141413E007F09090949
:1002D00006003E4151215E007F090919660026494A
:1002E0004949320001017F0101003F4040403F0089
:1002F0001F2040201F003F403C403F006314081473
:100300006300070870080700714945430000007F3B
:10031000414100000204081020000041417F00001C
:1003200004020102048080808080800000030700B6
:1003300000002054545478007F444444380038442A
:1003400044442800384444447F003854545408003E
:10035000087E0909000018A4A4A47C007F04047886
:10036000000000007D4000004080847D00007F1080
:100370002844000000007F4000007C04180478003E
:100380007C0404780000384444443800FC4444446D
:10039000380038444444FC004478440408000854BD
:1003A00054542000043E442400003C40207C0000C3
:1003B0001C2040201C003C6030603C006C10106C25
:1003C00000009CA0603C00006454544C0000083EB7
:1003D000414100000000770000000041413E08005C
:1003E0000201020100003C2623263C001EA1E1215F
:1003F00012003D40207D000038545455090020551E
:10040000555578002055545578002055555478009E
:100410002057555778001CA2E22214003855555534
:100420000800385554550800385555540800000147
:100430007C41000000017D41000000017C40000083
:10044000702924297000782F252F78007C5454556A
:10045000450034547C5458007E097F494900384592
:10046000453900003845443900003945443800001A
:100470003C41217D00003D41207C00009CA1603D6D
:1004800000003D42423D00003C41403D008070681C
:1004900058380400483E494962007E615D433F0090
:1004A00022140814220040887E0902002054555569
:1004B000780000007D4100003844453900003C4090
:1004C000217D00007A090A7100007A11227900006A
:1004D000085555555E004E51514E000030484D4074
:1004E000203E415D4B553E04040404041C001708E3
:1004F0004C6A50001708342A780000307D30000024
:10050000081400081400140800140844114411448D
:1005100011AA55AA55AA55BBEEBBEEBBEE000000D2
:10052000FF0000080808FF0000007028252970005F
:1005300070292529700070292528703E415D55419C
:100540003E0AFB00FF000000FF00FF00000AFA0265
:10055000FE00000A0B080F000000182466240000AB
:10056000292A7C2A29080808F800000000000F0842
:10057000080808080F0808080808F808080000001C
:10058000FF0808080808080808080808FF08080005
:10059000205655567900702A252A71000F080B0A3B
:1005A0000A00FE02FA0A0A0A0B080B0A0A0AFA02F1
:1005B000FA0A0A00FF00FB0A0A0A0A0A0A0A0A0AD9
:1005C000FB00FB0A0A005D2222225D002255593001
:1005D0000000087F49413E007C55555544007C553C
:1005E000545544007C555554440000000700000059
:1005F00000447D45000000457D45000000457C45E8
:10060000000808080F0000000000F80808FFFFFFBE
:10061000FFFFFFF0F0F0F0F0F000000077000000C6
:1006200000457D44000F0F0F0F0F0F003C42433D6C
:100630000000FE4A4A3400003C43433D00003D4375
:10064000423C000032494A3100003A454639000038
:10065000FC20201C0000FEAA28100000FFA5241882
:1006600000003C40413D00003C41413D00003D4117
:10067000403C00009CA0613D00000408710904009A
:100680000002020200000007030000000008080842
:10069000000000242E240000242424242405170A0A
:1006A000342A780006097F017F00224D5559220027
:1006B00008082A080800000818180000060909069A
:1006C0000000000800080000000800000000020F01
:1006D00000000000090F05000000090D0A000000DD
:1006E0003C3C3C3C00000000000000000606080006
:1006F000FF0000EB000011241FBECFE5D8E0DEBFF5
:10070000CDBF10E0A0E6B0E001C01D92AB38B1074C
:10071000E1F70E948F030C941B160C9400002F929B
:100720003F924F925F926F927F928F929F92AF9281
:10073000BF92CF92DF92EF92FF920F931F93DF93BE
:10074000CF93CDB7DEB762970FB6F894DEBF0FBE7A
:10075000CDBF1E861D86188A1F861A8A198A0E9496
:10076000630F80E29EE40197F1F70E9476110E94E8
:10077000330B8BEE96E060E00E94840B80ED97E0F7
:1007800028EC30E0F9013197F1F70197D9F781E8CA
:1007900090E063E870E045E850E02FE730E009E8DA
:1007A00010E0E7E8EE2EE0E0FE2E0E94541045E057
:1007B000242E312C2C0E3D1E37E0432E512C4C0E96
:1007C0005D1E29E0622E712C6C0E7D1E9BE0892E31
:1007D000912C8C0E9D1E5E010894A11CB11C88EC0E
:1007E000C82ED12CC501BE016D5F7F4FA1019201C2
:1007F000830174010E9454108F819885C2972CF454
:100800008F819885181619064CF08F8198858F5C1A
:100810009F4F34F08F81988597FF02C018861F8202
:1008200089859A85C2972CF489859A8518161906A8
:100830004CF089859A858F5C9F4F34F089859A8525
:1008400097FF02C01A8619868B859C85C2972CF467
:100850008B859C85181619064CF08B859C858F5CC2
:100860009F4F34F08B859C8597FF02C01C861B86AA
:100870002D853E858F819885820F931F9E878D875A
:100880002F85388989859A85820F931F988B8F874A
:1008900029893A898B859C85820F931F9A8B898B36
:1008A00080E060E00E949C098BEE96E060E044EE00
:1008B00050E00E94A50E8D859E850E944B0E81E022
:1008C00060E00E949C098BEE96E060E04DED50E008
:1008D0000E94A50E8F8598890E944B0E82E060E0F1
:1008E0000E949C098BEE96E060E046ED50E00E948D
:1008F000A50E89899A890E944B0E80ED97E0F6013A
:100900003197F1F70197D9F781E064E840E020E002
:1009100000E00E94100B81E064E840E021E00E94CA
:10092000100B81E064E840E022E00E94100B5ACFF7
:10093000A298AA9A08950E94A11220E836EE45ECEA
:1009400057E40E94061222E63BED42E45EE30E9479
:1009500090139B01AC0160E070E080E89FE30E948F
:10096000A11120E03AE24DE257E40E942D1320E06D
:1009700030E040E251E40E942D130E94DC130E94FB
:100980006E129B01AC01CA010895EF92FF920F9382
:100990001F93CF93DF93182FEB010E941F0F0E942C
:1009A000440F8883882321F488E00E94570F8883AE
:1009B0008881882331F48EEE0E943A0F0E94440F02
:1009C00088838881882321F488E10E94570F8883D7
:1009D0008881882331F4812F0E943A0F0E94440FAE
:1009E00088838881882321F488E20E94570F8883B6
:1009F0008881882329F40E941F0F0E94440F888356
:100A00008881882321F480E10E94570F88838881A0
:100A1000882331F48FEE0E943A0F0E94440F88839E
:100A20008881882321F480E40E94570F888388817D
:100A3000882329F40E943E0F0E94440F88838881F6
:100A4000882319F0EE24FF2407C00E94550FE82EDA
:100A5000FF240E94440F88838881882321F480E545
:100A60000E94570F88838881882329F40E94410FB0
:100A70000E94440F88838881882319F000E010E0E9
:100A800007C00E94550F082F10E00E94440F888372
:100A90008881882321F488E50E94570F8883888104
:100AA000882319F40E94220F88833E2D2227200FCD
:100AB000311FC901DF91CF911F910F91FF90EF90EE
:100AC0000895EF92FF920F931F93CF93DF938C01C2
:100AD0007B01EA01A298AA9A8881882339F48AEADC
:100AE000BA010E94C504F80191838083888188231C
:100AF00039F48CEABE010E94C504F8019383828315
:100B00008881882339F48EEABE010E94C504F80169
:100B1000958384838881882339F480EBBE010E9409
:100B2000C504F701918380838881882339F482EB9F
:100B3000BE010E94C504F7019383828388818823C4
:100B400039F484EBBE010E94C504F70195838483C8
:100B50008881882339F486EBBE010E94C504F80120
:100B6000978386838881882339F488EBBE010E94AD
:100B7000C504F801918780878881882339F48AEB3E
:100B8000BE010E94C504F80193878287888188236B
:100B900039F48CEBBE010E94C504F8019587848767
:100BA0008881882339F48EEBBE010E94C504F801C8
:100BB00097878687DF91CF911F910F91FF90EF90DC
:100BC0000895CF93DF93EC010E941F0F0E94440F02
:100BD0008883882321F488E00E94570F88838881C6
:100BE000882331F48EEE0E943A0F0E94440F8883CE
:100BF0008881882321F488E10E94570F88838881A7
:100C0000882331F484EF0E943A0F0E94440F8883B6
:100C10008881882321F488E20E94570F8883888185
:100C2000882331F484E30E943A0F0E94440F8883A2
:100C30008881882321F488E20E94570F8883888165
:100C4000882319F40E94220F888380E090E032E02C
:100C500004C0232F2A95F1F701969A9904C02AE33C
:100C600088399207B1F780E991E028EC30E0F9018A
:100C70003197F1F70197D9F78881882329F020E08F
:100C800030E040E050E007C086EFBE010E94C5049E
:100C90009C0140E050E0B901CA01DF91CF91089575
:100CA000CF93DF93EC010E941F0F0E94440F8883B3
:100CB000882321F488E00E94570F88838881882345
:100CC00031F48EEE0E943A0F0E94440F888388818F
:100CD000882321F488E10E94570F88838881882324
:100CE00031F484EF0E943A0F0E94440F8883888178
:100CF000882321F488E20E94570F88838881882303
:100D000031F48EE20E943A0F0E94440F888388815A
:100D1000882321F488E20E94570F888388818823E2
:100D200019F40E94220F888380E090E032E004C032
:100D3000232F2A95F1F701969A9904C023E1883868
:100D40009207B1F780E29EE40197F1F7888188234A
:100D500029F020E030E040E050E007C086EFBE011F
:100D60000E94C5049C0140E050E0B901CA01DF9136
:100D7000CF9108952F923F924F925F926F927F9200
:100D80008F929F92AF92BF92CF92DF92EF92FF929B
:100D90000F931F93DF93CF93CDB7DEB72E970FB688
:100DA000F894DEBF0FBECDBFFC016A013E872D87E0
:100DB0008081918190936700809366008281938106
:100DC00090936F0080936E008481958190937B0057
:100DD00080937A00DB018D919C9111979093730021
:100DE0008093720012968D919C91139790936D0051
:100DF00080936C0014968D919C91159790936B0045
:100E000080936A008681978190936900809368003F
:100E1000808591859093630080936200828593859D
:100E20009093650080936400848595859093750008
:100E300080937400868597859093710080937000ED
:100E4000F8018081882359F4C8010E9450066093FC
:100E50007600709377008093780090937900D801A2
:100E60008C91882329F019821A821B821C8207C068
:100E7000C8010E94E10569837A838B839C8360911A
:100E80007600709177008091780090917900E090E1
:100E90006A00F0906B0020916C0030916D0000E0D2
:100EA00010E06E197F09800B910B40E050E00E942A
:100EB00030157B018C01FFE015950795F794E794B9
:100EC000FA95D1F7609174007091750020917000CF
:100ED00030917100882777FD8095982FEBE0660FA1
:100EE000771F881F991FEA95D1F7442737FD409552
:100EF000542F2E0D3F1D401F511F0E948515390193
:100F00004A016E0C7F1C801E911E88E090E0A0E0DC
:100F1000B0E0680E791E8A1E9B1ED401C30164E0F6
:100F2000B595A795979587956A95D1F7F601808332
:100F30009183A283B38388E590EFAFEFBFEF680E94
:100F4000791E8A1E9B1EA0916200B0916300BC872F
:100F5000AB87C401B301A40193010E943015DC01E9
:100F6000CB015CE0B595A795979587955A95D1F7F4
:100F70008F839887A987BA87A0916E00B0916F0080
:100F8000BE83AD83A0906600B090670020917A0088
:100F900030917B002090680030906900C090720012
:100FA000D0907300442737FD4095542FC401B301FE
:100FB0000E9430157B018C014DE015950795F79443
:100FC000E7944A95D1F782E090E0A0E0B0E0E80E27
:100FD000F91E0A1F1B1F442437FC4094542C6F81B8
:100FE000788589859A85A20191010E943015BC01FE
:100FF000992777FD9095892FE60EF71E081F191F78
:1010000022E015950795F794E7942A95D1F780E0AB
:1010100090E8A0E0B0E0E80EF91E0A1F1B1F960141
:1010200040E050E0C801B7010E9430157B018C01FF
:101030009FE016950795F794E7949A95D1F7CC24FD
:10104000B7FCC094DC2C82E0AA0CBB1CCC1CDD1CC1
:101050008A95D1F782E090E0A0E0B0E0A80EB91E3A
:10106000CA1EDB1EAD81BE819D01442737FD409520
:10107000542FC401B3010E943015BBE095958795AC
:1010800077956795BA95D1F7A60EB71EC81ED91EDB
:10109000EB85FC859F01442737FD4095542F6F81D8
:1010A000788589859A850E943015ABE0959587955E
:1010B00077956795AA95D1F7A60EB71EC81ED91EBB
:1010C000F2E0D594C794B794A794FA95D1F78981A3
:1010D0009A81AB81BC818A199B09AC09BD098983BE
:1010E0009A83AB83BC83BC01CD0120E533EC40E0A7
:1010F00050E00E94301597FD0DC0660F771F881FC6
:10110000991FA80197010E946315C901DA015C01CA
:101110006D010AC0A80197010E94631559016A0177
:10112000AA0CBB1CCC1CDD1C5527D7FC5A954D2D99
:101130003C2D2B2DCA01B9010E9430152EED3BE04C
:1011400040E050E00E9430157B018C01C601B501E2
:1011500023E433EE4FEF5FEF0E943015BC01992777
:1011600077FD9095892F6153714F8F4F9F4F780175
:101170001127F7FC1095012F6E0D7F1D801F911F09
:1011800024E095958795779567952A95D1F76A0D0F
:101190007B1D8C1D9D1DAD85BE856D937D938D93AF
:1011A0009C9313972E960FB6F894DEBF0FBECDBF5B
:1011B000CF91DF911F910F91FF90EF90DF90CF9033
:1011C000BF90AF909F908F907F906F905F904F9067
:1011D0003F902F90089587B18F7387B986B1866845
:1011E00086B9369A3699FECF84B195B10895982F75
:1011F0008450843008F497B9369A3699FECF24B1DA
:1012000035B18CED95E0AC01249FC001259F900D78
:10121000349F900D112481509E4F6FEF73E00E9418
:101220004F15CB010895982F8450843008F497B956
:10123000369A3699FECF24B135B184EF91E0AC01F6
:10124000249FC001259F900D349F900D1124815043
:101250009E4F6FEF73E00E944F15CB0108950E94DF
:10126000330BD79ADF98D09AD19A089521B320638F
:1012700021BB2FB522602FBD2FB52E7F2FBD2EB5E0
:1012800020612EBD2EB5277F2EBD21E732E037BD70
:1012900026BD2FB520682FBD2FB52F7B2FBD2EB5B6
:1012A00023602EBD2EB52B6F2EBD9BBD8ABD08952C
:1012B0009BBD8ABD08952EB528602EBD2EB5216038
:1012C0002EBD9BBD8ABD089590916000980F9370CC
:1012D00090936000892F0895AC01809161009A017C
:1012E000280F311D809160000CC0141615062CF4D7
:1012F0008F5F83702458304004C0815083702C5716
:101300003F4F2438310588F78093600020936100B7
:10131000822F0895C498DD9A8FB9779BFECFC49A27
:1013200081E090E00E946C090895C498DD988FB91F
:10133000779BFECFC49A08950F931F93082F162F03
:101340008F70806B0E949509812F82958F708061CC
:101350000E949509812F8F700E949509109361005A
:10136000009360001F910F9108951F9310916000EA
:10137000180F137010936000CB010E946C09682F46
:10138000812F0E949C091F910895BF92CF92DF92F6
:10139000EF92FF920F931F93CF93DF93082FE92FC4
:1013A000B62EE42EF22E24E0F22210E0842F90E0FC
:1013B000CC24DD24C81AD90A18C0FE018491F1108A
:1013C00080950E948A0921969E01201B2E1520F4EB
:1013D00080916100843888F31F5F1B1521F081E044
:1013E000B6010E94B5090C2FED2F1B1548F4809112
:1013F0006000843028F4802F9E2FFC01EF01E4CFA1
:10140000DF91CF911F910F91FF90EF90DF90CF90E0
:10141000BF9008952F923F924F925F926F927F926A
:101420008F929F92AF92BF92CF92DF92EF92FF92F4
:101430000F931F93DF93CF93CDB7DEB728970FB6E7
:10144000F894DEBF0FBECDBFF82ED92E122F2E2D51
:1014500024702A83842F8770898381111F5F5091A4
:101460006000212F30E084E090E0851B9109821715
:10147000930714F414E0151B842F869586958695A2
:101480000E949C09802E99248F2D9D2D5C01882718
:101490009927881999091501280E391E18861F8267
:1014A000612E772428E0422E512CE9814E1A5108F2
:1014B0008D839E834CC0F981FF2339F08B819C8101
:1014C0008615970511F420E007C0F70124910980E3
:1014D00001C0220F0A94EAF78F819885892B69F061
:1014E0009981992351F0F601849190E0042C02C077
:1014F000959587950A94E2F7282BFA81FF2319F036
:10150000822F809501C0822F0E948A090F5F1F4F92
:101510000894C11CD11C0894E11CF11C0815190584
:1015200028F480916100843808F4C5CF8F819885B4
:10153000019698878F838615970529F081E06D8144
:101540007E810E94B509A80CB91C280C391CEF81BA
:10155000F885E615F70540F46101750100E010E03B
:101560003196FC83EB83DACF28960FB6F894DEBF72
:101570000FBECDBFCF91DF911F910F91FF90EF90E4
:10158000DF90CF90BF90AF909F908F907F906F90A3
:101590005F904F903F902F900895DF92EF92FF92CF
:1015A0000F931F93CF93DF93382F42FD02C0DD24AA
:1015B00002C0DD24DA9424E080916000281BE32E31
:1015C000231708F4E22E24E880916100281B062FDF
:1015D000261708F4022FFF24802F90E0CC27DD2768
:1015E000C81BD90B0BC08D2D0E948A091F5F1017D5
:1015F000D0F381E0BE010E94B509F394FE1410F40B
:1016000010E0F5CF8E2D819560E070E00E94B50965
:10161000DF91CF911F910F91FF90EF90DF90089590
:10162000EF92FF920F931F93182FF62EE42E822F26
:10163000602F0E949C09812F6F2D4E2D0E94CD0A94
:101640001F910F91FF90EF90089587B3806A87BB39
:101650008AB380638ABBBC9A8CE58DB981E08EB970
:1016600083EE8FB908950F931F93D59AD49ABC9A9D
:101670000E94250BDC9800ED17E0C8010197F1F7F7
:10168000DC9A80E40E949509C8010197F1F781EA8C
:101690000E94950980EC0E949509C8010197F1F715
:1016A00086EA0E94950982EA0E9495098FE20E94CB
:1016B000950980E00E94950983E20E94950981E8DE
:1016C0000E9495098FE10E9495098CEA0E94950974
:1016D00080E00E94950910E0812F60E00E949C0943
:1016E00000E080E00E948A090F5F0438D1F71F5F95
:1016F000143091F780E060E00E949C098FEA0E941C
:1017000095091F910F91089590937E0080937D001D
:1017100060937C000895FC01389625913491C901AD
:101720000895FC01369625913491C9010895FC0174
:101730003396E491E150E695E695E6958E2F8F5F1E
:101740000895FC0136968591949120E0892B09F04B
:1017500021E0822F0895FC013596849135978617F4
:1017600040F034968491681720F070E0681B71098E
:1017700002C06FEF7FEFCB010895AC010696FC012C
:101780002591349121153105C9F04B5F5F4FFA0166
:10179000849145505040861750F04C5F5F4FFA01DE
:1017A0008491681720F070E0681B710902C06FEF28
:1017B0007FEF260F371FF901849108954E5F5F4F29
:1017C000FA0184910895EF92FF920F931F939C0169
:1017D0002B5F3F4FF901849125503040861768F008
:1017E0002C5F3F4FF901449124503040641728F09A
:1017F000862F90E0841B910902C08FEF9FEFF901C3
:1018000036964591549197FF03C040E050E04BC09D
:10181000082F41155105D9F4F9013896E590F49057
:101820002D5F3F4FF901149123503040C9010E94B0
:10183000BD0B11501695169516951F5F189F102D0C
:101840001124109FA00111244E0D5F1D2CC0882370
:1018500019F460E070E00FC060E070E0CA01800F32
:10186000911D06C0FA014F5F5F4FE4916E0F711D2D
:1018700048175907B9F7F9013896459154912D5FEA
:101880003F4FF901849181508695869586958F5FAB
:1018900090E09C01269FC001279F900D369F900DE0
:1018A0001124480F591FCA011F910F91FF90EF900B
:1018B00008952F923F924F925F926F927F928F92F4
:1018C0009F92AF92BF92CF92DF92EF92FF920F93CF
:1018D0001F93DF93CF93CDB7DEB72B970FB6F89456
:1018E000DEBF0FBECDBF5C01F42E3324339436220D
:1018F000062F10E0C80196958795282F21702C831C
:1019000064FD02C0662402C080E8682E02FD02C0A9
:10191000772402C077247A94C5016F2D0E94BD0BF5
:10192000E82E83E090E0A80EB91EF501D4902DEFCB
:101930003FEFA20EB31EDA94D694D694D694D394E5
:10194000F5013696859194912224892B11F0222459
:101950002394C5016F2D0E94E30B9B838A83C22CC5
:10196000CE0C0C8001C0CC0C0A94EAF78D2C992483
:10197000BD2C032C01C0BB0C0A94EAF703FF13C073
:101980008091610090E08C0D911D853891055CF08F
:10199000809160008B0D60E00E949C0930E2F3169C
:1019A00011F4CC248EC08E2D90E0889ED001899EAB
:1019B000B00D989EB00D1124BE83AD83B72DB62512
:1019C000B983A62CA694AB261B861A86EB2CFF2483
:1019D0000894E108F1084C2C5524EE27FF27E41960
:1019E000F509F987E8878A849B84032C02C09594C3
:1019F00087940A94E2F700E0FA85F170FF832DC026
:101A00002A813B81E20FF31F8491AA85BB85AE1525
:101A1000BF0511F0182F02C0182F1629332089F0A6
:101A2000BF81BB2311F012951F70812F13FD02C0DF
:101A300010E001C010EC82FD106381FD1C6080FD90
:101A4000136071101095812F0E948A09EC81EE239A
:101A500019F0812F0E948A090D0D802F880DE82F23
:101A6000FF27E7FDF0952D813E81E217F30744F251
:101A70002220A9F08A859B858E159F0511F0172DD0
:101A800005C0332011F4198101C01A2D812F0E9445
:101A90008A099C81992319F0812F0E948A0981E08B
:101AA000688579850E94B509AA85BB851196BB8793
:101AB000AA87AB1508F497CF8B2D8195B2010E94B0
:101AC000B5098C2D2B960FB6F894DEBF0FBECDBF97
:101AD000CF91DF911F910F91FF90EF90DF90CF900A
:101AE000BF90AF909F908F907F906F905F904F903E
:101AF0003F902F900895482F80917D0090917E0017
:101B000060917C000E94590C0895DF92EF92FF9241
:101B10000F931F937C01162FD42E822F602F0E94CB
:101B20009C09C701612F4D2D0E94590C1F910F91E7
:101B3000FF90EF90DF9008950F93382F262F042FFA
:101B400080917D0090917E0060917C00432F0E94E7
:101B5000850D0F910895BF92CF92DF92EF92FF9281
:101B60000F931F93CF93DF937C01B62ED42EC22EFA
:101B7000242F352FC9018C01C0E0D0E009C0F80145
:101B800041918F01C7016B2D0E94590CC80FD11DC7
:101B9000802F8D198C1598F3CE01DF91CF911F9175
:101BA0000F91FF90EF90DF90CF90BF900895DF925C
:101BB000EF92FF920F931F93CF93DF937C01D62E6A
:101BC0008A01C0E0D0E006C0C7016D2D0E94590C0B
:101BD000C80FD11DF80141918F014423A9F7CE010F
:101BE000DF91CF911F910F91FF90EF90DF900895BB
:101BF0000F931F93DF93CF93CDB7DEB72A970FB61E
:101C0000F894DEBF0FBECDBF992787FD90958E015A
:101C10000F5F1F4FB8014AE050E00E94A01580916D
:101C20007D0090917E0060917C00A8010E94D70DFC
:101C30002A960FB6F894DEBF0FBECDBFCF91DF91CD
:101C40001F910F9108950F931F93DF93CF93CDB7FB
:101C5000DEB72A970FB6F894DEBF0FBECDBF8E0158
:101C60000F5F1F4FB8014AE050E00E94F5158091C8
:101C70007D0090917E0060917C00A8010E94D70DAC
:101C80002A960FB6F894DEBF0FBECDBFCF91DF917D
:101C90001F910F9108950F931F93DF93CF93CDB7AB
:101CA000DEB72A970FB6F894DEBF0FBECDBF8E0108
:101CB0000F5F1F4FB8014AE050E00E94A0158091CD
:101CC0007D0090917E0060917C00A8010E94D70D5C
:101CD0002A960FB6F894DEBF0FBECDBFCF91DF912D
:101CE0001F910F9108950F931F93DF93CF93CDB75B
:101CF000DEB72A970FB6F894DEBF0FBECDBF8E01B8
:101D00000F5F1F4FA8012AE030E00E94C1158091AB
:101D10007D0090917E0060917C00A8010E94D70D0B
:101D20002A960FB6F894DEBF0FBECDBFCF91DF91DC
:101D30001F910F910895AC0180917D0090917E00DC
:101D400060917C000E94D70D0895DF92EF92FF9280
:101D50000F931F93CF93DF937C01D62E8A01C0E0AF
:101D6000D0E006C0C7016D2D0E94590CC80FD11DCF
:101D7000F8010F5F1F4F44914423A1F7CE01DF917B
:101D8000CF911F910F91FF90EF90DF900895AC01DC
:101D900080917D0090917E0060917C000E94A50E54
:101DA0000895CF92DF92EF92FF920F931F937C01E1
:101DB000162F6A01822F602F0E949C09C701612F94
:101DC000A6010E94A50E1F910F91FF90EF90DF904A
:101DD000CF9008950F93FC01262F042F80917D0052
:101DE00090917E0060917C00AF010E94D10E0F9116
:101DF000089511B8A0E0B0E0BC01CD010E949F128F
:101E00009B01AC0160E070E08AEF95E40E9406124D
:101E10000E947312603188F070E060517040882732
:101E200077FD8095982F0E94A11220E030E040E0DD
:101E30005EE30E942D130E94731260B9089584EA34
:101E400086BF089584E986BF90E022E004C0822F17
:101E50008A95F1F79F5F06B604FE03C09A35B9F77D
:101E600004C09A3510F480E0089582E08A95F1F775
:101E700084E6089583B984E886BF089584EC86BF1C
:101E8000089584E886BF089590E022E004C0822F80
:101E90008A95F1F79F5F06B607FEF9CF9A35B8F33A
:101EA00082E08A95F1F784E6089583B1089521B11F
:101EB00030E0287F307090E02817390711F08AE071
:101EC000089580E0089511B888E080B981E0089510
:101ED000982F84EA86BF06B607FEFDCF81B1887FC2
:101EE000883021F0803111F090E014C0990F690F13
:101EF00063B984E886BF06B607FEFDCF81B1887F4F
:101F0000883111F491E006C090E0803409F091E04E
:101F100081E09827892F089584E986BF06B607FCDB
:101F2000FDCF089583B984E886BF06B607FEFDCFCE
:101F300081B190E0887F883209F491E0892F08957B
:101F400084EC86BF06B607FEFDCF83B1089584E812
:101F500086BF06B607FEFDCF83B10895EF92FF92CC
:101F60000F931F93CF93DF93082FF62EEA0160E0C3
:101F70000E94680F182F882389F08F2D0E94920FDE
:101F8000182F882359F0802F61E00E94680F182FC6
:101F9000882321F00E94A70FE82E01C0EE240E94A2
:101FA0008C0F112331F1802F60E00E94680F182FF1
:101FB000882391F08F2D8F5F0E94920F182F882316
:101FC00059F0802F61E00E94680F182F882321F0BC
:101FD0000E94A70F082F01C000E00E948C0F112360
:101FE00041F0902F80E08E0D911D9983888381E0D0
:101FF00001C080E0DF91CF911F910F91FF90EF9092
:102000000895EF92FF920F931F93CF93DF93082FC2
:10201000E62EEA0160E00E94680F182F882389F0FD
:102020008E2D0E94920F182F882359F0802F61E087
:102030000E94680F182F882321F00E94A70FF82E06
:1020400001C0FF240E948C0F112331F1802F60E02A
:102050000E94680F182F882391F08E2D8F5F0E94A9
:10206000920F182F882359F0802F61E00E94680F8B
:10207000182F882321F00E94A70F082F01C000E02D
:102080000E948C0F112341F09F2D80E0800F911D45
:102090009983888381E001C080E0DF91CF911F9117
:1020A0000F91FF90EF9008956F927F928F929F9281
:1020B000AF92BF92CF92DF92EF92FF920F931F9356
:1020C000DF93CF93CDB7DEB72C970FB6F894DEBF72
:1020D0000FBECDBF6C015B014A01390188E66DE19D
:1020E000AE014F5F5F4F0E94011088E66FE1AE01C5
:1020F0004D5F5F4F0E94011088E661E2AE014B5FC9
:102100005F4F0E94011088E663E2AE01495F5F4FB6
:102110000E94AE0F88E665E2AE01475F5F4F0E9406
:10212000AE0F88E667E2AE01455F5F4F0E94AE0FDB
:1021300089819A812091810030918200821B930BCA
:10214000F601918380838B819C8120918300309163
:102150008400821B930BF501918380838D819E8186
:102160002091850030918600821B930BF4019183AE
:1021700080838F81988520917F0030918000821B21
:10218000930BF3019183808389859A85209189003F
:1021900030918A00821B930BF801918380838B8599
:1021A0009C852091870030918800821B930BF7015A
:1021B000918380832C960FB6F894DEBF0FBECDBFFF
:1021C000CF91DF911F910F91FF90EF90DF90CF9013
:1021D000BF90AF909F908F907F906F900895EF92F7
:1021E000FF920F931F93082FF62EE42E60E00E94BB
:1021F000680F182F882351F08F2D0E94920F182FEF
:10220000882321F08E2D0E94920F182F0E948C0F90
:10221000112311F480E017C0802F60E00E94680F46
:10222000182F882359F08F2D8F5F0E94920F182F3F
:10223000882321F08E2D0E94920F182F0E948C0F60
:10224000812F111181E01F910F91FF90EF90089560
:102250000F931F93CF93DF93082F162FEA0160E0AF
:102260000E94680F882391F0812F0E94920F88238B
:1022700069F0802F61E00E94680F882339F00E9486
:10228000A70F88830E948C0F81E003C00E948C0FEF
:1022900080E0DF91CF911F910F9108950F931F93CD
:1022A000162F042F60E00E94680F882371F0812FA1
:1022B0000E94920F882349F0802F0E94920F88235A
:1022C00021F00E948C0F81E003C00E948C0F80E0FF
:1022D0001F910F91089583E56DE248E00E944E1131
:1022E00083E561E34BE00E944E11089588E66EE3BA
:1022F00047E80E944E1188E66EE341E00E944E11CD
:1023000088E666E14BE10E944E1188E66FE747E000
:102310000E944E1188E664E143E50E944E1188E672
:1023200068E142E30E944E1188E66DE348E00E94B6
:102330004E110E946B1188E66DE348E20E944E1137
:1023400008955058BB27AA270ED04DC13ED130F07A
:1023500043D120F031F49F3F11F41EF433C10EF449
:10236000E095E7FB29C1E92F4FD180F3BA17620747
:1023700073078407950718F071F49EF567C10EF492
:10238000E0950B2EBA2FA02D0B01B90190010C0185
:10239000CA01A0011124FF27591B99F0593F50F49D
:1023A000503E68F11A16F040A22F232F342F4427F5
:1023B000585FF3CF469537952795A795F0405395ED
:1023C000C9F77EF41F16BA0B620B730B840BBAF0BD
:1023D0009150A1F0FF0FBB1F661F771F881FC2F728
:1023E0000EC0BA0F621F731F841F48F4879577953C
:1023F0006795B795F7959E3F08F0B3CF9395880FF3
:1024000008F09927EE0F9795879508950CD0EBC0AB
:10241000E3D040F0DAD030F021F45F3F19F0CCC0C7
:10242000511115C1CFC0F0D098F39923C9F35523AA
:10243000B1F3951B550BBB27AA27621773078407B7
:1024400038F09F5F5F4F220F331F441FAA1FA9F36D
:1024500033D00E2E3AF0E0E830D091505040E6955F
:10246000001CCAF729D0FE2F27D0660F771F881FC0
:10247000BB1F261737074807AB07B0E809F0BB0BAF
:10248000802DBF01FF2793585F4F2AF09E3F5105D3
:1024900068F092C0DCC05F3FECF3983EDCF38695B9
:1024A00077956795B795F7959F5FC9F7880F911D49
:1024B0009695879597F90895E1E0660F771F881F35
:1024C000BB1F621773078407BA0720F0621B730BE8
:1024D000840BBA0BEE1F88F7E095089504D068943A
:1024E000B111B5C0089598D088F09F5790F0B92FDA
:1024F0009927B751A0F0D1F0660F771F881F991F59
:102500001AF0BA95C9F712C0B13081F09FD0B1E08E
:1025100008959CC0672F782F8827B85F39F0B93F9E
:10252000CCF3869577956795B395D9F73EF490955A
:102530008095709561957F4F8F4F9F4F0895E894D8
:1025400009C097FB3EF490958095709561957F4FFB
:102550008F4F9F4F9923A9F0F92F96E9BB279395A9
:10256000F695879577956795B795F111F8CFFAF4B9
:10257000BB0F11F460FF1BC06F5F7F4F8F4F9F4FEA
:1025800016C0882311F096E911C0772321F09EE848
:10259000872F762F05C0662371F096E8862F70E0AE
:1025A00060E02AF09A95660F771F881FDAF7880F88
:1025B0009695879597F9089597F99F6780E870E059
:1025C00060E008959FEF80EC089500240A941616A9
:1025D000170618060906089500240A941216130611
:1025E000140605060895092E0394000C11F488239F
:1025F00052F0BB0F40F4BF2B11F460FF04C06F5FBB
:102600007F4F8F4F9F4F089557FD9058440F551F90
:1026100059F05F3F71F04795880F97FB991F61F064
:102620009F3F79F087950895121613061406551FDB
:10263000F2CF4695F1DF08C0161617061806991F47
:10264000F1CF86957105610508940895E894BB273C
:1026500066277727CB0197F908950BD0C4CFB5DF54
:1026600028F0BADF18F0952309F0A6CFABCF1124DC
:10267000EECFCADFA0F3959FD1F3950F50E0551F21
:10268000629FF001729FBB27F00DB11D639FAA27C7
:10269000F00DB11DAA1F649F6627B00DA11D661F16
:1026A000829F2227B00DA11D621F739FB00DA11D37
:1026B000621F839FA00D611D221F749F3327A00DF1
:1026C000611D231F849F600D211D822F762F6A2F8D
:1026D00011249F5750408AF0E1F088234AF0EE0F12
:1026E000FF1FBB1F661F771F881F91505040A9F71F
:1026F0009E3F510570F060CFAACF5F3FECF3983E4C
:10270000DCF3869577956795B795F795E7959F5F85
:10271000C1F7FE2B880F911D9695879597F908951F
:10272000FA01EE0FFF1F30962105310599F1611571
:10273000710561F48038BFE39B0749F168949038D4
:10274000810561F08038BFEF9B0741F0992342F586
:10275000FF3FE1053105210511F1E8940894E79563
:10276000D901AA2329F4AB2FBE2FF85FD0F310C0F4
:10277000FF5F70F4A695E0F7F73950F019F0FF3AD3
:1027800038F49F779F930CD00F9007FC90580895D2
:102790003EF018CF60E070E080E89FE308954FE7D7
:1027A0009F775F934F933F932F93E7D02F913F9164
:1027B0004F915F9152DF25C02FDFE0F09E37D8F0B8
:1027C0009639B8F49E3848F4672F782F8827985F99
:1027D000F9CF86957795679593959539D0F3B62F70
:1027E000B1706B0F711D811D20F4879577956795EA
:1027F000939533C04DC02BCF19F40EF0DDCE26CF0C
:10280000E1CE0ADFC8F39638C0F707F80F92E894D4
:102810002BE33AEA48EB5FE72EDF0F920F920F921D
:102820004DB75EB70F92E9D0E4E5F0E03FD04F91AD
:102830005F91EF91FF91E595EE1FFF1F49F0FE5765
:10284000E0684427EE0F441FFA95E1F74195550BD8
:102850005BD00F9007FE4FC00895882371F4772353
:1028600021F09850872B762F07C0662311F4992703
:102870000DC09051862B70E060E02AF09A95660FAB
:10288000771F881FDAF7880F9695879597F908952F
:102890009F3F31F0915020F4879577956795B795D4
:1028A000880F911D9695879597F90895DF93CF939B
:1028B0001F930F93FF92EF92DF927B018C0168943C
:1028C00005C0DA2EEF01D5DEFE01E894A591259131
:1028D000359145915591AEF3EF0145DDFE0197012C
:1028E000A801DA9479F7DF90EF90FF900F911F9194
:1028F000CF91DF9108959B01AC0160E070E080E82A
:102900009FE384CD59CEC4CF87DEE8F39923D9F372
:10291000940F511DBBF39150504094F059F088230F
:1029200032F0660F771F881F91505040C1F79E3FCD
:10293000510544F7880F911D9695879597F908954D
:102940005F3FACF0983E9CF0BB27869577956795E6
:10295000B79508F4B1609395C1F7BB0F58F711F420
:1029600060FFE8CF6F5F7F4F8F4F9F4FE3CF6FCEFA
:102970000EF08ECF27CE68941FCE4EDEC8F399237B
:10298000D1F3C6F3DF93CF931F930F93FF92C92F19
:10299000DD2788232AF02197660F771F881FDAF733
:1029A00020E030E040E85FEB9FE3883920F0803E94
:1029B00030F021968F77C6DCECE7F0E003C0C2DC94
:1029C000E9EAF0E073DF8B01BE01EC01FB2E6F57EB
:1029D00071097595771F880B990BB3DD28E132E7F4
:1029E00041E35FE346DEAF2D9801AE01FF900F910A
:1029F0001F91CF91DF91B7DCF6CDFA01DC01AA0F70
:102A0000BB1F9B01AC01BF5728F422273327442763
:102A100050781FC0B75188F4AB2F002446953795E6
:102A20002795011CA395D2F3002069F0220F331FD4
:102A3000441FB395DAF30DD084CC61307105A0E862
:102A40008A07B94630F49B01AC01662777278827AF
:102A50009078309621F02083318342835383089508
:102A6000629FD001739FF001829FE00DF11D649F72
:102A7000E00DF11D929FF00D839FF00D749FF00DFE
:102A8000659FF00D9927729FB00DE11DF91F639F9F
:102A9000B00DE11DF91FBD01CF0111240895AA1B3E
:102AA000BB1B51E107C0AA1FBB1FA617B70710F039
:102AB000A61BB70B881F991F5A95A9F7809590956B
:102AC000BC01CD010895A1E21A2EAA1BBB1BFD017A
:102AD0000DC0AA1FBB1FEE1FFF1FA217B307E407FD
:102AE000F50720F0A21BB30BE40BF50B661F771F55
:102AF000881F991F1A9469F7609570958095909535
:102B00009B01AC01BD01CF01089597FB092E05265D
:102B10000ED057FD04D0D7DF0AD0001C38F45095F2
:102B20004095309521953F4F4F4F5F4F0895F6F7F1
:102B300090958095709561957F4F8F4F9F4F089529
:102B4000FB019F01E8944230C4F04532B4F44A30AE
:102B500029F497FB1EF4909581959F4F642F77275A
:102B60000E944F15805D8A330CF0895D8193CB0103
:102B70000097A1F716F45DE251931082C9010C94FD
:102B80000B16FA01CF93FF93EF93223044F12532D5
:102B900034F5C22FE894CA3049F497FB3EF490957F
:102BA0008095709561957F4F8F4F9F4F2C2F3327C6
:102BB00044275527FF93EF930E946315EF91FF91F0
:102BC000605D6A330CF0695D6193B901CA016050C0
:102BD00070408040904051F716F4CDE2C1931082CE
:102BE0008F919F91CF910C940B16FB019F01423066
:102BF00074F0453264F4642F77270E944F15805D8E
:102C00008A330CF0895D8193CB010097A1F7108284
:102C1000C9010C940B16DC01FC01672F719177231D
:102C2000E1F7329704C07C916D9370836291AE1787
:0A2C3000BF07C8F30895F894FFCF22
:00000001FF
