:100000000C9474000C9491000C9491000C94910049
:100010000C9491000C9491000C9491000C9491001C
:100020000C9491000C9491000C94E3090C949100B1
:100030000C9491000C94A10B0C94D10B0C94910096
:100040000C9491000C9491000C9491000C949100EC
:100050000C94910007634236B79BD8A71A396856AB
:1000600018AEBAAB558C1D3CB7CC5763BD6DEDFDDA
:10007000753EF6177231BF000000803F0800000097
:10008000BE922449123EABAAAA2ABECDCCCC4C3E8D
:1000900000000080BEABAAAAAA3E00000000BF007C
:1000A0000000803F0000000000084178D3BB438778
:1000B000D1133D190E3CC3BD4282AD2B3E68EC828C
:1000C00076BED98FE1A93E4C80EFFFBE01C4FF7F11
:1000D0003F000000000027053305E500E2003F0176
:1000E0004601DD8D00D3BB0011241FBECFE5D8E053
:1000F000DEBFCDBF10E0A0E6B0E0E2EBF0E202C070
:1001000005900D92A036B107D9F711E0A0E6B0E056
:1001100001C01D92AA34B107E1F70E9416090C94A0
:1001200057100C940000A298AA9A0895EF92FF929B
:100130000F931F93CF93DF93082FEB010E941D0BAA
:100140000E94410B8883882309F086C088E00E94C2
:100150004F0B8883882309F082C08EEE0E94370BF4
:100160000E94410B8883882309F07CC088E10E94AB
:100170004F0B8883882309F078C0802F0E94370BAB
:100180000E94410B8883882309F072C088E20E9494
:100190004F0B8883882309F06EC00E941D0B0E94BC
:1001A000410B8883882309F069C080E10E944F0BCE
:1001B0008883882309F065C08FEE0E94370B0E9468
:1001C000410B8883882309F05FC080E40E944F0BB5
:1001D0008883882309F05BC00E943B0B0E94410B7F
:1001E0008883882309F056C00E944D0B082F10E029
:1001F0000E94410B8883882309F04EC080E50E944D
:100200004F0B8883882309F047C00E943E0B0E9451
:10021000410B8883882309F03FC00E944D0BE82ED4
:10022000FF240E94410B8883882349F488E50E94BB
:100230004F0B8883882319F40E94200B8883102F8A
:100240000027E00EF11E8E2D9F2DDF91CF911F9183
:100250000F91FF90EF90089500E010E01DC000E0C6
:1002600010E01AC000E010E017C000E010E014C079
:1002700000E010E011C000E010E00EC000E010E06F
:100280000BC000E010E008C000E010E005C000E096
:1002900010E002C000E010E0EE24FF24D0CF0F9366
:1002A0001F93CF93DF93EC010E941D0B0E94410B23
:1002B0008883882399F588E00E944F0B88838823E0
:1002C00069F58EEE0E94370B0E94410B88838823CC
:1002D00029F588E10E944F0B88838823F9F484EF85
:1002E0000E94370B0E94410B88838823B9F488E26F
:1002F0000E944F0B8883882389F48EE20E94370B7B
:100300000E94410B8883882349F488E20E944F0BA6
:100310008883882319F40E94200B88839A9907C048
:1003200088E893E100009A9902C00197D9F783EC1D
:1003300099E00197F1F700C000008881882341F41B
:1003400086EFBE010E9496008C0120E030E003C0E1
:1003500000E010E09801602F712F822F932FDF9122
:10036000CF911F910F9108950F931F93CF93DF9318
:10037000EC010E941D0B0E94410B8883882399F594
:1003800088E00E944F0B8883882369F58EEE0E94D7
:10039000370B0E94410B8883882329F588E10E944E
:1003A0004F0B88838823F9F484EF0E94370B0E9457
:1003B000410B88838823B9F488E20E944F0B88831D
:1003C000882389F484E30E94370B0E94410B8883C1
:1003D000882349F488E20E944F0B8883882319F40C
:1003E0000E94200B88839A9907C088E99AE300004D
:1003F0009A9902C00197D9F78FE097E20197F1F738
:1004000000C000008881882341F486EFBE010E946D
:1004100096008C0120E030E003C000E010E098017D
:10042000602F712F822F932FDF91CF911F910F910A
:1004300008952F923F924F925F926F927F928F9288
:100440009F92AF92BF92CF92DF92EF92FF920F9363
:100450001F93CF93DF93CDB7DEB760970FB6F894B5
:10046000DEBF0FBECDBFFC016A013C872B878081B8
:10047000918190931E0180931D01828193819093BD
:100480002601809325018481958190933201809388
:100490003101DB018D919C91119790932A018093FA
:1004A000290112968D919C9113979093240180932A
:1004B000230114968D919C9115979093220180931E
:1004C0002101868197819093200180931F0180856F
:1004D000918590931A018093190182859385909359
:1004E0001C0180931B018485958590932C0180933A
:1004F0002B01868597859093280180932701F80129
:1005000080818823C9F4C8010E944F01DC01CB011E
:1005100080932D0190932E01A0932F01B093300171
:10052000D8018C91882369F4C8010E94B4016D83BD
:100530007E838F83988709C01D821E821F82188642
:1005400004C01D821E821F82188640912D01509189
:100550002E0160912F0170913001809121019091C5
:1005600022012091230130912401A0E0B0E07A0122
:100570008B01E81AF90A0A0B1B0BC801B70140E00E
:1005800050E00E94E70F4B015C01072E7FE0B5941D
:10059000A794979487947A95D1F7702D80912B0129
:1005A00090912C012091270130912801AA2797FDD5
:1005B000A095BA2FBC01CD01052E5BE0660F771F19
:1005C000881F991F5A95D1F7502D442737FD409524
:1005D000542F280D391D4A1D5B1D0E943C10820EB0
:1005E000931EA41EB51ED501C4010896A11DB11D00
:1005F000689413F8B595A795979587951694D1F7B4
:10060000F60180839183A283B3830F2EF0E6EF2E51
:10061000F0EFFF2EFFEF0F2FFFEF1F2FF02D8E0CAF
:100620009F1CA01EB11E2090190130901A01C50117
:10063000B401A50194010E94E70FDC01CB018C01FC
:100640009D010F2EFCE03595279517950795FA9596
:10065000D1F7F02D09831A832B833C83E090250189
:10066000F0902601FA86E98600911D0110911E0185
:10067000609131017091320160901F0170902001F2
:100680004090290150902A01882777FD8095982F66
:10069000A50194010E94E70FDC01CB016C017D01F3
:1006A0000B2EBDE0F594E794D794C794BA95D1F793
:1006B000B02D9301442737FD4095542F69817A81ED
:1006C0008B819C810E94E70FDC01CB01CD01BB2710
:1006D00097FDB095AB2F8C0D9D1DAE1DBF1D0296D5
:1006E000A11DB11DB595A79597958795B595A7952A
:1006F0009795879580509048AF4FBF4F920140E04B
:1007000050E0BC01CD010E94E70FDC01CB012C01C0
:100710003D01032E3FE076946794579447943A95B1
:10072000D1F7302D6801EE24D7FCE094FE2C970120
:100730008601000F111F221F331F000F111F221FE0
:10074000331F0D871E872F87388BB101882777FDD0
:100750008095982F29813A814B815C810E94E70F17
:100760006B017C010B2EBBE0F594E794D794C79402
:10077000BA95D1F7B02D09851A85B801882777FD7C
:100780008095982FA50194010E94E70FDC01CB0111
:10079000072E7BE0B595A795979587957A95D1F724
:1007A000702DC80ED91EEA1EFB1E8D859E85AF8555
:1007B000B8898C0D9D1DAE1DBF1D0296A11DB11DDA
:1007C0006C017D01F594E794D794C794F594E79470
:1007D000D794C7946D817E818F8198856C197D092E
:1007E0008E099F0920E533EC40E050E00E94E70FBE
:1007F00099235CF0660F771F881F991FA301920150
:100800000E941A1069017A010AC0A30192010E9494
:100810001A1069017A01CC0CDD1CEE1CFF1C552757
:10082000F7FC5A954F2D3E2D2D2DCA01B9010E947E
:10083000E70F2EED3BE040E050E00E94E70F4C0157
:10084000BB2497FCB094AB2CC701B60123E433EE74
:100850004FEF5FEF0E94E70FDC01CB01CD01BB271B
:1008600097FDB095AB2F880D991DAA1DBB1D815317
:10087000914FAF4FBF4F689413F8B595A7959795D3
:1008800087951694D1F7C80ED91EEA1EFB1EAB85BC
:10089000BC85CD92DD92ED92FC92139760960FB6D7
:1008A000F894DEBF0FBECDBFDF91CF911F910F91A6
:1008B000FF90EF90DF90CF90BF90AF909F908F9080
:1008C0007F906F905F904F903F902F900895EF92A0
:1008D000FF920F931F93CF93DF938C017B01EA016B
:1008E0000E9493008881882309F06FC08AEABE01C4
:1008F0000E949600F801918380838881882309F003
:1009000064C08CEABE010E949600F8019383828342
:100910008881882309F059C08EEABE010E949600A2
:10092000F801958384838881882309F04EC080EB89
:10093000BE010E949600F7019183808388818823FD
:1009400009F043C082EBBE010E949600F701938339
:10095000828388818823C9F584EBBE010E949600BA
:10096000F701958384838881882379F586EBBE011E
:100970000E949600F801978386838881882329F551
:1009800088EBBE010E949600F801918780878881DC
:100990008823D9F48AEBBE010E949600F801938760
:1009A00082878881882389F48CEBBE010E9496009F
:1009B000F801958784878881882339F48EEBBE01FE
:1009C0000E949600F80197878687DF91CF911F914B
:1009D0000F91FF90EF9008950F931F930E94580D71
:1009E00020E836EE45EC57E40E94BD0C22E63BEDD4
:1009F00042E45EE30E94470EB62FA72F382F292F1F
:100A000060E070E080E89FE3422F0B2F1A2F232F26
:100A1000342FA90198010E94580C20E03AE24DE2DF
:100A200057E40E94E40D20E030E040E251E40E94EF
:100A3000E40D0E94930E0E94250D1F910F910895C1
:100A40000E94610783E390E00E94F80B08958BB346
:100A500080588BBB789488E70E94260C88EE93E040
:100A60000E945109F4CF88EE93E00E945109FBCF18
:100A7000CF93DF93C62FD42F60E00E94600B8823B2
:100A800071F08C2F0E94860B882349F08D2F0E94D5
:100A9000860B882321F00E94800B81E003C00E9416
:100AA000800B80E0DF91CF91089583E56DE248E00F
:100AB0000E94380583E561E34BE00E943805089504
:100AC00088E66EE347E80E94380588E66EE341E079
:100AD0000E94380588E666E14BE10E94380588E609
:100AE0006FE747E00E94380588E664E143E50E942D
:100AF000380588E668E142E30E94380588E66DE340
:100B000048E00E9438050E94550588E66DE348E2FA
:100B10000E94380508950F931F93CF93DF93182FEA
:100B2000062FEA0160E00E94600B882391F0802F7D
:100B30000E94860B882369F0812F61E00E94600B80
:100B4000882339F00E949A0B88830E94800B81E0F1
:100B500003C00E94800B80E0DF91CF911F910F9125
:100B600008950F931F93CF93DF93C82FD62F142F81
:100B700060E00E94600B882361F18D2F0E94860B3C
:100B8000882339F1812F0E94860B082F0E94800B49
:100B90000023C9F08C2F60E00E94600BC82F8823CF
:100BA00059F08D2F8F5F0E94860BC82F882321F06C
:100BB000812F0E94860BC82F0E94800B81E0CC23DE
:100BC00019F480E001C080E0DF91CF911F910F9177
:100BD00008950E94800B80E0F7CFFF920F931F9340
:100BE000CF93DF93C82FD62F8A0160E00E94600B5D
:100BF0008823B9F08D2F0E94860B882391F08C2FCB
:100C000061E00E94600B882361F00E949A0BF82E2D
:100C10000E94800B8C2F60E00E94600B8823F9F00B
:100C200004C00E94800B80E01DC08D2F8F5F0E944A
:100C3000860B8823A1F08C2F61E00E94600B882333
:100C400071F00E949A0BC82F0E94800B9F2D80E0AC
:100C50008C0F911DF8019183808381E003C00E9475
:100C6000800B80E0DF91CF911F910F91FF9008954D
:100C7000FF920F931F93CF93DF93182F062FEA0154
:100C800060E00E94600B8823B9F0802F0E94860BE1
:100C9000882391F0812F61E00E94600B882361F02E
:100CA0000E949A0BF82E0E94800B812F60E00E9418
:100CB000600B8823F1F004C00E94800B80E01CC010
:100CC000802F8F5F0E94860B882399F0812F61E02F
:100CD0000E94600B882369F00E949A0B182F0E94D3
:100CE000800B912F80E08F0D911D9983888381E087
:100CF00003C00E94800B80E0DF91CF911F910F9184
:100D0000FF9008956F927F928F929F92AF92BF92C1
:100D1000CF92DF92EF92FF920F931F93CF93DF93C7
:100D2000CDB7DEB72C970FB6F894DEBF0FBECDBFA0
:100D30006C015B014A01390188E66DE1AE014F5F4C
:100D40005F4F0E94ED0588E66FE1AE014D5F5F4F9A
:100D50000E94ED0588E661E2AE014B5F5F4F0E94A5
:100D6000ED0588E663E2AE01495F5F4F0E943806F9
:100D700088E665E2AE01475F5F4F0E94380688E66D
:100D800067E2AE01455F5F4F0E94380689819A8114
:100D90002091350130913601821B930BF60191832E
:100DA00080838B819C812091370130913801821B97
:100DB000930BF501918380838D819E812091390170
:100DC00030913A01821B930BF401918380838F81D0
:100DD00098852091330130913401821B930BF301EC
:100DE0009183808329853A8580913D0190913E01D0
:100DF000281B390BF801318320838B859C8520913A
:100E00003B0130913C01821B930BF701918380835E
:100E10002C960FB6F894DEBF0FBECDBFDF91CF91F9
:100E20001F910F91FF90EF90DF90CF90BF90AF9008
:100E30009F908F907F906F90089587B18F7387B93F
:100E400086B1866886B9369A3699FECF84B195B157
:100E50000895982F9450943008F487B9369A3699AB
:100E6000FECF44B155B12CED35E0429FC001439F08
:100E7000900D529F900D112481509E4F6FEF73E0A3
:100E80000E940610862F972F0895982F9450943023
:100E900008F487B9369A3699FECF44B155B124EF9C
:100EA00031E0429FC001439F900D529F900D11244D
:100EB00081509E4F6FEF73E00E940610862F972F90
:100EC0000895D79ADF98089521B3206321BB2FB5E9
:100ED00022602FBD2FB52E7F2FBD2EB520612EBDD8
:100EE0002EB5277F2EBD21E732E037BD26BD2FB5B9
:100EF00020682FBD2FB52F7B2FBD2EB523602EBDB3
:100F00002EB52B6F2EBD9BBD8ABD08959BBD8ABD9E
:100F100008952EB528602EBD2EB521602EBD9BBD37
:100F20008ABD0895E82FF0E0EE0FFF1FE252FF4F59
:100F300085919491089588231CF4809145018F70C8
:100F40000895209145012F732093450180FF7EC0B5
:100F500081FF36C0809143018F5F809343018823D6
:100F600041F4809144018F5F80934401206220937B
:100F700045018091450185FF23C0E0904301D0E009
:100F8000C0E004E411E08C2F0E949207FC018181F3
:100F900084FD0CC02381D8019C91291739F49281DA
:100FA000E91618F08061818301C0DF5FCF5FC23036
:100FB00051F7DD2329F4809145018F7D8093450110
:100FC00080E00E9492077C01FC01C181C03F10F4C7
:100FD000DFEE02C0DC2FDD2481E00E9492078C014D
:100FE000DC0111968C911197D81710F08D2F02C04B
:100FF000DD24D3948F3EE9F08D2D0E949207FC01F1
:10100000818180FD0CC0C160D7011196CC93D801BD
:1010100011968C911197816011968C931197818113
:101020008E7F818380914501807FD82AD0924501AF
:101030000DC0809145018F7380688093450183EDD9
:1010400090E08DBF9EBF78940C94D509C091450166
:10105000CF73C064C0934501CF708C2F0E9492075C
:10106000DC018FEF8093C0008093C100EC2FF0E093
:10107000EE0FFF1FE652FF4F859194910196FC0100
:10108000859194919093C4008093C3009C01295052
:1010900030403093C8002093C700B093C600A0939F
:1010A000C5002C91821B91098DBF9EBF0C94A30A91
:1010B0000895EF92FF920F931F93CF93DF93082F22
:1010C000C42FF894D82FDF7386FD04C080914501AA
:1010D000807C01C080E0D03270F5FF24F394803C26
:1010E00009F0FF24FF2049F5882339F5162F1F73D7
:1010F000EE24E3940E94E509002334F400914501B5
:101100000F70C07FC02B02C00C2F0F708D2F612F6E
:101110004C2F0E949609FF20C1F40E94DE09802F07
:101120000E94920720E1FC012183EE20A1F481E0DE
:101130000E94A10710C0FF24F394162F1F7383EDA4
:1011400090E08DBF9EBFEE24D5CF8D2F612F4C2F09
:101150000E949609FACFDF91CF911F910F91FF90D6
:10116000EF9008950F931F93CF93DF9380E80E9431
:101170009B07C82F0E949207DC018C918F3228F0C8
:1011800084EA60E040E00E945908EC2FF0E0EE0FA6
:10119000FF1FE652FF4F859194910196FC01059146
:1011A0001491E801A9970D5210408A91882329F0E3
:1011B00084EA60E040E00E945908C017D107A9F70F
:1011C000DF91CF911F910F91089590914501907CEF
:1011D000903409F59091C200992334F4836860E05B
:1011E00040E00E94590815C09091C0009095209150
:1011F000C100922371F099232CF047E04150990FE0
:10120000EAF701C047E04295407F846860E00E94B1
:1012100059080E94B20808954F9A0E94EC0980E490
:101220000E94E50883E00E94A10708950E949509A5
:101230000E942005C0E0D0E011E80F2EF3E2EF2E6F
:10124000FF24F02D8C2F0E949207BC01AE01440FA9
:10125000551FFA01E652FF4F25913491E22FF32FEB
:10126000859194918E7C8063FB018183F901319695
:10127000A591B491FA01EA52FF4F859194918C9314
:10128000FD013197908392971C93FB01E082219698
:10129000C230D105B9F60E94DE0981E00E94A107A3
:1012A000089517F4F8944F9A0E94EC090C94580989
:1012B000EC0180E00E94E5088FEFC030D80728F0ED
:1012C0008FE863E040E00E9459082097D9F080E859
:1012D0000E949B070E949207FC018091430190911C
:1012E0004401C80FD91FD383C283938180914401E5
:1012F000981729F48091450180628093450181818E
:101300008F7E818381E00E94A107089519BE95E038
:1013100093BF12BE91E098BF882331F008B600FE5B
:10132000FDCF98BF8150D1F708950895AF92BF9235
:10133000CF92DF92EF92FF920F931F93CF93DF93A1
:101340009FEF97BB00E1AA24BB246894A3F80F2E5B
:10135000F0E8FF2EF02DE82EE094D62ED094C42E87
:10136000C094E5011F2D812F809588BB82E00E94EB
:10137000860916952197B9F7E8BA80E20E94860996
:10138000D8BA80E20E948609C8BA80E20E94860923
:10139000015039F7DF91CF911F910F91FF90EF909E
:1013A000DF90CF90BF90AF90089589B7826089BFDA
:1013B00085B78F70806885BF8895FFCF8CE083BF2D
:1013C00080E28CBF08950C940C099FB7F89489B7FC
:1013D0008D7F89BF9FBF0895F093BC00E093BD004F
:1013E000D093BE00C093BF00FF91F093D200FF9155
:1013F000F093D300F0914501F7FD97C0CFB7EDB75B
:10140000D091C700ED1BE0E0FEB7D091C800FD0B06
:1014100008F4E068E093C200F0E0EF137DC0F091C3
:10142000C000D5EA1E12E1600D12E1602D12E160EC
:101430003D12E1600F921F922F923F921C2E4D128F
:10144000E2605D12E2606D12E2607D12E2604F9236
:101450005F926F927F928D12E4609D12E460AD12F4
:10146000E460BD12E4608F929F92AF92BF92CD1262
:10147000E860DD12E860ED12E860FD12E860CF92EE
:10148000DF92EF92FF920D13E0611D13E0612D13C7
:10149000E0613D13E0610F931F932F933F934D1332
:1014A000E0625D13E0626D13E0627D13E0624F93D2
:1014B0005F936F937F938D13E0649D13E064AD138E
:1014C000E064BD13E0648F939F93AF93BF93C0918B
:1014D000BF00CD13E068C091BE00CD13E068C0919D
:1014E000BD00CD13E068C091BC00CD13E068C09191
:1014F000BF00CF93C091BE00CF93C091BD00CF93EA
:10150000C091BC00CF93F12D4F99F068FF93C0912B
:10151000C100EC23E093C1001090C300FDB71F1A77
:10152000E091C500F091C6001082E9B7ED7FE9BFF8
:10153000F1EDFDBFF0E0FEBFE091BD00F091BC0019
:101540004F98112408951124E9B7FF914F98F7FDA2
:101550004F9AFF77E260FFBFE9BF0090C000F5EA55
:101560002F2EE22DD22DC22DFF91EF91DF91CF9141
:10157000B22DA22D922D822DBF91AF919F918F916F
:10158000722D622D522D422D7F916F915F914F915F
:10159000322D222D122D022D3F912F911F910F914F
:1015A000F22CE22CD22CC22CFF90EF90DF90CF9047
:1015B000B22CA22C922C822CBF90AF909F908F9037
:1015C000722C622C522C422C7F906F905F904F9027
:1015D000322C022C3F902F901F900F904F9B08951C
:1015E0004F98189511B8BC0180E090E00E94560D0C
:1015F0009B01AC0160E070E08AE794E40E94BD0CBE
:101600000E942A0D6031B8F070E060517040882768
:1016100077FD8095982F0E94580D20E030E040E043
:101620005EE30E94E40D462F572F682F792FCB01E0
:10163000BA010E942A0D60B9089584EA86BF089510
:1016400084E986BF06B604FE0EC080E000008F5F0E
:1016500006B604FE03C08A35C9F702C08A3528F0F1
:10166000000084E6089580E0089580E0089583B93D
:1016700084E886BF089584EC86BF089584E886BF19
:10168000089580E002C000008F5F06B607FEFBCF22
:101690008A35C8F3000084E6089583B1089521B126
:1016A00030E0287F307090E02817390711F480E08F
:1016B00008958AE0089511B888E080B981E008951E
:1016C00094EA96BF06B607FEFDCF91B1987F983099
:1016D00011F0903189F4880F680F63B984E886BFF0
:1016E00006B607FEFDCF91B1987F983139F081E0C1
:1016F000903429F080E0089580E0089581E0089515
:1017000084E986BF06B607FCFDCF089583B984E857
:1017100086BF06B607FEFDCF91B1987F81E0983273
:1017200009F080E0089584EC86BF06B607FEFDCF81
:1017300083B1089584E886BF06B607FEFDCF83B166
:1017400008951F920F920FB60F9211242F933F937B
:101750008F939F93EF93FF932BB13CB18091D60071
:101760008F5F8F719091D500891749F02871809310
:10177000D600E9EDF0E0E80FF11D308301C022E072
:101780009091D400822F892B8093D400FF91EF9108
:101790009F918F913F912F910F900FBE0F901F90AF
:1017A00018951F920F920FB60F9211248F939F934B
:1017B000EF93FF939091D8008091D700981771F024
:1017C0008091D7008F5F8F718093D700F894E9EFF5
:1017D000F0E0E80FF11D80818CB901C05598FF91B0
:1017E000EF919F918F910F900FBE0F901F901895C2
:1017F0001092D8001092D7001092D6001092D50007
:1018000099231CF422E02BB99F7790BD89B988E910
:101810008AB986E880BD08959091D6008091D50060
:10182000981789F08091D5008F5F8F718093D500D4
:10183000E9EDF0E0E80FF11D80819091D400109265
:10184000D40090E0089580E091E008952091D800C0
:101850002F5F2F719091D7002917E1F3E9EFF0E0A6
:10186000E20FF11D80832093D800559A0895CF93FD
:10187000DF93EC018881882331F021960E94260CA9
:1018800089918823D9F7DF91CF910895CF93DF9382
:10189000EC01FC018491882341F021960E94260CE2
:1018A000FE01219684918823C9F7DF91CF91089595
:1018B0005058BB27AA270ED04DC13ED130F043D19E
:1018C00020F031F49F3F11F41EF433C10EF4E09583
:1018D000E7FB29C1E92F4FD180F3BA1762077307DD
:1018E0008407950718F071F49EF567C10EF4E09532
:1018F0000B2EBA2FA02D0B01B90190010C01CA01CA
:10190000A0011124FF27591B99F0593F50F4503E74
:1019100068F11A16F040A22F232F342F4427585F66
:10192000F3CF469537952795A795F0405395C9F77E
:101930007EF41F16BA0B620B730B840BBAF0915036
:10194000A1F0FF0FBB1F661F771F881FC2F70EC0D5
:10195000BA0F621F731F841F48F4879577956795A8
:10196000B795F7959E3F08F0B3CF9395880F08F091
:101970009927EE0F9795879508950CD0EBC0E3D08B
:1019800040F0DAD030F021F45F3F19F0CCC05111B3
:1019900015C1CFC0F0D098F39923C9F35523B1F303
:1019A000951B550BBB27AA2762177307840738F0CE
:1019B0009F5F5F4F220F331F441FAA1FA9F333D02D
:1019C0000E2E3AF0E0E830D091505040E695001CE1
:1019D000CAF729D0FE2F27D0660F771F881FBB1F9D
:1019E000261737074807AB07B0E809F0BB0B802D77
:1019F000BF01FF2793585F4F2AF09E3F510568F0C3
:101A000092C0DCC05F3FECF3983EDCF3869577959F
:101A10006795B795F7959F5FC9F7880F911D9695C4
:101A2000879597F90895E1E0660F771F881FBB1F20
:101A3000621773078407BA0720F0621B730B840BCD
:101A4000BA0BEE1F88F7E095089504D06894B111A1
:101A5000B5C0089598D088F09F5790F0B92F992776
:101A6000B751A0F0D1F0660F771F881F991F1AF0A9
:101A7000BA95C9F712C0B13081F09FD0B1E0089596
:101A80009CC0672F782F8827B85F39F0B93FCCF317
:101A9000869577956795B395D9F73EF4909580959F
:101AA000709561957F4F8F4F9F4F0895E89409C0BF
:101AB00097FB3EF490958095709561957F4F8F4F81
:101AC0009F4F9923A9F0F92F96E9BB279395F69597
:101AD000879577956795B795F111F8CFFAF4BB0F15
:101AE00011F460FF1BC06F5F7F4F8F4F9F4F16C079
:101AF000882311F096E911C0772321F09EE8872F03
:101B0000762F05C0662371F096E8862F70E060E0BE
:101B10002AF09A95660F771F881FDAF7880F969537
:101B2000879597F9089597F99F6780E870E060E0DE
:101B300008959FEF80EC089500240A941616170666
:101B400018060906089500240A94121613061406AE
:101B500005060895092E0394000C11F4882352F011
:101B6000BB0F40F4BF2B11F460FF04C06F5F7F4FC9
:101B70008F4F9F4F089557FD9058440F551F59F0B0
:101B80005F3F71F04795880F97FB991F61F09F3F6A
:101B900079F087950895121613061406551FF2CF93
:101BA0004695F1DF08C0161617061806991FF1CFE3
:101BB00086957105610508940895E894BB2766270A
:101BC0007727CB0197F908950BD0C4CFB5DF28F064
:101BD000BADF18F0952309F0A6CFABCF1124EECFD2
:101BE000CADFA0F3959FD1F3950F50E0551F629F78
:101BF000F001729FBB27F00DB11D639FAA27F00D66
:101C0000B11DAA1F649F6627B00DA11D661F829F8C
:101C10002227B00DA11D621F739FB00DA11D621F71
:101C2000839FA00D611D221F749F3327A00D611D8E
:101C3000231F849F600D211D822F762F6A2F112470
:101C40009F5750408AF0E1F088234AF0EE0FFF1FC3
:101C5000BB1F661F771F881F91505040A9F79E3FFA
:101C6000510570F060CFAACF5F3FECF3983EDCF3F4
:101C7000869577956795B795F795E7959F5FC1F737
:101C8000FE2B880F911D9695879597F90895FA0177
:101C9000EE0FFF1F30962105310599F16115710591
:101CA00061F48038BFE39B0749F16894903881055F
:101CB00061F08038BFEF9B0741F0992342F5FF3F69
:101CC000E1053105210511F1E8940894E795D90162
:101CD000AA2329F4AB2FBE2FF85FD0F310C0FF5F0B
:101CE00070F4A695E0F7F73950F019F0FF3A38F4A0
:101CF0009F779F930CD00F9007FC905808953EF06B
:101D000018CF60E070E080E89FE308954FE79F7789
:101D10005F934F933F932F93E7D02F913F914F9134
:101D20005F9152DF25C02FDFE0F09E37D8F0963963
:101D3000B8F49E3848F4672F782F8827985FF9CF3A
:101D400086957795679593959539D0F3B62FB170B1
:101D50006B0F711D811D20F487957795679593957D
:101D600033C04DC02BCF19F40EF0DDCE26CFE1CE1F
:101D70000ADFC8F39638C0F707F80F92E8942BE310
:101D80003AEA48EB5FE72EDF0F920F920F924DB7C2
:101D90005EB70F92E9D0E4E5F0E03FD04F915F915C
:101DA000EF91FF91E595EE1FFF1F49F0FE57E068A8
:101DB0004427EE0F441FFA95E1F74195550B5BD090
:101DC0000F9007FE4FC00895882371F4772321F008
:101DD0009850872B762F07C0662311F499270DC0E2
:101DE0009051862B70E060E02AF09A95660F771F7D
:101DF000881FDAF7880F9695879597F908959F3F82
:101E000031F0915020F4879577956795B795880FB5
:101E1000911D9695879597F90895DF93CF931F931A
:101E20000F93FF92EF92DF927B018C01689405C0C3
:101E3000DA2EEF01D5DEFE01E894A59125913591CA
:101E400045915591AEF3EF0145DDFE019701A801E3
:101E5000DA9479F7DF90EF90FF900F911F91CF9177
:101E6000DF9108959B01AC0160E070E080E89FE3A2
:101E700084CD59CEC4CF87DEE8F39923D9F3940FEC
:101E8000511DBBF39150504094F059F0882332F02B
:101E9000660F771F881F91505040C1F79E3F510534
:101EA00044F7880F911D9695879597F908955F3FA0
:101EB000ACF0983E9CF0BB27869577956795B795D3
:101EC00008F4B1609395C1F7BB0F58F711F460FFA8
:101ED000E8CF6F5F7F4F8F4F9F4FE3CF6FCE0EF0F6
:101EE0008ECF27CE68941FCE4EDEC8F39923D1F350
:101EF000C6F3DF93CF931F930F93FF92C92FDD2774
:101F000088232AF02197660F771F881FDAF720E0D1
:101F100030E040E85FEB9FE3883920F0803E30F00E
:101F200021968F77C6DCECE7F0E003C0C2DCE9EA7B
:101F3000F0E073DF8B01BE01EC01FB2E6F577109DE
:101F40007595771F880B990BB3DD28E132E741E3E4
:101F50005FE346DEAF2D9801AE01FF900F911F9118
:101F6000CF91DF91B7DCF6CDFA01DC01AA0FBB1FE0
:101F70009B01AC01BF5728F4222733274427507810
:101F80001FC0B75188F4AB2F00244695379527958D
:101F9000011CA395D2F3002069F0220F331F441FC8
:101FA000B395DAF30DD084CC61307105A0E88A07CF
:101FB000B94630F49B01AC016627772788279078D3
:101FC000309621F020833183428353830895629FAA
:101FD000D001739FF001829FE00DF11D649FE00D21
:101FE000F11D929FF00D839FF00D749FF00D659F82
:101FF000F00D9927729FB00DE11DF91F639FB00D81
:10200000E11DF91FBD01CF0111240895AA1BBB1BBF
:1020100051E107C0AA1FBB1FA617B70710F0A61BE8
:10202000B70B881F991F5A95A9F780959095BC0109
:10203000CD010895A1E21A2EAA1BBB1BFD010DC004
:10204000AA1FBB1FEE1FFF1FA217B307E407F50768
:1020500020F0A21BB30BE40BF50B661F771F881F44
:10206000991F1A9469F760957095809590959B01DA
:10207000AC01BD01CF01089597FB092E05260ED0B6
:1020800057FD04D0D7DF0AD0001C38F45095409596
:10209000309521953F4F4F4F5F4F0895F6F790953C
:1020A0008095709561957F4F8F4F9F4F0895F8945D
:0220B000FFCF60
:00000001FF
