:100000000C943E030C945B030C945B030C945B0315
:100010000C945B030C945B030C945B030C945B03E8
:100020000C945B030C945B030C945B030C945B03D8
:100030000C945B030C945B030C945B030C945B03C8
:100040000C947D050C945B030C945B030C945B0394
:100050000C945B0350574D20576572743A20007022
:100060006F7328706167652F636F6C756D6E293AC9
:100070002000000000000000003E4551453E003ECB
:100080006B6F6B3E001C3E7C3E1C00183C7E3C1897
:100090000030367F363000185C7E5C1800000000AF
:1000A0000000000000000000000000000000000050
:1000B000000000000030484A360E00062979290663
:1000C00000000000000000607E0A353F002A1C3658
:1000D0001C2A00007F3E1C0800081C3E7F00001404
:1000E000367F361400005F005F000006097F017F45
:1000F00000224D5559220060606060000014B6FF78
:10010000B6140004067F06040010307F301000088B
:10011000083E1C0800081C3E08080078404040408B
:1001200000083E083E0800303C3F3C3000030F3FD3
:100130000F030000000000000000065F060000073B
:100140000300070300247E247E2400242B6A12006F
:10015000006313086463003649562050000007030B
:10016000000000003E4100000000413E0000000889
:100170003E1C3E080008083E08080000E060000041
:10018000000808080808000060600000002010084F
:100190000402003E5149453E0000427F400000629B
:1001A00051494946002249494936001814127F1026
:1001B000002F49494931003C4A4949300001710941
:1001C000050300364949493600064949291E000001
:1001D0006C6C00000000EC6C000000081422410070
:1001E0000024242424240000412214080002015980
:1001F0000906003E415D551E007E1111117E007FF3
:1002000049494936003E41414122007F4141413E3A
:10021000007F49494941007F09090901003E4149E0
:10022000497A007F0808087F0000417F41000030C4
:100230004040403F007F08142241007F4040404042
:10024000007F0204027F007F0204087F003E4141DC
:10025000413E007F09090906003E4151215E007FB1
:10026000090919660026494949320001017F010147
:10027000003F4040403F001F2040201F003F403CC7
:10028000403F0063140814630007087008070071FA
:100290004945430000007F4141000002040810204E
:1002A000000041417F000004020102048080808040
:1002B0008080000003070000002054545478007F21
:1002C0004444443800384444442800384444447F7B
:1002D00000385454540800087E0909000018A4A4EA
:1002E000A47C007F040478000000007D40000040F2
:1002F00080847D00007F102844000000007F4000C3
:10030000007C04180478007C04047800003844441D
:10031000443800FC444444380038444444FC00441D
:100320007844040800085454542000043E44240037
:10033000003C40207C00001C2040201C003C603021
:10034000603C006C10106C00009CA0603C000064DD
:1003500054544C0000083E4141000000007700006A
:10036000000041413E08000201020100003C26233A
:10037000263C001EA1E12112003D40207D000038F6
:10038000545455090020555555780020555455783A
:10039000002055555478002057555778001CA2E28C
:1003A0002214003855555508003855545508003862
:1003B000555554080000017C41000000017D4100BA
:1003C0000000017C400000702924297000782F254E
:1003D0002F78007C545455450034547C5458007E8A
:1003E000097F4949003845453900003845443900FE
:1003F000003945443800003C41217D00003D41204A
:100400007C00009CA1603D00003D42423D00003C5C
:1004100041403D0080706858380400483E494962B8
:10042000007E615D433F0022140814220040887E54
:1004300009020020545555780000007D4100003825
:1004400044453900003C40217D00007A090A7100D2
:10045000007A1122790000085555555E004E515121
:100460004E000030484D40203E415D4B553E040457
:100470000404041C0017084C6A50001708342A783A
:100480000000307D3000000814000814001408003B
:100490001408441144114411AA55AA55AA55BBEE9B
:1004A000BBEEBBEE000000FF0000080808FF0000E4
:1004B00000702825297000702925297000702925D1
:1004C00028703E415D55413E0AFB00FF000000FFE1
:1004D00000FF00000AFA02FE00000A0B080F0000ED
:1004E00000182466240000292A7C2A29080808F814
:1004F00000000000000F08080808080F0808080896
:1005000008F80808000000FF08080808080808089C
:10051000080808FF080800205655567900702A255B
:100520002A71000F080B0A0A00FE02FA0A0A0A0BD7
:10053000080B0A0A0AFA02FA0A0A00FF00FB0A0A72
:100540000A0A0A0A0A0A0AFB00FB0A0A005D2222BA
:10055000225D00225559300000087F49413E007C51
:1005600055555544007C55545544007C55555444CC
:100570000000000700000000447D45000000457DAC
:1005800045000000457C45000808080F00000000F9
:1005900000F80808FFFFFFFFFFFFF0F0F0F0F0F0B9
:1005A0000000007700000000457D44000F0F0F0F92
:1005B0000F0F003C42433D0000FE4A4A3400003C1D
:1005C00043433D00003D43423C000032494A310074
:1005D000003A4546390000FC20201C0000FEAA28F5
:1005E000100000FFA5241800003C40413D00003CE5
:1005F00041413D00003D41403C00009CA0613D0068
:100600000004087109040000020202000000070350
:1006100000000000080808000000242E2400002428
:100620002424242405170A342A780006097F017F30
:1006300000224D5559220008082A08080000081811
:100640001800000609090600000008000800000064
:100650000800000000020F00000000090F05000064
:1006600000090D0A0000003C3C3C3C00000000007A
:1006700000000006060800FF0000720011241FBEE3
:10068000CFE5D8E0DEBFCDBF11E0A8E6B1E001C004
:100690001D92AD36B107E1F711E0A0E6B0E0E0EA67
:1006A000FDE102C005900D92A836B107D9F70E946E
:1006B0008C050C94CE0E0C94000090916801980F5C
:1006C000937090936801892F0895AC01809169011E
:1006D0009A01280F311D809168010CC0141615066F
:1006E0002CF48F5F83702458304004C08150837095
:1006F0002C573F4F2438310588F7809368012093A9
:100700006901822F0895C498DD9A8FB9779BFECF37
:10071000C49A81E090E00E9465030895C498DD9832
:100720008FB9779BFECFC49A08950F931F93082F1C
:10073000162F8F70806B0E948E03812F82958F7091
:1007400080610E948E03812F8F700E948E03109310
:100750006901009368011F910F9108951F931091F3
:100760006801180F137010936801CB010E94650394
:10077000682F812F0E9495031F910895BF92CF92F9
:10078000DF92EF92FF920F931F93CF93DF93082F87
:10079000E92FB62EE42EF22E24E0F22210E0842F70
:1007A00090E0CC24DD24C81AD90A18C0FE01849137
:1007B000F11080950E94830321969E01201B2E1527
:1007C00020F480916901843888F31F5F1B1521F0A4
:1007D00081E0B6010E94AE030C2FED2F1B1548F4EB
:1007E00080916801843028F4802F9E2FFC01EF0156
:1007F000E4CFDF91CF911F910F91FF90EF90DF90A9
:10080000CF90BF9008952F923F924F925F926F9238
:100810007F928F929F92AF92BF92CF92DF92EF9290
:10082000FF920F931F93DF93CF93CDB7DEB7289737
:100830000FB6F894DEBF0FBECDBFF82ED92E122F03
:100840002E2D24702A83842F8770898381111F5F46
:1008500050916801212F30E084E090E0851B9109E0
:100860008217930714F414E0151B842F8695869540
:1008700086950E949503802E99248F2D9D2D5C01D5
:1008800088279927881999091501280E391E188675
:100890001F82612E772428E0422E512CE9814E1AC6
:1008A00051088D839E834CC0F981FF2339F08B81E1
:1008B0009C818615970511F420E007C0F70124916B
:1008C000098001C0220F0A94EAF78F819885892B4D
:1008D00069F09981992351F0F601849190E0042CFC
:1008E00002C0959587950A94E2F7282BFA81FF2399
:1008F00019F0822F809501C0822F0E9483030F5F21
:100900001F4F0894C11CD11C0894E11CF11C081550
:10091000190528F480916901843808F4C5CF8F81C6
:100920009885019698878F838615970529F081E031
:100930006D817E810E94AE03A80CB91C280C391C65
:10094000EF81F885E615F70540F46101750100E0D7
:1009500010E03196FC83EB83DACF28960FB6F8943B
:10096000DEBF0FBECDBFCF91DF911F910F91FF90E2
:10097000EF90DF90CF90BF90AF909F908F907F903F
:100980006F905F904F903F902F900895DF92EF927D
:10099000FF920F931F93CF93DF93382F42FD02C036
:1009A000DD2402C0DD24DA9424E080916801281B54
:1009B000E32E231708F4E22E24E880916901281B16
:1009C000062F261708F4022FFF24802F90E0CC2753
:1009D000DD27C81BD90B0BC08D2D0E9483031F5F21
:1009E0001017D0F381E0BE010E94AE03F394FE1411
:1009F00010F410E0F5CF8E2D819560E070E00E943C
:100A0000AE03DF91CF911F910F91FF90EF90DF9098
:100A10000895EF92FF920F931F93182FF62EE42E56
:100A2000822F602F0E949503812F6F2D4E2D0E94E3
:100A3000C6041F910F91FF90EF90089587B3806ACD
:100A400087BB8AB380638ABBBC9A8CE58DB981E091
:100A50008EB983EE8FB908950F931F93D59AD49AC8
:100A6000BC9A0E941E05DC9800ED17E0C8010197B2
:100A7000F1F7DC9A80E40E948E03C8010197F1F738
:100A800081EA0E948E0380EC0E948E03C8010197C8
:100A9000F1F786EA0E948E0382EA0E948E038FE2BB
:100AA0000E948E0380E00E948E0383E20E948E03E8
:100AB00081E80E948E038FE10E948E038CEA0E94DF
:100AC0008E0380E00E948E0310E0812F60E00E9480
:100AD000950300E080E00E9483030F5F0438D1F7A4
:100AE0001F5F143091F780E060E00E9495038FEA69
:100AF0000E948E031F910F9108951F920F920FB6BF
:100B00000F9211240F900FBE0F901F9018950E9406
:100B10002C05D79ADF9A08950F931F93CF93DF93F5
:100B2000F8940E94870560E070E080E791E40E94FD
:100B30002B0982E796E060E04FE550E00E94D7087D
:100B400081E060E00E94950382E796E060E00E9409
:100B5000E30582E796E060E044E550E00E94D708B4
:100B60008FE00E942A081FE001E0C8ECD0E00023DB
:100B7000A1F01F5F612F772767FD7095872F972F53
:100B80000E943F0B0E942B0988EE93E0FE013197F3
:100B9000F1F70197D9F71E3151F71150612F7727DF
:100BA00067FD7095872F972F0E943F0B0E942B099E
:100BB00088EE93E0FE013197F1F70197D9F71131F3
:100BC00061F701E0D6CF90936C0180936B01609345
:100BD0006A0108959C012B5F3F4FF90184912550D4
:100BE0003040861760F02C5F3F4FF901849124500C
:100BF0003040681720F070E0681B710902C06FEF89
:100C00007FEF2A5F3F4FF9014591549126503040C4
:100C100077FF03C040E050E04BC0962F41155105CF
:100C2000D1F4F9013896459154912D5F3F4FF90168
:100C3000849121503040F901249181508695869508
:100C400086958F5F289F202D1124269F90011124C7
:100C5000420F531F2DC0662319F460E070E010C0EE
:100C600060E070E0FA01E90FF11DCF0106C0FA0162
:100C70004F5F5F4FE4916E0F711D48175907B9F729
:100C8000F9013896459154912D5F3F4FF9018491B8
:100C900081508695869586958F5F90E09C01269F72
:100CA000C001279F900D369F900D1124480F591FAA
:100CB000CA0108952F923F924F925F926F927F9256
:100CC0008F929F92AF92BF92CF92DF92EF92FF925C
:100CD0000F931F93DF93CF93CDB7DEB72B970FB64C
:100CE000F894DEBF0FBECDBF5C01E42E2224239416
:100CF0002622062F10E0C80196958795282F21708F
:100D00002C8364FD02C0332402C080E8382E02FD2B
:100D100002C0442402C044244A94B5016A5F7F4F54
:100D2000FB01259134912115310521F145E050E079
:100D3000A40EB51EF50184914BEF5FEFA40EB51E16
:100D40008E1588F084E090E0A80EB91EF50144915C
:100D50008CEF9FEFA80EB91EE41628F08E2D90E0C0
:100D6000841B910902C08FEF9FEF280F391FF901F3
:100D7000F4900AC022E030E0A20EB31EF501F49018
:100D80002EEF3FEFA20EB31E43E050E0A40EB51EBF
:100D9000F501D4902DEF3FEFA20EB31EDA94D69456
:100DA000D694D694D394FB01859194915524892BA4
:100DB00011F055245394C5016E2D0E94EA059B83C2
:100DC0008A83C52CCF0C0C8001C0CC0C0A94EAF7A6
:100DD0008D2C9924BD2C022C01C0BB0C0A94EAF77F
:100DE00003FF13C08091690190E08C0D911D85383F
:100DF00091055CF0809168018B0D60E00E94950385
:100E0000F0E2EF1611F4CC248EC08F2D90E0889E76
:100E10009001899E300D989E300D11243E832D83C4
:100E2000342D33253983A32CA694A3261B861A863A
:100E3000EB2CFF240894E108F1086C2C772444275C
:100E4000552746195709598748878A849B84022C5D
:100E500002C0959487940A94E2F700E05A85517095
:100E60005F832DC08A819B81E80FF91F8491AA8539
:100E7000BB85AE15BF0511F0182F02C0182F13291E
:100E8000222089F0BF81BB2311F012951F70812FA2
:100E900013FD02C010E001C010EC82FD106381FD63
:100EA0001C6080FD136041101095812F0E94830308
:100EB000EC81EE2319F0812F0E9483030D0D802F0A
:100EC000880DE82FFF27E7FDF0952D813E81E21781
:100ED000F30744F25520A9F04A855B854E155F055E
:100EE00011F0142D05C0222011F4198101C01A2D12
:100EF000812F0E9483035C81552319F0812F0E946A
:100F0000830381E0688579850E94AE038A859B858D
:100F100001969B878A878B1508F497CF8B2D819537
:100F2000B3010E94AE038C2D2B960FB6F894DEBF52
:100F30000FBECDBFCF91DF911F910F91FF90EF902A
:100F4000DF90CF90BF90AF909F908F907F906F90E9
:100F50005F904F903F902F900895482F80916B01A4
:100F600090916C0160916A010E945A060895DF9287
:100F7000EF92FF920F931F937C01162FD42E822F96
:100F8000602F0E949503C701612F4D2D0E945A06C4
:100F90001F910F91FF90EF90DF9008950F93382FDE
:100FA000262F042F80916B0190916C0160916A0152
:100FB000432F0E94B7070F910895BF92CF92DF92FF
:100FC000EF92FF920F931F93CF93DF937C01B62E86
:100FD000D42EC22E242F352FC9018C01C0E0D0E0C1
:100FE00009C0F80141918F01C7016B2D0E945A067B
:100FF000C80FD11D802F8D198C1598F3CE01DF916C
:10100000CF911F910F91FF90EF90DF90CF90BF9005
:101010000895DF92EF92FF920F931F93CF93DF9388
:101020007C01D62E8A01C0E0D0E006C0C7016D2D3C
:101030000E945A06C80FD11DF80141918F01442327
:10104000A9F7CE01DF91CF911F910F91FF90EF9003
:10105000DF9008950F931F93DF93CF93CDB7DEB743
:101060002A970FB6F894DEBF0FBECDBF992787FD34
:1010700090958E010F5F1F4FB8014AE050E00E942B
:101080001D0E80916B0190916C0160916A01A80125
:101090000E9409082A960FB6F894DEBF0FBECDBF96
:1010A000CF91DF911F910F9108950F931F93DF93BD
:1010B000CF93CDB7DEB72A970FB6F894DEBF0FBE39
:1010C000CDBF8E010F5F1F4FB8014AE050E00E9474
:1010D000720E80916B0190916C0160916A01A80180
:1010E0000E9409082A960FB6F894DEBF0FBECDBF46
:1010F000CF91DF911F910F9108950F931F93DF936D
:10110000CF93CDB7DEB72A970FB6F894DEBF0FBEE8
:10111000CDBF8E010F5F1F4FB8014AE050E00E9423
:101120001D0E80916B0190916C0160916A01A80184
:101130000E9409082A960FB6F894DEBF0FBECDBFF5
:10114000CF91DF911F910F9108950F931F93DF931C
:10115000CF93CDB7DEB72A970FB6F894DEBF0FBE98
:10116000CDBF8E010F5F1F4FA8012AE030E00E9423
:101170003E0E80916B0190916C0160916A01A80113
:101180000E9409082A960FB6F894DEBF0FBECDBFA5
:10119000CF91DF911F910F910895AC0180916B0168
:1011A00090916C0160916A010E9409080895DF9294
:1011B000EF92FF920F931F93CF93DF937C01D62E74
:1011C0008A01C0E0D0E006C0C7016D2D0E945A061A
:1011D000C80FD11DF8010F5F1F4F44914423A1F7A1
:1011E000CE01DF91CF911F910F91FF90EF90DF9093
:1011F0000895AC0180916B0190916C0160916A013E
:101200000E94D7080895CF92DF92EF92FF920F933A
:101210001F937C01162F6A01822F602F0E94950375
:10122000C701612FA6010E94D7081F910F91FF905F
:10123000EF90DF90CF9008950F93FC01262F042F9D
:1012400080916B0190916C0160916A01AF010E94E5
:1012500003090F910895BB9A23B7206423BF23B7D6
:10126000206223BF23B7246023BF0E9439096CBFCB
:101270000895EF92FF920F931F937B018C0120E062
:1012800030E040E05FE40E940F0B88238CF0C8013F
:10129000B70120E030E040E05FE40E94B10A0E9424
:1012A0009D0B9B01AC01205030404040504806C08F
:1012B000C801B7010E949D0B9B01AC01B901CA0195
:1012C0001F910F91FF90EF900895A0E0B0E0EBE642
:1012D000F9E00C94E60DDC012B01FA019C919230AF
:1012E00008F439C1EB018881823008F433C19430AD
:1012F00069F4843009F02FC111969C91119789816E
:10130000981709F428C1A0E6B0E025C1843009F49B
:1013100021C18230A9F4923009F01DC19A01AD01BA
:1013200088E0EA010990AE01E90109929E0181502D
:10133000C1F7E201898111969C918923818308C1BB
:10134000923009F407C112962D903C901397EB014F
:101350008A819B811496AD90BD90CD90DC901797BB
:10136000EC80FD800E811F819101281B390BB90192
:1013700037FF04C066277727621B730B6032710545
:101380000CF061C0121613066CF537014801062EE9
:1013900004C096948794779467940A94D2F721E0D6
:1013A00030E040E050E004C0220F331F441F551FBF
:1013B0006A95D2F721503040404050402E213F21C5
:1013C00040235123211531054105510521F021E02C
:1013D00030E040E050E079018A01E628F72808294A
:1013E00019293CC0232BD1F1260E371E35014601A9
:1013F000062E04C096948794779467940A94D2F743
:1014000021E030E040E050E004C0220F331F441FD1
:10141000551F6A95D2F721503040404050402A2154
:101420003B214C215D21211531054105510521F05C
:1014300021E030E040E050E059016A01A628B728D9
:10144000C828D9280BC0821593052CF01C01AA24AA
:10145000BB24650103C0EE24FF24870111969C91F3
:10146000D20111968C91981709F445C0992339F04F
:10147000A80197012A193B094C095D0906C0A6017C
:1014800095012E193F09400B510B57FD08C01182E1
:101490003382228224833583468357831DC081E0B3
:1014A00081833382228288279927DC01821B930B58
:1014B000A40BB50B84839583A683B7830DC0220F3D
:1014C000331F441F551F24833583468357838281EE
:1014D000938101979383828324813581468157814B
:1014E000DA01C9010197A109B1098F5F9F4FAF4F81
:1014F000BF4328F30BC0918333822282EA0CFB1C8A
:101500000C1D1D1DE482F5820683178383E0808312
:10151000248135814681578157FF1AC0C901AA2706
:1015200097FDA095BA2F81709070A070B0705695FD
:10153000479537952795822B932BA42BB52B848326
:101540009583A683B7838281938101969383828357
:10155000DF0101C0D201CD01CDB7DEB7E2E10C94CD
:10156000020EA0E2B0E0E7EBFAE00C94F20D698322
:101570007A838B839C832D833E834F835887E9E056
:10158000EE2EF12CEC0EFD1ECE010196B7010E944D
:10159000150D8E010F5E1F4FCE010596B8010E94FA
:1015A000150D8A8991E089278A8BC701B801AE01A0
:1015B000475E5F4F0E9465090E94400CA096E6E0DE
:1015C0000C940E0EA0E2B0E0E8EEFAE00C94F20DFE
:1015D00069837A838B839C832D833E834F835887D3
:1015E000F9E0EF2EF12CEC0EFD1ECE010196B701B5
:1015F0000E94150D8E010F5E1F4FCE010596B8019A
:101600000E94150DC701B801AE01475E5F4F0E94F1
:1016100065090E94400CA096E6E00C940E0EA8E12D
:10162000B0E0E5E1FBE00C94F20D69837A838B83F3
:101630009C832D833E834F83588789E0E82EF12CCD
:10164000EC0EFD1ECE010196B7010E94150D8E0114
:101650000F5E1F4FCE010596B8010E94150D8985BA
:10166000823040F08989823028F0C701B8010E9499
:101670008D0D01C08FEF6896E6E00C940E0EA8E089
:10168000B0E0E5E4FBE00C94EF0D9B01AC0183E0DE
:101690008983DA01C9018827B7FD83959927AA278D
:1016A000BB27B82E211531054105510519F482E0FB
:1016B00089833AC08823A9F0203080E0380780E091
:1016C000480780E8580729F460E070E080E09FEC6C
:1016D00030C0EE24FF248701E21AF30A040B150B35
:1016E00002C079018A018EE1C82ED12CDC82CB8226
:1016F000ED82FE820F831887C801B7010E94F10BAB
:1017000001971816190684F4082E04C0EE0CFF1C6D
:10171000001F111F0A94D2F7ED82FE820F831887F3
:10172000C81AD90ADC82CB82BA82CE0101960E9405
:10173000400C2896E9E00C940B0EACE0B0E0E3EA34
:10174000FBE00C94F60D69837A838B839C83CE0136
:101750000196BE016B5F7F4F0E94150D8D81823017
:1017600061F1823050F1843021F48E81882351F16F
:101770002EC02F81388537FD20C06E812F31310575
:101780001CF06623F9F023C08EE190E0821B930BDE
:1017900029853A854B855C8504C0569547953795D4
:1017A00027958A95D2F76623B1F0509540953095EC
:1017B00021953F4F4F4F5F4F0EC020E030E040E09B
:1017C00050E009C02FEF3FEF4FEF5FE704C020E08C
:1017D00030E040E050E8B901CA012C96E2E00C94F8
:1017E000120EEF92FF920F931F937B018C0180E00A
:1017F000E81680E0F80681E0080780E0180788F422
:101800008FEFE816F1040105110531F028F088E0AA
:1018100090E0A0E0B0E017C080E090E0A0E0B0E091
:1018200012C080E0E81680E0F80680E0080781E05A
:10183000180728F088E190E0A0E0B0E004C080E163
:1018400090E0A0E0B0E020E230E040E050E0281B73
:10185000390B4A0B5B0B04C016950795F794E79478
:101860008A95D2F7F701E859FF4F8081281B31098B
:1018700041095109C9011F910F91FF90EF900895FF
:10188000DF92EF92FF920F931F93FC01E480F580AB
:1018900006811781D1808081823048F480E090E019
:1018A000A0E1B0E0E82AF92A0A2B1B2BA5C084305E
:1018B00009F49FC0823021F4EE24FF24870105C083
:1018C000E114F1040105110519F4E0E0F0E096C01F
:1018D000628173819FEF623879070CF05BC022E868
:1018E0003FEF261B370B2A3131052CF020E030E08A
:1018F00040E050E02AC0B801A701022E04C076954E
:101900006795579547950A94D2F781E090E0A0E05B
:10191000B0E004C0880F991FAA1FBB1F2A95D2F7F9
:101920000197A109B1098E219F21A023B12300971E
:10193000A105B10521F081E090E0A0E0B0E09A01BE
:10194000AB01282B392B4A2B5B2BDA01C9018F778E
:101950009070A070B07080349105A105B10539F484
:1019600027FF09C0205C3F4F4F4F5F4F04C0215CF1
:101970003F4F4F4F5F4FE0E0F0E02030A0E03A07EC
:10198000A0E04A07A0E45A0710F0E1E0F0E0790196
:101990008A0127C06038710564F5FB01E158FF4FEB
:1019A000D801C7018F779070A070B0708034910516
:1019B000A105B10539F4E7FE0DC080E490E0A0E098
:1019C000B0E004C08FE390E0A0E0B0E0E80EF91EC4
:1019D0000A1F1B1F17FF05C016950795F794E7947C
:1019E000319687E016950795F794E7948A95D1F795
:1019F00005C0EE24FF248701EFEFF0E06E2F67951E
:101A000066276795902F9F77D794DD24D7948E2FE4
:101A10008695492F462B582F5D29B701CA011F9182
:101A20000F91FF90EF90DF900895FC01DB01408162
:101A300051812281622F6F7770E0221F2227221F9F
:101A40009381892F880F822B282F30E0991F9927A7
:101A5000991F11969C93119721153105A9F54115F0
:101A600051056105710511F482E037C082E89FEFEE
:101A700013969C938E9312979A01AB0167E0220F05
:101A8000331F441F551F6A95D1F783E08C930DC017
:101A9000220F331F441F551F12968D919C9113974F
:101AA000019713969C938E931297203080E038070D
:101AB00080E0480780E4580758F314962D933D932F
:101AC0004D935C93179708952F3F310579F4411595
:101AD00051056105710519F484E08C93089564FF44
:101AE00003C081E08C9312C01C9210C02F5730406D
:101AF00013963C932E93129783E08C9387E0440FC8
:101B0000551F661F771F8A95D1F7706414964D9301
:101B10005D936D937C93179708951F93DC01FB01F0
:101B20009C91923008F447C08081823008F443C011
:101B3000943051F411961C91843099F58181682F6D
:101B400070E0611B71093FC0843021F0923031F4A4
:101B50008230B9F18181882389F12DC011961C91C1
:101B600011978230F1F081811817D9F412962D91D6
:101B70003C911397828193818217930794F02817E1
:101B80003907BCF014968D919D910D90BC91A02DBC
:101B90002481358146815781281739074A075B0719
:101BA00018F4112341F00AC082179307A407B50760
:101BB00040F4112319F061E070E005C06FEF7FEF92
:101BC00002C060E070E0CB011F9108952F923F9218
:101BD0004F925F926F927F928F929F92AF92BF923D
:101BE000CF92DF92EF92FF920F931F93CF93DF93E9
:101BF000CDB7DEB7CA1BDB0B0FB6F894DEBF0FBE46
:101C0000CDBF09942A88398848885F846E847D8492
:101C10008C849B84AA84B984C884DF80EE80FD8094
:101C20000C811B81AA81B981CE0FD11D0FB6F8940A
:101C3000DEBF0FBECDBFED010895FB019F01E8940B
:101C40004230C4F04532B4F44A3029F497FB1EF414
:101C5000909581959F4F642F77270E94980E805D05
:101C60008A330CF0895D8193CB010097A1F716F4BC
:101C70005DE251931082C9010C94880EFA01CF9352
:101C8000FF93EF93223044F1253234F5C22FE894CC
:101C9000CA3049F497FB3EF4909580957095619514
:101CA0007F4F8F4F9F4F2C2F332744275527FF936C
:101CB000EF930E94AC0EEF91FF91605D6A330CF0E0
:101CC000695D6193B901CA016050704080409040E5
:101CD00051F716F4CDE2C19310828F919F91CF916D
:101CE0000C94880EFB019F01423074F0453264F47D
:101CF000642F77270E94980E805D8A330CF0895DEF
:101D00008193CB010097A1F71082C9010C94880E32
:101D1000DC01FC01672F71917723E1F7329704C052
:101D20007C916D9370836291AE17BF07C8F30895DD
:101D3000AA1BBB1B51E107C0AA1FBB1FA617B707F1
:101D400010F0A61BB70B881F991F5A95A9F780950D
:101D50009095BC01CD010895A1E21A2EAA1BBB1BD0
:101D6000FD010DC0AA1FBB1FEE1FFF1FA217B30767
:101D7000E407F50720F0A21BB30BE40BF50B661F7D
:101D8000771F881F991F1A9469F760957095809541
:101D900090959B01AC01BD01CF010895F894FFCF50
:101DA0000000000000000000000102020303030322
:101DB00004040404040404040505050505050505DB
:101DC00005050505050505050606060606060606BB
:101DD00006060606060606060606060606060606A3
:101DE000060606060606060607070707070707078B
:101DF0000707070707070707070707070707070773
:101E00000707070707070707070707070707070762
:101E10000707070707070707070707070707070752
:101E2000070707070707070708080808080808083A
:101E30000808080808080808080808080808080822
:101E40000808080808080808080808080808080812
:101E50000808080808080808080808080808080802
:101E600008080808080808080808080808080808F2
:101E700008080808080808080808080808080808E2
:101E800008080808080808080808080808080808D2
:101E900008080808080808080808080808080808C2
:081EA0000808080808080808FA
:00000001FF
