:1000000012C02CC02BC02AC029C028C027C026C0BF
:1000100025C024C023C022C021C020C0DAC01EC019
:100020001DC01CC01BC011241FBECFE5D4E0DEBF25
:10003000CDBF10E0A0E6B0E0E4E0F5E002C005903E
:100040000D92A238B107D9F710E0A2E8B0E001C0E4
:100050001D92A738B107E1F7F6D052C2D1CF87B9C8
:1000600087B18F7387B986E886B9369A359A339AFD
:100070000895929A92B39F7092BB22B3982F907F6B
:10008000922B92BB939A21E0922F9A95F1F7939835
:1000900092B39F7092BB92B38295807F982B92BB54
:1000A000939A2A95F1F7939883E38A95F1F7089547
:1000B000929892B39F7092BB22B3982F907F922B0D
:1000C00092BB939A21E0922F9A95F1F7939892B36D
:1000D0009F7092BB92B38295807F982B92BB939A2C
:1000E0002A95F1F7939883E38A95F1F70895939A07
:1000F00081E08A95F1F79398089581E0D9DF80E057
:1001000092E10197F1F7089581B38C6F81BB80E094
:100110009CE60197F1F782B38F7082BB82B3806354
:1001200082BB9298939A91E0892F8A95F1F79398E0
:10013000E0E0F2E13197F1F7939A892F8A95F1F790
:10014000939829E933E0F9013197F1F7939A892FD0
:100150008A95F1F79398F9013197F1F782B38F708F
:1001600082BB959A939A9A95F1F79398C901019752
:10017000F1F788E29DDF8CE09BDF86E099DFBDDF51
:10018000089582E095DF80E092E10197F1F708950C
:10019000623061F0633018F4613071F405C063308F
:1001A00039F0643049F406C0805805C0805403C05B
:1001B000805701C080537CDF0895CF93DF93EC011B
:1001C00002C057DF219688818823D9F7DF91CF912C
:1001D00008951F920F920FB60F9211242F933F9301
:1001E0004F935F936F937F938F939F93AF93BF933F
:1001F000EF93FF9364B175B180E090E024EF31E0BC
:1002000040E050E0F9D02FEF33E040E050E027D15C
:10021000309386002093850084B195B1909384003B
:1002200080938300FF91EF91BF91AF919F918F9148
:100230007F916F915F914F913F912F910F900FBEE2
:100240000F901F901895CF92DF92EF92FF920F932D
:100250001F93DF93CF93CDB7DEB72A970FB6F894ED
:10026000DEBF0FBECDBFF894C2D04EDF8FE190E06D
:100270009BD080E0F4DE20E0FF24EE2488E7D82E37
:10028000CC24C3948E010F5F1F4F8091820088237E
:1002900059F080E0B09B16C09D2D9A95F1F78150E2
:1002A000C9F7109282000EC080E0B0990BC09D2D5E
:1002B0009A95F1F78150C9F7C0928200EE2009F4B7
:1002C00081E0E82E81E0E81621F4C29A222349F465
:1002D00006C0C298F894FF2009F064C05BC00DDF2F
:1002E000FF244FDF80E690E068DF89E061E050DFC7
:1002F000809185009091860064E670E09CD0CB01EF
:10030000B8014AE050E0CDD0C80157DF8AE690E05E
:1003100054DF809185009091860064E670E08BD078
:10032000B8014AE050E0BDD0C80147DF8CE690E05C
:1003300044DF80E062E02CDF80E790E03EDF89E090
:1003400062E026DF8091830090918400B8014AE04A
:1003500050E0A7D0C80131DF8CE690E02EDF80911D
:100360008300909184004F9718F48FE190E00EC0C5
:1003700080918500909186008034910518F08FE37C
:1003800090E004C080918300909184002DD07894F7
:1003900021E07BCFB2DEF5DE8AE790E00EDF20E0E1
:1003A000FF24F394789471CFB99A2FB522602FBDB2
:1003B0002FB52E7F2FBD2EB520612EBD2EB5277FE8
:1003C0002EBD21E732E037BD26BD2FB520682FBDF9
:1003D0002FB52F7B2FBD2EB523602EBD2EB52B6FD5
:1003E0002EBD9BBD8ABD08959BBD8ABD0895B8985A
:1003F000C09ABA9AC2980895629FD001739FF00183
:10040000829FE00DF11D649FE00DF11D929FF00DA4
:10041000839FF00D749FF00D659FF00D9927729FDB
:10042000B00DE11DF91F639FB00DE11DF91FBD0166
:10043000CF0111240895AA1BBB1B51E107C0AA1FBD
:10044000BB1FA617B70710F0A61BB70B881F991F75
:100450005A95A9F780959095BC01CD010895A1E228
:100460001A2EAA1BBB1BFD010DC0AA1FBB1FEE1F2E
:10047000FF1FA217B307E407F50720F0A21BB30B79
:10048000E40BF50B661F771F881F991F1A9469F7F5
:1004900060957095809590959B01AC01BD01CF0151
:1004A0000895FB019F01E8944230BCF04532ACF462
:1004B0004A3029F497FB1EF4909581959F4F642F45
:1004C0007727B9DF805D8A330CF0895D8193CB019A
:1004D0000097A9F716F45DE251931082C90100C09C
:1004E000DC01FC01672F71917723E1F7329704C09B
:1004F0007C916D9370836291AE17BF07C8F3089526
:04050000F894FFCF9D
:1005040041444320616E3A2020002E002020200028
:100514004379636C653A202020004144432061758F
:02052400730062
:00000001FF
