:100000000C947F030C949C030C949C030C949C0311
:100010000C949C030C949C030C949C030C949C03E4
:100020000C949C030C949C030C949C030C949C03D4
:100030000C949C030C949C030C949C030C949C03C4
:100040000C949C030C949C030C949C030C949C03B4
:100050000C949C0307634236B79BD8A71A3968569D
:1000600018AEBAAB558C1D3CB7CC5763BD6DEDFDDA
:10007000753EF6177231BF000000803F0800000097
:10008000BE922449123EABAAAA2ABECDCCCC4C3E8D
:1000900000000080BEABAAAAAA3E00000000BF007C
:1000A0000000803F0000000000084178D3BB438778
:1000B000D1133D190E3CC3BD4282AD2B3E68EC828C
:1000C00076BED98FE1A93E4C80EFFFBE01C4FF7F11
:1000D0003F0000000000416C7469747564653A204B
:1000E0000050726573737572653A200054656D70C7
:1000F0003A2000000000000000003E4551453E004F
:100100003E6B6F6B3E001C3E7C3E1C00183C7E3CF0
:10011000180030367F363000185C7E5C1800000016
:1001200000000000000000000000000000000000CF
:1001300000000000000030484A360E0006297929E8
:100140000600000000000000607E0A353F002A1C07
:10015000361C2A00007F3E1C0800081C3E7F000061
:1001600014367F361400005F005F000006097F012F
:100170007F00224D5559220060606060000014B677
:10018000FFB6140004067F06040010307F30100014
:1001900008083E1C0800081C3E0808007840404043
:1001A0004000083E083E0800303C3F3C3000030F52
:1001B0003F0F030000000000000000065F06000083
:1001C000070300070300247E247E2400242B6A12E8
:1001D000000063130864630036495620500000078E
:1001E00003000000003E4100000000413E0000000E
:1001F000083E1C3E080008083E08080000E06000B9
:1002000000000808080808000060600000002010D6
:10021000080402003E5149453E0000427F40000074
:100220006251494946002249494936001814127F53
:1002300010002F49494931003C4A494930000171B9
:1002400009050300364949493600064949291E0077
:10025000006C6C00000000EC6C00000008142241EF
:100260000000242424242400004122140800020158
:10027000590906003E415D551E007E1111117E0098
:100280007F49494936003E41414122007F41414179
:100290003E007F49494941007F09090901003E416B
:1002A00049497A007F0808087F0000417F4100002B
:1002B000304040403F007F08142241007F404040D2
:1002C00040007F0204027F007F0204087F003E415D
:1002D00041413E007F09090906003E4151215E006F
:1002E0007F090919660026494949320001017F0149
:1002F00001003F4040403F001F2040201F003F4082
:100300003C403F00631408146300070870080700AE
:10031000714945430000007F41410000020408107C
:1003200020000041417F000004020102048080801F
:10033000808080000003070000002054545478009F
:100340007F444444380038444444280038444444FA
:100350007F00385454540800087E0909000018A48E
:10036000A4A47C007F040478000000007D4000000D
:100370004080847D00007F102844000000007F4002
:1003800000007C04180478007C04047800003844E1
:1003900044443800FC444444380038444444FC009D
:1003A000447844040800085454542000043E442473
:1003B00000003C40207C00001C2040201C003C60D1
:1003C00030603C006C10106C00009CA0603C000091
:1003D0006454544C0000083E414100000000770086
:1003E00000000041413E08000201020100003C26DD
:1003F00023263C001EA1E12112003D40207D00008B
:1004000038545455090020555555780020555455F9
:1004100078002055555478002057555778001CA275
:10042000E222140038555555080038555455080037
:1004300038555554080000017C41000000017D4101
:10044000000000017C400000702924297000782FF2
:10045000252F78007C545455450034547C54580062
:100460007E097F49490038454539000038454439FF
:1004700000003945443800003C41217D00003D41E9
:10048000207C00009CA1603D00003D42423D0000F8
:100490003C41403D0080706858380400483E49495E
:1004A00062007E615D433F002214081422004088F0
:1004B0007E09020020545555780000007D4100005F
:1004C0003844453900003C40217D00007A090A711A
:1004D00000007A1122790000085555555E004E51F2
:1004E000514E000030484D40203E415D4B553E048A
:1004F000040404041C0017084C6A50001708342A2E
:10050000780000307D300000081400081400140842
:10051000001408441144114411AA55AA55AA55BB08
:10052000EEBBEEBBEE000000FF0000080808FF0075
:100530000000702825297000702925297000702975
:100540002528703E415D55413E0AFB00FF0000003A
:10055000FF00FF00000AFA02FE00000A0B080F006D
:100560000000182466240000292A7C2A290808088B
:10057000F800000000000F08080808080F08080825
:100580000808F80808000000FF080808080808081C
:1005900008080808FF080800205655567900702AF8
:1005A000252A71000F080B0A0A00FE02FA0A0A0A3D
:1005B0000B080B0A0A0AFA02FA0A0A00FF00FB0AF1
:1005C0000A0A0A0A0A0A0A0AFB00FB0A0A005D2252
:1005D00022225D00225559300000087F49413E002B
:1005E0007C55555544007C55545544007C55555414
:1005F000440000000700000000447D450000004565
:100600007D45000000457C45000808080F000000FB
:100610000000F80808FFFFFFFFFFFFF0F0F0F0F028
:10062000F00000007700000000457D44000F0F0F30
:100630000F0F0F003C42433D0000FE4A4A340000C9
:100640003C43433D00003D43423C000032494A31B7
:1006500000003A4546390000FC20201C0000FEAA9C
:1006600028100000FFA5241800003C40413D000078
:100670003C41413D00003D41403C00009CA0613DAB
:1006800000000408710904000002020200000007D3
:100690000300000000080808000000242E240000C9
:1006A000242424242405170A342A780006097F010B
:1006B0007F00224D5559220008082A08080000082A
:1006C00018180000060909060000000800080000CC
:1006D000000800000000020F00000000090F0500E4
:1006E0000000090D0A0000003C3C3C3C00000000FA
:1006F0000000000006060800FF0000F300001124BF
:100700001FBECFE5D8E0DEBFCDBF11E0A8E6B1E067
:1007100001C01D92AD36B107E1F711E0A0E6B0E0EF
:10072000E4ECF3E302C005900D92A836B107D9F7C7
:100730000E949E030C94E0190C9400004F925F926B
:100740006F927F928F929F92AF92BF92CF92DF92E1
:10075000EF92FF920F931F93DF93CF93CDB7DEB746
:100760006F970FB6F894DEBF0FBECDBF1A821B8203
:100770001C821D821E821F821886198619828FEEA6
:1007800095E50197F1F700C0000088EE93E00E9424
:10079000D40E30E1A32EB12CAC0EBD1E2AE0822E69
:1007A000912C8C0E9D1EC501B4016E010894C11CD4
:1007B000D11CA6010E9482070E94AB0A83EF96E03B
:1007C00060E00E94020B92E0692E712C6C0E7D1E7F
:1007D00086E0482E512C4C0E5D1EC501B401A301CC
:1007E000920186010E94A40581E060E00E94F10868
:1007F00083EF96E060E04CEE50E00E943B0D8A8172
:100800009B810E94590E82E060E00E94F10883EF14
:1008100096E060E041EE50E00E943B0D8E819F81AA
:100820000E94590E6E817F81888599850E940E08ED
:100830007B018C0183E060E00E94F10883EF96E089
:1008400060E046ED50E00E943B0DC7010E94590E4A
:100850008FEF91EEA4E081509040A040E1F700C0FE
:100860000000BBCFA298AA9A0895FF920F931F93FE
:10087000CF93DF93082FEB010E94F90E0E94230F04
:100880008883882349F000E010E0C801DF91CF9110
:100890001F910F91FF90089588E00E94400F888378
:1008A000882389F78EEE0E94190F0E94230F8883F8
:1008B000882349F788E10E94400F8883882319F72D
:1008C000802F0E94190F0E94230F88838823D9F656
:1008D00088E20E94400F88838823A9F60E94F90EBF
:1008E0000E94230F8883882371F680E10E94400FC5
:1008F0008883882341F68FEE0E94190F0E94230FF0
:100900008883882309F0BFCF80E40E94400F88834A
:10091000882309F0B8CF0E941D0F0E94230F8883FF
:10092000882309F0B0CF0E943E0FF82E0E94230FBB
:100930008883882351F580E50E94400F88838823AF
:1009400021F50E94200F0E94230F88838823E9F459
:100950000E943E0F082F10E00E94230F88838823F7
:1009600049F488E50E94400F8883882319F40E9487
:10097000FC0E88833F2D20E0020F131FC801DF917A
:10098000CF911F910F91FF9008951F2D00E07DCF13
:10099000CF93DF93EC010E94F90E0E94230F88830E
:1009A000882351F19A990BC088E893E102C001971E
:1009B00031F022E02A95F1F700C09A9BF8CF8FE141
:1009C0009EE40197F1F700C000008881882341F080
:1009D00020E030E0A901B901CA01DF91CF9108956B
:1009E00086EFBE010E9435049C0140E050E0B90151
:1009F000CA01DF91CF91089588E00E94400F88835B
:100A0000882381F68EEE0E94190F0E94230F88839F
:100A1000882341F688E10E94400F8883882311F6DD
:100A200084EF0E94190F0E94230F8883882309F006
:100A3000B9CF88E20E94400F8883882309F0B2CFA3
:100A40008EE20E94190F0E94230F8883882309F0E9
:100A5000A9CF88E20E94400F8883882309F0A2CFA3
:100A60000E94FC0E88839ECFCF93DF93EC010E94FF
:100A7000F90E0E94230F8883882369F19A990BC08D
:100A800088E99AE302C0019731F022E02A95F1F754
:100A900000C09A9BF8CF8FEF99EFA0E08150904073
:100AA000A040E1F700C000008881882341F020E0E9
:100AB00030E0A901B901CA01DF91CF91089586EF15
:100AC000BE010E9435049C0140E050E0B901CA011A
:100AD000DF91CF91089588E00E94400F888388239A
:100AE00069F68EEE0E94190F0E94230F88838823D7
:100AF00029F688E10E94400F8883882309F0BECF41
:100B000084EF0E94190F0E94230F8883882309F025
:100B1000B5CF88E20E94400F8883882309F0AECFCA
:100B200084E30E94190F0E94230F8883882309F011
:100B3000A5CF88E20E94400F8883882309F09ECFCA
:100B40000E94FC0E88839ACF2F923F924F925F9221
:100B50006F927F928F929F92AF92BF92CF92DF92CD
:100B6000EF92FF920F931F93DF93CF93CDB7DEB732
:100B700062970FB6F894DEBF0FBECDBFFC012A010D
:100B80003A8B298B6801808191819E838D83A2811C
:100B9000B381B887AF83848195819A878987DB0188
:100BA0000D90BC91A02DBC87AB87DB0112966D9098
:100BB0007C9013971496AD90BC9015978681978181
:100BC0009E878D87A085B185B88BAF8724843584B7
:100BD00086849784F8018081882309F47DC1EE24FE
:100BE000FF24870119821A821B821C82CC24DD24F7
:100BF000C801B7016A197B098C099D09930140E07E
:100C000050E00E940C167B018C01FFE015950795C2
:100C1000F794E794FA95D1F7B101882777FD80958D
:100C2000982FEBE0660F771F881F991FEA95D1F781
:100C30009401442737FD4095542F2E0D3F1D401F32
:100C4000511F0E9461162E0D3F1D401F511FDA01DA
:100C5000C9010896A11DB11D74E0B595A79597959A
:100C600087957A95D1F7F20180839183A283B3832C
:100C700060E6662E60EF762E6FEF862E6FEF962E73
:100C8000620E731E841E951EC401B301A40193015C
:100C90000E940C161B012C015CE05594479437947C
:100CA00027945A95D1F789859A859C01442737FD69
:100CB0004095542FC401B3010E940C167B018C0196
:100CC0004DE015950795F794E7944A95D1F782E0A2
:100CD00090E0A0E0B0E0E80EF91E0A1F1B1FAD85F2
:100CE000BE859D01442737FD4095542FC201B101B7
:100CF0000E940C16BC01992777FD9095892FE60E6E
:100D0000F71E081F191F15950795F794E794159579
:100D10000795F794E79480E090E8A0E0B0E0E80E53
:100D2000F91E0A1F1B1FAB85BC859D0140E050E0EA
:100D3000C801B7010E940C165B016C019FE0D694BC
:100D4000C794B794A7949A95D1F7ED81FE817F015E
:100D50000027F7FC0095102FEE0CFF1C001F111F41
:100D6000EE0CFF1C001F111F82E090E0A0E0B0E03D
:100D7000E80EF91E0A1F1B1FAF81B8859D0144278D
:100D800037FD4095542FC401B3010E940C16BBE0FF
:100D90009595879577956795BA95D1F7E60EF71EE5
:100DA000081F191FEF85F8899F01442737FD4095DB
:100DB000542FC201B1010E940C16ABE095958795A6
:100DC00077956795AA95D1F7E60EF71E081F191FAC
:100DD00015950795F794E79415950795F794E7947B
:100DE00069817A818B819C816E197F09800B910BBF
:100DF00020E533EC40E050E00E940C1697FD61C006
:100E0000660F771F881F991FA60195010E943F1644
:100E100079018A01552717FD5A95412F302F2F2D23
:100E2000CA01B9010E940C162EED3BE040E050E0F3
:100E30000E940C165B016C01C801B70123E433EE7C
:100E40004FEF5FEF0E940C16BC01992777FD90953C
:100E5000892F6153714F8F4F9F4F5601DD24B7FC8F
:100E6000D094CD2C6A0D7B1D8C1D9D1D24E0959585
:100E70008795779567952A95D1F76E0D7F1D801F11
:100E8000911FA989BA896D937D938D939C93139734
:100E900062960FB6F894DEBF0FBECDBFCF91DF9143
:100EA0001F910F91FF90EF90DF90CF90BF90AF9088
:100EB0009F908F907F906F905F904F903F902F907A
:100EC0000895A60195010E943F1679018A01EE0C52
:100ED000FF1C001F111F9ECFC8010E94C8047B0188
:100EE0008C01D6018C91882341F4C6010E943405FF
:100EF00069837A838B839C8379CE19821A821B82C1
:100F00001C8274CEEF92FF920F931F93CF93DF93C7
:100F10008C017B01EA01A298AA9A8881882339F082
:100F2000DF91CF911F910F91FF90EF9008958AEA82
:100F3000BA010E943504F801918380838881882357
:100F400079F78CEABE010E943504F801938382830D
:100F50008881882329F78EEABE010E943504F801B2
:100F60009583848388818823D9F680EBBE010E9413
:100F70003504F701918380838881882389F682EB89
:100F8000BE010E943504F701938382838881882300
:100F900039F684EBBE010E943504F7019583848302
:100FA0008881882309F0BCCF86EBBE010E943504FE
:100FB000F801978386838881882309F0B1CF88EB75
:100FC000BE010E943504F8019187808788818823BB
:100FD00009F0A6CF8AEBBE010E943504F801938781
:100FE00082878881882309F09BCF8CEBBE010E9409
:100FF0003504F801958784878881882309F090CF8C
:101000008EEBBE010E943504F80197878687DF9139
:10101000CF911F910F91FF90EF9008950E94F812C9
:1010200020E836EE45EC57E40E941A1222E63BED2A
:1010300042E45EE30E941E17562F472F382F292FB8
:1010400060E070E080E89FE3DA01F9012B2F3A2F8E
:101050004F2F5E2F0E94EF1020E03AE24DE257E45E
:101060000E94201120E030E040E251E40E94201173
:101070000E946A170E945813089587B18F7387B929
:1010800086B1866886B9369A3699FECF84B195B115
:101090000895982F9450943008F487B9369A369969
:1010A000FECF44B155B12CED35E0429FC001439FC6
:1010B000900D529F900D112481509E4F6FEF73E061
:1010C0000E942B16CB010895982F9450943008F469
:1010D00087B9369A3699FECF44B155B124EF31E045
:1010E000429FC001439F900D529F900D112481504B
:1010F0009E4F6FEF73E00E942B16CB0108950E9464
:10110000AB0AD79ADF98D09AD19A089521B3206379
:1011100021BB2FB522602FBD2FB52E7F2FBD2EB541
:1011200020612EBD2EB5277F2EBD21E732E037BDD1
:1011300026BD2FB520682FBD2FB52F7B2FBD2EB517
:1011400023602EBD2EB52B6F2EBD9BBD8ABD08958D
:101150009BBD8ABD08952EB528602EBD2EB5216099
:101160002EBD9BBD8ABD089590916801980F937024
:1011700090936801892F08959C0180916901A901CC
:10118000480F511DCA0144385105B0F04091680123
:1011900007C04F5F4370845890408438910550F0E9
:1011A00012161306B4F3415043708C579F4F843886
:1011B0009105B0F740936801809369010895C49840
:1011C000DD9A8FB9779BFECFC49A81E090E00E94B0
:1011D000BC080895C498DD988FB9779BFECFC49A58
:1011E00008950F931F93182F062F8F70806B0E9406
:1011F000EA08802F82958F7080610E94EA08802F14
:101200008F700E94EA0800936901109368011F9192
:101210000F9108951F9310916801180F1370109388
:101220006801CB010E94BC08682F812F0E94F10841
:101230001F910895BF92CF92DF92EF92FF920F938A
:101240001F93CF93DF93F82E092FE62ED42EC22EB4
:1012500084E0C822662349F180916801843028F532
:10126000BB24C42FD0E0D095C195DF4FDD20D1F055
:10127000809169018438B0F4802F0F2D182F04C09D
:1012800080916901843860F4F8010F5F1F4F8491E9
:10129000C11080950E94DF08802F8F198D1580F373
:1012A000F02E012FB394BE1451F4DF91CF911F9112
:1012B0000F91FF90EF90DF90CF90BF90089581E065
:1012C000BE010E940A09BE1480F780916801843033
:1012D00068F2EBCF2F923F924F925F926F927F9284
:1012E0008F929F92AF92BF92CF92DF92EF92FF9236
:1012F0000F931F93DF93CF93CDB7DEB728970FB629
:10130000F894DEBF0FBECDBF6C0134E0E32237E0BE
:10131000F32EF42209F02F5F80916801422E5524AC
:1013200024E030E0281B31092415350524F424E09D
:10133000281B422E5524842F8695869586950E94DB
:10134000F108A02EBB24882799278A199B0916012A
:10135000280E391EDA82C98221E0622E712C88247F
:101360009924E8E0F0E0EF19F109FC83EB838D8329
:101370009E838414950408F067C0A114B10409F495
:1013800049C080916901843808F044C009811A81FC
:10139000610140E050E015C080954F8358870E945E
:1013A000DF084F8158854F5F5F4F4A155B0590F509
:1013B0000894C11CD11C0F5F1F4F809169018438B4
:1013C00048F5FF2021F04614570409F456C0F801EF
:1013D00084910F2C01C0880F0A94EAF781149104BC
:1013E00061F0FF2051F0F601249130E00B8002C043
:1013F000359527950A94E2F7822BEE2069F64F8304
:1014000058870E94DF0858854F814F5F5F4F4A150C
:101410005B0570F24614570429F081E06D817E81EE
:101420000E940A090894811C911C0894611C711C7B
:101430002A0C3B1C29813A812A0D3B1D3A832983C2
:101440008414950408F499CF28960FB6F894DEBF5B
:101450000FBECDBFCF91DF911F910F91FF90EF9005
:10146000DF90CF90BF90AF909F908F907F906F90C4
:101470005F904F903F902F90089580E0AFCFDF9224
:10148000EF92FF920F931F93CF93DF9342FF36C0EB
:101490000FEF94E020916801921BE82E981708F452
:1014A000E92E90916901EE20D9F084E8891B162F6E
:1014B000861730F1C12FD0E0D095C195DF4FFF24C2
:1014C000112339F0DD24802F0E94DF08D394D11638
:1014D000D0F381E0BE010E940A09F394FE1480F368
:1014E0008E2D819560E070E00E940A09DF91CF9116
:1014F0001F910F91FF90EF90DF90089500E0C9CF0A
:10150000182FD8CFFF920F931F93DF93CF930F9293
:10151000CDB7DEB7F82E162F822F602F49830E9499
:10152000F1088F2D612F49810E943F0A0F90CF91C2
:10153000DF911F910F91FF90089587B3806A87BB59
:101540008AB380638ABBBC9A8CE58DB981E08EB981
:1015500083EE8FB908950F931F93D59AD49ABC9AAE
:101560000E949D0ADC988FEC97E00197F1F700C08C
:101570000000DC9A80E40E94EA088FEC97E0019773
:10158000F1F700C0000081EA0E94EA0880EC0E94A6
:10159000EA088FEC97E00197F1F700C0000086EAB7
:1015A0000E94EA0882EA0E94EA088FE20E94EA08A2
:1015B00080E00E94EA0883E20E94EA0881E80E9433
:1015C000EA088FE10E94EA088CEA0E94EA0880E0BB
:1015D0000E94EA0810E0812F60E00E94F10804E810
:1015E00080E00E94DF080150D9F71F5F143099F79F
:1015F00080E060E00E94F1088FEA0E94EA081F91F3
:101600000F91089590936C0180936B0160936A0130
:101610000895FC01389625913491C9010895FC0183
:10162000369625913491C9010895FC013396849131
:1016300081508695869586958F5F0895FC01369634
:101640002591349181E02115310509F480E0089558
:10165000FC013596E491E61720F46FEF7FEFCB01A4
:1016600008950496FC0184916817B8F370E0681B34
:101670007109F5CFFC013696459154919A014115B7
:101680005105C1F0FC013596E491E61768F0049627
:10169000FC018491681740F0E62FF0E0E81BF109A7
:1016A000E20FF31F84910895EFEFFFEFE20FF31FB6
:1016B000849108950296FC01849108950F931F93DD
:1016C000CF93DF93FC0135967491761708F446C0EA
:1016D000FC0134961491611708F440C0462F50E085
:1016E000411B5109FC0136962591349157FD36C0B6
:1016F000042F2115310509F43CC0442309F436C0F8
:101700000150602F70E06F5F7F4F620F731F40E0EA
:1017100050E0F9012F5F3F4FE4914E0F511D261706
:101720003707B9F7FC013896259134910396FC01EF
:10173000849181508695869586958F5F90E0849FF1
:10174000B001859F700D949F700D1124260F371FD7
:10175000C901DF91CF911F910F91089520E030E0F2
:10176000C901DF91CF911F910F91089540E050E0A2
:10177000D9CFFC01389625913491D901C42FD0E0FE
:10178000FC013396049101500695069506950F5F6E
:1017900020E030E021153105C9F07617A0F061177F
:1017A00090F0240F351FF9018491809F802D112422
:1017B00090E08C9F90018D9F300D9C9F300D1124E7
:1017C0002A0F3B1FCDCF4FEF5FEFEBCF0296FC010F
:1017D0008491EBCF2F923F924F925F926F927F92C4
:1017E0008F929F92AF92BF92CF92DF92EF92FF9231
:1017F0000F931F93DF93CF93CDB7DEB72B970FB621
:10180000F894DEBF0FBECDBFE42EBB24B394B62246
:10181000062F9924939461FF992404FF24C130E892
:10182000532E02FF1EC188248A94AC014A5F5F4F89
:10183000FA01659174919B016115710509F417C155
:10184000FC013596E491EE1550F0FC01349664915C
:10185000E61628F0EE2DF0E0E61BF10902C0EFEFEE
:10186000FFEFE20FF31F7490FC013396A490AA944B
:10187000A694A694A694A394FA01259134913324B6
:1018800033942115310509F433246E2D0E945E0B2B
:101890006C01232D270D092C01C0220F0A94EAF7B1
:1018A0002B834A2D50E04A2C0B2C01C0440C0A9487
:1018B000EAF703FDB9C0822F90E09D838C838C8171
:1018C0009D81909581959F4F9A838983872D90E084
:1018D000489F8001499F100D589F100D1124982D8D
:1018E00095259F83E52DE6959E279E83198618866C
:1018F000E42CFF240894E108F1082885888599855F
:101900000B2C02C0959587950A94E2F7782EE82F64
:10191000FF27E7FDF095E017F1070CF03FC06624C4
:101920006394622208C07A0CE72DFF27E7FDF0954B
:10193000E017F1079CF5EC0DFD1D249028853985F5
:101940002E153F0509F464C0BB20B1F0662019F0E4
:1019500022942FE02222822D23FE5CC090EC292EBF
:1019600082FF02C030E3232A81FF02C09CE0292AC3
:1019700080FF02C0E3E02E2A81102094822D0E9475
:10198000DF08992081F2822D0E94DF087A0CE72D72
:10199000FF27E7FDF095E017F1076CF2332059F0CF
:1019A00028853985E216F306D9F1782C872D0E9417
:1019B000DF08992089F581E069817A810E940A090E
:1019C00088859985019699878887841508F495CF2D
:1019D000842D81956C817D810E940A098B812B96D3
:1019E0000FB6F894DEBF0FBECDBFCF91DF911F9130
:1019F0000F91FF90EF90DF90CF90BF90AF909F90AE
:101A00008F907F906F905F904F903F902F900895B0
:101A100025289ACF2224A4CF872D0E94DF08CBCF80
:101A2000BB2019F17E80C2CFFB81EF2FF0E0FD8358
:101A3000EC8380916901E80FF11DE538F1050CF4A4
:101A40003ECF80916801840D60E0AA865B870E948A
:101A5000F1084A855B852E2D203209F030CF1B829C
:101A6000BDCF8824E2CE5524DCCE7F809FCFFC0101
:101A700032967490F9CEDF92EF92FF920F931F93FC
:101A8000CF93DF937C01D62EEA01FA0144914423DF
:101A9000B9F0219600E010E0C7016D2D0E94EA0B1D
:101AA000080F111DFE01219644914423A9F7C80196
:101AB000DF91CF911F910F91FF90EF90DF900895EC
:101AC00000E010E0F4CFDF92EF92FF920F931F93AC
:101AD000CF93DF937C01D62EFA0140814423C9F0D5
:101AE0008F010F5F1F4FC0E0D0E0C7016D2D0E9436
:101AF000EA0BC80FD11DF80141918F014423A9F7CA
:101B0000CE01DF91CF911F910F91FF90EF90DF9069
:101B10000895C0E0D0E0F4CF8F929F92BF92CF9211
:101B2000DF92EF92FF920F931F93CF93DF937C018D
:101B3000C62ED42EB22E2223F9F0842EE4014E01BB
:101B4000952EE40100E010E04991C7016C2D0E9440
:101B5000EA0B080F111D4E018D188B14A8F3C80154
:101B6000DF91CF911F910F91FF90EF90DF90CF9079
:101B7000BF909F908F90089500E010E0F0CFEF921B
:101B8000FF920F931F93CF93DF937C01162FEA01EF
:101B9000822F602F0E94F108C701612FAE010E94C1
:101BA0003B0DDF91CF911F910F91FF90EF90089522
:101BB000EF92FF920F931F93DF93CF930F92CDB7C6
:101BC000DEB77C01162F822F602F49830E94F10817
:101BD000C701612F49810E94EA0B0F90CF91DF91DD
:101BE0001F910F91FF90EF900895482F80916B0106
:101BF00090916C0160916A010E94EA0B08950F9325
:101C0000382F262F042F80916B0190916C016091E9
:101C10006A01432F0E94D80D0F910895AC01809165
:101C20006B0190916C0160916A010E94630D0895AF
:101C3000AC0180916B0190916C0160916A010E94EE
:101C40003B0D08950F93FC01262F042F80916B010B
:101C500090916C0160916A01AF010E94BF0D0F91DC
:101C600008950F931F93DF93CF93CDB7DEB72A97D5
:101C70000FB6F894DEBF0FBECDBF8E010F5F1F4FB2
:101C8000A8012AE030E00E94D41680916B01909167
:101C90006C0160916A01A8010E94630D2A960FB63B
:101CA000F894DEBF0FBECDBFCF91DF911F910F9192
:101CB00008950F931F93DF93CF93CDB7DEB72A9785
:101CC0000FB6F894DEBF0FBECDBF8E010F5F1F4F62
:101CD000B8014AE050E00E94B31680916B019091E8
:101CE0006C0160916A01A8010E94630D2A960FB6EB
:101CF000F894DEBF0FBECDBFCF91DF911F910F9142
:101D000008950F931F93DF93CF93CDB7DEB72A9734
:101D10000FB6F894DEBF0FBECDBF8E010F5F1F4F11
:101D2000B8014AE050E00E94081780916B01909141
:101D30006C0160916A01A8010E94630D2A960FB69A
:101D4000F894DEBF0FBECDBFCF91DF911F910F91F1
:101D500008950F931F93DF93CF93CDB7DEB72A97E4
:101D60000FB6F894DEBF0FBECDBF992787FD9095C3
:101D70008E010F5F1F4FB8014AE050E00E94B3167A
:101D800080916B0190916C0160916A01A8010E94A1
:101D9000630D2A960FB6F894DEBF0FBECDBFCF916C
:101DA000DF911F910F91089511B8BC0180E090E080
:101DB0000E94AA139B01AC0160E070E08AEF95E4F9
:101DC0000E941A120E944C0F603188F070E060513E
:101DD0007040882777FD8095982F0E94F81220E0A8
:101DE00030E040E05EE30E9420110E944C0F60B999
:101DF000089584EA86BF089584E986BF06B604FE86
:101E000016C080E002C08A3561F092E09A95F1F741
:101E100000C08F5F06B604FCF6CF8A3510F480E070
:101E2000089582E08A95F1F700C084E6089580E085
:101E3000089583B984E886BF089584EC86BF089529
:101E400084E886BF089506B607FC16C080E002C08D
:101E50008A3561F092E09A95F1F700C08F5F06B67F
:101E600007FEF6CF8A3510F480E0089582E08A9567
:101E7000F1F700C084E6089580E0089583B10895E5
:101E800021B130E0287F307090E02817390711F039
:101E90008AE0089580E00895EF92FF920F931F93D8
:101EA0007B018C0120E030E040E05FE40E94C8123A
:101EB00087FD11C0C801B70120E030E040E05FE4D9
:101EC0000E94EF100E9458139B01AC01205030403B
:101ED0004040504806C0C801B7010E9458139B01FA
:101EE000AC01B901CA011F910F91FF90EF900895C5
:101EF000A0E0B0E0EEE7FFE00C948016FC01EA0100
:101F00008081823008F438C1DB019C91923008F462
:101F100030C1843059F4943009F02EC1918111966A
:101F20008C911197981709F021C126C1943009F4BA
:101F300020C19230B1F4823009F01EC1CA01AF0154
:101F400028E0DA010D90AD01DC010D92CD012150A8
:101F5000C1F7DB0111968C911197918189238983B7
:101F60000AC1823009F405C1C280D380DB01129618
:101F70006D907C901397248135814681578114960A
:101F8000ED90FD900D911C911797C6018619970948
:101F90005C0197FF04C0AA24BB24A81AB90AB0E2C6
:101FA000AB16B1040CF061C0181619066CF53701B8
:101FB00048010A2C04C096948794779467940A94F5
:101FC000D2F781E090E0A0E0B0E00A2C04C0880FD6
:101FD000991FAA1FBB1F0A94D2F70197A109B10943
:101FE0008E219F21A023B123EE24FF248701E394B7
:101FF0000097A105B10519F4EE24FF248701E62816
:10200000F728082919293CC00097D1F1CA0CDB1C1C
:1020100039014A010A2C04C09694879477946794F6
:102020000A94D2F781E090E0A0E0B0E00A2C04C06E
:10203000880F991FAA1FBB1F0A94D2F70197A10905
:10204000B10982239323A423B52321E030E040E0AB
:1020500050E00097A105B10519F420E030E0A90196
:1020600026293729482959290BC06C147D0424F4EA
:10207000EE24FF24870104C0630120E030E0A901C1
:102080008181FB019181891709F445C0882349F0BA
:10209000D801C701821B930BA40BB50B9C01AD01AA
:1020A00004C02E193F09400B510B57FD04C0198283
:1020B000DB82CA820BC081E08983DB82CA825095B1
:1020C0004095309521953F4F4F4F5F4F2C833D8377
:1020D0004E835F830DC0880F991FAA1FBB1F8C837F
:1020E0009D83AE83BF838A819B8101979B838A8373
:1020F0008C819D81AE81BF819C01AD01215030401A
:10210000404050402F3FEFEF3E07EFEF4E07EFE329
:102110005E0708F30BC08983DB82CA822E0D3F1D48
:10212000401F511F2C833D834E835F8383E0888350
:102130002C813D814E815F8157FF1DC0DA01C901AD
:1021400081709070A070B07056954795379527951F
:10215000822B932BA42BB52B8C839D83AE83BF83C3
:102160008A819B8101969B838A8305C0E0E6F0E02B
:1021700003C0FB0101C0FE01CF01CDB7DEB7EEE029
:102180000C949C16A0E2B0E0E8ECF0E10C94881608
:1021900069837A838B839C832D833E834F83588707
:1021A00089E0E82EF12CEC0EFD1ECE010196B70160
:1021B0000E944A158E010F5E1F4FCE010596B80191
:1021C0000E944A15C701B801AE01475E5F4F0E94E9
:1021D000780F0E947C14A096E6E00C94A416A0E26E
:1021E000B0E0E5EFF0E10C94881669837A838B8385
:1021F0009C832D833E834F8358878E01075F1F4F3B
:10220000CE010196B8010E944A1591E1E92EF12C08
:10221000EC0EFD1ECE010596B7010E944A158A8973
:1022200091E089278A8BC801B701AE01475E5F4FF5
:102230000E94780F0E947C14A096E6E00C94A416ED
:10224000A0E2B0E0E6E2F1E10C947C1669837A83C7
:102250008B839C832D833E834F835887CE010196C9
:10226000BE01675F7F4F0E944A15CE010596BE01F1
:102270006F5E7F4F0E944A159985923078F0898968
:102280008230C0F0943019F4823041F4CBC08430F5
:1022900019F4923079F4C6C0923051F481E02A8565
:1022A0009A89291709F480E08A87CE010996BCC073
:1022B000823051F481E02A859A89291709F480E057
:1022C0008A8BCE014196B0C06D847E848F849888BD
:1022D000ED88FE880F89188DE0E2F0E080E090E064
:1022E000DC01AA24BB24650120E030E0A901B30190
:1022F0006170707061157105D1F02E0D3F1D401F8A
:10230000511F15012601280E391E4A1E5B1E81E051
:1023100090E0A0E0B0E02E153F054007510718F00F
:1023200080E090E0DC01820D931DA41DB51DAA0C78
:10233000BB1CCC1CDD1C17FF09C061E0262E312C14
:10234000412C512CA228B328C428D528319749F014
:10235000EE0CFF1C001F111F9694879477946794CE
:10236000C6CF6B897C89EB85FC856E0F7F1F6E5F06
:102370007F4F7C8F6B8F61E0EA857A89E71709F4DC
:1023800060E06A8F6B8D7C8D10C0FC01E170F07095
:10239000309729F056954795379527955068B6950B
:1023A000A795979587956F5F7F4FB7FDEECF0CC0D0
:1023B000880F991FAA1FBB1F57FD8160220F331F73
:1023C000441F551F615070408030E0E09E07E0E000
:1023D000AE07E0E4BE0760F36B8F7C8F6FE7E62EFD
:1023E000F12C012D112DE822F9220A231B2360E490
:1023F000E616F1040105110561F487FD0AC02115F7
:1024000031054105510529F0805C9F4FAF4FBF4F0B
:1024100080788D8F9E8FAF8FB8A383E0898FCE0198
:10242000499602C080E690E00E947C14A096E2E10A
:102430000C949816A8E1B0E0E0E2F2E10C94841666
:1024400069837A838B839C832D833E834F83588754
:102450008E01075F1F4FCE010196B8010E944A15F9
:1024600081E1E82EF12CEC0EFD1ECE010596B701A0
:102470000E944A159985923008F483C08989823078
:1024800008F47BC02A853A8923272A87943011F0E3
:10249000923021F4981709F06CC071C0843039F47F
:1024A0001D861E861F86188A1C861B866AC082307F
:1024B00019F484E0898765C08B859C852B893C89CC
:1024C000821B930B9C878B872D853E854F85588972
:1024D000ED88FE880F89188D2E153F05400751079E
:1024E00038F4220F331F441F551F01979C878B8799
:1024F0006FE170E0A12CB12CC12CA0E4DA2E80E0B9
:1025000090E0DC012E153F054007510740F08A2975
:102510009B29AC29BD292E193F09400B510BD6949C
:10252000C794B794A794220F331F441F551F6150BF
:10253000704041F76FE7E62EF12C012D112DE822B6
:10254000F9220A231B2360E4E616F10401051105B4
:1025500061F487FD0AC0211531054105510529F0B7
:10256000805C9F4FAF4FBF4F80788D879E87AF872E
:10257000B88B8E01075F1F4F04C0870102C000E6C1
:1025800010E0C8010E947C146896EAE00C94A01642
:10259000A8E1B0E0EEECF2E10C94881669837A834E
:1025A0008B839C832D833E834F8358878E01075FE7
:1025B0001F4FCE010196B8010E944A1581E1E82E15
:1025C000F12CEC0EFD1ECE010596B7010E944A15B6
:1025D0008985823040F08989823028F0C801B701AE
:1025E0000E94B31501C08FEF6896E6E00C94A41624
:1025F000A8E0B0E0EEEFF2E10C9488167B018C01CC
:1026000083E08983D801C7018827B7FD839599277F
:10261000AA27BB27282F8A83E114F104010511059D
:1026200019F482E0898337C08EE190E09C838B832C
:10263000222389F080E0E81680E0F80680E00807B1
:1026400080E8180769F110950095F094E094E11C7A
:10265000F11C011D111DED82FE820F831887C80138
:10266000B7010E9422149C0121503040121613061B
:1026700094F4022E04C0EE0CFF1C001F111F0A94DC
:10268000D2F7ED82FE820F8318878EE190E0821BE5
:10269000930B9C838B83CE0101960E947C1404C013
:1026A00060E070E080E09FEC2896E6E00C94A416D1
:1026B000ACE0B0E0EEE5F3E10C948C1669837A832C
:1026C0008B839C83CE010196BE016B5F7F4F0E947E
:1026D0004A158D81823081F1823070F1843021F48D
:1026E0008E81882369F10AC02F81388537FD24C087
:1026F0006E812F3131053CF0662311F120E030E08E
:1027000040E050E821C08EE190E0821B930B2985C8
:102710003A854B855C8504C0569547953795279536
:102720008A95D2F7662381F0509540953095219592
:102730003F4F4F4F5F4F08C020E030E0A90104C079
:102740002FEF3FEF4FEF5FE7B901CA012C96E2E0B0
:102750000C94A816A8E0B0E0E0EBF3E10C94861628
:102760007B018C011A82611571058105910519F4AF
:1027700082E089835FC083E089838EE1C82ED12CFB
:10278000DC82CB82ED82FE820F831887C801B701FD
:102790000E942214FC013197F7FF3AC0AA27BB27F9
:1027A000AE1BBF0B21E030E040E050E00A2E04C039
:1027B000220F331F441F551F0A94D2F72150304077
:1027C000404050402E213F214023512361E070E0E2
:1027D00080E090E0211531054105510519F460E0D4
:1027E00070E0CB0104C016950795F794E794AA957D
:1027F000D2F7E62AF72A082B192BED82FE820F83E7
:1028000018878EE190E08E1B9F0B9C838B8312C0F8
:10281000309781F00E2E04C0EE0CFF1C001F111F1C
:102820000A94D2F7ED82FE820F831887CE1ADF0A50
:10283000DC82CB82CE0101960E947C142896E8E0CF
:102840000C94A216AF92BF92CF92DF92EF92FF92BA
:102850000F931F937B018C0180E0E81680E0F8065F
:1028600081E0080780E0180758F4EFEFEE16F10456
:102870000105110509F090F480E090E0DC0117C03B
:10288000F0E0EF16F0E0FF06F0E00F07F1E01F07C1
:1028900050F480E190E0A0E0B0E009C088E090E072
:1028A000A0E0B0E004C088E190E0A0E0B0E020E269
:1028B00030E040E050E0281B390B4A0B5B0B57011E
:1028C000680104C0D694C794B794A7948A95D2F7A8
:1028D000D601C50188599F4FFC018081281B310911
:1028E00041095109C9011F910F91FF90EF90DF90AD
:1028F000CF90BF90AF900895EF92FF920F931F93E8
:10290000CF93DF93FC01248135814681578161811A
:102910008081823020F44061EFEFF0E0A3C084308A
:1029200009F49BC0823009F492C02115310541059C
:10293000510509F48FC00280F381E02D8FEFE2385A
:10294000F8070CF05AC0C2E8DFEFCE1BDF0BCA312C
:10295000D1056CF579018A010C2E04C016950795F6
:10296000F794E7940A94D2F781E090E0A0E0B0E019
:102970000C2E04C0880F991FAA1FBB1F0A94D2F700
:102980000197A109B10982239323A423B52321E050
:1029900030E040E050E00097A105B10519F420E0D7
:1029A00030E0A9012E293F29402B512B03C020E004
:1029B00030E0A901DA01C9018F779070A070B07082
:1029C00080349105A105B10539F427FF09C0205CC9
:1029D0003F4F4F4F5F4F04C0215C3F4F4F4F5F4F02
:1029E000E1E0F0E0203080E0380780E0480780E454
:1029F000580728F5E0E0F0E022C0E038F1056CF57A
:102A0000E158FF4FDA01C9018F779070A070B07064
:102A100080349105A105B10539F427FF09C0205C78
:102A20003F4F4F4F5F4F04C0215C3F4F4F4F5F4FB1
:102A300057FF05C05695479537952795319687E0FE
:102A400056954795379527958A95D1F70BC0E0E0C5
:102A5000F0E005C0E0E0F0E005C0EFEFF0E020E0DE
:102A600030E0A9018E2F879588278795942F9F772F
:102A7000679566276795E695E22EA92FA82BFE2F6E
:102A8000F62B622F732F8A2F9F2FCDB7DEB7E6E08C
:102A90000C94A416DC01FB012C9111963C9111972A
:102AA00012968C911297482F4F7750E0982F991FCC
:102AB0009927991F13966C911397862F880F892B4E
:102AC00090E0661F6627661F6183009739F5211520
:102AD00031054105510511F482E029C082E89FEFDC
:102AE0009383828367E0220F331F441F551F6A952B
:102AF000D1F783E0808309C0220F331F441F551F85
:102B000082819381019793838283203080E038070C
:102B100080E0480780E4580778F320C08F3F910594
:102B200079F4211531054105510519F484E08083BC
:102B3000089544FF03C081E0808310C010820EC05E
:102B40008F5790409383828383E0808387E0220FB6
:102B5000331F441F551F8A95D1F750642483358352
:102B6000468357830895FC01DB019081923008F47D
:102B700049C08C91823008F445C0943051F4618191
:102B80008430B1F511962C91119730E0261B310954
:102B900041C0843021F0923041F48230B1F111967D
:102BA0008C9111978823A1F12DC06181823001F1B0
:102BB00011968C9111976817D9F42281338112965E
:102BC0008D919C9113978217930794F028173907DA
:102BD000BCF0248135814681578114968D919D9159
:102BE0000D90BC91A02D82179307A407B50718F488
:102BF000662341F00DC0281739074A075B0728F400
:102C0000662331F021E030E005C020E030E002C072
:102C10002FEF3FEFC9010895629FD001739FF0012C
:102C2000829FE00DF11D649FE00DF11D929FF00D5C
:102C3000839FF00D749FF00D659FF00D9927729F93
:102C4000B00DE11DF91F639FB00DE11DF91FBD011E
:102C5000CF0111240895AA1BBB1B51E107C0AA1F75
:102C6000BB1FA617B70710F0A61BB70B881F991F2D
:102C70005A95A9F780959095BC01CD010895A1E2E0
:102C80001A2EAA1BBB1BFD010DC0AA1FBB1FEE1FE6
:102C9000FF1FA217B307E407F50720F0A21BB30B31
:102CA000E40BF50B661F771F881F991F1A9469F7AD
:102CB00060957095809590959B01AC01BD01CF0109
:102CC000089597FB092E05260ED057FD04D0D7DFB7
:102CD0000AD0001C38F450954095309521953F4F0F
:102CE0004F4F5F4F0895F6F79095809570956195D9
:102CF0007F4F8F4F9F4F08952F923F924F925F9239
:102D00006F927F928F929F92AF92BF92CF92DF92FB
:102D1000EF92FF920F931F93CF93DF93CDB7DEB760
:102D2000CA1BDB0B0FB6F894DEBF0FBECDBF0994F4
:102D30002A88398848885F846E847D848C849B844B
:102D4000AA84B984C884DF80EE80FD800C811B8159
:102D5000AA81B981CE0FD11D0FB6F894DEBF0FBE88
:102D6000CDBFED010895FB019F01E8944230C4F00E
:102D70004532B4F44A3029F497FB1EF490958195BE
:102D80009F4F642F77270E942B16805D8A330CF0AB
:102D9000895D8193CB010097A1F716F45DE2519311
:102DA0001082C9010C948A17FA01CF93FF93EF9315
:102DB000223044F1253234F5C22FE894CA3049F468
:102DC00097FB3EF490958095709561957F4F8F4F5E
:102DD0009F4F2C2F332744275527FF93EF930E94B3
:102DE0003F16EF91FF91605D6A330CF0695D61936E
:102DF000B901CA01605070408040904051F716F40C
:102E0000CDE2C19310828F919F91CF910C948A173C
:102E1000FB019F01423074F0453264F4642F772740
:102E20000E942B16805D8A330CF0895D8193CB0163
:102E30000097A1F71082C9010C948A17FA01EE0FCE
:102E4000FF1F30962105310599F16115710561F477
:102E50008038BFE39B0749F168949038810561F0A1
:102E60008038BFEF9B0741F0992342F5FF3FE10512
:102E70003105210511F1E8940894E795D901AA23B9
:102E800029F4AB2FBE2FF85FD0F310C0FF5F70F4B2
:102E9000A695E0F7F73950F019F0FF3A38F49F772C
:102EA0009F930CD00F9007FC905808953EF0A2C05D
:102EB00060E070E080E89FE308954FE79F775F93BD
:102EC0004F933F932F9329D12F913F914F915F9132
:102ED000B7D935C0BFD0E0F09E37D8F09639B8F4F6
:102EE0009E3848F4672F782F8827985FF9CF86950A
:102EF0007795679593959539D0F3B62FB1706B0F91
:102F0000711D811D20F4879577956795939549C02C
:102F100063C0BBC0DC01FC01672F71917723E1F72F
:102F2000329704C07C916D9370836291AE17BF0796
:102F3000C8F3089519F40EF02EC0A6C05BC08AD065
:102F4000C8F39638C0F707F80F92E8942BE33AEAF3
:102F500048EB5FE761D10F920F920F924DB75EB7CA
:102F60000F921BD1E4E5F0E048D04F915F91EF91D3
:102F7000FF91E595EE1FFF1F49F0FE57E0684427DB
:102F8000EE0F441FFA95E1F74195550B8DD00F9048
:102F900007FE81C0089597F99F6780E870E060E0C0
:102FA0000895882371F4772321F09850872B762F8A
:102FB00007C0662311F499270DC09051862B70E04D
:102FC00060E02AF09A95660F771F881FDAF7880F5E
:102FD0009695879597F908959F3F31F0915020F489
:102FE000879577956795B795880F911D96958795E5
:102FF00097F908959FEF80EC0895DF93CF931F9387
:103000000F93FF92EF92DF927B018C01689405C0D1
:10301000DA2EEF01FFD0FE01E894A59125913591BC
:1030200045915591AEF3EF0159D1FE019701A801E9
:10303000DA9479F7DF90EF90FF900F911F91CF9185
:10304000DF91089557FD9058440F551F59F05F3F89
:1030500071F04795880F97FB991F61F09F3F79F0BA
:1030600087950895121613061406551FF2CF46953C
:10307000F1DF08C0161617061806991FF1CF8695BE
:103080007105610508940895E894BB2766277727A2
:10309000CB0197F908959B01AC0160E070E080E8F6
:1030A0009FE3C8C978CF98CFD5DFE8F39923D9F348
:1030B000940F511DBBF39150504094F059F0882368
:1030C00032F0660F771F881F91505040C1F79E3F26
:1030D000510544F7880F911D9695879597F90895A6
:1030E0005F3FACF0983E9CF0BB278695779567953F
:1030F000B79508F4B1609395C1F7BB0F58F711F479
:1031000060FFE8CF6F5F7F4F8F4F9F4FE3CFBDCF03
:103110000EF062CF6FCF68943ECF9CDFC8F3992347
:10312000D1F3C6F3DF93CF931F930F93FF92C92F71
:10313000DD2788232AF02197660F771F881FDAF78B
:1031400020E030E040E85FEB9FE3883920F0803EEC
:1031500030F021968F7716D8ECE7F0E003C012D854
:10316000E9EAF0E04ADF8B01BE01EC01FB2E6F576C
:1031700071097595771F880B990B3ADA28E132E7C8
:1031800041E35FE347D0AF2D9801AE01FF900F916F
:103190001F91CF91DF91A2D002C1FA01DC01AA0FE9
:1031A000BB1F9B01AC01BF5728F4222733274427BC
:1031B00050781FC0B75188F4AB2F0024469537953F
:1031C0002795011CA395D2F3002069F0220F331F2D
:1031D000441FB395DAF30DD002C861307105A0E841
:1031E0008A07B94630F49B01AC0166277727882708
:1031F0009078309621F02083318342835383089561
:10320000C0D028F0C5D018F0952309F0C4CEF2CE76
:1032100011243BCF17DFA0F3959FD1F3950F50E01A
:10322000551F629FF001729FBB27F00DB11D639F78
:10323000AA27F00DB11DAA1F649F6627B00DA11D1E
:10324000661F829F2227B00DA11D621F739FB00DC4
:10325000A11D621F839FA00D611D221F749F332734
:10326000A00D611D231F849F600D211D822F762FCD
:103270006A2F11249F5750408AF0E1F088234AF0CA
:10328000EE0FFF1FBB1F661F771F881F9150504016
:10329000A9F79E3F510570F07ECEF7CE5F3FECF36D
:1032A000983EDCF3869577956795B795F795E79502
:1032B0009F5FC1F7FE2B880F911D9695879597F913
:1032C00008955FD030F064D020F031F49F3F11F4C6
:1032D0001EF490CE0EF4E095E7FB5DCEE92FB2DE52
:1032E00080F3BA17620773078407950718F071F423
:1032F0009EF5CACE0EF4E0950B2EBA2FA02D0B0131
:10330000B90190010C01CA01A0011124FF27591B2A
:1033100099F0593F50F4503E68F11A16F040A22F30
:10332000232F342F4427585FF3CF469537952795A1
:10333000A795F0405395C9F77EF41F16BA0B620BA0
:10334000730B840BBAF09150A1F0FF0FBB1F661FE7
:10335000771F881FC2F70EC0BA0F621F731F841F2A
:1033600048F4879577956795B795F7959E3F08F050
:10337000B3CF9395880F08F09927EE0F979587950F
:10338000089500240A9416161706180609060895CB
:1033900000240A9412161306140605060895092E31
:1033A0000394000C11F4882352F0BB0F40F4BF2BA0
:1033B00011F460FF04C06F5F7F4F8F4F9F4F0895E0
:0433C000F894FFCFAF
:1033C40000000000000000000001020203030303E8
:1033D40004040404040404040505050505050505A1
:1033E4000505050505050505060606060606060681
:1033F4000606060606060606060606060606060669
:103404000606060606060606070707070707070750
:103414000707070707070707070707070707070738
:103424000707070707070707070707070707070728
:103434000707070707070707070707070707070718
:103444000707070707070707080808080808080800
:1034540008080808080808080808080808080808E8
:1034640008080808080808080808080808080808D8
:1034740008080808080808080808080808080808C8
:1034840008080808080808080808080808080808B8
:1034940008080808080808080808080808080808A8
:1034A4000808080808080808080808080808080898
:1034B4000808080808080808080808080808080888
:0834C4000808080808080808C0
:00000001FF
