:100000000C942A000C9447000C9447000C94470071
:100010000C9447000C9447000C9447000C94470044
:100020000C9447000C9447000C9449000C94470032
:100030000C9447000C9447000C9447000C94470024
:100040000C9447000C9447000C9447000C94470014
:100050000C94470011241FBECFE5D8E0DEBFCDBF12
:1000600010E0A0E6B0E0E0E7F4E002C005900D92F9
:10007000A237B107D9F710E0A2E7B0E001C01D92A6
:10008000A337B107E1F70E945A000C9436020C9492
:1000900000001F920F920FB60F9211248F93809140
:1000A00072008F5F809372008F910F900FBE0F9040
:1000B0001F9018952F923F924F925F926F927F926E
:1000C0008F929F92AF92BF92CF92DF92EF92FF9268
:1000D0000F931F93DF93CF93CDB7DEB729970FB65A
:1000E000F894DEBF0FBECDBFD09AD89A0E94880187
:1000F0000E94C90180E690E00E94E70189ED0E941C
:10010000F401DE011196E8E6F0E089E001900D923D
:100110008150E1F762E00E94D101CE0101960E9478
:10012000E701789490E010E000E060E3C62E58E02C
:10013000A52EB12CAC0EBD1E7E010894E11CF11C55
:1001400045E0842E912C8C0E9D1E32E0232E312C06
:100150002C0E3D1E24E0422E512C4C0E5D1E87E0DD
:10016000682E712C6C0E7D1E809172008231E1F739
:1001700010927200F8941C3308F042C09C33C8F40B
:10018000D92ED3949A3028F4CF82892F90E0B501EC
:1001900003C0892F90E0B3014AE050E00E94FC01C7
:1001A00080E062E00E94D101C7010E94E7019D2D1D
:1001B00061C0CF8280E090E0B5014AE050E00E944B
:1001C000FC0180E062E00E94D101C7010E94E701CA
:1001D0001F5F1A3028F4CC82812F90E0B40103C055
:1001E000812F90E0B2014AE050E00E94FC0180E0E3
:1001F00062E00E94D101C7010E94E70191E03AC08C
:10020000CF8280E090E0B5014AE050E00E94FC011E
:1002100080E062E00E94D101C7010E94E701CC8228
:1002200080E090E0B4014AE050E00E94FC0180E0F0
:1002300062E00E94D101C7010E94E7010F5F08310F
:1002400010F000E002C00A3028F4C982802F90E04C
:10025000B10103C0802F90E0B7014AE050E00E9456
:10026000FC0180E062E00E94D101C7010E94E70129
:1002700091E011E0789478CF929A92B39F7092BBFC
:1002800022B3982F907F922B92BB939A21E0922FCA
:100290009A95F1F7939892B39F7092BB92B382951F
:1002A000807F982B92BB939A2A95F1F7939888E3D5
:1002B0008A95F1F70895929892B39F7092BB22B3FA
:1002C000982F907F922B92BB939A21E0922F9A9530
:1002D000F1F7939892B39F7092BB92B38295807F0F
:1002E000982B92BB939A2A95F1F7939888E38A9575
:1002F000F1F70895939A81E08A95F1F7939808951C
:1003000081E00E945B0188E893E10197F1F708958D
:1003100081B38C6F81BB80E395E70197F1F782B3DE
:100320008F7082BB82B3806382BB9298939A91E074
:10033000892F8A95F1F79398E8E8F3E13197F1F77F
:10034000939A892F8A95F1F7939828EE33E0F90173
:100350003197F1F7939A892F8A95F1F79398F901DC
:100360003197F1F782B38F7082BB959A939A9A95E1
:10037000F1F79398C9010197F1F788E20E945B01B8
:100380008CE00E945B0186E00E945B010E9480017C
:10039000089582E00E945B0188E893E10197F1F7FC
:1003A0000895623061F0633018F4613079F405C06B
:1003B000633039F0643051F406C0805805C0805471
:1003C00003C0805701C080530E945B010895CF9302
:1003D000DF93EC0103C00E943C01219688818823B1
:1003E000D1F7DF91CF91089593B79D6093BF8CBFF4
:1003F00089B7826089BF0895FB019F01423074F084
:10040000453264F4642F77270E942202805D8A338C
:100410000CF0895D8193CB010097A1F71082C9018F
:100420000C941202DC01FC01672F71917723E1F734
:10043000329704C07C916D9370836291AE17BF07B1
:10044000C8F30895AA1BBB1B51E107C0AA1FBB1F1D
:10045000A617B70710F0A61BB70B881F991F5A9550
:10046000A9F780959095BC01CD010895F894FFCF30
:100470005548525A4549540030303A30303A3030BD
:0204800000007A
:00000001FF
